{
	"ehr.sol": {
		"EHRSystem": {
			"abi": [
				{
					"inputs": [],
					"stateMutability": "nonpayable",
					"type": "constructor"
				},
				{
					"inputs": [
						{
							"internalType": "string",
							"name": "_name",
							"type": "string"
						},
						{
							"internalType": "string",
							"name": "_department",
							"type": "string"
						},
						{
							"internalType": "address",
							"name": "_docaddress",
							"type": "address"
						}
					],
					"name": "addDoctor",
					"outputs": [],
					"stateMutability": "nonpayable",
					"type": "function"
				},
				{
					"inputs": [
						{
							"internalType": "address",
							"name": "_doctorAddress",
							"type": "address"
						},
						{
							"internalType": "address[]",
							"name": "_associatedHospitals",
							"type": "address[]"
						}
					],
					"name": "addDoctorToHospital",
					"outputs": [],
					"stateMutability": "nonpayable",
					"type": "function"
				},
				{
					"inputs": [
						{
							"internalType": "string",
							"name": "_name",
							"type": "string"
						},
						{
							"internalType": "address",
							"name": "_hospitalAddress",
							"type": "address"
						}
					],
					"name": "addOrganization",
					"outputs": [],
					"stateMutability": "nonpayable",
					"type": "function"
				},
				{
					"inputs": [
						{
							"internalType": "address",
							"name": "_hospitalAddress",
							"type": "address"
						}
					],
					"name": "associateDoctorWithHospital",
					"outputs": [],
					"stateMutability": "nonpayable",
					"type": "function"
				},
				{
					"inputs": [
						{
							"internalType": "address",
							"name": "_hospitalAddress",
							"type": "address"
						}
					],
					"name": "chooseHospital",
					"outputs": [],
					"stateMutability": "nonpayable",
					"type": "function"
				},
				{
					"inputs": [
						{
							"internalType": "address",
							"name": "_doctorAddress",
							"type": "address"
						}
					],
					"name": "displayDoctor",
					"outputs": [
						{
							"internalType": "string",
							"name": "",
							"type": "string"
						},
						{
							"internalType": "string",
							"name": "",
							"type": "string"
						}
					],
					"stateMutability": "view",
					"type": "function"
				},
				{
					"inputs": [],
					"name": "getDoctorAssociatedHospitals",
					"outputs": [
						{
							"internalType": "address[]",
							"name": "",
							"type": "address[]"
						}
					],
					"stateMutability": "view",
					"type": "function"
				},
				{
					"inputs": [
						{
							"internalType": "uint256",
							"name": "_aadharNumber",
							"type": "uint256"
						}
					],
					"name": "getPatientDetails",
					"outputs": [
						{
							"internalType": "string",
							"name": "",
							"type": "string"
						},
						{
							"internalType": "uint256",
							"name": "",
							"type": "uint256"
						},
						{
							"internalType": "uint256",
							"name": "",
							"type": "uint256"
						},
						{
							"internalType": "uint256",
							"name": "",
							"type": "uint256"
						},
						{
							"internalType": "uint256",
							"name": "",
							"type": "uint256"
						},
						{
							"internalType": "string",
							"name": "",
							"type": "string"
						},
						{
							"internalType": "string",
							"name": "",
							"type": "string"
						}
					],
					"stateMutability": "view",
					"type": "function"
				},
				{
					"inputs": [
						{
							"internalType": "uint256",
							"name": "_aadharNumber",
							"type": "uint256"
						}
					],
					"name": "getPatientMedicalRecords",
					"outputs": [
						{
							"components": [
								{
									"internalType": "string",
									"name": "report",
									"type": "string"
								},
								{
									"internalType": "string",
									"name": "prescription",
									"type": "string"
								},
								{
									"internalType": "uint256",
									"name": "timestamp",
									"type": "uint256"
								},
								{
									"internalType": "address",
									"name": "doctor",
									"type": "address"
								},
								{
									"internalType": "address",
									"name": "hospital",
									"type": "address"
								}
							],
							"internalType": "struct EHRSystem.MedicalRecord[]",
							"name": "",
							"type": "tuple[]"
						}
					],
					"stateMutability": "view",
					"type": "function"
				},
				{
					"inputs": [
						{
							"internalType": "string",
							"name": "_name",
							"type": "string"
						},
						{
							"internalType": "uint256",
							"name": "_age",
							"type": "uint256"
						},
						{
							"internalType": "uint256",
							"name": "_dob",
							"type": "uint256"
						},
						{
							"internalType": "uint256",
							"name": "_aadharnumber",
							"type": "uint256"
						},
						{
							"internalType": "uint256",
							"name": "_height",
							"type": "uint256"
						},
						{
							"internalType": "uint256",
							"name": "_weight",
							"type": "uint256"
						},
						{
							"internalType": "string",
							"name": "_addressInfo",
							"type": "string"
						},
						{
							"internalType": "string",
							"name": "_phoneNumber",
							"type": "string"
						}
					],
					"name": "registerPatient",
					"outputs": [],
					"stateMutability": "nonpayable",
					"type": "function"
				}
			],
			"devdoc": {
				"kind": "dev",
				"methods": {},
				"version": 1
			},
			"evm": {
				"assembly": "    /* \"ehr.sol\":60:7340  contract EHRSystem {... */\n  mstore(0x40, 0x80)\n    /* \"ehr.sol\":2179:2314  constructor() {... */\n  callvalue\n  dup1\n  iszero\n  tag_1\n  jumpi\n  0x00\n  dup1\n  revert\ntag_1:\n  pop\n    /* \"ehr.sol\":2211:2221  msg.sender */\n  caller\n    /* \"ehr.sol\":2204:2209  admin */\n  0x00\n  dup1\n    /* \"ehr.sol\":2204:2221  admin =msg.sender */\n  0x0100\n  exp\n  dup2\n  sload\n  dup2\n  0xffffffffffffffffffffffffffffffffffffffff\n  mul\n  not\n  and\n  swap1\n  dup4\n  0xffffffffffffffffffffffffffffffffffffffff\n  and\n  mul\n  or\n  swap1\n  sstore\n  pop\n    /* \"ehr.sol\":2252:2253  0 */\n  0x00\n    /* \"ehr.sol\":2232:2249  organizationCount */\n  0x01\n    /* \"ehr.sol\":2232:2253  organizationCount = 0 */\n  dup2\n  swap1\n  sstore\n  pop\n    /* \"ehr.sol\":2278:2279  0 */\n  0x00\n    /* \"ehr.sol\":2264:2275  doctorCount */\n  0x02\n    /* \"ehr.sol\":2264:2279  doctorCount = 0 */\n  dup2\n  swap1\n  sstore\n  pop\n    /* \"ehr.sol\":2305:2306  0 */\n  0x00\n    /* \"ehr.sol\":2290:2302  patientCount */\n  0x03\n    /* \"ehr.sol\":2290:2306  patientCount = 0 */\n  dup2\n  swap1\n  sstore\n  pop\n    /* \"ehr.sol\":60:7340  contract EHRSystem {... */\n  dataSize(sub_0)\n  dup1\n  dataOffset(sub_0)\n  0x00\n  codecopy\n  0x00\n  return\nstop\n\nsub_0: assembly {\n        /* \"ehr.sol\":60:7340  contract EHRSystem {... */\n      mstore(0x40, 0x80)\n      callvalue\n      dup1\n      iszero\n      tag_1\n      jumpi\n      0x00\n      dup1\n      revert\n    tag_1:\n      pop\n      jumpi(tag_2, lt(calldatasize, 0x04))\n      shr(0xe0, calldataload(0x00))\n      dup1\n      0x76017e5e\n      gt\n      tag_13\n      jumpi\n      dup1\n      0x76017e5e\n      eq\n      tag_8\n      jumpi\n      dup1\n      0x9475c163\n      eq\n      tag_9\n      jumpi\n      dup1\n      0xaabaa4ff\n      eq\n      tag_10\n      jumpi\n      dup1\n      0xb333c308\n      eq\n      tag_11\n      jumpi\n      dup1\n      0xf3c894d6\n      eq\n      tag_12\n      jumpi\n      jump(tag_2)\n    tag_13:\n      dup1\n      0x300c601c\n      eq\n      tag_3\n      jumpi\n      dup1\n      0x32092bab\n      eq\n      tag_4\n      jumpi\n      dup1\n      0x3772b992\n      eq\n      tag_5\n      jumpi\n      dup1\n      0x4949e03e\n      eq\n      tag_6\n      jumpi\n      dup1\n      0x4b485bf4\n      eq\n      tag_7\n      jumpi\n    tag_2:\n      0x00\n      dup1\n      revert\n        /* \"ehr.sol\":5164:5651  function getPatientDetails(uint256 _aadharNumber) external view onlyPatient(_aadharNumber)... */\n    tag_3:\n      tag_14\n      0x04\n      dup1\n      calldatasize\n      sub\n      dup2\n      add\n      swap1\n      tag_15\n      swap2\n      swap1\n      tag_16\n      jump\t// in\n    tag_15:\n      tag_17\n      jump\t// in\n    tag_14:\n      mload(0x40)\n      tag_18\n      swap8\n      swap7\n      swap6\n      swap5\n      swap4\n      swap3\n      swap2\n      swap1\n      tag_19\n      jump\t// in\n    tag_18:\n      mload(0x40)\n      dup1\n      swap2\n      sub\n      swap1\n      return\n        /* \"ehr.sol\":7107:7337  function getPatientMedicalRecords(uint256 _aadharNumber) external view onlyPatient(_aadharNumber)... */\n    tag_4:\n      tag_20\n      0x04\n      dup1\n      calldatasize\n      sub\n      dup2\n      add\n      swap1\n      tag_21\n      swap2\n      swap1\n      tag_16\n      jump\t// in\n    tag_21:\n      tag_22\n      jump\t// in\n    tag_20:\n      mload(0x40)\n      tag_23\n      swap2\n      swap1\n      tag_24\n      jump\t// in\n    tag_23:\n      mload(0x40)\n      dup1\n      swap2\n      sub\n      swap1\n      return\n        /* \"ehr.sol\":4823:5155  function displayDoctor(address _doctorAddress) external view returns (string memory, string memory) {... */\n    tag_5:\n      tag_25\n      0x04\n      dup1\n      calldatasize\n      sub\n      dup2\n      add\n      swap1\n      tag_26\n      swap2\n      swap1\n      tag_27\n      jump\t// in\n    tag_26:\n      tag_28\n      jump\t// in\n    tag_25:\n      mload(0x40)\n      tag_29\n      swap3\n      swap2\n      swap1\n      tag_30\n      jump\t// in\n    tag_29:\n      mload(0x40)\n      dup1\n      swap2\n      sub\n      swap1\n      return\n        /* \"ehr.sol\":5659:6041  function chooseHospital(address _hospitalAddress) external onlyDoctor {... */\n    tag_6:\n      tag_31\n      0x04\n      dup1\n      calldatasize\n      sub\n      dup2\n      add\n      swap1\n      tag_32\n      swap2\n      swap1\n      tag_27\n      jump\t// in\n    tag_32:\n      tag_33\n      jump\t// in\n    tag_31:\n      stop\n        /* \"ehr.sol\":2882:3163  function associateDoctorWithHospital(address _hospitalAddress) external onlyDoctor {... */\n    tag_7:\n      tag_34\n      0x04\n      dup1\n      calldatasize\n      sub\n      dup2\n      add\n      swap1\n      tag_35\n      swap2\n      swap1\n      tag_27\n      jump\t// in\n    tag_35:\n      tag_36\n      jump\t// in\n    tag_34:\n      stop\n        /* \"ehr.sol\":2579:2874  function addDoctor(string memory _name, string memory _department, address _docaddress) external onlyAdmin {... */\n    tag_8:\n      tag_37\n      0x04\n      dup1\n      calldatasize\n      sub\n      dup2\n      add\n      swap1\n      tag_38\n      swap2\n      swap1\n      tag_39\n      jump\t// in\n    tag_38:\n      tag_40\n      jump\t// in\n    tag_37:\n      stop\n        /* \"ehr.sol\":2322:2571  function addOrganization(string memory _name, address _hospitalAddress) external onlyAdmin {... */\n    tag_9:\n      tag_41\n      0x04\n      dup1\n      calldatasize\n      sub\n      dup2\n      add\n      swap1\n      tag_42\n      swap2\n      swap1\n      tag_43\n      jump\t// in\n    tag_42:\n      tag_44\n      jump\t// in\n    tag_41:\n      stop\n        /* \"ehr.sol\":4212:4811  function registerPatient(string memory _name, uint256 _age, uint256 _dob, uint256 _aadharnumber, uint256 _height, uint256 _weight, string memory _addressInfo, string memory _phoneNumber) external {... */\n    tag_10:\n      tag_45\n      0x04\n      dup1\n      calldatasize\n      sub\n      dup2\n      add\n      swap1\n      tag_46\n      swap2\n      swap1\n      tag_47\n      jump\t// in\n    tag_46:\n      tag_48\n      jump\t// in\n    tag_45:\n      stop\n        /* \"ehr.sol\":3564:3810  function getDoctorAssociatedHospitals() external view returns (address[] memory) {... */\n    tag_11:\n      tag_49\n      tag_50\n      jump\t// in\n    tag_49:\n      mload(0x40)\n      tag_51\n      swap2\n      swap1\n      tag_52\n      jump\t// in\n    tag_51:\n      mload(0x40)\n      dup1\n      swap2\n      sub\n      swap1\n      return\n        /* \"ehr.sol\":3171:3556  function addDoctorToHospital(address _doctorAddress, address[] calldata _associatedHospitals) external onlyOrganization {... */\n    tag_12:\n      tag_53\n      0x04\n      dup1\n      calldatasize\n      sub\n      dup2\n      add\n      swap1\n      tag_54\n      swap2\n      swap1\n      tag_55\n      jump\t// in\n    tag_54:\n      tag_56\n      jump\t// in\n    tag_53:\n      stop\n        /* \"ehr.sol\":5164:5651  function getPatientDetails(uint256 _aadharNumber) external view onlyPatient(_aadharNumber)... */\n    tag_17:\n        /* \"ehr.sol\":5269:5282  string memory */\n      0x60\n        /* \"ehr.sol\":5284:5291  uint256 */\n      0x00\n        /* \"ehr.sol\":5293:5300  uint256 */\n      dup1\n        /* \"ehr.sol\":5302:5309  uint256 */\n      0x00\n        /* \"ehr.sol\":5311:5318  uint256 */\n      dup1\n        /* \"ehr.sol\":5320:5333  string memory */\n      0x60\n        /* \"ehr.sol\":5335:5348  string memory */\n      dup1\n        /* \"ehr.sol\":5240:5253  _aadharNumber */\n      dup8\n        /* \"ehr.sol\":2100:2110  msg.sender */\n      caller\n        /* \"ehr.sol\":2066:2110  aadharToPatient[_aadharNumber] == msg.sender */\n      0xffffffffffffffffffffffffffffffffffffffff\n      and\n        /* \"ehr.sol\":2066:2081  aadharToPatient */\n      0x08\n        /* \"ehr.sol\":2066:2096  aadharToPatient[_aadharNumber] */\n      0x00\n        /* \"ehr.sol\":2082:2095  _aadharNumber */\n      dup4\n        /* \"ehr.sol\":2066:2096  aadharToPatient[_aadharNumber] */\n      dup2\n      mstore\n      0x20\n      add\n      swap1\n      dup2\n      mstore\n      0x20\n      add\n      0x00\n      keccak256\n      0x00\n      swap1\n      sload\n      swap1\n      0x0100\n      exp\n      swap1\n      div\n      0xffffffffffffffffffffffffffffffffffffffff\n      and\n        /* \"ehr.sol\":2066:2110  aadharToPatient[_aadharNumber] == msg.sender */\n      0xffffffffffffffffffffffffffffffffffffffff\n      and\n      eq\n        /* \"ehr.sol\":2058:2151  require(aadharToPatient[_aadharNumber] == msg.sender, \"You can only access your own records\") */\n      tag_58\n      jumpi\n      mload(0x40)\n      0x08c379a000000000000000000000000000000000000000000000000000000000\n      dup2\n      mstore\n      0x04\n      add\n      tag_59\n      swap1\n      tag_60\n      jump\t// in\n    tag_59:\n      mload(0x40)\n      dup1\n      swap2\n      sub\n      swap1\n      revert\n    tag_58:\n        /* \"ehr.sol\":5361:5383  Patient memory patient */\n      0x00\n        /* \"ehr.sol\":5386:5394  patients */\n      0x07\n        /* \"ehr.sol\":5386:5409  patients[_aadharNumber] */\n      0x00\n        /* \"ehr.sol\":5395:5408  _aadharNumber */\n      dup12\n        /* \"ehr.sol\":5386:5409  patients[_aadharNumber] */\n      dup2\n      mstore\n      0x20\n      add\n      swap1\n      dup2\n      mstore\n      0x20\n      add\n      0x00\n      keccak256\n        /* \"ehr.sol\":5361:5409  Patient memory patient = patients[_aadharNumber] */\n      mload(0x40)\n      dup1\n      0x0100\n      add\n      0x40\n      mstore\n      swap1\n      dup2\n      0x00\n      dup3\n      add\n      dup1\n      sload\n      tag_62\n      swap1\n      tag_63\n      jump\t// in\n    tag_62:\n      dup1\n      0x1f\n      add\n      0x20\n      dup1\n      swap2\n      div\n      mul\n      0x20\n      add\n      mload(0x40)\n      swap1\n      dup2\n      add\n      0x40\n      mstore\n      dup1\n      swap3\n      swap2\n      swap1\n      dup2\n      dup2\n      mstore\n      0x20\n      add\n      dup3\n      dup1\n      sload\n      tag_64\n      swap1\n      tag_63\n      jump\t// in\n    tag_64:\n      dup1\n      iszero\n      tag_65\n      jumpi\n      dup1\n      0x1f\n      lt\n      tag_66\n      jumpi\n      0x0100\n      dup1\n      dup4\n      sload\n      div\n      mul\n      dup4\n      mstore\n      swap2\n      0x20\n      add\n      swap2\n      jump(tag_65)\n    tag_66:\n      dup3\n      add\n      swap2\n      swap1\n      0x00\n      mstore\n      keccak256(0x00, 0x20)\n      swap1\n    tag_67:\n      dup2\n      sload\n      dup2\n      mstore\n      swap1\n      0x01\n      add\n      swap1\n      0x20\n      add\n      dup1\n      dup4\n      gt\n      tag_67\n      jumpi\n      dup3\n      swap1\n      sub\n      0x1f\n      and\n      dup3\n      add\n      swap2\n    tag_65:\n      pop\n      pop\n      pop\n      pop\n      pop\n      dup2\n      mstore\n      0x20\n      add\n      0x01\n      dup3\n      add\n      sload\n      dup2\n      mstore\n      0x20\n      add\n      0x02\n      dup3\n      add\n      sload\n      dup2\n      mstore\n      0x20\n      add\n      0x03\n      dup3\n      add\n      sload\n      dup2\n      mstore\n      0x20\n      add\n      0x04\n      dup3\n      add\n      sload\n      dup2\n      mstore\n      0x20\n      add\n      0x05\n      dup3\n      add\n      sload\n      dup2\n      mstore\n      0x20\n      add\n      0x06\n      dup3\n      add\n      dup1\n      sload\n      tag_68\n      swap1\n      tag_63\n      jump\t// in\n    tag_68:\n      dup1\n      0x1f\n      add\n      0x20\n      dup1\n      swap2\n      div\n      mul\n      0x20\n      add\n      mload(0x40)\n      swap1\n      dup2\n      add\n      0x40\n      mstore\n      dup1\n      swap3\n      swap2\n      swap1\n      dup2\n      dup2\n      mstore\n      0x20\n      add\n      dup3\n      dup1\n      sload\n      tag_69\n      swap1\n      tag_63\n      jump\t// in\n    tag_69:\n      dup1\n      iszero\n      tag_70\n      jumpi\n      dup1\n      0x1f\n      lt\n      tag_71\n      jumpi\n      0x0100\n      dup1\n      dup4\n      sload\n      div\n      mul\n      dup4\n      mstore\n      swap2\n      0x20\n      add\n      swap2\n      jump(tag_70)\n    tag_71:\n      dup3\n      add\n      swap2\n      swap1\n      0x00\n      mstore\n      keccak256(0x00, 0x20)\n      swap1\n    tag_72:\n      dup2\n      sload\n      dup2\n      mstore\n      swap1\n      0x01\n      add\n      swap1\n      0x20\n      add\n      dup1\n      dup4\n      gt\n      tag_72\n      jumpi\n      dup3\n      swap1\n      sub\n      0x1f\n      and\n      dup3\n      add\n      swap2\n    tag_70:\n      pop\n      pop\n      pop\n      pop\n      pop\n      dup2\n      mstore\n      0x20\n      add\n      0x07\n      dup3\n      add\n      dup1\n      sload\n      tag_73\n      swap1\n      tag_63\n      jump\t// in\n    tag_73:\n      dup1\n      0x1f\n      add\n      0x20\n      dup1\n      swap2\n      div\n      mul\n      0x20\n      add\n      mload(0x40)\n      swap1\n      dup2\n      add\n      0x40\n      mstore\n      dup1\n      swap3\n      swap2\n      swap1\n      dup2\n      dup2\n      mstore\n      0x20\n      add\n      dup3\n      dup1\n      sload\n      tag_74\n      swap1\n      tag_63\n      jump\t// in\n    tag_74:\n      dup1\n      iszero\n      tag_75\n      jumpi\n      dup1\n      0x1f\n      lt\n      tag_76\n      jumpi\n      0x0100\n      dup1\n      dup4\n      sload\n      div\n      mul\n      dup4\n      mstore\n      swap2\n      0x20\n      add\n      swap2\n      jump(tag_75)\n    tag_76:\n      dup3\n      add\n      swap2\n      swap1\n      0x00\n      mstore\n      keccak256(0x00, 0x20)\n      swap1\n    tag_77:\n      dup2\n      sload\n      dup2\n      mstore\n      swap1\n      0x01\n      add\n      swap1\n      0x20\n      add\n      dup1\n      dup4\n      gt\n      tag_77\n      jumpi\n      dup3\n      swap1\n      sub\n      0x1f\n      and\n      dup3\n      add\n      swap2\n    tag_75:\n      pop\n      pop\n      pop\n      pop\n      pop\n      dup2\n      mstore\n      pop\n      pop\n      swap1\n      pop\n        /* \"ehr.sol\":5442:5449  patient */\n      dup1\n        /* \"ehr.sol\":5442:5454  patient.name */\n      0x00\n      add\n      mload\n        /* \"ehr.sol\":5469:5476  patient */\n      dup2\n        /* \"ehr.sol\":5469:5480  patient.age */\n      0x20\n      add\n      mload\n        /* \"ehr.sol\":5495:5502  patient */\n      dup3\n        /* \"ehr.sol\":5495:5506  patient.dob */\n      0x40\n      add\n      mload\n        /* \"ehr.sol\":5521:5528  patient */\n      dup4\n        /* \"ehr.sol\":5521:5535  patient.height */\n      0x80\n      add\n      mload\n        /* \"ehr.sol\":5550:5557  patient */\n      dup5\n        /* \"ehr.sol\":5550:5564  patient.weight */\n      0xa0\n      add\n      mload\n        /* \"ehr.sol\":5579:5586  patient */\n      dup6\n        /* \"ehr.sol\":5579:5598  patient.addressInfo */\n      0xc0\n      add\n      mload\n        /* \"ehr.sol\":5613:5620  patient */\n      dup7\n        /* \"ehr.sol\":5613:5632  patient.phoneNumber */\n      0xe0\n      add\n      mload\n        /* \"ehr.sol\":5420:5643  return (... */\n      swap9\n      pop\n      swap9\n      pop\n      swap9\n      pop\n      swap9\n      pop\n      swap9\n      pop\n      swap9\n      pop\n      swap9\n      pop\n      pop\n        /* \"ehr.sol\":5164:5651  function getPatientDetails(uint256 _aadharNumber) external view onlyPatient(_aadharNumber)... */\n      pop\n      swap2\n      swap4\n      swap6\n      swap8\n      swap1\n      swap3\n      swap5\n      swap7\n      pop\n      jump\t// out\n        /* \"ehr.sol\":7107:7337  function getPatientMedicalRecords(uint256 _aadharNumber) external view onlyPatient(_aadharNumber)... */\n    tag_22:\n        /* \"ehr.sol\":7219:7241  MedicalRecord[] memory */\n      0x60\n        /* \"ehr.sol\":7190:7203  _aadharNumber */\n      dup2\n        /* \"ehr.sol\":2100:2110  msg.sender */\n      caller\n        /* \"ehr.sol\":2066:2110  aadharToPatient[_aadharNumber] == msg.sender */\n      0xffffffffffffffffffffffffffffffffffffffff\n      and\n        /* \"ehr.sol\":2066:2081  aadharToPatient */\n      0x08\n        /* \"ehr.sol\":2066:2096  aadharToPatient[_aadharNumber] */\n      0x00\n        /* \"ehr.sol\":2082:2095  _aadharNumber */\n      dup4\n        /* \"ehr.sol\":2066:2096  aadharToPatient[_aadharNumber] */\n      dup2\n      mstore\n      0x20\n      add\n      swap1\n      dup2\n      mstore\n      0x20\n      add\n      0x00\n      keccak256\n      0x00\n      swap1\n      sload\n      swap1\n      0x0100\n      exp\n      swap1\n      div\n      0xffffffffffffffffffffffffffffffffffffffff\n      and\n        /* \"ehr.sol\":2066:2110  aadharToPatient[_aadharNumber] == msg.sender */\n      0xffffffffffffffffffffffffffffffffffffffff\n      and\n      eq\n        /* \"ehr.sol\":2058:2151  require(aadharToPatient[_aadharNumber] == msg.sender, \"You can only access your own records\") */\n      tag_79\n      jumpi\n      mload(0x40)\n      0x08c379a000000000000000000000000000000000000000000000000000000000\n      dup2\n      mstore\n      0x04\n      add\n      tag_80\n      swap1\n      tag_60\n      jump\t// in\n    tag_80:\n      mload(0x40)\n      dup1\n      swap2\n      sub\n      swap1\n      revert\n    tag_79:\n        /* \"ehr.sol\":7261:7282  patientMedicalRecords */\n      0x09\n        /* \"ehr.sol\":7261:7297  patientMedicalRecords[_aadharNumber] */\n      0x00\n        /* \"ehr.sol\":7283:7296  _aadharNumber */\n      dup5\n        /* \"ehr.sol\":7261:7297  patientMedicalRecords[_aadharNumber] */\n      dup2\n      mstore\n      0x20\n      add\n      swap1\n      dup2\n      mstore\n      0x20\n      add\n      0x00\n      keccak256\n        /* \"ehr.sol\":7261:7329  patientMedicalRecords[_aadharNumber][aadharToPatient[_aadharNumber]] */\n      0x00\n        /* \"ehr.sol\":7298:7313  aadharToPatient */\n      0x08\n        /* \"ehr.sol\":7298:7328  aadharToPatient[_aadharNumber] */\n      0x00\n        /* \"ehr.sol\":7314:7327  _aadharNumber */\n      dup7\n        /* \"ehr.sol\":7298:7328  aadharToPatient[_aadharNumber] */\n      dup2\n      mstore\n      0x20\n      add\n      swap1\n      dup2\n      mstore\n      0x20\n      add\n      0x00\n      keccak256\n      0x00\n      swap1\n      sload\n      swap1\n      0x0100\n      exp\n      swap1\n      div\n      0xffffffffffffffffffffffffffffffffffffffff\n      and\n        /* \"ehr.sol\":7261:7329  patientMedicalRecords[_aadharNumber][aadharToPatient[_aadharNumber]] */\n      0xffffffffffffffffffffffffffffffffffffffff\n      and\n      0xffffffffffffffffffffffffffffffffffffffff\n      and\n      dup2\n      mstore\n      0x20\n      add\n      swap1\n      dup2\n      mstore\n      0x20\n      add\n      0x00\n      keccak256\n        /* \"ehr.sol\":7254:7329  return patientMedicalRecords[_aadharNumber][aadharToPatient[_aadharNumber]] */\n      dup1\n      sload\n      dup1\n      0x20\n      mul\n      0x20\n      add\n      mload(0x40)\n      swap1\n      dup2\n      add\n      0x40\n      mstore\n      dup1\n      swap3\n      swap2\n      swap1\n      dup2\n      dup2\n      mstore\n      0x20\n      add\n      0x00\n      swap1\n    tag_82:\n      dup3\n      dup3\n      lt\n      iszero\n      tag_83\n      jumpi\n      dup4\n      dup3\n      swap1\n      0x00\n      mstore\n      keccak256(0x00, 0x20)\n      swap1\n      0x05\n      mul\n      add\n      mload(0x40)\n      dup1\n      0xa0\n      add\n      0x40\n      mstore\n      swap1\n      dup2\n      0x00\n      dup3\n      add\n      dup1\n      sload\n      tag_85\n      swap1\n      tag_63\n      jump\t// in\n    tag_85:\n      dup1\n      0x1f\n      add\n      0x20\n      dup1\n      swap2\n      div\n      mul\n      0x20\n      add\n      mload(0x40)\n      swap1\n      dup2\n      add\n      0x40\n      mstore\n      dup1\n      swap3\n      swap2\n      swap1\n      dup2\n      dup2\n      mstore\n      0x20\n      add\n      dup3\n      dup1\n      sload\n      tag_86\n      swap1\n      tag_63\n      jump\t// in\n    tag_86:\n      dup1\n      iszero\n      tag_87\n      jumpi\n      dup1\n      0x1f\n      lt\n      tag_88\n      jumpi\n      0x0100\n      dup1\n      dup4\n      sload\n      div\n      mul\n      dup4\n      mstore\n      swap2\n      0x20\n      add\n      swap2\n      jump(tag_87)\n    tag_88:\n      dup3\n      add\n      swap2\n      swap1\n      0x00\n      mstore\n      keccak256(0x00, 0x20)\n      swap1\n    tag_89:\n      dup2\n      sload\n      dup2\n      mstore\n      swap1\n      0x01\n      add\n      swap1\n      0x20\n      add\n      dup1\n      dup4\n      gt\n      tag_89\n      jumpi\n      dup3\n      swap1\n      sub\n      0x1f\n      and\n      dup3\n      add\n      swap2\n    tag_87:\n      pop\n      pop\n      pop\n      pop\n      pop\n      dup2\n      mstore\n      0x20\n      add\n      0x01\n      dup3\n      add\n      dup1\n      sload\n      tag_90\n      swap1\n      tag_63\n      jump\t// in\n    tag_90:\n      dup1\n      0x1f\n      add\n      0x20\n      dup1\n      swap2\n      div\n      mul\n      0x20\n      add\n      mload(0x40)\n      swap1\n      dup2\n      add\n      0x40\n      mstore\n      dup1\n      swap3\n      swap2\n      swap1\n      dup2\n      dup2\n      mstore\n      0x20\n      add\n      dup3\n      dup1\n      sload\n      tag_91\n      swap1\n      tag_63\n      jump\t// in\n    tag_91:\n      dup1\n      iszero\n      tag_92\n      jumpi\n      dup1\n      0x1f\n      lt\n      tag_93\n      jumpi\n      0x0100\n      dup1\n      dup4\n      sload\n      div\n      mul\n      dup4\n      mstore\n      swap2\n      0x20\n      add\n      swap2\n      jump(tag_92)\n    tag_93:\n      dup3\n      add\n      swap2\n      swap1\n      0x00\n      mstore\n      keccak256(0x00, 0x20)\n      swap1\n    tag_94:\n      dup2\n      sload\n      dup2\n      mstore\n      swap1\n      0x01\n      add\n      swap1\n      0x20\n      add\n      dup1\n      dup4\n      gt\n      tag_94\n      jumpi\n      dup3\n      swap1\n      sub\n      0x1f\n      and\n      dup3\n      add\n      swap2\n    tag_92:\n      pop\n      pop\n      pop\n      pop\n      pop\n      dup2\n      mstore\n      0x20\n      add\n      0x02\n      dup3\n      add\n      sload\n      dup2\n      mstore\n      0x20\n      add\n      0x03\n      dup3\n      add\n      0x00\n      swap1\n      sload\n      swap1\n      0x0100\n      exp\n      swap1\n      div\n      0xffffffffffffffffffffffffffffffffffffffff\n      and\n      0xffffffffffffffffffffffffffffffffffffffff\n      and\n      0xffffffffffffffffffffffffffffffffffffffff\n      and\n      dup2\n      mstore\n      0x20\n      add\n      0x04\n      dup3\n      add\n      0x00\n      swap1\n      sload\n      swap1\n      0x0100\n      exp\n      swap1\n      div\n      0xffffffffffffffffffffffffffffffffffffffff\n      and\n      0xffffffffffffffffffffffffffffffffffffffff\n      and\n      0xffffffffffffffffffffffffffffffffffffffff\n      and\n      dup2\n      mstore\n      pop\n      pop\n      dup2\n      mstore\n      0x20\n      add\n      swap1\n      0x01\n      add\n      swap1\n      jump(tag_82)\n    tag_83:\n      pop\n      pop\n      pop\n      pop\n      swap2\n      pop\n        /* \"ehr.sol\":7107:7337  function getPatientMedicalRecords(uint256 _aadharNumber) external view onlyPatient(_aadharNumber)... */\n      pop\n      swap2\n      swap1\n      pop\n      jump\t// out\n        /* \"ehr.sol\":4823:5155  function displayDoctor(address _doctorAddress) external view returns (string memory, string memory) {... */\n    tag_28:\n        /* \"ehr.sol\":4893:4906  string memory */\n      0x60\n        /* \"ehr.sol\":4908:4921  string memory */\n      dup1\n        /* \"ehr.sol\":4956:4957  0 */\n      0x00\n        /* \"ehr.sol\":4942:4953  doctorCount */\n      sload(0x02)\n        /* \"ehr.sol\":4942:4957  doctorCount > 0 */\n      gt\n        /* \"ehr.sol\":4934:4987  require(doctorCount > 0, \"No doctors registered yet\") */\n      tag_96\n      jumpi\n      mload(0x40)\n      0x08c379a000000000000000000000000000000000000000000000000000000000\n      dup2\n      mstore\n      0x04\n      add\n      tag_97\n      swap1\n      tag_98\n      jump\t// in\n    tag_97:\n      mload(0x40)\n      dup1\n      swap2\n      sub\n      swap1\n      revert\n    tag_96:\n        /* \"ehr.sol\":5032:5033  0 */\n      0x00\n        /* \"ehr.sol\":5006:5034  _doctorAddress != address(0) */\n      0xffffffffffffffffffffffffffffffffffffffff\n      and\n        /* \"ehr.sol\":5006:5020  _doctorAddress */\n      dup4\n        /* \"ehr.sol\":5006:5034  _doctorAddress != address(0) */\n      0xffffffffffffffffffffffffffffffffffffffff\n      and\n      sub\n        /* \"ehr.sol\":4998:5061  require(_doctorAddress != address(0), \"Invalid doctor address\") */\n      tag_99\n      jumpi\n      mload(0x40)\n      0x08c379a000000000000000000000000000000000000000000000000000000000\n      dup2\n      mstore\n      0x04\n      add\n      tag_100\n      swap1\n      tag_101\n      jump\t// in\n    tag_100:\n      mload(0x40)\n      dup1\n      swap2\n      sub\n      swap1\n      revert\n    tag_99:\n        /* \"ehr.sol\":5082:5089  doctors */\n      0x05\n        /* \"ehr.sol\":5082:5105  doctors[_doctorAddress] */\n      0x00\n        /* \"ehr.sol\":5090:5104  _doctorAddress */\n      dup5\n        /* \"ehr.sol\":5082:5105  doctors[_doctorAddress] */\n      0xffffffffffffffffffffffffffffffffffffffff\n      and\n      0xffffffffffffffffffffffffffffffffffffffff\n      and\n      dup2\n      mstore\n      0x20\n      add\n      swap1\n      dup2\n      mstore\n      0x20\n      add\n      0x00\n      keccak256\n        /* \"ehr.sol\":5082:5110  doctors[_doctorAddress].name */\n      0x00\n      add\n        /* \"ehr.sol\":5112:5119  doctors */\n      0x05\n        /* \"ehr.sol\":5112:5135  doctors[_doctorAddress] */\n      0x00\n        /* \"ehr.sol\":5120:5134  _doctorAddress */\n      dup6\n        /* \"ehr.sol\":5112:5135  doctors[_doctorAddress] */\n      0xffffffffffffffffffffffffffffffffffffffff\n      and\n      0xffffffffffffffffffffffffffffffffffffffff\n      and\n      dup2\n      mstore\n      0x20\n      add\n      swap1\n      dup2\n      mstore\n      0x20\n      add\n      0x00\n      keccak256\n        /* \"ehr.sol\":5112:5146  doctors[_doctorAddress].department */\n      0x01\n      add\n        /* \"ehr.sol\":5074:5147  return (doctors[_doctorAddress].name, doctors[_doctorAddress].department) */\n      dup2\n      dup1\n      sload\n      tag_102\n      swap1\n      tag_63\n      jump\t// in\n    tag_102:\n      dup1\n      0x1f\n      add\n      0x20\n      dup1\n      swap2\n      div\n      mul\n      0x20\n      add\n      mload(0x40)\n      swap1\n      dup2\n      add\n      0x40\n      mstore\n      dup1\n      swap3\n      swap2\n      swap1\n      dup2\n      dup2\n      mstore\n      0x20\n      add\n      dup3\n      dup1\n      sload\n      tag_103\n      swap1\n      tag_63\n      jump\t// in\n    tag_103:\n      dup1\n      iszero\n      tag_104\n      jumpi\n      dup1\n      0x1f\n      lt\n      tag_105\n      jumpi\n      0x0100\n      dup1\n      dup4\n      sload\n      div\n      mul\n      dup4\n      mstore\n      swap2\n      0x20\n      add\n      swap2\n      jump(tag_104)\n    tag_105:\n      dup3\n      add\n      swap2\n      swap1\n      0x00\n      mstore\n      keccak256(0x00, 0x20)\n      swap1\n    tag_106:\n      dup2\n      sload\n      dup2\n      mstore\n      swap1\n      0x01\n      add\n      swap1\n      0x20\n      add\n      dup1\n      dup4\n      gt\n      tag_106\n      jumpi\n      dup3\n      swap1\n      sub\n      0x1f\n      and\n      dup3\n      add\n      swap2\n    tag_104:\n      pop\n      pop\n      pop\n      pop\n      pop\n      swap2\n      pop\n      dup1\n      dup1\n      sload\n      tag_107\n      swap1\n      tag_63\n      jump\t// in\n    tag_107:\n      dup1\n      0x1f\n      add\n      0x20\n      dup1\n      swap2\n      div\n      mul\n      0x20\n      add\n      mload(0x40)\n      swap1\n      dup2\n      add\n      0x40\n      mstore\n      dup1\n      swap3\n      swap2\n      swap1\n      dup2\n      dup2\n      mstore\n      0x20\n      add\n      dup3\n      dup1\n      sload\n      tag_108\n      swap1\n      tag_63\n      jump\t// in\n    tag_108:\n      dup1\n      iszero\n      tag_109\n      jumpi\n      dup1\n      0x1f\n      lt\n      tag_110\n      jumpi\n      0x0100\n      dup1\n      dup4\n      sload\n      div\n      mul\n      dup4\n      mstore\n      swap2\n      0x20\n      add\n      swap2\n      jump(tag_109)\n    tag_110:\n      dup3\n      add\n      swap2\n      swap1\n      0x00\n      mstore\n      keccak256(0x00, 0x20)\n      swap1\n    tag_111:\n      dup2\n      sload\n      dup2\n      mstore\n      swap1\n      0x01\n      add\n      swap1\n      0x20\n      add\n      dup1\n      dup4\n      gt\n      tag_111\n      jumpi\n      dup3\n      swap1\n      sub\n      0x1f\n      and\n      dup3\n      add\n      swap2\n    tag_109:\n      pop\n      pop\n      pop\n      pop\n      pop\n      swap1\n      pop\n      swap2\n      pop\n      swap2\n      pop\n        /* \"ehr.sol\":4823:5155  function displayDoctor(address _doctorAddress) external view returns (string memory, string memory) {... */\n      swap2\n      pop\n      swap2\n      jump\t// out\n        /* \"ehr.sol\":5659:6041  function chooseHospital(address _hospitalAddress) external onlyDoctor {... */\n    tag_33:\n        /* \"ehr.sol\":1760:1761  0 */\n      0x00\n        /* \"ehr.sol\":1711:1718  doctors */\n      0x05\n        /* \"ehr.sol\":1711:1730  doctors[msg.sender] */\n      0x00\n        /* \"ehr.sol\":1719:1729  msg.sender */\n      caller\n        /* \"ehr.sol\":1711:1730  doctors[msg.sender] */\n      0xffffffffffffffffffffffffffffffffffffffff\n      and\n      0xffffffffffffffffffffffffffffffffffffffff\n      and\n      dup2\n      mstore\n      0x20\n      add\n      swap1\n      dup2\n      mstore\n      0x20\n      add\n      0x00\n      keccak256\n        /* \"ehr.sol\":1711:1750  doctors[msg.sender].associatedHospitals */\n      0x03\n      add\n        /* \"ehr.sol\":1711:1757  doctors[msg.sender].associatedHospitals.length */\n      dup1\n      sload\n      swap1\n      pop\n        /* \"ehr.sol\":1711:1761  doctors[msg.sender].associatedHospitals.length > 0 */\n      gt\n        /* \"ehr.sol\":1703:1818  require(doctors[msg.sender].associatedHospitals.length > 0, \"Doctor must be associated with at least one hospital\") */\n      tag_113\n      jumpi\n      mload(0x40)\n      0x08c379a000000000000000000000000000000000000000000000000000000000\n      dup2\n      mstore\n      0x04\n      add\n      tag_114\n      swap1\n      tag_115\n      jump\t// in\n    tag_114:\n      mload(0x40)\n      dup1\n      swap2\n      sub\n      swap1\n      revert\n    tag_113:\n        /* \"ehr.sol\":1837:1850  organizations */\n      0x04\n        /* \"ehr.sol\":1837:1894  organizations[doctors[msg.sender].associatedHospitals[0]] */\n      0x00\n        /* \"ehr.sol\":1851:1858  doctors */\n      0x05\n        /* \"ehr.sol\":1851:1870  doctors[msg.sender] */\n      0x00\n        /* \"ehr.sol\":1859:1869  msg.sender */\n      caller\n        /* \"ehr.sol\":1851:1870  doctors[msg.sender] */\n      0xffffffffffffffffffffffffffffffffffffffff\n      and\n      0xffffffffffffffffffffffffffffffffffffffff\n      and\n      dup2\n      mstore\n      0x20\n      add\n      swap1\n      dup2\n      mstore\n      0x20\n      add\n      0x00\n      keccak256\n        /* \"ehr.sol\":1851:1890  doctors[msg.sender].associatedHospitals */\n      0x03\n      add\n        /* \"ehr.sol\":1891:1892  0 */\n      0x00\n        /* \"ehr.sol\":1851:1893  doctors[msg.sender].associatedHospitals[0] */\n      dup2\n      sload\n      dup2\n      lt\n      tag_116\n      jumpi\n      tag_117\n      tag_118\n      jump\t// in\n    tag_117:\n    tag_116:\n      swap1\n      0x00\n      mstore\n      keccak256(0x00, 0x20)\n      add\n      0x00\n      swap1\n      sload\n      swap1\n      0x0100\n      exp\n      swap1\n      div\n      0xffffffffffffffffffffffffffffffffffffffff\n      and\n        /* \"ehr.sol\":1837:1894  organizations[doctors[msg.sender].associatedHospitals[0]] */\n      0xffffffffffffffffffffffffffffffffffffffff\n      and\n      0xffffffffffffffffffffffffffffffffffffffff\n      and\n      dup2\n      mstore\n      0x20\n      add\n      swap1\n      dup2\n      mstore\n      0x20\n      add\n      0x00\n      keccak256\n        /* \"ehr.sol\":1837:1902  organizations[doctors[msg.sender].associatedHospitals[0]].doctors */\n      0x02\n      add\n        /* \"ehr.sol\":1837:1914  organizations[doctors[msg.sender].associatedHospitals[0]].doctors[msg.sender] */\n      0x00\n        /* \"ehr.sol\":1903:1913  msg.sender */\n      caller\n        /* \"ehr.sol\":1837:1914  organizations[doctors[msg.sender].associatedHospitals[0]].doctors[msg.sender] */\n      0xffffffffffffffffffffffffffffffffffffffff\n      and\n      0xffffffffffffffffffffffffffffffffffffffff\n      and\n      dup2\n      mstore\n      0x20\n      add\n      swap1\n      dup2\n      mstore\n      0x20\n      add\n      0x00\n      keccak256\n      0x00\n      swap1\n      sload\n      swap1\n      0x0100\n      exp\n      swap1\n      div\n      0xff\n      and\n        /* \"ehr.sol\":1829:1975  require(organizations[doctors[msg.sender].associatedHospitals[0]].doctors[msg.sender], \"Only doctors of the organization can perform this action\") */\n      tag_120\n      jumpi\n      mload(0x40)\n      0x08c379a000000000000000000000000000000000000000000000000000000000\n      dup2\n      mstore\n      0x04\n      add\n      tag_121\n      swap1\n      tag_122\n      jump\t// in\n    tag_121:\n      mload(0x40)\n      dup1\n      swap2\n      sub\n      swap1\n      revert\n    tag_120:\n        /* \"ehr.sol\":5798:5799  0 */\n      0x00\n        /* \"ehr.sol\":5748:5800  hospitalDoctors[msg.sender].docaddress != address(0) */\n      0xffffffffffffffffffffffffffffffffffffffff\n      and\n        /* \"ehr.sol\":5748:5763  hospitalDoctors */\n      0x06\n        /* \"ehr.sol\":5748:5775  hospitalDoctors[msg.sender] */\n      0x00\n        /* \"ehr.sol\":5764:5774  msg.sender */\n      caller\n        /* \"ehr.sol\":5748:5775  hospitalDoctors[msg.sender] */\n      0xffffffffffffffffffffffffffffffffffffffff\n      and\n      0xffffffffffffffffffffffffffffffffffffffff\n      and\n      dup2\n      mstore\n      0x20\n      add\n      swap1\n      dup2\n      mstore\n      0x20\n      add\n      0x00\n      keccak256\n        /* \"ehr.sol\":5748:5786  hospitalDoctors[msg.sender].docaddress */\n      0x02\n      add\n      0x00\n      swap1\n      sload\n      swap1\n      0x0100\n      exp\n      swap1\n      div\n      0xffffffffffffffffffffffffffffffffffffffff\n      and\n        /* \"ehr.sol\":5748:5800  hospitalDoctors[msg.sender].docaddress != address(0) */\n      0xffffffffffffffffffffffffffffffffffffffff\n      and\n      sub\n        /* \"ehr.sol\":5740:5837  require(hospitalDoctors[msg.sender].docaddress != address(0), \"Doctor not found in general list\") */\n      tag_124\n      jumpi\n      mload(0x40)\n      0x08c379a000000000000000000000000000000000000000000000000000000000\n      dup2\n      mstore\n      0x04\n      add\n      tag_125\n      swap1\n      tag_126\n      jump\t// in\n    tag_125:\n      mload(0x40)\n      dup1\n      swap2\n      sub\n      swap1\n      revert\n    tag_124:\n        /* \"ehr.sol\":5856:5916  isDoctorAssociatedWithHospital(msg.sender, _hospitalAddress) */\n      tag_127\n        /* \"ehr.sol\":5887:5897  msg.sender */\n      caller\n        /* \"ehr.sol\":5899:5915  _hospitalAddress */\n      dup3\n        /* \"ehr.sol\":5856:5886  isDoctorAssociatedWithHospital */\n      tag_128\n        /* \"ehr.sol\":5856:5916  isDoctorAssociatedWithHospital(msg.sender, _hospitalAddress) */\n      jump\t// in\n    tag_127:\n        /* \"ehr.sol\":5848:5961  require(isDoctorAssociatedWithHospital(msg.sender, _hospitalAddress), \"Doctor not associated with this hospital\") */\n      tag_129\n      jumpi\n      mload(0x40)\n      0x08c379a000000000000000000000000000000000000000000000000000000000\n      dup2\n      mstore\n      0x04\n      add\n      tag_130\n      swap1\n      tag_131\n      jump\t// in\n    tag_130:\n      mload(0x40)\n      dup1\n      swap2\n      sub\n      swap1\n      revert\n    tag_129:\n        /* \"ehr.sol\":6017:6033  _hospitalAddress */\n      dup1\n        /* \"ehr.sol\":5972:5987  hospitalDoctors */\n      0x06\n        /* \"ehr.sol\":5972:5999  hospitalDoctors[msg.sender] */\n      0x00\n        /* \"ehr.sol\":5988:5998  msg.sender */\n      caller\n        /* \"ehr.sol\":5972:5999  hospitalDoctors[msg.sender] */\n      0xffffffffffffffffffffffffffffffffffffffff\n      and\n      0xffffffffffffffffffffffffffffffffffffffff\n      and\n      dup2\n      mstore\n      0x20\n      add\n      swap1\n      dup2\n      mstore\n      0x20\n      add\n      0x00\n      keccak256\n        /* \"ehr.sol\":5972:6014  hospitalDoctors[msg.sender].chosenHospital */\n      0x04\n      add\n      0x00\n        /* \"ehr.sol\":5972:6033  hospitalDoctors[msg.sender].chosenHospital = _hospitalAddress */\n      0x0100\n      exp\n      dup2\n      sload\n      dup2\n      0xffffffffffffffffffffffffffffffffffffffff\n      mul\n      not\n      and\n      swap1\n      dup4\n      0xffffffffffffffffffffffffffffffffffffffff\n      and\n      mul\n      or\n      swap1\n      sstore\n      pop\n        /* \"ehr.sol\":5659:6041  function chooseHospital(address _hospitalAddress) external onlyDoctor {... */\n      pop\n      jump\t// out\n        /* \"ehr.sol\":2882:3163  function associateDoctorWithHospital(address _hospitalAddress) external onlyDoctor {... */\n    tag_36:\n        /* \"ehr.sol\":1760:1761  0 */\n      0x00\n        /* \"ehr.sol\":1711:1718  doctors */\n      0x05\n        /* \"ehr.sol\":1711:1730  doctors[msg.sender] */\n      0x00\n        /* \"ehr.sol\":1719:1729  msg.sender */\n      caller\n        /* \"ehr.sol\":1711:1730  doctors[msg.sender] */\n      0xffffffffffffffffffffffffffffffffffffffff\n      and\n      0xffffffffffffffffffffffffffffffffffffffff\n      and\n      dup2\n      mstore\n      0x20\n      add\n      swap1\n      dup2\n      mstore\n      0x20\n      add\n      0x00\n      keccak256\n        /* \"ehr.sol\":1711:1750  doctors[msg.sender].associatedHospitals */\n      0x03\n      add\n        /* \"ehr.sol\":1711:1757  doctors[msg.sender].associatedHospitals.length */\n      dup1\n      sload\n      swap1\n      pop\n        /* \"ehr.sol\":1711:1761  doctors[msg.sender].associatedHospitals.length > 0 */\n      gt\n        /* \"ehr.sol\":1703:1818  require(doctors[msg.sender].associatedHospitals.length > 0, \"Doctor must be associated with at least one hospital\") */\n      tag_133\n      jumpi\n      mload(0x40)\n      0x08c379a000000000000000000000000000000000000000000000000000000000\n      dup2\n      mstore\n      0x04\n      add\n      tag_134\n      swap1\n      tag_115\n      jump\t// in\n    tag_134:\n      mload(0x40)\n      dup1\n      swap2\n      sub\n      swap1\n      revert\n    tag_133:\n        /* \"ehr.sol\":1837:1850  organizations */\n      0x04\n        /* \"ehr.sol\":1837:1894  organizations[doctors[msg.sender].associatedHospitals[0]] */\n      0x00\n        /* \"ehr.sol\":1851:1858  doctors */\n      0x05\n        /* \"ehr.sol\":1851:1870  doctors[msg.sender] */\n      0x00\n        /* \"ehr.sol\":1859:1869  msg.sender */\n      caller\n        /* \"ehr.sol\":1851:1870  doctors[msg.sender] */\n      0xffffffffffffffffffffffffffffffffffffffff\n      and\n      0xffffffffffffffffffffffffffffffffffffffff\n      and\n      dup2\n      mstore\n      0x20\n      add\n      swap1\n      dup2\n      mstore\n      0x20\n      add\n      0x00\n      keccak256\n        /* \"ehr.sol\":1851:1890  doctors[msg.sender].associatedHospitals */\n      0x03\n      add\n        /* \"ehr.sol\":1891:1892  0 */\n      0x00\n        /* \"ehr.sol\":1851:1893  doctors[msg.sender].associatedHospitals[0] */\n      dup2\n      sload\n      dup2\n      lt\n      tag_135\n      jumpi\n      tag_136\n      tag_118\n      jump\t// in\n    tag_136:\n    tag_135:\n      swap1\n      0x00\n      mstore\n      keccak256(0x00, 0x20)\n      add\n      0x00\n      swap1\n      sload\n      swap1\n      0x0100\n      exp\n      swap1\n      div\n      0xffffffffffffffffffffffffffffffffffffffff\n      and\n        /* \"ehr.sol\":1837:1894  organizations[doctors[msg.sender].associatedHospitals[0]] */\n      0xffffffffffffffffffffffffffffffffffffffff\n      and\n      0xffffffffffffffffffffffffffffffffffffffff\n      and\n      dup2\n      mstore\n      0x20\n      add\n      swap1\n      dup2\n      mstore\n      0x20\n      add\n      0x00\n      keccak256\n        /* \"ehr.sol\":1837:1902  organizations[doctors[msg.sender].associatedHospitals[0]].doctors */\n      0x02\n      add\n        /* \"ehr.sol\":1837:1914  organizations[doctors[msg.sender].associatedHospitals[0]].doctors[msg.sender] */\n      0x00\n        /* \"ehr.sol\":1903:1913  msg.sender */\n      caller\n        /* \"ehr.sol\":1837:1914  organizations[doctors[msg.sender].associatedHospitals[0]].doctors[msg.sender] */\n      0xffffffffffffffffffffffffffffffffffffffff\n      and\n      0xffffffffffffffffffffffffffffffffffffffff\n      and\n      dup2\n      mstore\n      0x20\n      add\n      swap1\n      dup2\n      mstore\n      0x20\n      add\n      0x00\n      keccak256\n      0x00\n      swap1\n      sload\n      swap1\n      0x0100\n      exp\n      swap1\n      div\n      0xff\n      and\n        /* \"ehr.sol\":1829:1975  require(organizations[doctors[msg.sender].associatedHospitals[0]].doctors[msg.sender], \"Only doctors of the organization can perform this action\") */\n      tag_138\n      jumpi\n      mload(0x40)\n      0x08c379a000000000000000000000000000000000000000000000000000000000\n      dup2\n      mstore\n      0x04\n      add\n      tag_139\n      swap1\n      tag_122\n      jump\t// in\n    tag_139:\n      mload(0x40)\n      dup1\n      swap2\n      sub\n      swap1\n      revert\n    tag_138:\n        /* \"ehr.sol\":2984:2997  organizations */\n      0x04\n        /* \"ehr.sol\":2984:3015  organizations[_hospitalAddress] */\n      0x00\n        /* \"ehr.sol\":2998:3014  _hospitalAddress */\n      dup3\n        /* \"ehr.sol\":2984:3015  organizations[_hospitalAddress] */\n      0xffffffffffffffffffffffffffffffffffffffff\n      and\n      0xffffffffffffffffffffffffffffffffffffffff\n      and\n      dup2\n      mstore\n      0x20\n      add\n      swap1\n      dup2\n      mstore\n      0x20\n      add\n      0x00\n      keccak256\n        /* \"ehr.sol\":2984:3023  organizations[_hospitalAddress].doctors */\n      0x02\n      add\n        /* \"ehr.sol\":2984:3035  organizations[_hospitalAddress].doctors[msg.sender] */\n      0x00\n        /* \"ehr.sol\":3024:3034  msg.sender */\n      caller\n        /* \"ehr.sol\":2984:3035  organizations[_hospitalAddress].doctors[msg.sender] */\n      0xffffffffffffffffffffffffffffffffffffffff\n      and\n      0xffffffffffffffffffffffffffffffffffffffff\n      and\n      dup2\n      mstore\n      0x20\n      add\n      swap1\n      dup2\n      mstore\n      0x20\n      add\n      0x00\n      keccak256\n      0x00\n      swap1\n      sload\n      swap1\n      0x0100\n      exp\n      swap1\n      div\n      0xff\n      and\n        /* \"ehr.sol\":2976:3082  require(organizations[_hospitalAddress].doctors[msg.sender], \"Doctor is not associated with the hospital\") */\n      tag_141\n      jumpi\n      mload(0x40)\n      0x08c379a000000000000000000000000000000000000000000000000000000000\n      dup2\n      mstore\n      0x04\n      add\n      tag_142\n      swap1\n      tag_143\n      jump\t// in\n    tag_142:\n      mload(0x40)\n      dup1\n      swap2\n      sub\n      swap1\n      revert\n    tag_141:\n        /* \"ehr.sol\":3093:3100  doctors */\n      0x05\n        /* \"ehr.sol\":3093:3112  doctors[msg.sender] */\n      0x00\n        /* \"ehr.sol\":3101:3111  msg.sender */\n      caller\n        /* \"ehr.sol\":3093:3112  doctors[msg.sender] */\n      0xffffffffffffffffffffffffffffffffffffffff\n      and\n      0xffffffffffffffffffffffffffffffffffffffff\n      and\n      dup2\n      mstore\n      0x20\n      add\n      swap1\n      dup2\n      mstore\n      0x20\n      add\n      0x00\n      keccak256\n        /* \"ehr.sol\":3093:3132  doctors[msg.sender].associatedHospitals */\n      0x03\n      add\n        /* \"ehr.sol\":3138:3154  _hospitalAddress */\n      dup2\n        /* \"ehr.sol\":3093:3155  doctors[msg.sender].associatedHospitals.push(_hospitalAddress) */\n      swap1\n      dup1\n      0x01\n      dup2\n      sload\n      add\n      dup1\n      dup3\n      sstore\n      dup1\n      swap2\n      pop\n      pop\n      0x01\n      swap1\n      sub\n      swap1\n      0x00\n      mstore\n      keccak256(0x00, 0x20)\n      add\n      0x00\n      swap1\n      swap2\n      swap1\n      swap2\n      swap1\n      swap2\n      0x0100\n      exp\n      dup2\n      sload\n      dup2\n      0xffffffffffffffffffffffffffffffffffffffff\n      mul\n      not\n      and\n      swap1\n      dup4\n      0xffffffffffffffffffffffffffffffffffffffff\n      and\n      mul\n      or\n      swap1\n      sstore\n      pop\n        /* \"ehr.sol\":2882:3163  function associateDoctorWithHospital(address _hospitalAddress) external onlyDoctor {... */\n      pop\n      jump\t// out\n        /* \"ehr.sol\":2579:2874  function addDoctor(string memory _name, string memory _department, address _docaddress) external onlyAdmin {... */\n    tag_40:\n        /* \"ehr.sol\":1424:1429  admin */\n      0x00\n      dup1\n      sload\n      swap1\n      0x0100\n      exp\n      swap1\n      div\n      0xffffffffffffffffffffffffffffffffffffffff\n      and\n        /* \"ehr.sol\":1410:1429  msg.sender == admin */\n      0xffffffffffffffffffffffffffffffffffffffff\n      and\n        /* \"ehr.sol\":1410:1420  msg.sender */\n      caller\n        /* \"ehr.sol\":1410:1429  msg.sender == admin */\n      0xffffffffffffffffffffffffffffffffffffffff\n      and\n      eq\n        /* \"ehr.sol\":1402:1468  require(msg.sender == admin, \"Only admin can perform this action\") */\n      tag_146\n      jumpi\n      mload(0x40)\n      0x08c379a000000000000000000000000000000000000000000000000000000000\n      dup2\n      mstore\n      0x04\n      add\n      tag_147\n      swap1\n      tag_148\n      jump\t// in\n    tag_147:\n      mload(0x40)\n      dup1\n      swap2\n      sub\n      swap1\n      revert\n    tag_146:\n        /* \"ehr.sol\":2725:2730  _name */\n      dup3\n        /* \"ehr.sol\":2697:2704  doctors */\n      0x05\n        /* \"ehr.sol\":2697:2717  doctors[_docaddress] */\n      0x00\n        /* \"ehr.sol\":2705:2716  _docaddress */\n      dup4\n        /* \"ehr.sol\":2697:2717  doctors[_docaddress] */\n      0xffffffffffffffffffffffffffffffffffffffff\n      and\n      0xffffffffffffffffffffffffffffffffffffffff\n      and\n      dup2\n      mstore\n      0x20\n      add\n      swap1\n      dup2\n      mstore\n      0x20\n      add\n      0x00\n      keccak256\n        /* \"ehr.sol\":2697:2722  doctors[_docaddress].name */\n      0x00\n      add\n        /* \"ehr.sol\":2697:2730  doctors[_docaddress].name = _name */\n      swap1\n      dup2\n      tag_150\n      swap2\n      swap1\n      tag_151\n      jump\t// in\n    tag_150:\n      pop\n        /* \"ehr.sol\":2775:2786  _department */\n      dup2\n        /* \"ehr.sol\":2741:2748  doctors */\n      0x05\n        /* \"ehr.sol\":2741:2761  doctors[_docaddress] */\n      0x00\n        /* \"ehr.sol\":2749:2760  _docaddress */\n      dup4\n        /* \"ehr.sol\":2741:2761  doctors[_docaddress] */\n      0xffffffffffffffffffffffffffffffffffffffff\n      and\n      0xffffffffffffffffffffffffffffffffffffffff\n      and\n      dup2\n      mstore\n      0x20\n      add\n      swap1\n      dup2\n      mstore\n      0x20\n      add\n      0x00\n      keccak256\n        /* \"ehr.sol\":2741:2772  doctors[_docaddress].department */\n      0x01\n      add\n        /* \"ehr.sol\":2741:2786  doctors[_docaddress].department = _department */\n      swap1\n      dup2\n      tag_152\n      swap2\n      swap1\n      tag_151\n      jump\t// in\n    tag_152:\n      pop\n        /* \"ehr.sol\":2831:2842  _docaddress */\n      dup1\n        /* \"ehr.sol\":2797:2804  doctors */\n      0x05\n        /* \"ehr.sol\":2797:2817  doctors[_docaddress] */\n      0x00\n        /* \"ehr.sol\":2805:2816  _docaddress */\n      dup4\n        /* \"ehr.sol\":2797:2817  doctors[_docaddress] */\n      0xffffffffffffffffffffffffffffffffffffffff\n      and\n      0xffffffffffffffffffffffffffffffffffffffff\n      and\n      dup2\n      mstore\n      0x20\n      add\n      swap1\n      dup2\n      mstore\n      0x20\n      add\n      0x00\n      keccak256\n        /* \"ehr.sol\":2797:2828  doctors[_docaddress].docaddress */\n      0x02\n      add\n      0x00\n        /* \"ehr.sol\":2797:2842  doctors[_docaddress].docaddress = _docaddress */\n      0x0100\n      exp\n      dup2\n      sload\n      dup2\n      0xffffffffffffffffffffffffffffffffffffffff\n      mul\n      not\n      and\n      swap1\n      dup4\n      0xffffffffffffffffffffffffffffffffffffffff\n      and\n      mul\n      or\n      swap1\n      sstore\n      pop\n        /* \"ehr.sol\":2853:2864  doctorCount */\n      0x02\n      0x00\n        /* \"ehr.sol\":2853:2866  doctorCount++ */\n      dup2\n      sload\n      dup1\n      swap3\n      swap2\n      swap1\n      tag_153\n      swap1\n      tag_154\n      jump\t// in\n    tag_153:\n      swap2\n      swap1\n      pop\n      sstore\n      pop\n        /* \"ehr.sol\":2579:2874  function addDoctor(string memory _name, string memory _department, address _docaddress) external onlyAdmin {... */\n      pop\n      pop\n      pop\n      jump\t// out\n        /* \"ehr.sol\":2322:2571  function addOrganization(string memory _name, address _hospitalAddress) external onlyAdmin {... */\n    tag_44:\n        /* \"ehr.sol\":1424:1429  admin */\n      0x00\n      dup1\n      sload\n      swap1\n      0x0100\n      exp\n      swap1\n      div\n      0xffffffffffffffffffffffffffffffffffffffff\n      and\n        /* \"ehr.sol\":1410:1429  msg.sender == admin */\n      0xffffffffffffffffffffffffffffffffffffffff\n      and\n        /* \"ehr.sol\":1410:1420  msg.sender */\n      caller\n        /* \"ehr.sol\":1410:1429  msg.sender == admin */\n      0xffffffffffffffffffffffffffffffffffffffff\n      and\n      eq\n        /* \"ehr.sol\":1402:1468  require(msg.sender == admin, \"Only admin can perform this action\") */\n      tag_156\n      jumpi\n      mload(0x40)\n      0x08c379a000000000000000000000000000000000000000000000000000000000\n      dup2\n      mstore\n      0x04\n      add\n      tag_157\n      swap1\n      tag_148\n      jump\t// in\n    tag_157:\n      mload(0x40)\n      dup1\n      swap2\n      sub\n      swap1\n      revert\n    tag_156:\n        /* \"ehr.sol\":2457:2462  _name */\n      dup2\n        /* \"ehr.sol\":2424:2437  organizations */\n      0x04\n        /* \"ehr.sol\":2424:2449  organizations[msg.sender] */\n      0x00\n        /* \"ehr.sol\":2438:2448  msg.sender */\n      caller\n        /* \"ehr.sol\":2424:2449  organizations[msg.sender] */\n      0xffffffffffffffffffffffffffffffffffffffff\n      and\n      0xffffffffffffffffffffffffffffffffffffffff\n      and\n      dup2\n      mstore\n      0x20\n      add\n      swap1\n      dup2\n      mstore\n      0x20\n      add\n      0x00\n      keccak256\n        /* \"ehr.sol\":2424:2454  organizations[msg.sender].name */\n      0x00\n      add\n        /* \"ehr.sol\":2424:2462  organizations[msg.sender].name = _name */\n      swap1\n      dup2\n      tag_159\n      swap2\n      swap1\n      tag_151\n      jump\t// in\n    tag_159:\n      pop\n        /* \"ehr.sol\":2517:2533  _hospitalAddress */\n      dup1\n        /* \"ehr.sol\":2473:2486  organizations */\n      0x04\n        /* \"ehr.sol\":2473:2498  organizations[msg.sender] */\n      0x00\n        /* \"ehr.sol\":2487:2497  msg.sender */\n      caller\n        /* \"ehr.sol\":2473:2498  organizations[msg.sender] */\n      0xffffffffffffffffffffffffffffffffffffffff\n      and\n      0xffffffffffffffffffffffffffffffffffffffff\n      and\n      dup2\n      mstore\n      0x20\n      add\n      swap1\n      dup2\n      mstore\n      0x20\n      add\n      0x00\n      keccak256\n        /* \"ehr.sol\":2473:2514  organizations[msg.sender].hospitalAddress */\n      0x01\n      add\n      0x00\n        /* \"ehr.sol\":2473:2533  organizations[msg.sender].hospitalAddress = _hospitalAddress */\n      0x0100\n      exp\n      dup2\n      sload\n      dup2\n      0xffffffffffffffffffffffffffffffffffffffff\n      mul\n      not\n      and\n      swap1\n      dup4\n      0xffffffffffffffffffffffffffffffffffffffff\n      and\n      mul\n      or\n      swap1\n      sstore\n      pop\n        /* \"ehr.sol\":2544:2561  organizationCount */\n      0x01\n      0x00\n        /* \"ehr.sol\":2544:2563  organizationCount++ */\n      dup2\n      sload\n      dup1\n      swap3\n      swap2\n      swap1\n      tag_160\n      swap1\n      tag_154\n      jump\t// in\n    tag_160:\n      swap2\n      swap1\n      pop\n      sstore\n      pop\n        /* \"ehr.sol\":2322:2571  function addOrganization(string memory _name, address _hospitalAddress) external onlyAdmin {... */\n      pop\n      pop\n      jump\t// out\n        /* \"ehr.sol\":4212:4811  function registerPatient(string memory _name, uint256 _age, uint256 _dob, uint256 _aadharnumber, uint256 _height, uint256 _weight, string memory _addressInfo, string memory _phoneNumber) external {... */\n    tag_48:\n        /* \"ehr.sol\":4434:4435  0 */\n      0x00\n        /* \"ehr.sol\":4427:4431  _age */\n      dup8\n        /* \"ehr.sol\":4427:4435  _age > 0 */\n      gt\n        /* \"ehr.sol\":4427:4447  _age > 0 && _dob > 0 */\n      dup1\n      iszero\n      tag_162\n      jumpi\n      pop\n        /* \"ehr.sol\":4446:4447  0 */\n      0x00\n        /* \"ehr.sol\":4439:4443  _dob */\n      dup7\n        /* \"ehr.sol\":4439:4447  _dob > 0 */\n      gt\n        /* \"ehr.sol\":4427:4447  _age > 0 && _dob > 0 */\n    tag_162:\n        /* \"ehr.sol\":4427:4462  _age > 0 && _dob > 0 && _height > 0 */\n      dup1\n      iszero\n      tag_163\n      jumpi\n      pop\n        /* \"ehr.sol\":4461:4462  0 */\n      0x00\n        /* \"ehr.sol\":4451:4458  _height */\n      dup5\n        /* \"ehr.sol\":4451:4462  _height > 0 */\n      gt\n        /* \"ehr.sol\":4427:4462  _age > 0 && _dob > 0 && _height > 0 */\n    tag_163:\n        /* \"ehr.sol\":4427:4477  _age > 0 && _dob > 0 && _height > 0 && _weight > 0 */\n      dup1\n      iszero\n      tag_164\n      jumpi\n      pop\n        /* \"ehr.sol\":4476:4477  0 */\n      0x00\n        /* \"ehr.sol\":4466:4473  _weight */\n      dup4\n        /* \"ehr.sol\":4466:4477  _weight > 0 */\n      gt\n        /* \"ehr.sol\":4427:4477  _age > 0 && _dob > 0 && _height > 0 && _weight > 0 */\n    tag_164:\n        /* \"ehr.sol\":4419:4505  require(_age > 0 && _dob > 0 && _height > 0 && _weight > 0, \"Invalid patient details\") */\n      tag_165\n      jumpi\n      mload(0x40)\n      0x08c379a000000000000000000000000000000000000000000000000000000000\n      dup2\n      mstore\n      0x04\n      add\n      tag_166\n      swap1\n      tag_167\n      jump\t// in\n    tag_166:\n      mload(0x40)\n      dup1\n      swap2\n      sub\n      swap1\n      revert\n    tag_165:\n        /* \"ehr.sol\":4557:4558  0 */\n      0x00\n        /* \"ehr.sol\":4524:4559  aadharToPatient[_dob] == address(0) */\n      0xffffffffffffffffffffffffffffffffffffffff\n      and\n        /* \"ehr.sol\":4524:4539  aadharToPatient */\n      0x08\n        /* \"ehr.sol\":4524:4545  aadharToPatient[_dob] */\n      0x00\n        /* \"ehr.sol\":4540:4544  _dob */\n      dup9\n        /* \"ehr.sol\":4524:4545  aadharToPatient[_dob] */\n      dup2\n      mstore\n      0x20\n      add\n      swap1\n      dup2\n      mstore\n      0x20\n      add\n      0x00\n      keccak256\n      0x00\n      swap1\n      sload\n      swap1\n      0x0100\n      exp\n      swap1\n      div\n      0xffffffffffffffffffffffffffffffffffffffff\n      and\n        /* \"ehr.sol\":4524:4559  aadharToPatient[_dob] == address(0) */\n      0xffffffffffffffffffffffffffffffffffffffff\n      and\n      eq\n        /* \"ehr.sol\":4516:4590  require(aadharToPatient[_dob] == address(0), \"Patient already registered\") */\n      tag_168\n      jumpi\n      mload(0x40)\n      0x08c379a000000000000000000000000000000000000000000000000000000000\n      dup2\n      mstore\n      0x04\n      add\n      tag_169\n      swap1\n      tag_170\n      jump\t// in\n    tag_169:\n      mload(0x40)\n      dup1\n      swap2\n      sub\n      swap1\n      revert\n    tag_168:\n        /* \"ehr.sol\":4637:4724  Patient(_name, _age, _dob, _aadharnumber, _height, _weight, _addressInfo, _phoneNumber) */\n      mload(0x40)\n      dup1\n      0x0100\n      add\n      0x40\n      mstore\n      dup1\n        /* \"ehr.sol\":4645:4650  _name */\n      dup10\n        /* \"ehr.sol\":4637:4724  Patient(_name, _age, _dob, _aadharnumber, _height, _weight, _addressInfo, _phoneNumber) */\n      dup2\n      mstore\n      0x20\n      add\n        /* \"ehr.sol\":4652:4656  _age */\n      dup9\n        /* \"ehr.sol\":4637:4724  Patient(_name, _age, _dob, _aadharnumber, _height, _weight, _addressInfo, _phoneNumber) */\n      dup2\n      mstore\n      0x20\n      add\n        /* \"ehr.sol\":4658:4662  _dob */\n      dup8\n        /* \"ehr.sol\":4637:4724  Patient(_name, _age, _dob, _aadharnumber, _height, _weight, _addressInfo, _phoneNumber) */\n      dup2\n      mstore\n      0x20\n      add\n        /* \"ehr.sol\":4664:4677  _aadharnumber */\n      dup7\n        /* \"ehr.sol\":4637:4724  Patient(_name, _age, _dob, _aadharnumber, _height, _weight, _addressInfo, _phoneNumber) */\n      dup2\n      mstore\n      0x20\n      add\n        /* \"ehr.sol\":4679:4686  _height */\n      dup6\n        /* \"ehr.sol\":4637:4724  Patient(_name, _age, _dob, _aadharnumber, _height, _weight, _addressInfo, _phoneNumber) */\n      dup2\n      mstore\n      0x20\n      add\n        /* \"ehr.sol\":4688:4695  _weight */\n      dup5\n        /* \"ehr.sol\":4637:4724  Patient(_name, _age, _dob, _aadharnumber, _height, _weight, _addressInfo, _phoneNumber) */\n      dup2\n      mstore\n      0x20\n      add\n        /* \"ehr.sol\":4697:4709  _addressInfo */\n      dup4\n        /* \"ehr.sol\":4637:4724  Patient(_name, _age, _dob, _aadharnumber, _height, _weight, _addressInfo, _phoneNumber) */\n      dup2\n      mstore\n      0x20\n      add\n        /* \"ehr.sol\":4711:4723  _phoneNumber */\n      dup3\n        /* \"ehr.sol\":4637:4724  Patient(_name, _age, _dob, _aadharnumber, _height, _weight, _addressInfo, _phoneNumber) */\n      dup2\n      mstore\n      pop\n        /* \"ehr.sol\":4611:4619  patients */\n      0x07\n        /* \"ehr.sol\":4611:4634  patients[_aadharnumber] */\n      0x00\n        /* \"ehr.sol\":4620:4633  _aadharnumber */\n      dup8\n        /* \"ehr.sol\":4611:4634  patients[_aadharnumber] */\n      dup2\n      mstore\n      0x20\n      add\n      swap1\n      dup2\n      mstore\n      0x20\n      add\n      0x00\n      keccak256\n        /* \"ehr.sol\":4611:4724  patients[_aadharnumber] = Patient(_name, _age, _dob, _aadharnumber, _height, _weight, _addressInfo, _phoneNumber) */\n      0x00\n      dup3\n      add\n      mload\n      dup2\n      0x00\n      add\n      swap1\n      dup2\n      tag_171\n      swap2\n      swap1\n      tag_151\n      jump\t// in\n    tag_171:\n      pop\n      0x20\n      dup3\n      add\n      mload\n      dup2\n      0x01\n      add\n      sstore\n      0x40\n      dup3\n      add\n      mload\n      dup2\n      0x02\n      add\n      sstore\n      0x60\n      dup3\n      add\n      mload\n      dup2\n      0x03\n      add\n      sstore\n      0x80\n      dup3\n      add\n      mload\n      dup2\n      0x04\n      add\n      sstore\n      0xa0\n      dup3\n      add\n      mload\n      dup2\n      0x05\n      add\n      sstore\n      0xc0\n      dup3\n      add\n      mload\n      dup2\n      0x06\n      add\n      swap1\n      dup2\n      tag_172\n      swap2\n      swap1\n      tag_151\n      jump\t// in\n    tag_172:\n      pop\n      0xe0\n      dup3\n      add\n      mload\n      dup2\n      0x07\n      add\n      swap1\n      dup2\n      tag_173\n      swap2\n      swap1\n      tag_151\n      jump\t// in\n    tag_173:\n      pop\n      swap1\n      pop\n      pop\n        /* \"ehr.sol\":4768:4778  msg.sender */\n      caller\n        /* \"ehr.sol\":4735:4750  aadharToPatient */\n      0x08\n        /* \"ehr.sol\":4735:4765  aadharToPatient[_aadharnumber] */\n      0x00\n        /* \"ehr.sol\":4751:4764  _aadharnumber */\n      dup8\n        /* \"ehr.sol\":4735:4765  aadharToPatient[_aadharnumber] */\n      dup2\n      mstore\n      0x20\n      add\n      swap1\n      dup2\n      mstore\n      0x20\n      add\n      0x00\n      keccak256\n      0x00\n        /* \"ehr.sol\":4735:4778  aadharToPatient[_aadharnumber] = msg.sender */\n      0x0100\n      exp\n      dup2\n      sload\n      dup2\n      0xffffffffffffffffffffffffffffffffffffffff\n      mul\n      not\n      and\n      swap1\n      dup4\n      0xffffffffffffffffffffffffffffffffffffffff\n      and\n      mul\n      or\n      swap1\n      sstore\n      pop\n        /* \"ehr.sol\":4789:4801  patientCount */\n      0x03\n      0x00\n        /* \"ehr.sol\":4789:4803  patientCount++ */\n      dup2\n      sload\n      dup1\n      swap3\n      swap2\n      swap1\n      tag_174\n      swap1\n      tag_154\n      jump\t// in\n    tag_174:\n      swap2\n      swap1\n      pop\n      sstore\n      pop\n        /* \"ehr.sol\":4212:4811  function registerPatient(string memory _name, uint256 _age, uint256 _dob, uint256 _aadharnumber, uint256 _height, uint256 _weight, string memory _addressInfo, string memory _phoneNumber) external {... */\n      pop\n      pop\n      pop\n      pop\n      pop\n      pop\n      pop\n      pop\n      jump\t// out\n        /* \"ehr.sol\":3564:3810  function getDoctorAssociatedHospitals() external view returns (address[] memory) {... */\n    tag_50:\n        /* \"ehr.sol\":3627:3643  address[] memory */\n      0x60\n        /* \"ehr.sol\":3706:3707  0 */\n      0x00\n        /* \"ehr.sol\":3664:3708  doctors[msg.sender].docaddress != address(0) */\n      0xffffffffffffffffffffffffffffffffffffffff\n      and\n        /* \"ehr.sol\":3664:3671  doctors */\n      0x05\n        /* \"ehr.sol\":3664:3683  doctors[msg.sender] */\n      0x00\n        /* \"ehr.sol\":3672:3682  msg.sender */\n      caller\n        /* \"ehr.sol\":3664:3683  doctors[msg.sender] */\n      0xffffffffffffffffffffffffffffffffffffffff\n      and\n      0xffffffffffffffffffffffffffffffffffffffff\n      and\n      dup2\n      mstore\n      0x20\n      add\n      swap1\n      dup2\n      mstore\n      0x20\n      add\n      0x00\n      keccak256\n        /* \"ehr.sol\":3664:3694  doctors[msg.sender].docaddress */\n      0x02\n      add\n      0x00\n      swap1\n      sload\n      swap1\n      0x0100\n      exp\n      swap1\n      div\n      0xffffffffffffffffffffffffffffffffffffffff\n      and\n        /* \"ehr.sol\":3664:3708  doctors[msg.sender].docaddress != address(0) */\n      0xffffffffffffffffffffffffffffffffffffffff\n      and\n      sub\n        /* \"ehr.sol\":3656:3745  require(doctors[msg.sender].docaddress != address(0), \"Doctor not found in general list\") */\n      tag_176\n      jumpi\n      mload(0x40)\n      0x08c379a000000000000000000000000000000000000000000000000000000000\n      dup2\n      mstore\n      0x04\n      add\n      tag_177\n      swap1\n      tag_126\n      jump\t// in\n    tag_177:\n      mload(0x40)\n      dup1\n      swap2\n      sub\n      swap1\n      revert\n    tag_176:\n        /* \"ehr.sol\":3763:3770  doctors */\n      0x05\n        /* \"ehr.sol\":3763:3782  doctors[msg.sender] */\n      0x00\n        /* \"ehr.sol\":3771:3781  msg.sender */\n      caller\n        /* \"ehr.sol\":3763:3782  doctors[msg.sender] */\n      0xffffffffffffffffffffffffffffffffffffffff\n      and\n      0xffffffffffffffffffffffffffffffffffffffff\n      and\n      dup2\n      mstore\n      0x20\n      add\n      swap1\n      dup2\n      mstore\n      0x20\n      add\n      0x00\n      keccak256\n        /* \"ehr.sol\":3763:3802  doctors[msg.sender].associatedHospitals */\n      0x03\n      add\n        /* \"ehr.sol\":3756:3802  return doctors[msg.sender].associatedHospitals */\n      dup1\n      sload\n      dup1\n      0x20\n      mul\n      0x20\n      add\n      mload(0x40)\n      swap1\n      dup2\n      add\n      0x40\n      mstore\n      dup1\n      swap3\n      swap2\n      swap1\n      dup2\n      dup2\n      mstore\n      0x20\n      add\n      dup3\n      dup1\n      sload\n      dup1\n      iszero\n      tag_178\n      jumpi\n      0x20\n      mul\n      dup3\n      add\n      swap2\n      swap1\n      0x00\n      mstore\n      keccak256(0x00, 0x20)\n      swap1\n    tag_179:\n      dup2\n      0x00\n      swap1\n      sload\n      swap1\n      0x0100\n      exp\n      swap1\n      div\n      0xffffffffffffffffffffffffffffffffffffffff\n      and\n      0xffffffffffffffffffffffffffffffffffffffff\n      and\n      dup2\n      mstore\n      0x20\n      add\n      swap1\n      0x01\n      add\n      swap1\n      dup1\n      dup4\n      gt\n      tag_179\n      jumpi\n    tag_178:\n      pop\n      pop\n      pop\n      pop\n      pop\n      swap1\n      pop\n        /* \"ehr.sol\":3564:3810  function getDoctorAssociatedHospitals() external view returns (address[] memory) {... */\n      swap1\n      jump\t// out\n        /* \"ehr.sol\":3171:3556  function addDoctorToHospital(address _doctorAddress, address[] calldata _associatedHospitals) external onlyOrganization {... */\n    tag_56:\n        /* \"ehr.sol\":1543:1556  organizations */\n      0x04\n        /* \"ehr.sol\":1543:1568  organizations[msg.sender] */\n      0x00\n        /* \"ehr.sol\":1557:1567  msg.sender */\n      caller\n        /* \"ehr.sol\":1543:1568  organizations[msg.sender] */\n      0xffffffffffffffffffffffffffffffffffffffff\n      and\n      0xffffffffffffffffffffffffffffffffffffffff\n      and\n      dup2\n      mstore\n      0x20\n      add\n      swap1\n      dup2\n      mstore\n      0x20\n      add\n      0x00\n      keccak256\n        /* \"ehr.sol\":1543:1576  organizations[msg.sender].doctors */\n      0x02\n      add\n        /* \"ehr.sol\":1543:1588  organizations[msg.sender].doctors[msg.sender] */\n      0x00\n        /* \"ehr.sol\":1577:1587  msg.sender */\n      caller\n        /* \"ehr.sol\":1543:1588  organizations[msg.sender].doctors[msg.sender] */\n      0xffffffffffffffffffffffffffffffffffffffff\n      and\n      0xffffffffffffffffffffffffffffffffffffffff\n      and\n      dup2\n      mstore\n      0x20\n      add\n      swap1\n      dup2\n      mstore\n      0x20\n      add\n      0x00\n      keccak256\n      0x00\n      swap1\n      sload\n      swap1\n      0x0100\n      exp\n      swap1\n      div\n      0xff\n      and\n        /* \"ehr.sol\":1535:1642  require(organizations[msg.sender].doctors[msg.sender], \"Only organization members can perform this action\") */\n      tag_181\n      jumpi\n      mload(0x40)\n      0x08c379a000000000000000000000000000000000000000000000000000000000\n      dup2\n      mstore\n      0x04\n      add\n      tag_182\n      swap1\n      tag_183\n      jump\t// in\n    tag_182:\n      mload(0x40)\n      dup1\n      swap2\n      sub\n      swap1\n      revert\n    tag_181:\n        /* \"ehr.sol\":3356:3357  0 */\n      0x00\n        /* \"ehr.sol\":3310:3358  doctors[_doctorAddress].docaddress != address(0) */\n      0xffffffffffffffffffffffffffffffffffffffff\n      and\n        /* \"ehr.sol\":3310:3317  doctors */\n      0x05\n        /* \"ehr.sol\":3310:3333  doctors[_doctorAddress] */\n      0x00\n        /* \"ehr.sol\":3318:3332  _doctorAddress */\n      dup6\n        /* \"ehr.sol\":3310:3333  doctors[_doctorAddress] */\n      0xffffffffffffffffffffffffffffffffffffffff\n      and\n      0xffffffffffffffffffffffffffffffffffffffff\n      and\n      dup2\n      mstore\n      0x20\n      add\n      swap1\n      dup2\n      mstore\n      0x20\n      add\n      0x00\n      keccak256\n        /* \"ehr.sol\":3310:3344  doctors[_doctorAddress].docaddress */\n      0x02\n      add\n      0x00\n      swap1\n      sload\n      swap1\n      0x0100\n      exp\n      swap1\n      div\n      0xffffffffffffffffffffffffffffffffffffffff\n      and\n        /* \"ehr.sol\":3310:3358  doctors[_doctorAddress].docaddress != address(0) */\n      0xffffffffffffffffffffffffffffffffffffffff\n      and\n      sub\n        /* \"ehr.sol\":3302:3395  require(doctors[_doctorAddress].docaddress != address(0), \"Doctor not found in general list\") */\n      tag_185\n      jumpi\n      mload(0x40)\n      0x08c379a000000000000000000000000000000000000000000000000000000000\n      dup2\n      mstore\n      0x04\n      add\n      tag_186\n      swap1\n      tag_126\n      jump\t// in\n    tag_186:\n      mload(0x40)\n      dup1\n      swap2\n      sub\n      swap1\n      revert\n    tag_185:\n        /* \"ehr.sol\":3440:3447  doctors */\n      0x05\n        /* \"ehr.sol\":3440:3463  doctors[_doctorAddress] */\n      0x00\n        /* \"ehr.sol\":3448:3462  _doctorAddress */\n      dup5\n        /* \"ehr.sol\":3440:3463  doctors[_doctorAddress] */\n      0xffffffffffffffffffffffffffffffffffffffff\n      and\n      0xffffffffffffffffffffffffffffffffffffffff\n      and\n      dup2\n      mstore\n      0x20\n      add\n      swap1\n      dup2\n      mstore\n      0x20\n      add\n      0x00\n      keccak256\n        /* \"ehr.sol\":3406:3421  hospitalDoctors */\n      0x06\n        /* \"ehr.sol\":3406:3437  hospitalDoctors[_doctorAddress] */\n      0x00\n        /* \"ehr.sol\":3422:3436  _doctorAddress */\n      dup6\n        /* \"ehr.sol\":3406:3437  hospitalDoctors[_doctorAddress] */\n      0xffffffffffffffffffffffffffffffffffffffff\n      and\n      0xffffffffffffffffffffffffffffffffffffffff\n      and\n      dup2\n      mstore\n      0x20\n      add\n      swap1\n      dup2\n      mstore\n      0x20\n      add\n      0x00\n      keccak256\n        /* \"ehr.sol\":3406:3463  hospitalDoctors[_doctorAddress] = doctors[_doctorAddress] */\n      0x00\n      dup3\n      add\n      dup2\n      0x00\n      add\n      swap1\n      dup2\n      tag_187\n      swap2\n      swap1\n      tag_188\n      jump\t// in\n    tag_187:\n      pop\n      0x01\n      dup3\n      add\n      dup2\n      0x01\n      add\n      swap1\n      dup2\n      tag_189\n      swap2\n      swap1\n      tag_188\n      jump\t// in\n    tag_189:\n      pop\n      0x02\n      dup3\n      add\n      0x00\n      swap1\n      sload\n      swap1\n      0x0100\n      exp\n      swap1\n      div\n      0xffffffffffffffffffffffffffffffffffffffff\n      and\n      dup2\n      0x02\n      add\n      exp(0x0100, 0x00)\n      dup2\n      sload\n      dup2\n      0xffffffffffffffffffffffffffffffffffffffff\n      mul\n      not\n      and\n      swap1\n      dup4\n      0xffffffffffffffffffffffffffffffffffffffff\n      and\n      mul\n      or\n      swap1\n      sstore\n      pop\n      0x03\n      dup3\n      add\n      dup2\n      0x03\n      add\n      swap1\n      dup1\n      sload\n      tag_190\n      swap3\n      swap2\n      swap1\n      tag_191\n      jump\t// in\n    tag_190:\n      pop\n      0x04\n      dup3\n      add\n      0x00\n      swap1\n      sload\n      swap1\n      0x0100\n      exp\n      swap1\n      div\n      0xffffffffffffffffffffffffffffffffffffffff\n      and\n      dup2\n      0x04\n      add\n      exp(0x0100, 0x00)\n      dup2\n      sload\n      dup2\n      0xffffffffffffffffffffffffffffffffffffffff\n      mul\n      not\n      and\n      swap1\n      dup4\n      0xffffffffffffffffffffffffffffffffffffffff\n      and\n      mul\n      or\n      swap1\n      sstore\n      pop\n      swap1\n      pop\n      pop\n        /* \"ehr.sol\":3528:3548  _associatedHospitals */\n      dup2\n      dup2\n        /* \"ehr.sol\":3474:3489  hospitalDoctors */\n      0x06\n        /* \"ehr.sol\":3474:3505  hospitalDoctors[_doctorAddress] */\n      0x00\n        /* \"ehr.sol\":3490:3504  _doctorAddress */\n      dup7\n        /* \"ehr.sol\":3474:3505  hospitalDoctors[_doctorAddress] */\n      0xffffffffffffffffffffffffffffffffffffffff\n      and\n      0xffffffffffffffffffffffffffffffffffffffff\n      and\n      dup2\n      mstore\n      0x20\n      add\n      swap1\n      dup2\n      mstore\n      0x20\n      add\n      0x00\n      keccak256\n        /* \"ehr.sol\":3474:3525  hospitalDoctors[_doctorAddress].associatedHospitals */\n      0x03\n      add\n        /* \"ehr.sol\":3474:3548  hospitalDoctors[_doctorAddress].associatedHospitals = _associatedHospitals */\n      swap2\n      swap1\n      tag_192\n      swap3\n      swap2\n      swap1\n      tag_193\n      jump\t// in\n    tag_192:\n      pop\n        /* \"ehr.sol\":3171:3556  function addDoctorToHospital(address _doctorAddress, address[] calldata _associatedHospitals) external onlyOrganization {... */\n      pop\n      pop\n      pop\n      jump\t// out\n        /* \"ehr.sol\":3819:4204  function isDoctorAssociatedWithHospital(address _doctorAddress, address _hospitalAddress) internal view returns (bool) {... */\n    tag_128:\n        /* \"ehr.sol\":3932:3936  bool */\n      0x00\n        /* \"ehr.sol\":3954:3963  uint256 i */\n      dup1\n        /* \"ehr.sol\":3966:3967  0 */\n      0x00\n        /* \"ehr.sol\":3954:3967  uint256 i = 0 */\n      swap1\n      pop\n        /* \"ehr.sol\":3949:4174  for (uint256 i = 0; i < doctors[_doctorAddress].associatedHospitals.length; i++) {... */\n    tag_195:\n        /* \"ehr.sol\":3973:3980  doctors */\n      0x05\n        /* \"ehr.sol\":3973:3996  doctors[_doctorAddress] */\n      0x00\n        /* \"ehr.sol\":3981:3995  _doctorAddress */\n      dup6\n        /* \"ehr.sol\":3973:3996  doctors[_doctorAddress] */\n      0xffffffffffffffffffffffffffffffffffffffff\n      and\n      0xffffffffffffffffffffffffffffffffffffffff\n      and\n      dup2\n      mstore\n      0x20\n      add\n      swap1\n      dup2\n      mstore\n      0x20\n      add\n      0x00\n      keccak256\n        /* \"ehr.sol\":3973:4016  doctors[_doctorAddress].associatedHospitals */\n      0x03\n      add\n        /* \"ehr.sol\":3973:4023  doctors[_doctorAddress].associatedHospitals.length */\n      dup1\n      sload\n      swap1\n      pop\n        /* \"ehr.sol\":3969:3970  i */\n      dup2\n        /* \"ehr.sol\":3969:4023  i < doctors[_doctorAddress].associatedHospitals.length */\n      lt\n        /* \"ehr.sol\":3949:4174  for (uint256 i = 0; i < doctors[_doctorAddress].associatedHospitals.length; i++) {... */\n      iszero\n      tag_196\n      jumpi\n        /* \"ehr.sol\":4099:4115  _hospitalAddress */\n      dup3\n        /* \"ehr.sol\":4049:4115  doctors[_doctorAddress].associatedHospitals[i] == _hospitalAddress */\n      0xffffffffffffffffffffffffffffffffffffffff\n      and\n        /* \"ehr.sol\":4049:4056  doctors */\n      0x05\n        /* \"ehr.sol\":4049:4072  doctors[_doctorAddress] */\n      0x00\n        /* \"ehr.sol\":4057:4071  _doctorAddress */\n      dup7\n        /* \"ehr.sol\":4049:4072  doctors[_doctorAddress] */\n      0xffffffffffffffffffffffffffffffffffffffff\n      and\n      0xffffffffffffffffffffffffffffffffffffffff\n      and\n      dup2\n      mstore\n      0x20\n      add\n      swap1\n      dup2\n      mstore\n      0x20\n      add\n      0x00\n      keccak256\n        /* \"ehr.sol\":4049:4092  doctors[_doctorAddress].associatedHospitals */\n      0x03\n      add\n        /* \"ehr.sol\":4093:4094  i */\n      dup3\n        /* \"ehr.sol\":4049:4095  doctors[_doctorAddress].associatedHospitals[i] */\n      dup2\n      sload\n      dup2\n      lt\n      tag_198\n      jumpi\n      tag_199\n      tag_118\n      jump\t// in\n    tag_199:\n    tag_198:\n      swap1\n      0x00\n      mstore\n      keccak256(0x00, 0x20)\n      add\n      0x00\n      swap1\n      sload\n      swap1\n      0x0100\n      exp\n      swap1\n      div\n      0xffffffffffffffffffffffffffffffffffffffff\n      and\n        /* \"ehr.sol\":4049:4115  doctors[_doctorAddress].associatedHospitals[i] == _hospitalAddress */\n      0xffffffffffffffffffffffffffffffffffffffff\n      and\n      sub\n        /* \"ehr.sol\":4045:4163  if (doctors[_doctorAddress].associatedHospitals[i] == _hospitalAddress) {... */\n      tag_201\n      jumpi\n        /* \"ehr.sol\":4143:4147  true */\n      0x01\n        /* \"ehr.sol\":4136:4147  return true */\n      swap2\n      pop\n      pop\n      jump(tag_194)\n        /* \"ehr.sol\":4045:4163  if (doctors[_doctorAddress].associatedHospitals[i] == _hospitalAddress) {... */\n    tag_201:\n        /* \"ehr.sol\":4025:4028  i++ */\n      dup1\n      dup1\n      tag_202\n      swap1\n      tag_154\n      jump\t// in\n    tag_202:\n      swap2\n      pop\n      pop\n        /* \"ehr.sol\":3949:4174  for (uint256 i = 0; i < doctors[_doctorAddress].associatedHospitals.length; i++) {... */\n      jump(tag_195)\n    tag_196:\n      pop\n        /* \"ehr.sol\":4191:4196  false */\n      0x00\n        /* \"ehr.sol\":4184:4196  return false */\n      swap1\n      pop\n        /* \"ehr.sol\":3819:4204  function isDoctorAssociatedWithHospital(address _doctorAddress, address _hospitalAddress) internal view returns (bool) {... */\n    tag_194:\n      swap3\n      swap2\n      pop\n      pop\n      jump\t// out\n    tag_191:\n      dup3\n      dup1\n      sload\n      dup3\n      dup3\n      sstore\n      swap1\n      0x00\n      mstore\n      keccak256(0x00, 0x20)\n      swap1\n      dup2\n      add\n      swap3\n      dup3\n      iszero\n      tag_203\n      jumpi\n      0x00\n      mstore\n      keccak256(0x00, 0x20)\n      swap2\n      dup3\n      add\n    tag_204:\n      dup3\n      dup2\n      gt\n      iszero\n      tag_205\n      jumpi\n      dup3\n      sload\n      dup3\n      sstore\n      swap2\n      0x01\n      add\n      swap2\n      swap1\n      0x01\n      add\n      swap1\n      jump(tag_204)\n    tag_205:\n    tag_203:\n      pop\n      swap1\n      pop\n      tag_206\n      swap2\n      swap1\n      tag_207\n      jump\t// in\n    tag_206:\n      pop\n      swap1\n      jump\t// out\n    tag_193:\n      dup3\n      dup1\n      sload\n      dup3\n      dup3\n      sstore\n      swap1\n      0x00\n      mstore\n      keccak256(0x00, 0x20)\n      swap1\n      dup2\n      add\n      swap3\n      dup3\n      iszero\n      tag_208\n      jumpi\n      swap2\n      0x20\n      mul\n      dup3\n      add\n    tag_209:\n      dup3\n      dup2\n      gt\n      iszero\n      tag_210\n      jumpi\n      dup3\n      calldataload\n      0xffffffffffffffffffffffffffffffffffffffff\n      and\n      dup3\n      exp(0x0100, 0x00)\n      dup2\n      sload\n      dup2\n      0xffffffffffffffffffffffffffffffffffffffff\n      mul\n      not\n      and\n      swap1\n      dup4\n      0xffffffffffffffffffffffffffffffffffffffff\n      and\n      mul\n      or\n      swap1\n      sstore\n      pop\n      swap2\n      0x20\n      add\n      swap2\n      swap1\n      0x01\n      add\n      swap1\n      jump(tag_209)\n    tag_210:\n    tag_208:\n      pop\n      swap1\n      pop\n      tag_211\n      swap2\n      swap1\n      tag_207\n      jump\t// in\n    tag_211:\n      pop\n      swap1\n      jump\t// out\n    tag_207:\n    tag_212:\n      dup1\n      dup3\n      gt\n      iszero\n      tag_213\n      jumpi\n      0x00\n      dup2\n      0x00\n      swap1\n      sstore\n      pop\n      0x01\n      add\n      jump(tag_212)\n    tag_213:\n      pop\n      swap1\n      jump\t// out\n        /* \"#utility.yul\":7:82   */\n    tag_214:\n        /* \"#utility.yul\":40:46   */\n      0x00\n        /* \"#utility.yul\":73:75   */\n      0x40\n        /* \"#utility.yul\":67:76   */\n      mload\n        /* \"#utility.yul\":57:76   */\n      swap1\n      pop\n        /* \"#utility.yul\":7:82   */\n      swap1\n      jump\t// out\n        /* \"#utility.yul\":88:205   */\n    tag_215:\n        /* \"#utility.yul\":197:198   */\n      0x00\n        /* \"#utility.yul\":194:195   */\n      dup1\n        /* \"#utility.yul\":187:199   */\n      revert\n        /* \"#utility.yul\":211:328   */\n    tag_216:\n        /* \"#utility.yul\":320:321   */\n      0x00\n        /* \"#utility.yul\":317:318   */\n      dup1\n        /* \"#utility.yul\":310:322   */\n      revert\n        /* \"#utility.yul\":334:411   */\n    tag_217:\n        /* \"#utility.yul\":371:378   */\n      0x00\n        /* \"#utility.yul\":400:405   */\n      dup2\n        /* \"#utility.yul\":389:405   */\n      swap1\n      pop\n        /* \"#utility.yul\":334:411   */\n      swap2\n      swap1\n      pop\n      jump\t// out\n        /* \"#utility.yul\":417:539   */\n    tag_218:\n        /* \"#utility.yul\":490:514   */\n      tag_307\n        /* \"#utility.yul\":508:513   */\n      dup2\n        /* \"#utility.yul\":490:514   */\n      tag_217\n      jump\t// in\n    tag_307:\n        /* \"#utility.yul\":483:488   */\n      dup2\n        /* \"#utility.yul\":480:515   */\n      eq\n        /* \"#utility.yul\":470:533   */\n      tag_308\n      jumpi\n        /* \"#utility.yul\":529:530   */\n      0x00\n        /* \"#utility.yul\":526:527   */\n      dup1\n        /* \"#utility.yul\":519:531   */\n      revert\n        /* \"#utility.yul\":470:533   */\n    tag_308:\n        /* \"#utility.yul\":417:539   */\n      pop\n      jump\t// out\n        /* \"#utility.yul\":545:684   */\n    tag_219:\n        /* \"#utility.yul\":591:596   */\n      0x00\n        /* \"#utility.yul\":629:635   */\n      dup2\n        /* \"#utility.yul\":616:636   */\n      calldataload\n        /* \"#utility.yul\":607:636   */\n      swap1\n      pop\n        /* \"#utility.yul\":645:678   */\n      tag_310\n        /* \"#utility.yul\":672:677   */\n      dup2\n        /* \"#utility.yul\":645:678   */\n      tag_218\n      jump\t// in\n    tag_310:\n        /* \"#utility.yul\":545:684   */\n      swap3\n      swap2\n      pop\n      pop\n      jump\t// out\n        /* \"#utility.yul\":690:1019   */\n    tag_16:\n        /* \"#utility.yul\":749:755   */\n      0x00\n        /* \"#utility.yul\":798:800   */\n      0x20\n        /* \"#utility.yul\":786:795   */\n      dup3\n        /* \"#utility.yul\":777:784   */\n      dup5\n        /* \"#utility.yul\":773:796   */\n      sub\n        /* \"#utility.yul\":769:801   */\n      slt\n        /* \"#utility.yul\":766:885   */\n      iszero\n      tag_312\n      jumpi\n        /* \"#utility.yul\":804:883   */\n      tag_313\n      tag_215\n      jump\t// in\n    tag_313:\n        /* \"#utility.yul\":766:885   */\n    tag_312:\n        /* \"#utility.yul\":924:925   */\n      0x00\n        /* \"#utility.yul\":949:1002   */\n      tag_314\n        /* \"#utility.yul\":994:1001   */\n      dup5\n        /* \"#utility.yul\":985:991   */\n      dup3\n        /* \"#utility.yul\":974:983   */\n      dup6\n        /* \"#utility.yul\":970:992   */\n      add\n        /* \"#utility.yul\":949:1002   */\n      tag_219\n      jump\t// in\n    tag_314:\n        /* \"#utility.yul\":939:1002   */\n      swap2\n      pop\n        /* \"#utility.yul\":895:1012   */\n      pop\n        /* \"#utility.yul\":690:1019   */\n      swap3\n      swap2\n      pop\n      pop\n      jump\t// out\n        /* \"#utility.yul\":1025:1124   */\n    tag_220:\n        /* \"#utility.yul\":1077:1083   */\n      0x00\n        /* \"#utility.yul\":1111:1116   */\n      dup2\n        /* \"#utility.yul\":1105:1117   */\n      mload\n        /* \"#utility.yul\":1095:1117   */\n      swap1\n      pop\n        /* \"#utility.yul\":1025:1124   */\n      swap2\n      swap1\n      pop\n      jump\t// out\n        /* \"#utility.yul\":1130:1299   */\n    tag_221:\n        /* \"#utility.yul\":1214:1225   */\n      0x00\n        /* \"#utility.yul\":1248:1254   */\n      dup3\n        /* \"#utility.yul\":1243:1246   */\n      dup3\n        /* \"#utility.yul\":1236:1255   */\n      mstore\n        /* \"#utility.yul\":1288:1292   */\n      0x20\n        /* \"#utility.yul\":1283:1286   */\n      dup3\n        /* \"#utility.yul\":1279:1293   */\n      add\n        /* \"#utility.yul\":1264:1293   */\n      swap1\n      pop\n        /* \"#utility.yul\":1130:1299   */\n      swap3\n      swap2\n      pop\n      pop\n      jump\t// out\n        /* \"#utility.yul\":1305:1551   */\n    tag_222:\n        /* \"#utility.yul\":1386:1387   */\n      0x00\n        /* \"#utility.yul\":1396:1509   */\n    tag_318:\n        /* \"#utility.yul\":1410:1416   */\n      dup4\n        /* \"#utility.yul\":1407:1408   */\n      dup2\n        /* \"#utility.yul\":1404:1417   */\n      lt\n        /* \"#utility.yul\":1396:1509   */\n      iszero\n      tag_320\n      jumpi\n        /* \"#utility.yul\":1495:1496   */\n      dup1\n        /* \"#utility.yul\":1490:1493   */\n      dup3\n        /* \"#utility.yul\":1486:1497   */\n      add\n        /* \"#utility.yul\":1480:1498   */\n      mload\n        /* \"#utility.yul\":1476:1477   */\n      dup2\n        /* \"#utility.yul\":1471:1474   */\n      dup5\n        /* \"#utility.yul\":1467:1478   */\n      add\n        /* \"#utility.yul\":1460:1499   */\n      mstore\n        /* \"#utility.yul\":1432:1434   */\n      0x20\n        /* \"#utility.yul\":1429:1430   */\n      dup2\n        /* \"#utility.yul\":1425:1435   */\n      add\n        /* \"#utility.yul\":1420:1435   */\n      swap1\n      pop\n        /* \"#utility.yul\":1396:1509   */\n      jump(tag_318)\n    tag_320:\n        /* \"#utility.yul\":1543:1544   */\n      0x00\n        /* \"#utility.yul\":1534:1540   */\n      dup5\n        /* \"#utility.yul\":1529:1532   */\n      dup5\n        /* \"#utility.yul\":1525:1541   */\n      add\n        /* \"#utility.yul\":1518:1545   */\n      mstore\n        /* \"#utility.yul\":1367:1551   */\n      pop\n        /* \"#utility.yul\":1305:1551   */\n      pop\n      pop\n      pop\n      jump\t// out\n        /* \"#utility.yul\":1557:1659   */\n    tag_223:\n        /* \"#utility.yul\":1598:1604   */\n      0x00\n        /* \"#utility.yul\":1649:1651   */\n      0x1f\n        /* \"#utility.yul\":1645:1652   */\n      not\n        /* \"#utility.yul\":1640:1642   */\n      0x1f\n        /* \"#utility.yul\":1633:1638   */\n      dup4\n        /* \"#utility.yul\":1629:1643   */\n      add\n        /* \"#utility.yul\":1625:1653   */\n      and\n        /* \"#utility.yul\":1615:1653   */\n      swap1\n      pop\n        /* \"#utility.yul\":1557:1659   */\n      swap2\n      swap1\n      pop\n      jump\t// out\n        /* \"#utility.yul\":1665:2042   */\n    tag_224:\n        /* \"#utility.yul\":1753:1756   */\n      0x00\n        /* \"#utility.yul\":1781:1820   */\n      tag_323\n        /* \"#utility.yul\":1814:1819   */\n      dup3\n        /* \"#utility.yul\":1781:1820   */\n      tag_220\n      jump\t// in\n    tag_323:\n        /* \"#utility.yul\":1836:1907   */\n      tag_324\n        /* \"#utility.yul\":1900:1906   */\n      dup2\n        /* \"#utility.yul\":1895:1898   */\n      dup6\n        /* \"#utility.yul\":1836:1907   */\n      tag_221\n      jump\t// in\n    tag_324:\n        /* \"#utility.yul\":1829:1907   */\n      swap4\n      pop\n        /* \"#utility.yul\":1916:1981   */\n      tag_325\n        /* \"#utility.yul\":1974:1980   */\n      dup2\n        /* \"#utility.yul\":1969:1972   */\n      dup6\n        /* \"#utility.yul\":1962:1966   */\n      0x20\n        /* \"#utility.yul\":1955:1960   */\n      dup7\n        /* \"#utility.yul\":1951:1967   */\n      add\n        /* \"#utility.yul\":1916:1981   */\n      tag_222\n      jump\t// in\n    tag_325:\n        /* \"#utility.yul\":2006:2035   */\n      tag_326\n        /* \"#utility.yul\":2028:2034   */\n      dup2\n        /* \"#utility.yul\":2006:2035   */\n      tag_223\n      jump\t// in\n    tag_326:\n        /* \"#utility.yul\":2001:2004   */\n      dup5\n        /* \"#utility.yul\":1997:2036   */\n      add\n        /* \"#utility.yul\":1990:2036   */\n      swap2\n      pop\n        /* \"#utility.yul\":1757:2042   */\n      pop\n        /* \"#utility.yul\":1665:2042   */\n      swap3\n      swap2\n      pop\n      pop\n      jump\t// out\n        /* \"#utility.yul\":2048:2166   */\n    tag_225:\n        /* \"#utility.yul\":2135:2159   */\n      tag_328\n        /* \"#utility.yul\":2153:2158   */\n      dup2\n        /* \"#utility.yul\":2135:2159   */\n      tag_217\n      jump\t// in\n    tag_328:\n        /* \"#utility.yul\":2130:2133   */\n      dup3\n        /* \"#utility.yul\":2123:2160   */\n      mstore\n        /* \"#utility.yul\":2048:2166   */\n      pop\n      pop\n      jump\t// out\n        /* \"#utility.yul\":2172:3331   */\n    tag_19:\n        /* \"#utility.yul\":2493:2497   */\n      0x00\n        /* \"#utility.yul\":2531:2534   */\n      0xe0\n        /* \"#utility.yul\":2520:2529   */\n      dup3\n        /* \"#utility.yul\":2516:2535   */\n      add\n        /* \"#utility.yul\":2508:2535   */\n      swap1\n      pop\n        /* \"#utility.yul\":2581:2590   */\n      dup2\n        /* \"#utility.yul\":2575:2579   */\n      dup2\n        /* \"#utility.yul\":2571:2591   */\n      sub\n        /* \"#utility.yul\":2567:2568   */\n      0x00\n        /* \"#utility.yul\":2556:2565   */\n      dup4\n        /* \"#utility.yul\":2552:2569   */\n      add\n        /* \"#utility.yul\":2545:2592   */\n      mstore\n        /* \"#utility.yul\":2609:2687   */\n      tag_330\n        /* \"#utility.yul\":2682:2686   */\n      dup2\n        /* \"#utility.yul\":2673:2679   */\n      dup11\n        /* \"#utility.yul\":2609:2687   */\n      tag_224\n      jump\t// in\n    tag_330:\n        /* \"#utility.yul\":2601:2687   */\n      swap1\n      pop\n        /* \"#utility.yul\":2697:2769   */\n      tag_331\n        /* \"#utility.yul\":2765:2767   */\n      0x20\n        /* \"#utility.yul\":2754:2763   */\n      dup4\n        /* \"#utility.yul\":2750:2768   */\n      add\n        /* \"#utility.yul\":2741:2747   */\n      dup10\n        /* \"#utility.yul\":2697:2769   */\n      tag_225\n      jump\t// in\n    tag_331:\n        /* \"#utility.yul\":2779:2851   */\n      tag_332\n        /* \"#utility.yul\":2847:2849   */\n      0x40\n        /* \"#utility.yul\":2836:2845   */\n      dup4\n        /* \"#utility.yul\":2832:2850   */\n      add\n        /* \"#utility.yul\":2823:2829   */\n      dup9\n        /* \"#utility.yul\":2779:2851   */\n      tag_225\n      jump\t// in\n    tag_332:\n        /* \"#utility.yul\":2861:2933   */\n      tag_333\n        /* \"#utility.yul\":2929:2931   */\n      0x60\n        /* \"#utility.yul\":2918:2927   */\n      dup4\n        /* \"#utility.yul\":2914:2932   */\n      add\n        /* \"#utility.yul\":2905:2911   */\n      dup8\n        /* \"#utility.yul\":2861:2933   */\n      tag_225\n      jump\t// in\n    tag_333:\n        /* \"#utility.yul\":2943:3016   */\n      tag_334\n        /* \"#utility.yul\":3011:3014   */\n      0x80\n        /* \"#utility.yul\":3000:3009   */\n      dup4\n        /* \"#utility.yul\":2996:3015   */\n      add\n        /* \"#utility.yul\":2987:2993   */\n      dup7\n        /* \"#utility.yul\":2943:3016   */\n      tag_225\n      jump\t// in\n    tag_334:\n        /* \"#utility.yul\":3064:3073   */\n      dup2\n        /* \"#utility.yul\":3058:3062   */\n      dup2\n        /* \"#utility.yul\":3054:3074   */\n      sub\n        /* \"#utility.yul\":3048:3051   */\n      0xa0\n        /* \"#utility.yul\":3037:3046   */\n      dup4\n        /* \"#utility.yul\":3033:3052   */\n      add\n        /* \"#utility.yul\":3026:3075   */\n      mstore\n        /* \"#utility.yul\":3092:3170   */\n      tag_335\n        /* \"#utility.yul\":3165:3169   */\n      dup2\n        /* \"#utility.yul\":3156:3162   */\n      dup6\n        /* \"#utility.yul\":3092:3170   */\n      tag_224\n      jump\t// in\n    tag_335:\n        /* \"#utility.yul\":3084:3170   */\n      swap1\n      pop\n        /* \"#utility.yul\":3218:3227   */\n      dup2\n        /* \"#utility.yul\":3212:3216   */\n      dup2\n        /* \"#utility.yul\":3208:3228   */\n      sub\n        /* \"#utility.yul\":3202:3205   */\n      0xc0\n        /* \"#utility.yul\":3191:3200   */\n      dup4\n        /* \"#utility.yul\":3187:3206   */\n      add\n        /* \"#utility.yul\":3180:3229   */\n      mstore\n        /* \"#utility.yul\":3246:3324   */\n      tag_336\n        /* \"#utility.yul\":3319:3323   */\n      dup2\n        /* \"#utility.yul\":3310:3316   */\n      dup5\n        /* \"#utility.yul\":3246:3324   */\n      tag_224\n      jump\t// in\n    tag_336:\n        /* \"#utility.yul\":3238:3324   */\n      swap1\n      pop\n        /* \"#utility.yul\":2172:3331   */\n      swap9\n      swap8\n      pop\n      pop\n      pop\n      pop\n      pop\n      pop\n      pop\n      pop\n      jump\t// out\n        /* \"#utility.yul\":3337:3480   */\n    tag_226:\n        /* \"#utility.yul\":3433:3439   */\n      0x00\n        /* \"#utility.yul\":3467:3472   */\n      dup2\n        /* \"#utility.yul\":3461:3473   */\n      mload\n        /* \"#utility.yul\":3451:3473   */\n      swap1\n      pop\n        /* \"#utility.yul\":3337:3480   */\n      swap2\n      swap1\n      pop\n      jump\t// out\n        /* \"#utility.yul\":3486:3699   */\n    tag_227:\n        /* \"#utility.yul\":3614:3625   */\n      0x00\n        /* \"#utility.yul\":3648:3654   */\n      dup3\n        /* \"#utility.yul\":3643:3646   */\n      dup3\n        /* \"#utility.yul\":3636:3655   */\n      mstore\n        /* \"#utility.yul\":3688:3692   */\n      0x20\n        /* \"#utility.yul\":3683:3686   */\n      dup3\n        /* \"#utility.yul\":3679:3693   */\n      add\n        /* \"#utility.yul\":3664:3693   */\n      swap1\n      pop\n        /* \"#utility.yul\":3486:3699   */\n      swap3\n      swap2\n      pop\n      pop\n      jump\t// out\n        /* \"#utility.yul\":3705:3866   */\n    tag_228:\n        /* \"#utility.yul\":3801:3805   */\n      0x00\n        /* \"#utility.yul\":3824:3827   */\n      dup2\n        /* \"#utility.yul\":3816:3827   */\n      swap1\n      pop\n        /* \"#utility.yul\":3854:3858   */\n      0x20\n        /* \"#utility.yul\":3849:3852   */\n      dup3\n        /* \"#utility.yul\":3845:3859   */\n      add\n        /* \"#utility.yul\":3837:3859   */\n      swap1\n      pop\n        /* \"#utility.yul\":3705:3866   */\n      swap2\n      swap1\n      pop\n      jump\t// out\n        /* \"#utility.yul\":3872:4031   */\n    tag_229:\n        /* \"#utility.yul\":3946:3957   */\n      0x00\n        /* \"#utility.yul\":3980:3986   */\n      dup3\n        /* \"#utility.yul\":3975:3978   */\n      dup3\n        /* \"#utility.yul\":3968:3987   */\n      mstore\n        /* \"#utility.yul\":4020:4024   */\n      0x20\n        /* \"#utility.yul\":4015:4018   */\n      dup3\n        /* \"#utility.yul\":4011:4025   */\n      add\n        /* \"#utility.yul\":3996:4025   */\n      swap1\n      pop\n        /* \"#utility.yul\":3872:4031   */\n      swap3\n      swap2\n      pop\n      pop\n      jump\t// out\n        /* \"#utility.yul\":4037:4394   */\n    tag_230:\n        /* \"#utility.yul\":4115:4118   */\n      0x00\n        /* \"#utility.yul\":4143:4182   */\n      tag_342\n        /* \"#utility.yul\":4176:4181   */\n      dup3\n        /* \"#utility.yul\":4143:4182   */\n      tag_220\n      jump\t// in\n    tag_342:\n        /* \"#utility.yul\":4198:4259   */\n      tag_343\n        /* \"#utility.yul\":4252:4258   */\n      dup2\n        /* \"#utility.yul\":4247:4250   */\n      dup6\n        /* \"#utility.yul\":4198:4259   */\n      tag_229\n      jump\t// in\n    tag_343:\n        /* \"#utility.yul\":4191:4259   */\n      swap4\n      pop\n        /* \"#utility.yul\":4268:4333   */\n      tag_344\n        /* \"#utility.yul\":4326:4332   */\n      dup2\n        /* \"#utility.yul\":4321:4324   */\n      dup6\n        /* \"#utility.yul\":4314:4318   */\n      0x20\n        /* \"#utility.yul\":4307:4312   */\n      dup7\n        /* \"#utility.yul\":4303:4319   */\n      add\n        /* \"#utility.yul\":4268:4333   */\n      tag_222\n      jump\t// in\n    tag_344:\n        /* \"#utility.yul\":4358:4387   */\n      tag_345\n        /* \"#utility.yul\":4380:4386   */\n      dup2\n        /* \"#utility.yul\":4358:4387   */\n      tag_223\n      jump\t// in\n    tag_345:\n        /* \"#utility.yul\":4353:4356   */\n      dup5\n        /* \"#utility.yul\":4349:4388   */\n      add\n        /* \"#utility.yul\":4342:4388   */\n      swap2\n      pop\n        /* \"#utility.yul\":4119:4394   */\n      pop\n        /* \"#utility.yul\":4037:4394   */\n      swap3\n      swap2\n      pop\n      pop\n      jump\t// out\n        /* \"#utility.yul\":4400:4508   */\n    tag_231:\n        /* \"#utility.yul\":4477:4501   */\n      tag_347\n        /* \"#utility.yul\":4495:4500   */\n      dup2\n        /* \"#utility.yul\":4477:4501   */\n      tag_217\n      jump\t// in\n    tag_347:\n        /* \"#utility.yul\":4472:4475   */\n      dup3\n        /* \"#utility.yul\":4465:4502   */\n      mstore\n        /* \"#utility.yul\":4400:4508   */\n      pop\n      pop\n      jump\t// out\n        /* \"#utility.yul\":4514:4640   */\n    tag_232:\n        /* \"#utility.yul\":4551:4558   */\n      0x00\n        /* \"#utility.yul\":4591:4633   */\n      0xffffffffffffffffffffffffffffffffffffffff\n        /* \"#utility.yul\":4584:4589   */\n      dup3\n        /* \"#utility.yul\":4580:4634   */\n      and\n        /* \"#utility.yul\":4569:4634   */\n      swap1\n      pop\n        /* \"#utility.yul\":4514:4640   */\n      swap2\n      swap1\n      pop\n      jump\t// out\n        /* \"#utility.yul\":4646:4742   */\n    tag_233:\n        /* \"#utility.yul\":4683:4690   */\n      0x00\n        /* \"#utility.yul\":4712:4736   */\n      tag_350\n        /* \"#utility.yul\":4730:4735   */\n      dup3\n        /* \"#utility.yul\":4712:4736   */\n      tag_232\n      jump\t// in\n    tag_350:\n        /* \"#utility.yul\":4701:4736   */\n      swap1\n      pop\n        /* \"#utility.yul\":4646:4742   */\n      swap2\n      swap1\n      pop\n      jump\t// out\n        /* \"#utility.yul\":4748:4856   */\n    tag_234:\n        /* \"#utility.yul\":4825:4849   */\n      tag_352\n        /* \"#utility.yul\":4843:4848   */\n      dup2\n        /* \"#utility.yul\":4825:4849   */\n      tag_233\n      jump\t// in\n    tag_352:\n        /* \"#utility.yul\":4820:4823   */\n      dup3\n        /* \"#utility.yul\":4813:4850   */\n      mstore\n        /* \"#utility.yul\":4748:4856   */\n      pop\n      pop\n      jump\t// out\n        /* \"#utility.yul\":4934:6152   */\n    tag_235:\n        /* \"#utility.yul\":5051:5054   */\n      0x00\n        /* \"#utility.yul\":5087:5091   */\n      0xa0\n        /* \"#utility.yul\":5082:5085   */\n      dup4\n        /* \"#utility.yul\":5078:5092   */\n      add\n        /* \"#utility.yul\":5176:5180   */\n      0x00\n        /* \"#utility.yul\":5169:5174   */\n      dup4\n        /* \"#utility.yul\":5165:5181   */\n      add\n        /* \"#utility.yul\":5159:5182   */\n      mload\n        /* \"#utility.yul\":5229:5232   */\n      dup5\n        /* \"#utility.yul\":5223:5227   */\n      dup3\n        /* \"#utility.yul\":5219:5233   */\n      sub\n        /* \"#utility.yul\":5212:5216   */\n      0x00\n        /* \"#utility.yul\":5207:5210   */\n      dup7\n        /* \"#utility.yul\":5203:5217   */\n      add\n        /* \"#utility.yul\":5196:5234   */\n      mstore\n        /* \"#utility.yul\":5255:5328   */\n      tag_354\n        /* \"#utility.yul\":5323:5327   */\n      dup3\n        /* \"#utility.yul\":5309:5321   */\n      dup3\n        /* \"#utility.yul\":5255:5328   */\n      tag_230\n      jump\t// in\n    tag_354:\n        /* \"#utility.yul\":5247:5328   */\n      swap2\n      pop\n        /* \"#utility.yul\":5102:5339   */\n      pop\n        /* \"#utility.yul\":5429:5433   */\n      0x20\n        /* \"#utility.yul\":5422:5427   */\n      dup4\n        /* \"#utility.yul\":5418:5434   */\n      add\n        /* \"#utility.yul\":5412:5435   */\n      mload\n        /* \"#utility.yul\":5482:5485   */\n      dup5\n        /* \"#utility.yul\":5476:5480   */\n      dup3\n        /* \"#utility.yul\":5472:5486   */\n      sub\n        /* \"#utility.yul\":5465:5469   */\n      0x20\n        /* \"#utility.yul\":5460:5463   */\n      dup7\n        /* \"#utility.yul\":5456:5470   */\n      add\n        /* \"#utility.yul\":5449:5487   */\n      mstore\n        /* \"#utility.yul\":5508:5581   */\n      tag_355\n        /* \"#utility.yul\":5576:5580   */\n      dup3\n        /* \"#utility.yul\":5562:5574   */\n      dup3\n        /* \"#utility.yul\":5508:5581   */\n      tag_230\n      jump\t// in\n    tag_355:\n        /* \"#utility.yul\":5500:5581   */\n      swap2\n      pop\n        /* \"#utility.yul\":5349:5592   */\n      pop\n        /* \"#utility.yul\":5679:5683   */\n      0x40\n        /* \"#utility.yul\":5672:5677   */\n      dup4\n        /* \"#utility.yul\":5668:5684   */\n      add\n        /* \"#utility.yul\":5662:5685   */\n      mload\n        /* \"#utility.yul\":5698:5761   */\n      tag_356\n        /* \"#utility.yul\":5755:5759   */\n      0x40\n        /* \"#utility.yul\":5750:5753   */\n      dup7\n        /* \"#utility.yul\":5746:5760   */\n      add\n        /* \"#utility.yul\":5732:5744   */\n      dup3\n        /* \"#utility.yul\":5698:5761   */\n      tag_231\n      jump\t// in\n    tag_356:\n        /* \"#utility.yul\":5602:5771   */\n      pop\n        /* \"#utility.yul\":5855:5859   */\n      0x60\n        /* \"#utility.yul\":5848:5853   */\n      dup4\n        /* \"#utility.yul\":5844:5860   */\n      add\n        /* \"#utility.yul\":5838:5861   */\n      mload\n        /* \"#utility.yul\":5874:5937   */\n      tag_357\n        /* \"#utility.yul\":5931:5935   */\n      0x60\n        /* \"#utility.yul\":5926:5929   */\n      dup7\n        /* \"#utility.yul\":5922:5936   */\n      add\n        /* \"#utility.yul\":5908:5920   */\n      dup3\n        /* \"#utility.yul\":5874:5937   */\n      tag_234\n      jump\t// in\n    tag_357:\n        /* \"#utility.yul\":5781:5947   */\n      pop\n        /* \"#utility.yul\":6033:6037   */\n      0x80\n        /* \"#utility.yul\":6026:6031   */\n      dup4\n        /* \"#utility.yul\":6022:6038   */\n      add\n        /* \"#utility.yul\":6016:6039   */\n      mload\n        /* \"#utility.yul\":6052:6115   */\n      tag_358\n        /* \"#utility.yul\":6109:6113   */\n      0x80\n        /* \"#utility.yul\":6104:6107   */\n      dup7\n        /* \"#utility.yul\":6100:6114   */\n      add\n        /* \"#utility.yul\":6086:6098   */\n      dup3\n        /* \"#utility.yul\":6052:6115   */\n      tag_234\n      jump\t// in\n    tag_358:\n        /* \"#utility.yul\":5957:6125   */\n      pop\n        /* \"#utility.yul\":6142:6146   */\n      dup1\n        /* \"#utility.yul\":6135:6146   */\n      swap2\n      pop\n        /* \"#utility.yul\":5056:6152   */\n      pop\n        /* \"#utility.yul\":4934:6152   */\n      swap3\n      swap2\n      pop\n      pop\n      jump\t// out\n        /* \"#utility.yul\":6158:6430   */\n    tag_236:\n        /* \"#utility.yul\":6285:6295   */\n      0x00\n        /* \"#utility.yul\":6320:6424   */\n      tag_360\n        /* \"#utility.yul\":6420:6423   */\n      dup4\n        /* \"#utility.yul\":6412:6418   */\n      dup4\n        /* \"#utility.yul\":6320:6424   */\n      tag_235\n      jump\t// in\n    tag_360:\n        /* \"#utility.yul\":6306:6424   */\n      swap1\n      pop\n        /* \"#utility.yul\":6158:6430   */\n      swap3\n      swap2\n      pop\n      pop\n      jump\t// out\n        /* \"#utility.yul\":6436:6578   */\n    tag_237:\n        /* \"#utility.yul\":6535:6539   */\n      0x00\n        /* \"#utility.yul\":6567:6571   */\n      0x20\n        /* \"#utility.yul\":6562:6565   */\n      dup3\n        /* \"#utility.yul\":6558:6572   */\n      add\n        /* \"#utility.yul\":6550:6572   */\n      swap1\n      pop\n        /* \"#utility.yul\":6436:6578   */\n      swap2\n      swap1\n      pop\n      jump\t// out\n        /* \"#utility.yul\":6660:7803   */\n    tag_238:\n        /* \"#utility.yul\":6837:6840   */\n      0x00\n        /* \"#utility.yul\":6866:6949   */\n      tag_363\n        /* \"#utility.yul\":6943:6948   */\n      dup3\n        /* \"#utility.yul\":6866:6949   */\n      tag_226\n      jump\t// in\n    tag_363:\n        /* \"#utility.yul\":6965:7080   */\n      tag_364\n        /* \"#utility.yul\":7073:7079   */\n      dup2\n        /* \"#utility.yul\":7068:7071   */\n      dup6\n        /* \"#utility.yul\":6965:7080   */\n      tag_227\n      jump\t// in\n    tag_364:\n        /* \"#utility.yul\":6958:7080   */\n      swap4\n      pop\n        /* \"#utility.yul\":7106:7109   */\n      dup4\n        /* \"#utility.yul\":7151:7155   */\n      0x20\n        /* \"#utility.yul\":7143:7149   */\n      dup3\n        /* \"#utility.yul\":7139:7156   */\n      mul\n        /* \"#utility.yul\":7134:7137   */\n      dup6\n        /* \"#utility.yul\":7130:7157   */\n      add\n        /* \"#utility.yul\":7181:7266   */\n      tag_365\n        /* \"#utility.yul\":7260:7265   */\n      dup6\n        /* \"#utility.yul\":7181:7266   */\n      tag_228\n      jump\t// in\n    tag_365:\n        /* \"#utility.yul\":7289:7296   */\n      dup1\n        /* \"#utility.yul\":7320:7321   */\n      0x00\n        /* \"#utility.yul\":7305:7758   */\n    tag_366:\n        /* \"#utility.yul\":7330:7336   */\n      dup6\n        /* \"#utility.yul\":7327:7328   */\n      dup2\n        /* \"#utility.yul\":7324:7337   */\n      lt\n        /* \"#utility.yul\":7305:7758   */\n      iszero\n      tag_368\n      jumpi\n        /* \"#utility.yul\":7401:7410   */\n      dup5\n        /* \"#utility.yul\":7395:7399   */\n      dup5\n        /* \"#utility.yul\":7391:7411   */\n      sub\n        /* \"#utility.yul\":7386:7389   */\n      dup10\n        /* \"#utility.yul\":7379:7412   */\n      mstore\n        /* \"#utility.yul\":7452:7458   */\n      dup2\n        /* \"#utility.yul\":7446:7459   */\n      mload\n        /* \"#utility.yul\":7480:7602   */\n      tag_369\n        /* \"#utility.yul\":7597:7601   */\n      dup6\n        /* \"#utility.yul\":7582:7595   */\n      dup3\n        /* \"#utility.yul\":7480:7602   */\n      tag_236\n      jump\t// in\n    tag_369:\n        /* \"#utility.yul\":7472:7602   */\n      swap5\n      pop\n        /* \"#utility.yul\":7625:7714   */\n      tag_370\n        /* \"#utility.yul\":7707:7713   */\n      dup4\n        /* \"#utility.yul\":7625:7714   */\n      tag_237\n      jump\t// in\n    tag_370:\n        /* \"#utility.yul\":7615:7714   */\n      swap3\n      pop\n        /* \"#utility.yul\":7743:7747   */\n      0x20\n        /* \"#utility.yul\":7738:7741   */\n      dup11\n        /* \"#utility.yul\":7734:7748   */\n      add\n        /* \"#utility.yul\":7727:7748   */\n      swap10\n      pop\n        /* \"#utility.yul\":7365:7758   */\n      pop\n        /* \"#utility.yul\":7352:7353   */\n      0x01\n        /* \"#utility.yul\":7349:7350   */\n      dup2\n        /* \"#utility.yul\":7345:7354   */\n      add\n        /* \"#utility.yul\":7340:7354   */\n      swap1\n      pop\n        /* \"#utility.yul\":7305:7758   */\n      jump(tag_366)\n    tag_368:\n        /* \"#utility.yul\":7309:7323   */\n      pop\n        /* \"#utility.yul\":7774:7778   */\n      dup3\n        /* \"#utility.yul\":7767:7778   */\n      swap8\n      pop\n        /* \"#utility.yul\":7794:7797   */\n      dup8\n        /* \"#utility.yul\":7787:7797   */\n      swap6\n      pop\n        /* \"#utility.yul\":6842:7803   */\n      pop\n      pop\n      pop\n      pop\n      pop\n        /* \"#utility.yul\":6660:7803   */\n      swap3\n      swap2\n      pop\n      pop\n      jump\t// out\n        /* \"#utility.yul\":7809:8298   */\n    tag_24:\n        /* \"#utility.yul\":8010:8014   */\n      0x00\n        /* \"#utility.yul\":8048:8050   */\n      0x20\n        /* \"#utility.yul\":8037:8046   */\n      dup3\n        /* \"#utility.yul\":8033:8051   */\n      add\n        /* \"#utility.yul\":8025:8051   */\n      swap1\n      pop\n        /* \"#utility.yul\":8097:8106   */\n      dup2\n        /* \"#utility.yul\":8091:8095   */\n      dup2\n        /* \"#utility.yul\":8087:8107   */\n      sub\n        /* \"#utility.yul\":8083:8084   */\n      0x00\n        /* \"#utility.yul\":8072:8081   */\n      dup4\n        /* \"#utility.yul\":8068:8085   */\n      add\n        /* \"#utility.yul\":8061:8108   */\n      mstore\n        /* \"#utility.yul\":8125:8291   */\n      tag_372\n        /* \"#utility.yul\":8286:8290   */\n      dup2\n        /* \"#utility.yul\":8277:8283   */\n      dup5\n        /* \"#utility.yul\":8125:8291   */\n      tag_238\n      jump\t// in\n    tag_372:\n        /* \"#utility.yul\":8117:8291   */\n      swap1\n      pop\n        /* \"#utility.yul\":7809:8298   */\n      swap3\n      swap2\n      pop\n      pop\n      jump\t// out\n        /* \"#utility.yul\":8304:8426   */\n    tag_239:\n        /* \"#utility.yul\":8377:8401   */\n      tag_374\n        /* \"#utility.yul\":8395:8400   */\n      dup2\n        /* \"#utility.yul\":8377:8401   */\n      tag_233\n      jump\t// in\n    tag_374:\n        /* \"#utility.yul\":8370:8375   */\n      dup2\n        /* \"#utility.yul\":8367:8402   */\n      eq\n        /* \"#utility.yul\":8357:8420   */\n      tag_375\n      jumpi\n        /* \"#utility.yul\":8416:8417   */\n      0x00\n        /* \"#utility.yul\":8413:8414   */\n      dup1\n        /* \"#utility.yul\":8406:8418   */\n      revert\n        /* \"#utility.yul\":8357:8420   */\n    tag_375:\n        /* \"#utility.yul\":8304:8426   */\n      pop\n      jump\t// out\n        /* \"#utility.yul\":8432:8571   */\n    tag_240:\n        /* \"#utility.yul\":8478:8483   */\n      0x00\n        /* \"#utility.yul\":8516:8522   */\n      dup2\n        /* \"#utility.yul\":8503:8523   */\n      calldataload\n        /* \"#utility.yul\":8494:8523   */\n      swap1\n      pop\n        /* \"#utility.yul\":8532:8565   */\n      tag_377\n        /* \"#utility.yul\":8559:8564   */\n      dup2\n        /* \"#utility.yul\":8532:8565   */\n      tag_239\n      jump\t// in\n    tag_377:\n        /* \"#utility.yul\":8432:8571   */\n      swap3\n      swap2\n      pop\n      pop\n      jump\t// out\n        /* \"#utility.yul\":8577:8906   */\n    tag_27:\n        /* \"#utility.yul\":8636:8642   */\n      0x00\n        /* \"#utility.yul\":8685:8687   */\n      0x20\n        /* \"#utility.yul\":8673:8682   */\n      dup3\n        /* \"#utility.yul\":8664:8671   */\n      dup5\n        /* \"#utility.yul\":8660:8683   */\n      sub\n        /* \"#utility.yul\":8656:8688   */\n      slt\n        /* \"#utility.yul\":8653:8772   */\n      iszero\n      tag_379\n      jumpi\n        /* \"#utility.yul\":8691:8770   */\n      tag_380\n      tag_215\n      jump\t// in\n    tag_380:\n        /* \"#utility.yul\":8653:8772   */\n    tag_379:\n        /* \"#utility.yul\":8811:8812   */\n      0x00\n        /* \"#utility.yul\":8836:8889   */\n      tag_381\n        /* \"#utility.yul\":8881:8888   */\n      dup5\n        /* \"#utility.yul\":8872:8878   */\n      dup3\n        /* \"#utility.yul\":8861:8870   */\n      dup6\n        /* \"#utility.yul\":8857:8879   */\n      add\n        /* \"#utility.yul\":8836:8889   */\n      tag_240\n      jump\t// in\n    tag_381:\n        /* \"#utility.yul\":8826:8889   */\n      swap2\n      pop\n        /* \"#utility.yul\":8782:8899   */\n      pop\n        /* \"#utility.yul\":8577:8906   */\n      swap3\n      swap2\n      pop\n      pop\n      jump\t// out\n        /* \"#utility.yul\":8912:9426   */\n    tag_30:\n        /* \"#utility.yul\":9073:9077   */\n      0x00\n        /* \"#utility.yul\":9111:9113   */\n      0x40\n        /* \"#utility.yul\":9100:9109   */\n      dup3\n        /* \"#utility.yul\":9096:9114   */\n      add\n        /* \"#utility.yul\":9088:9114   */\n      swap1\n      pop\n        /* \"#utility.yul\":9160:9169   */\n      dup2\n        /* \"#utility.yul\":9154:9158   */\n      dup2\n        /* \"#utility.yul\":9150:9170   */\n      sub\n        /* \"#utility.yul\":9146:9147   */\n      0x00\n        /* \"#utility.yul\":9135:9144   */\n      dup4\n        /* \"#utility.yul\":9131:9148   */\n      add\n        /* \"#utility.yul\":9124:9171   */\n      mstore\n        /* \"#utility.yul\":9188:9266   */\n      tag_383\n        /* \"#utility.yul\":9261:9265   */\n      dup2\n        /* \"#utility.yul\":9252:9258   */\n      dup6\n        /* \"#utility.yul\":9188:9266   */\n      tag_224\n      jump\t// in\n    tag_383:\n        /* \"#utility.yul\":9180:9266   */\n      swap1\n      pop\n        /* \"#utility.yul\":9313:9322   */\n      dup2\n        /* \"#utility.yul\":9307:9311   */\n      dup2\n        /* \"#utility.yul\":9303:9323   */\n      sub\n        /* \"#utility.yul\":9298:9300   */\n      0x20\n        /* \"#utility.yul\":9287:9296   */\n      dup4\n        /* \"#utility.yul\":9283:9301   */\n      add\n        /* \"#utility.yul\":9276:9324   */\n      mstore\n        /* \"#utility.yul\":9341:9419   */\n      tag_384\n        /* \"#utility.yul\":9414:9418   */\n      dup2\n        /* \"#utility.yul\":9405:9411   */\n      dup5\n        /* \"#utility.yul\":9341:9419   */\n      tag_224\n      jump\t// in\n    tag_384:\n        /* \"#utility.yul\":9333:9419   */\n      swap1\n      pop\n        /* \"#utility.yul\":8912:9426   */\n      swap4\n      swap3\n      pop\n      pop\n      pop\n      jump\t// out\n        /* \"#utility.yul\":9432:9549   */\n    tag_241:\n        /* \"#utility.yul\":9541:9542   */\n      0x00\n        /* \"#utility.yul\":9538:9539   */\n      dup1\n        /* \"#utility.yul\":9531:9543   */\n      revert\n        /* \"#utility.yul\":9555:9672   */\n    tag_242:\n        /* \"#utility.yul\":9664:9665   */\n      0x00\n        /* \"#utility.yul\":9661:9662   */\n      dup1\n        /* \"#utility.yul\":9654:9666   */\n      revert\n        /* \"#utility.yul\":9678:9858   */\n    tag_243:\n        /* \"#utility.yul\":9726:9803   */\n      0x4e487b7100000000000000000000000000000000000000000000000000000000\n        /* \"#utility.yul\":9723:9724   */\n      0x00\n        /* \"#utility.yul\":9716:9804   */\n      mstore\n        /* \"#utility.yul\":9823:9827   */\n      0x41\n        /* \"#utility.yul\":9820:9821   */\n      0x04\n        /* \"#utility.yul\":9813:9828   */\n      mstore\n        /* \"#utility.yul\":9847:9851   */\n      0x24\n        /* \"#utility.yul\":9844:9845   */\n      0x00\n        /* \"#utility.yul\":9837:9852   */\n      revert\n        /* \"#utility.yul\":9864:10145   */\n    tag_244:\n        /* \"#utility.yul\":9947:9974   */\n      tag_389\n        /* \"#utility.yul\":9969:9973   */\n      dup3\n        /* \"#utility.yul\":9947:9974   */\n      tag_223\n      jump\t// in\n    tag_389:\n        /* \"#utility.yul\":9939:9945   */\n      dup2\n        /* \"#utility.yul\":9935:9975   */\n      add\n        /* \"#utility.yul\":10077:10083   */\n      dup2\n        /* \"#utility.yul\":10065:10075   */\n      dup2\n        /* \"#utility.yul\":10062:10084   */\n      lt\n        /* \"#utility.yul\":10041:10059   */\n      0xffffffffffffffff\n        /* \"#utility.yul\":10029:10039   */\n      dup3\n        /* \"#utility.yul\":10026:10060   */\n      gt\n        /* \"#utility.yul\":10023:10085   */\n      or\n        /* \"#utility.yul\":10020:10108   */\n      iszero\n      tag_390\n      jumpi\n        /* \"#utility.yul\":10088:10106   */\n      tag_391\n      tag_243\n      jump\t// in\n    tag_391:\n        /* \"#utility.yul\":10020:10108   */\n    tag_390:\n        /* \"#utility.yul\":10128:10138   */\n      dup1\n        /* \"#utility.yul\":10124:10126   */\n      0x40\n        /* \"#utility.yul\":10117:10139   */\n      mstore\n        /* \"#utility.yul\":9907:10145   */\n      pop\n        /* \"#utility.yul\":9864:10145   */\n      pop\n      pop\n      jump\t// out\n        /* \"#utility.yul\":10151:10280   */\n    tag_245:\n        /* \"#utility.yul\":10185:10191   */\n      0x00\n        /* \"#utility.yul\":10212:10232   */\n      tag_393\n      tag_214\n      jump\t// in\n    tag_393:\n        /* \"#utility.yul\":10202:10232   */\n      swap1\n      pop\n        /* \"#utility.yul\":10241:10274   */\n      tag_394\n        /* \"#utility.yul\":10269:10273   */\n      dup3\n        /* \"#utility.yul\":10261:10267   */\n      dup3\n        /* \"#utility.yul\":10241:10274   */\n      tag_244\n      jump\t// in\n    tag_394:\n        /* \"#utility.yul\":10151:10280   */\n      swap2\n      swap1\n      pop\n      jump\t// out\n        /* \"#utility.yul\":10286:10594   */\n    tag_246:\n        /* \"#utility.yul\":10348:10352   */\n      0x00\n        /* \"#utility.yul\":10438:10456   */\n      0xffffffffffffffff\n        /* \"#utility.yul\":10430:10436   */\n      dup3\n        /* \"#utility.yul\":10427:10457   */\n      gt\n        /* \"#utility.yul\":10424:10480   */\n      iszero\n      tag_396\n      jumpi\n        /* \"#utility.yul\":10460:10478   */\n      tag_397\n      tag_243\n      jump\t// in\n    tag_397:\n        /* \"#utility.yul\":10424:10480   */\n    tag_396:\n        /* \"#utility.yul\":10498:10527   */\n      tag_398\n        /* \"#utility.yul\":10520:10526   */\n      dup3\n        /* \"#utility.yul\":10498:10527   */\n      tag_223\n      jump\t// in\n    tag_398:\n        /* \"#utility.yul\":10490:10527   */\n      swap1\n      pop\n        /* \"#utility.yul\":10582:10586   */\n      0x20\n        /* \"#utility.yul\":10576:10580   */\n      dup2\n        /* \"#utility.yul\":10572:10587   */\n      add\n        /* \"#utility.yul\":10564:10587   */\n      swap1\n      pop\n        /* \"#utility.yul\":10286:10594   */\n      swap2\n      swap1\n      pop\n      jump\t// out\n        /* \"#utility.yul\":10600:10746   */\n    tag_247:\n        /* \"#utility.yul\":10697:10703   */\n      dup3\n        /* \"#utility.yul\":10692:10695   */\n      dup2\n        /* \"#utility.yul\":10687:10690   */\n      dup4\n        /* \"#utility.yul\":10674:10704   */\n      calldatacopy\n        /* \"#utility.yul\":10738:10739   */\n      0x00\n        /* \"#utility.yul\":10729:10735   */\n      dup4\n        /* \"#utility.yul\":10724:10727   */\n      dup4\n        /* \"#utility.yul\":10720:10736   */\n      add\n        /* \"#utility.yul\":10713:10740   */\n      mstore\n        /* \"#utility.yul\":10600:10746   */\n      pop\n      pop\n      pop\n      jump\t// out\n        /* \"#utility.yul\":10752:11177   */\n    tag_248:\n        /* \"#utility.yul\":10830:10835   */\n      0x00\n        /* \"#utility.yul\":10855:10921   */\n      tag_401\n        /* \"#utility.yul\":10871:10920   */\n      tag_402\n        /* \"#utility.yul\":10913:10919   */\n      dup5\n        /* \"#utility.yul\":10871:10920   */\n      tag_246\n      jump\t// in\n    tag_402:\n        /* \"#utility.yul\":10855:10921   */\n      tag_245\n      jump\t// in\n    tag_401:\n        /* \"#utility.yul\":10846:10921   */\n      swap1\n      pop\n        /* \"#utility.yul\":10944:10950   */\n      dup3\n        /* \"#utility.yul\":10937:10942   */\n      dup2\n        /* \"#utility.yul\":10930:10951   */\n      mstore\n        /* \"#utility.yul\":10982:10986   */\n      0x20\n        /* \"#utility.yul\":10975:10980   */\n      dup2\n        /* \"#utility.yul\":10971:10987   */\n      add\n        /* \"#utility.yul\":11020:11023   */\n      dup5\n        /* \"#utility.yul\":11011:11017   */\n      dup5\n        /* \"#utility.yul\":11006:11009   */\n      dup5\n        /* \"#utility.yul\":11002:11018   */\n      add\n        /* \"#utility.yul\":10999:11024   */\n      gt\n        /* \"#utility.yul\":10996:11108   */\n      iszero\n      tag_403\n      jumpi\n        /* \"#utility.yul\":11027:11106   */\n      tag_404\n      tag_242\n      jump\t// in\n    tag_404:\n        /* \"#utility.yul\":10996:11108   */\n    tag_403:\n        /* \"#utility.yul\":11117:11171   */\n      tag_405\n        /* \"#utility.yul\":11164:11170   */\n      dup5\n        /* \"#utility.yul\":11159:11162   */\n      dup3\n        /* \"#utility.yul\":11154:11157   */\n      dup6\n        /* \"#utility.yul\":11117:11171   */\n      tag_247\n      jump\t// in\n    tag_405:\n        /* \"#utility.yul\":10836:11177   */\n      pop\n        /* \"#utility.yul\":10752:11177   */\n      swap4\n      swap3\n      pop\n      pop\n      pop\n      jump\t// out\n        /* \"#utility.yul\":11197:11537   */\n    tag_249:\n        /* \"#utility.yul\":11253:11258   */\n      0x00\n        /* \"#utility.yul\":11302:11305   */\n      dup3\n        /* \"#utility.yul\":11295:11299   */\n      0x1f\n        /* \"#utility.yul\":11287:11293   */\n      dup4\n        /* \"#utility.yul\":11283:11300   */\n      add\n        /* \"#utility.yul\":11279:11306   */\n      slt\n        /* \"#utility.yul\":11269:11391   */\n      tag_407\n      jumpi\n        /* \"#utility.yul\":11310:11389   */\n      tag_408\n      tag_241\n      jump\t// in\n    tag_408:\n        /* \"#utility.yul\":11269:11391   */\n    tag_407:\n        /* \"#utility.yul\":11427:11433   */\n      dup2\n        /* \"#utility.yul\":11414:11434   */\n      calldataload\n        /* \"#utility.yul\":11452:11531   */\n      tag_409\n        /* \"#utility.yul\":11527:11530   */\n      dup5\n        /* \"#utility.yul\":11519:11525   */\n      dup3\n        /* \"#utility.yul\":11512:11516   */\n      0x20\n        /* \"#utility.yul\":11504:11510   */\n      dup7\n        /* \"#utility.yul\":11500:11517   */\n      add\n        /* \"#utility.yul\":11452:11531   */\n      tag_248\n      jump\t// in\n    tag_409:\n        /* \"#utility.yul\":11443:11531   */\n      swap2\n      pop\n        /* \"#utility.yul\":11259:11537   */\n      pop\n        /* \"#utility.yul\":11197:11537   */\n      swap3\n      swap2\n      pop\n      pop\n      jump\t// out\n        /* \"#utility.yul\":11543:12522   */\n    tag_39:\n        /* \"#utility.yul\":11640:11646   */\n      0x00\n        /* \"#utility.yul\":11648:11654   */\n      dup1\n        /* \"#utility.yul\":11656:11662   */\n      0x00\n        /* \"#utility.yul\":11705:11707   */\n      0x60\n        /* \"#utility.yul\":11693:11702   */\n      dup5\n        /* \"#utility.yul\":11684:11691   */\n      dup7\n        /* \"#utility.yul\":11680:11703   */\n      sub\n        /* \"#utility.yul\":11676:11708   */\n      slt\n        /* \"#utility.yul\":11673:11792   */\n      iszero\n      tag_411\n      jumpi\n        /* \"#utility.yul\":11711:11790   */\n      tag_412\n      tag_215\n      jump\t// in\n    tag_412:\n        /* \"#utility.yul\":11673:11792   */\n    tag_411:\n        /* \"#utility.yul\":11859:11860   */\n      0x00\n        /* \"#utility.yul\":11848:11857   */\n      dup5\n        /* \"#utility.yul\":11844:11861   */\n      add\n        /* \"#utility.yul\":11831:11862   */\n      calldataload\n        /* \"#utility.yul\":11889:11907   */\n      0xffffffffffffffff\n        /* \"#utility.yul\":11881:11887   */\n      dup2\n        /* \"#utility.yul\":11878:11908   */\n      gt\n        /* \"#utility.yul\":11875:11992   */\n      iszero\n      tag_413\n      jumpi\n        /* \"#utility.yul\":11911:11990   */\n      tag_414\n      tag_216\n      jump\t// in\n    tag_414:\n        /* \"#utility.yul\":11875:11992   */\n    tag_413:\n        /* \"#utility.yul\":12016:12079   */\n      tag_415\n        /* \"#utility.yul\":12071:12078   */\n      dup7\n        /* \"#utility.yul\":12062:12068   */\n      dup3\n        /* \"#utility.yul\":12051:12060   */\n      dup8\n        /* \"#utility.yul\":12047:12069   */\n      add\n        /* \"#utility.yul\":12016:12079   */\n      tag_249\n      jump\t// in\n    tag_415:\n        /* \"#utility.yul\":12006:12079   */\n      swap4\n      pop\n        /* \"#utility.yul\":11802:12089   */\n      pop\n        /* \"#utility.yul\":12156:12158   */\n      0x20\n        /* \"#utility.yul\":12145:12154   */\n      dup5\n        /* \"#utility.yul\":12141:12159   */\n      add\n        /* \"#utility.yul\":12128:12160   */\n      calldataload\n        /* \"#utility.yul\":12187:12205   */\n      0xffffffffffffffff\n        /* \"#utility.yul\":12179:12185   */\n      dup2\n        /* \"#utility.yul\":12176:12206   */\n      gt\n        /* \"#utility.yul\":12173:12290   */\n      iszero\n      tag_416\n      jumpi\n        /* \"#utility.yul\":12209:12288   */\n      tag_417\n      tag_216\n      jump\t// in\n    tag_417:\n        /* \"#utility.yul\":12173:12290   */\n    tag_416:\n        /* \"#utility.yul\":12314:12377   */\n      tag_418\n        /* \"#utility.yul\":12369:12376   */\n      dup7\n        /* \"#utility.yul\":12360:12366   */\n      dup3\n        /* \"#utility.yul\":12349:12358   */\n      dup8\n        /* \"#utility.yul\":12345:12367   */\n      add\n        /* \"#utility.yul\":12314:12377   */\n      tag_249\n      jump\t// in\n    tag_418:\n        /* \"#utility.yul\":12304:12377   */\n      swap3\n      pop\n        /* \"#utility.yul\":12099:12387   */\n      pop\n        /* \"#utility.yul\":12426:12428   */\n      0x40\n        /* \"#utility.yul\":12452:12505   */\n      tag_419\n        /* \"#utility.yul\":12497:12504   */\n      dup7\n        /* \"#utility.yul\":12488:12494   */\n      dup3\n        /* \"#utility.yul\":12477:12486   */\n      dup8\n        /* \"#utility.yul\":12473:12495   */\n      add\n        /* \"#utility.yul\":12452:12505   */\n      tag_240\n      jump\t// in\n    tag_419:\n        /* \"#utility.yul\":12442:12505   */\n      swap2\n      pop\n        /* \"#utility.yul\":12397:12515   */\n      pop\n        /* \"#utility.yul\":11543:12522   */\n      swap3\n      pop\n      swap3\n      pop\n      swap3\n      jump\t// out\n        /* \"#utility.yul\":12528:13182   */\n    tag_43:\n        /* \"#utility.yul\":12606:12612   */\n      0x00\n        /* \"#utility.yul\":12614:12620   */\n      dup1\n        /* \"#utility.yul\":12663:12665   */\n      0x40\n        /* \"#utility.yul\":12651:12660   */\n      dup4\n        /* \"#utility.yul\":12642:12649   */\n      dup6\n        /* \"#utility.yul\":12638:12661   */\n      sub\n        /* \"#utility.yul\":12634:12666   */\n      slt\n        /* \"#utility.yul\":12631:12750   */\n      iszero\n      tag_421\n      jumpi\n        /* \"#utility.yul\":12669:12748   */\n      tag_422\n      tag_215\n      jump\t// in\n    tag_422:\n        /* \"#utility.yul\":12631:12750   */\n    tag_421:\n        /* \"#utility.yul\":12817:12818   */\n      0x00\n        /* \"#utility.yul\":12806:12815   */\n      dup4\n        /* \"#utility.yul\":12802:12819   */\n      add\n        /* \"#utility.yul\":12789:12820   */\n      calldataload\n        /* \"#utility.yul\":12847:12865   */\n      0xffffffffffffffff\n        /* \"#utility.yul\":12839:12845   */\n      dup2\n        /* \"#utility.yul\":12836:12866   */\n      gt\n        /* \"#utility.yul\":12833:12950   */\n      iszero\n      tag_423\n      jumpi\n        /* \"#utility.yul\":12869:12948   */\n      tag_424\n      tag_216\n      jump\t// in\n    tag_424:\n        /* \"#utility.yul\":12833:12950   */\n    tag_423:\n        /* \"#utility.yul\":12974:13037   */\n      tag_425\n        /* \"#utility.yul\":13029:13036   */\n      dup6\n        /* \"#utility.yul\":13020:13026   */\n      dup3\n        /* \"#utility.yul\":13009:13018   */\n      dup7\n        /* \"#utility.yul\":13005:13027   */\n      add\n        /* \"#utility.yul\":12974:13037   */\n      tag_249\n      jump\t// in\n    tag_425:\n        /* \"#utility.yul\":12964:13037   */\n      swap3\n      pop\n        /* \"#utility.yul\":12760:13047   */\n      pop\n        /* \"#utility.yul\":13086:13088   */\n      0x20\n        /* \"#utility.yul\":13112:13165   */\n      tag_426\n        /* \"#utility.yul\":13157:13164   */\n      dup6\n        /* \"#utility.yul\":13148:13154   */\n      dup3\n        /* \"#utility.yul\":13137:13146   */\n      dup7\n        /* \"#utility.yul\":13133:13155   */\n      add\n        /* \"#utility.yul\":13112:13165   */\n      tag_240\n      jump\t// in\n    tag_426:\n        /* \"#utility.yul\":13102:13165   */\n      swap2\n      pop\n        /* \"#utility.yul\":13057:13175   */\n      pop\n        /* \"#utility.yul\":12528:13182   */\n      swap3\n      pop\n      swap3\n      swap1\n      pop\n      jump\t// out\n        /* \"#utility.yul\":13188:15077   */\n    tag_47:\n        /* \"#utility.yul\":13340:13346   */\n      0x00\n        /* \"#utility.yul\":13348:13354   */\n      dup1\n        /* \"#utility.yul\":13356:13362   */\n      0x00\n        /* \"#utility.yul\":13364:13370   */\n      dup1\n        /* \"#utility.yul\":13372:13378   */\n      0x00\n        /* \"#utility.yul\":13380:13386   */\n      dup1\n        /* \"#utility.yul\":13388:13394   */\n      0x00\n        /* \"#utility.yul\":13396:13402   */\n      dup1\n        /* \"#utility.yul\":13445:13448   */\n      0x0100\n        /* \"#utility.yul\":13433:13442   */\n      dup10\n        /* \"#utility.yul\":13424:13431   */\n      dup12\n        /* \"#utility.yul\":13420:13443   */\n      sub\n        /* \"#utility.yul\":13416:13449   */\n      slt\n        /* \"#utility.yul\":13413:13533   */\n      iszero\n      tag_428\n      jumpi\n        /* \"#utility.yul\":13452:13531   */\n      tag_429\n      tag_215\n      jump\t// in\n    tag_429:\n        /* \"#utility.yul\":13413:13533   */\n    tag_428:\n        /* \"#utility.yul\":13600:13601   */\n      0x00\n        /* \"#utility.yul\":13589:13598   */\n      dup10\n        /* \"#utility.yul\":13585:13602   */\n      add\n        /* \"#utility.yul\":13572:13603   */\n      calldataload\n        /* \"#utility.yul\":13630:13648   */\n      0xffffffffffffffff\n        /* \"#utility.yul\":13622:13628   */\n      dup2\n        /* \"#utility.yul\":13619:13649   */\n      gt\n        /* \"#utility.yul\":13616:13733   */\n      iszero\n      tag_430\n      jumpi\n        /* \"#utility.yul\":13652:13731   */\n      tag_431\n      tag_216\n      jump\t// in\n    tag_431:\n        /* \"#utility.yul\":13616:13733   */\n    tag_430:\n        /* \"#utility.yul\":13757:13820   */\n      tag_432\n        /* \"#utility.yul\":13812:13819   */\n      dup12\n        /* \"#utility.yul\":13803:13809   */\n      dup3\n        /* \"#utility.yul\":13792:13801   */\n      dup13\n        /* \"#utility.yul\":13788:13810   */\n      add\n        /* \"#utility.yul\":13757:13820   */\n      tag_249\n      jump\t// in\n    tag_432:\n        /* \"#utility.yul\":13747:13820   */\n      swap9\n      pop\n        /* \"#utility.yul\":13543:13830   */\n      pop\n        /* \"#utility.yul\":13869:13871   */\n      0x20\n        /* \"#utility.yul\":13895:13948   */\n      tag_433\n        /* \"#utility.yul\":13940:13947   */\n      dup12\n        /* \"#utility.yul\":13931:13937   */\n      dup3\n        /* \"#utility.yul\":13920:13929   */\n      dup13\n        /* \"#utility.yul\":13916:13938   */\n      add\n        /* \"#utility.yul\":13895:13948   */\n      tag_219\n      jump\t// in\n    tag_433:\n        /* \"#utility.yul\":13885:13948   */\n      swap8\n      pop\n        /* \"#utility.yul\":13840:13958   */\n      pop\n        /* \"#utility.yul\":13997:13999   */\n      0x40\n        /* \"#utility.yul\":14023:14076   */\n      tag_434\n        /* \"#utility.yul\":14068:14075   */\n      dup12\n        /* \"#utility.yul\":14059:14065   */\n      dup3\n        /* \"#utility.yul\":14048:14057   */\n      dup13\n        /* \"#utility.yul\":14044:14066   */\n      add\n        /* \"#utility.yul\":14023:14076   */\n      tag_219\n      jump\t// in\n    tag_434:\n        /* \"#utility.yul\":14013:14076   */\n      swap7\n      pop\n        /* \"#utility.yul\":13968:14086   */\n      pop\n        /* \"#utility.yul\":14125:14127   */\n      0x60\n        /* \"#utility.yul\":14151:14204   */\n      tag_435\n        /* \"#utility.yul\":14196:14203   */\n      dup12\n        /* \"#utility.yul\":14187:14193   */\n      dup3\n        /* \"#utility.yul\":14176:14185   */\n      dup13\n        /* \"#utility.yul\":14172:14194   */\n      add\n        /* \"#utility.yul\":14151:14204   */\n      tag_219\n      jump\t// in\n    tag_435:\n        /* \"#utility.yul\":14141:14204   */\n      swap6\n      pop\n        /* \"#utility.yul\":14096:14214   */\n      pop\n        /* \"#utility.yul\":14253:14256   */\n      0x80\n        /* \"#utility.yul\":14280:14333   */\n      tag_436\n        /* \"#utility.yul\":14325:14332   */\n      dup12\n        /* \"#utility.yul\":14316:14322   */\n      dup3\n        /* \"#utility.yul\":14305:14314   */\n      dup13\n        /* \"#utility.yul\":14301:14323   */\n      add\n        /* \"#utility.yul\":14280:14333   */\n      tag_219\n      jump\t// in\n    tag_436:\n        /* \"#utility.yul\":14270:14333   */\n      swap5\n      pop\n        /* \"#utility.yul\":14224:14343   */\n      pop\n        /* \"#utility.yul\":14382:14385   */\n      0xa0\n        /* \"#utility.yul\":14409:14462   */\n      tag_437\n        /* \"#utility.yul\":14454:14461   */\n      dup12\n        /* \"#utility.yul\":14445:14451   */\n      dup3\n        /* \"#utility.yul\":14434:14443   */\n      dup13\n        /* \"#utility.yul\":14430:14452   */\n      add\n        /* \"#utility.yul\":14409:14462   */\n      tag_219\n      jump\t// in\n    tag_437:\n        /* \"#utility.yul\":14399:14462   */\n      swap4\n      pop\n        /* \"#utility.yul\":14353:14472   */\n      pop\n        /* \"#utility.yul\":14539:14542   */\n      0xc0\n        /* \"#utility.yul\":14528:14537   */\n      dup10\n        /* \"#utility.yul\":14524:14543   */\n      add\n        /* \"#utility.yul\":14511:14544   */\n      calldataload\n        /* \"#utility.yul\":14571:14589   */\n      0xffffffffffffffff\n        /* \"#utility.yul\":14563:14569   */\n      dup2\n        /* \"#utility.yul\":14560:14590   */\n      gt\n        /* \"#utility.yul\":14557:14674   */\n      iszero\n      tag_438\n      jumpi\n        /* \"#utility.yul\":14593:14672   */\n      tag_439\n      tag_216\n      jump\t// in\n    tag_439:\n        /* \"#utility.yul\":14557:14674   */\n    tag_438:\n        /* \"#utility.yul\":14698:14761   */\n      tag_440\n        /* \"#utility.yul\":14753:14760   */\n      dup12\n        /* \"#utility.yul\":14744:14750   */\n      dup3\n        /* \"#utility.yul\":14733:14742   */\n      dup13\n        /* \"#utility.yul\":14729:14751   */\n      add\n        /* \"#utility.yul\":14698:14761   */\n      tag_249\n      jump\t// in\n    tag_440:\n        /* \"#utility.yul\":14688:14761   */\n      swap3\n      pop\n        /* \"#utility.yul\":14482:14771   */\n      pop\n        /* \"#utility.yul\":14838:14841   */\n      0xe0\n        /* \"#utility.yul\":14827:14836   */\n      dup10\n        /* \"#utility.yul\":14823:14842   */\n      add\n        /* \"#utility.yul\":14810:14843   */\n      calldataload\n        /* \"#utility.yul\":14870:14888   */\n      0xffffffffffffffff\n        /* \"#utility.yul\":14862:14868   */\n      dup2\n        /* \"#utility.yul\":14859:14889   */\n      gt\n        /* \"#utility.yul\":14856:14973   */\n      iszero\n      tag_441\n      jumpi\n        /* \"#utility.yul\":14892:14971   */\n      tag_442\n      tag_216\n      jump\t// in\n    tag_442:\n        /* \"#utility.yul\":14856:14973   */\n    tag_441:\n        /* \"#utility.yul\":14997:15060   */\n      tag_443\n        /* \"#utility.yul\":15052:15059   */\n      dup12\n        /* \"#utility.yul\":15043:15049   */\n      dup3\n        /* \"#utility.yul\":15032:15041   */\n      dup13\n        /* \"#utility.yul\":15028:15050   */\n      add\n        /* \"#utility.yul\":14997:15060   */\n      tag_249\n      jump\t// in\n    tag_443:\n        /* \"#utility.yul\":14987:15060   */\n      swap2\n      pop\n        /* \"#utility.yul\":14781:15070   */\n      pop\n        /* \"#utility.yul\":13188:15077   */\n      swap3\n      swap6\n      swap9\n      pop\n      swap3\n      swap6\n      swap9\n      swap1\n      swap4\n      swap7\n      pop\n      jump\t// out\n        /* \"#utility.yul\":15083:15197   */\n    tag_250:\n        /* \"#utility.yul\":15150:15156   */\n      0x00\n        /* \"#utility.yul\":15184:15189   */\n      dup2\n        /* \"#utility.yul\":15178:15190   */\n      mload\n        /* \"#utility.yul\":15168:15190   */\n      swap1\n      pop\n        /* \"#utility.yul\":15083:15197   */\n      swap2\n      swap1\n      pop\n      jump\t// out\n        /* \"#utility.yul\":15203:15387   */\n    tag_251:\n        /* \"#utility.yul\":15302:15313   */\n      0x00\n        /* \"#utility.yul\":15336:15342   */\n      dup3\n        /* \"#utility.yul\":15331:15334   */\n      dup3\n        /* \"#utility.yul\":15324:15343   */\n      mstore\n        /* \"#utility.yul\":15376:15380   */\n      0x20\n        /* \"#utility.yul\":15371:15374   */\n      dup3\n        /* \"#utility.yul\":15367:15381   */\n      add\n        /* \"#utility.yul\":15352:15381   */\n      swap1\n      pop\n        /* \"#utility.yul\":15203:15387   */\n      swap3\n      swap2\n      pop\n      pop\n      jump\t// out\n        /* \"#utility.yul\":15393:15525   */\n    tag_252:\n        /* \"#utility.yul\":15460:15464   */\n      0x00\n        /* \"#utility.yul\":15483:15486   */\n      dup2\n        /* \"#utility.yul\":15475:15486   */\n      swap1\n      pop\n        /* \"#utility.yul\":15513:15517   */\n      0x20\n        /* \"#utility.yul\":15508:15511   */\n      dup3\n        /* \"#utility.yul\":15504:15518   */\n      add\n        /* \"#utility.yul\":15496:15518   */\n      swap1\n      pop\n        /* \"#utility.yul\":15393:15525   */\n      swap2\n      swap1\n      pop\n      jump\t// out\n        /* \"#utility.yul\":15531:15710   */\n    tag_253:\n        /* \"#utility.yul\":15600:15610   */\n      0x00\n        /* \"#utility.yul\":15621:15667   */\n      tag_448\n        /* \"#utility.yul\":15663:15666   */\n      dup4\n        /* \"#utility.yul\":15655:15661   */\n      dup4\n        /* \"#utility.yul\":15621:15667   */\n      tag_234\n      jump\t// in\n    tag_448:\n        /* \"#utility.yul\":15699:15703   */\n      0x20\n        /* \"#utility.yul\":15694:15697   */\n      dup4\n        /* \"#utility.yul\":15690:15704   */\n      add\n        /* \"#utility.yul\":15676:15704   */\n      swap1\n      pop\n        /* \"#utility.yul\":15531:15710   */\n      swap3\n      swap2\n      pop\n      pop\n      jump\t// out\n        /* \"#utility.yul\":15716:15829   */\n    tag_254:\n        /* \"#utility.yul\":15786:15790   */\n      0x00\n        /* \"#utility.yul\":15818:15822   */\n      0x20\n        /* \"#utility.yul\":15813:15816   */\n      dup3\n        /* \"#utility.yul\":15809:15823   */\n      add\n        /* \"#utility.yul\":15801:15823   */\n      swap1\n      pop\n        /* \"#utility.yul\":15716:15829   */\n      swap2\n      swap1\n      pop\n      jump\t// out\n        /* \"#utility.yul\":15865:16597   */\n    tag_255:\n        /* \"#utility.yul\":15984:15987   */\n      0x00\n        /* \"#utility.yul\":16013:16067   */\n      tag_451\n        /* \"#utility.yul\":16061:16066   */\n      dup3\n        /* \"#utility.yul\":16013:16067   */\n      tag_250\n      jump\t// in\n    tag_451:\n        /* \"#utility.yul\":16083:16169   */\n      tag_452\n        /* \"#utility.yul\":16162:16168   */\n      dup2\n        /* \"#utility.yul\":16157:16160   */\n      dup6\n        /* \"#utility.yul\":16083:16169   */\n      tag_251\n      jump\t// in\n    tag_452:\n        /* \"#utility.yul\":16076:16169   */\n      swap4\n      pop\n        /* \"#utility.yul\":16193:16249   */\n      tag_453\n        /* \"#utility.yul\":16243:16248   */\n      dup4\n        /* \"#utility.yul\":16193:16249   */\n      tag_252\n      jump\t// in\n    tag_453:\n        /* \"#utility.yul\":16272:16279   */\n      dup1\n        /* \"#utility.yul\":16303:16304   */\n      0x00\n        /* \"#utility.yul\":16288:16572   */\n    tag_454:\n        /* \"#utility.yul\":16313:16319   */\n      dup4\n        /* \"#utility.yul\":16310:16311   */\n      dup2\n        /* \"#utility.yul\":16307:16320   */\n      lt\n        /* \"#utility.yul\":16288:16572   */\n      iszero\n      tag_456\n      jumpi\n        /* \"#utility.yul\":16389:16395   */\n      dup2\n        /* \"#utility.yul\":16383:16396   */\n      mload\n        /* \"#utility.yul\":16416:16479   */\n      tag_457\n        /* \"#utility.yul\":16475:16478   */\n      dup9\n        /* \"#utility.yul\":16460:16473   */\n      dup3\n        /* \"#utility.yul\":16416:16479   */\n      tag_253\n      jump\t// in\n    tag_457:\n        /* \"#utility.yul\":16409:16479   */\n      swap8\n      pop\n        /* \"#utility.yul\":16502:16562   */\n      tag_458\n        /* \"#utility.yul\":16555:16561   */\n      dup4\n        /* \"#utility.yul\":16502:16562   */\n      tag_254\n      jump\t// in\n    tag_458:\n        /* \"#utility.yul\":16492:16562   */\n      swap3\n      pop\n        /* \"#utility.yul\":16348:16572   */\n      pop\n        /* \"#utility.yul\":16335:16336   */\n      0x01\n        /* \"#utility.yul\":16332:16333   */\n      dup2\n        /* \"#utility.yul\":16328:16337   */\n      add\n        /* \"#utility.yul\":16323:16337   */\n      swap1\n      pop\n        /* \"#utility.yul\":16288:16572   */\n      jump(tag_454)\n    tag_456:\n        /* \"#utility.yul\":16292:16306   */\n      pop\n        /* \"#utility.yul\":16588:16591   */\n      dup6\n        /* \"#utility.yul\":16581:16591   */\n      swap4\n      pop\n        /* \"#utility.yul\":15989:16597   */\n      pop\n      pop\n      pop\n        /* \"#utility.yul\":15865:16597   */\n      swap3\n      swap2\n      pop\n      pop\n      jump\t// out\n        /* \"#utility.yul\":16603:16976   */\n    tag_52:\n        /* \"#utility.yul\":16746:16750   */\n      0x00\n        /* \"#utility.yul\":16784:16786   */\n      0x20\n        /* \"#utility.yul\":16773:16782   */\n      dup3\n        /* \"#utility.yul\":16769:16787   */\n      add\n        /* \"#utility.yul\":16761:16787   */\n      swap1\n      pop\n        /* \"#utility.yul\":16833:16842   */\n      dup2\n        /* \"#utility.yul\":16827:16831   */\n      dup2\n        /* \"#utility.yul\":16823:16843   */\n      sub\n        /* \"#utility.yul\":16819:16820   */\n      0x00\n        /* \"#utility.yul\":16808:16817   */\n      dup4\n        /* \"#utility.yul\":16804:16821   */\n      add\n        /* \"#utility.yul\":16797:16844   */\n      mstore\n        /* \"#utility.yul\":16861:16969   */\n      tag_460\n        /* \"#utility.yul\":16964:16968   */\n      dup2\n        /* \"#utility.yul\":16955:16961   */\n      dup5\n        /* \"#utility.yul\":16861:16969   */\n      tag_255\n      jump\t// in\n    tag_460:\n        /* \"#utility.yul\":16853:16969   */\n      swap1\n      pop\n        /* \"#utility.yul\":16603:16976   */\n      swap3\n      swap2\n      pop\n      pop\n      jump\t// out\n        /* \"#utility.yul\":16982:17099   */\n    tag_256:\n        /* \"#utility.yul\":17091:17092   */\n      0x00\n        /* \"#utility.yul\":17088:17089   */\n      dup1\n        /* \"#utility.yul\":17081:17093   */\n      revert\n        /* \"#utility.yul\":17105:17222   */\n    tag_257:\n        /* \"#utility.yul\":17214:17215   */\n      0x00\n        /* \"#utility.yul\":17211:17212   */\n      dup1\n        /* \"#utility.yul\":17204:17216   */\n      revert\n        /* \"#utility.yul\":17245:17813   */\n    tag_258:\n        /* \"#utility.yul\":17318:17326   */\n      0x00\n        /* \"#utility.yul\":17328:17334   */\n      dup1\n        /* \"#utility.yul\":17378:17381   */\n      dup4\n        /* \"#utility.yul\":17371:17375   */\n      0x1f\n        /* \"#utility.yul\":17363:17369   */\n      dup5\n        /* \"#utility.yul\":17359:17376   */\n      add\n        /* \"#utility.yul\":17355:17382   */\n      slt\n        /* \"#utility.yul\":17345:17467   */\n      tag_464\n      jumpi\n        /* \"#utility.yul\":17386:17465   */\n      tag_465\n      tag_241\n      jump\t// in\n    tag_465:\n        /* \"#utility.yul\":17345:17467   */\n    tag_464:\n        /* \"#utility.yul\":17499:17505   */\n      dup3\n        /* \"#utility.yul\":17486:17506   */\n      calldataload\n        /* \"#utility.yul\":17476:17506   */\n      swap1\n      pop\n        /* \"#utility.yul\":17529:17547   */\n      0xffffffffffffffff\n        /* \"#utility.yul\":17521:17527   */\n      dup2\n        /* \"#utility.yul\":17518:17548   */\n      gt\n        /* \"#utility.yul\":17515:17632   */\n      iszero\n      tag_466\n      jumpi\n        /* \"#utility.yul\":17551:17630   */\n      tag_467\n      tag_256\n      jump\t// in\n    tag_467:\n        /* \"#utility.yul\":17515:17632   */\n    tag_466:\n        /* \"#utility.yul\":17665:17669   */\n      0x20\n        /* \"#utility.yul\":17657:17663   */\n      dup4\n        /* \"#utility.yul\":17653:17670   */\n      add\n        /* \"#utility.yul\":17641:17670   */\n      swap2\n      pop\n        /* \"#utility.yul\":17719:17722   */\n      dup4\n        /* \"#utility.yul\":17711:17715   */\n      0x20\n        /* \"#utility.yul\":17703:17709   */\n      dup3\n        /* \"#utility.yul\":17699:17716   */\n      mul\n        /* \"#utility.yul\":17689:17697   */\n      dup4\n        /* \"#utility.yul\":17685:17717   */\n      add\n        /* \"#utility.yul\":17682:17723   */\n      gt\n        /* \"#utility.yul\":17679:17807   */\n      iszero\n      tag_468\n      jumpi\n        /* \"#utility.yul\":17726:17805   */\n      tag_469\n      tag_257\n      jump\t// in\n    tag_469:\n        /* \"#utility.yul\":17679:17807   */\n    tag_468:\n        /* \"#utility.yul\":17245:17813   */\n      swap3\n      pop\n      swap3\n      swap1\n      pop\n      jump\t// out\n        /* \"#utility.yul\":17819:18523   */\n    tag_55:\n        /* \"#utility.yul\":17914:17920   */\n      0x00\n        /* \"#utility.yul\":17922:17928   */\n      dup1\n        /* \"#utility.yul\":17930:17936   */\n      0x00\n        /* \"#utility.yul\":17979:17981   */\n      0x40\n        /* \"#utility.yul\":17967:17976   */\n      dup5\n        /* \"#utility.yul\":17958:17965   */\n      dup7\n        /* \"#utility.yul\":17954:17977   */\n      sub\n        /* \"#utility.yul\":17950:17982   */\n      slt\n        /* \"#utility.yul\":17947:18066   */\n      iszero\n      tag_471\n      jumpi\n        /* \"#utility.yul\":17985:18064   */\n      tag_472\n      tag_215\n      jump\t// in\n    tag_472:\n        /* \"#utility.yul\":17947:18066   */\n    tag_471:\n        /* \"#utility.yul\":18105:18106   */\n      0x00\n        /* \"#utility.yul\":18130:18183   */\n      tag_473\n        /* \"#utility.yul\":18175:18182   */\n      dup7\n        /* \"#utility.yul\":18166:18172   */\n      dup3\n        /* \"#utility.yul\":18155:18164   */\n      dup8\n        /* \"#utility.yul\":18151:18173   */\n      add\n        /* \"#utility.yul\":18130:18183   */\n      tag_240\n      jump\t// in\n    tag_473:\n        /* \"#utility.yul\":18120:18183   */\n      swap4\n      pop\n        /* \"#utility.yul\":18076:18193   */\n      pop\n        /* \"#utility.yul\":18260:18262   */\n      0x20\n        /* \"#utility.yul\":18249:18258   */\n      dup5\n        /* \"#utility.yul\":18245:18263   */\n      add\n        /* \"#utility.yul\":18232:18264   */\n      calldataload\n        /* \"#utility.yul\":18291:18309   */\n      0xffffffffffffffff\n        /* \"#utility.yul\":18283:18289   */\n      dup2\n        /* \"#utility.yul\":18280:18310   */\n      gt\n        /* \"#utility.yul\":18277:18394   */\n      iszero\n      tag_474\n      jumpi\n        /* \"#utility.yul\":18313:18392   */\n      tag_475\n      tag_216\n      jump\t// in\n    tag_475:\n        /* \"#utility.yul\":18277:18394   */\n    tag_474:\n        /* \"#utility.yul\":18426:18506   */\n      tag_476\n        /* \"#utility.yul\":18498:18505   */\n      dup7\n        /* \"#utility.yul\":18489:18495   */\n      dup3\n        /* \"#utility.yul\":18478:18487   */\n      dup8\n        /* \"#utility.yul\":18474:18496   */\n      add\n        /* \"#utility.yul\":18426:18506   */\n      tag_258\n      jump\t// in\n    tag_476:\n        /* \"#utility.yul\":18408:18506   */\n      swap3\n      pop\n      swap3\n      pop\n        /* \"#utility.yul\":18203:18516   */\n      pop\n        /* \"#utility.yul\":17819:18523   */\n      swap3\n      pop\n      swap3\n      pop\n      swap3\n      jump\t// out\n        /* \"#utility.yul\":18529:18752   */\n    tag_259:\n        /* \"#utility.yul\":18669:18703   */\n      0x596f752063616e206f6e6c792061636365737320796f7572206f776e20726563\n        /* \"#utility.yul\":18665:18666   */\n      0x00\n        /* \"#utility.yul\":18657:18663   */\n      dup3\n        /* \"#utility.yul\":18653:18667   */\n      add\n        /* \"#utility.yul\":18646:18704   */\n      mstore\n        /* \"#utility.yul\":18738:18744   */\n      0x6f72647300000000000000000000000000000000000000000000000000000000\n        /* \"#utility.yul\":18733:18735   */\n      0x20\n        /* \"#utility.yul\":18725:18731   */\n      dup3\n        /* \"#utility.yul\":18721:18736   */\n      add\n        /* \"#utility.yul\":18714:18745   */\n      mstore\n        /* \"#utility.yul\":18529:18752   */\n      pop\n      jump\t// out\n        /* \"#utility.yul\":18758:19124   */\n    tag_260:\n        /* \"#utility.yul\":18900:18903   */\n      0x00\n        /* \"#utility.yul\":18921:18988   */\n      tag_479\n        /* \"#utility.yul\":18985:18987   */\n      0x24\n        /* \"#utility.yul\":18980:18983   */\n      dup4\n        /* \"#utility.yul\":18921:18988   */\n      tag_221\n      jump\t// in\n    tag_479:\n        /* \"#utility.yul\":18914:18988   */\n      swap2\n      pop\n        /* \"#utility.yul\":18997:19090   */\n      tag_480\n        /* \"#utility.yul\":19086:19089   */\n      dup3\n        /* \"#utility.yul\":18997:19090   */\n      tag_259\n      jump\t// in\n    tag_480:\n        /* \"#utility.yul\":19115:19117   */\n      0x40\n        /* \"#utility.yul\":19110:19113   */\n      dup3\n        /* \"#utility.yul\":19106:19118   */\n      add\n        /* \"#utility.yul\":19099:19118   */\n      swap1\n      pop\n        /* \"#utility.yul\":18758:19124   */\n      swap2\n      swap1\n      pop\n      jump\t// out\n        /* \"#utility.yul\":19130:19549   */\n    tag_60:\n        /* \"#utility.yul\":19296:19300   */\n      0x00\n        /* \"#utility.yul\":19334:19336   */\n      0x20\n        /* \"#utility.yul\":19323:19332   */\n      dup3\n        /* \"#utility.yul\":19319:19337   */\n      add\n        /* \"#utility.yul\":19311:19337   */\n      swap1\n      pop\n        /* \"#utility.yul\":19383:19392   */\n      dup2\n        /* \"#utility.yul\":19377:19381   */\n      dup2\n        /* \"#utility.yul\":19373:19393   */\n      sub\n        /* \"#utility.yul\":19369:19370   */\n      0x00\n        /* \"#utility.yul\":19358:19367   */\n      dup4\n        /* \"#utility.yul\":19354:19371   */\n      add\n        /* \"#utility.yul\":19347:19394   */\n      mstore\n        /* \"#utility.yul\":19411:19542   */\n      tag_482\n        /* \"#utility.yul\":19537:19541   */\n      dup2\n        /* \"#utility.yul\":19411:19542   */\n      tag_260\n      jump\t// in\n    tag_482:\n        /* \"#utility.yul\":19403:19542   */\n      swap1\n      pop\n        /* \"#utility.yul\":19130:19549   */\n      swap2\n      swap1\n      pop\n      jump\t// out\n        /* \"#utility.yul\":19555:19735   */\n    tag_261:\n        /* \"#utility.yul\":19603:19680   */\n      0x4e487b7100000000000000000000000000000000000000000000000000000000\n        /* \"#utility.yul\":19600:19601   */\n      0x00\n        /* \"#utility.yul\":19593:19681   */\n      mstore\n        /* \"#utility.yul\":19700:19704   */\n      0x22\n        /* \"#utility.yul\":19697:19698   */\n      0x04\n        /* \"#utility.yul\":19690:19705   */\n      mstore\n        /* \"#utility.yul\":19724:19728   */\n      0x24\n        /* \"#utility.yul\":19721:19722   */\n      0x00\n        /* \"#utility.yul\":19714:19729   */\n      revert\n        /* \"#utility.yul\":19741:20061   */\n    tag_63:\n        /* \"#utility.yul\":19785:19791   */\n      0x00\n        /* \"#utility.yul\":19822:19823   */\n      0x02\n        /* \"#utility.yul\":19816:19820   */\n      dup3\n        /* \"#utility.yul\":19812:19824   */\n      div\n        /* \"#utility.yul\":19802:19824   */\n      swap1\n      pop\n        /* \"#utility.yul\":19869:19870   */\n      0x01\n        /* \"#utility.yul\":19863:19867   */\n      dup3\n        /* \"#utility.yul\":19859:19871   */\n      and\n        /* \"#utility.yul\":19890:19908   */\n      dup1\n        /* \"#utility.yul\":19880:19961   */\n      tag_485\n      jumpi\n        /* \"#utility.yul\":19946:19950   */\n      0x7f\n        /* \"#utility.yul\":19938:19944   */\n      dup3\n        /* \"#utility.yul\":19934:19951   */\n      and\n        /* \"#utility.yul\":19924:19951   */\n      swap2\n      pop\n        /* \"#utility.yul\":19880:19961   */\n    tag_485:\n        /* \"#utility.yul\":20008:20010   */\n      0x20\n        /* \"#utility.yul\":20000:20006   */\n      dup3\n        /* \"#utility.yul\":19997:20011   */\n      lt\n        /* \"#utility.yul\":19977:19995   */\n      dup2\n        /* \"#utility.yul\":19974:20012   */\n      sub\n        /* \"#utility.yul\":19971:20055   */\n      tag_486\n      jumpi\n        /* \"#utility.yul\":20027:20045   */\n      tag_487\n      tag_261\n      jump\t// in\n    tag_487:\n        /* \"#utility.yul\":19971:20055   */\n    tag_486:\n        /* \"#utility.yul\":19792:20061   */\n      pop\n        /* \"#utility.yul\":19741:20061   */\n      swap2\n      swap1\n      pop\n      jump\t// out\n        /* \"#utility.yul\":20067:20242   */\n    tag_262:\n        /* \"#utility.yul\":20207:20234   */\n      0x4e6f20646f63746f727320726567697374657265642079657400000000000000\n        /* \"#utility.yul\":20203:20204   */\n      0x00\n        /* \"#utility.yul\":20195:20201   */\n      dup3\n        /* \"#utility.yul\":20191:20205   */\n      add\n        /* \"#utility.yul\":20184:20235   */\n      mstore\n        /* \"#utility.yul\":20067:20242   */\n      pop\n      jump\t// out\n        /* \"#utility.yul\":20248:20614   */\n    tag_263:\n        /* \"#utility.yul\":20390:20393   */\n      0x00\n        /* \"#utility.yul\":20411:20478   */\n      tag_490\n        /* \"#utility.yul\":20475:20477   */\n      0x19\n        /* \"#utility.yul\":20470:20473   */\n      dup4\n        /* \"#utility.yul\":20411:20478   */\n      tag_221\n      jump\t// in\n    tag_490:\n        /* \"#utility.yul\":20404:20478   */\n      swap2\n      pop\n        /* \"#utility.yul\":20487:20580   */\n      tag_491\n        /* \"#utility.yul\":20576:20579   */\n      dup3\n        /* \"#utility.yul\":20487:20580   */\n      tag_262\n      jump\t// in\n    tag_491:\n        /* \"#utility.yul\":20605:20607   */\n      0x20\n        /* \"#utility.yul\":20600:20603   */\n      dup3\n        /* \"#utility.yul\":20596:20608   */\n      add\n        /* \"#utility.yul\":20589:20608   */\n      swap1\n      pop\n        /* \"#utility.yul\":20248:20614   */\n      swap2\n      swap1\n      pop\n      jump\t// out\n        /* \"#utility.yul\":20620:21039   */\n    tag_98:\n        /* \"#utility.yul\":20786:20790   */\n      0x00\n        /* \"#utility.yul\":20824:20826   */\n      0x20\n        /* \"#utility.yul\":20813:20822   */\n      dup3\n        /* \"#utility.yul\":20809:20827   */\n      add\n        /* \"#utility.yul\":20801:20827   */\n      swap1\n      pop\n        /* \"#utility.yul\":20873:20882   */\n      dup2\n        /* \"#utility.yul\":20867:20871   */\n      dup2\n        /* \"#utility.yul\":20863:20883   */\n      sub\n        /* \"#utility.yul\":20859:20860   */\n      0x00\n        /* \"#utility.yul\":20848:20857   */\n      dup4\n        /* \"#utility.yul\":20844:20861   */\n      add\n        /* \"#utility.yul\":20837:20884   */\n      mstore\n        /* \"#utility.yul\":20901:21032   */\n      tag_493\n        /* \"#utility.yul\":21027:21031   */\n      dup2\n        /* \"#utility.yul\":20901:21032   */\n      tag_263\n      jump\t// in\n    tag_493:\n        /* \"#utility.yul\":20893:21032   */\n      swap1\n      pop\n        /* \"#utility.yul\":20620:21039   */\n      swap2\n      swap1\n      pop\n      jump\t// out\n        /* \"#utility.yul\":21045:21217   */\n    tag_264:\n        /* \"#utility.yul\":21185:21209   */\n      0x496e76616c696420646f63746f72206164647265737300000000000000000000\n        /* \"#utility.yul\":21181:21182   */\n      0x00\n        /* \"#utility.yul\":21173:21179   */\n      dup3\n        /* \"#utility.yul\":21169:21183   */\n      add\n        /* \"#utility.yul\":21162:21210   */\n      mstore\n        /* \"#utility.yul\":21045:21217   */\n      pop\n      jump\t// out\n        /* \"#utility.yul\":21223:21589   */\n    tag_265:\n        /* \"#utility.yul\":21365:21368   */\n      0x00\n        /* \"#utility.yul\":21386:21453   */\n      tag_496\n        /* \"#utility.yul\":21450:21452   */\n      0x16\n        /* \"#utility.yul\":21445:21448   */\n      dup4\n        /* \"#utility.yul\":21386:21453   */\n      tag_221\n      jump\t// in\n    tag_496:\n        /* \"#utility.yul\":21379:21453   */\n      swap2\n      pop\n        /* \"#utility.yul\":21462:21555   */\n      tag_497\n        /* \"#utility.yul\":21551:21554   */\n      dup3\n        /* \"#utility.yul\":21462:21555   */\n      tag_264\n      jump\t// in\n    tag_497:\n        /* \"#utility.yul\":21580:21582   */\n      0x20\n        /* \"#utility.yul\":21575:21578   */\n      dup3\n        /* \"#utility.yul\":21571:21583   */\n      add\n        /* \"#utility.yul\":21564:21583   */\n      swap1\n      pop\n        /* \"#utility.yul\":21223:21589   */\n      swap2\n      swap1\n      pop\n      jump\t// out\n        /* \"#utility.yul\":21595:22014   */\n    tag_101:\n        /* \"#utility.yul\":21761:21765   */\n      0x00\n        /* \"#utility.yul\":21799:21801   */\n      0x20\n        /* \"#utility.yul\":21788:21797   */\n      dup3\n        /* \"#utility.yul\":21784:21802   */\n      add\n        /* \"#utility.yul\":21776:21802   */\n      swap1\n      pop\n        /* \"#utility.yul\":21848:21857   */\n      dup2\n        /* \"#utility.yul\":21842:21846   */\n      dup2\n        /* \"#utility.yul\":21838:21858   */\n      sub\n        /* \"#utility.yul\":21834:21835   */\n      0x00\n        /* \"#utility.yul\":21823:21832   */\n      dup4\n        /* \"#utility.yul\":21819:21836   */\n      add\n        /* \"#utility.yul\":21812:21859   */\n      mstore\n        /* \"#utility.yul\":21876:22007   */\n      tag_499\n        /* \"#utility.yul\":22002:22006   */\n      dup2\n        /* \"#utility.yul\":21876:22007   */\n      tag_265\n      jump\t// in\n    tag_499:\n        /* \"#utility.yul\":21868:22007   */\n      swap1\n      pop\n        /* \"#utility.yul\":21595:22014   */\n      swap2\n      swap1\n      pop\n      jump\t// out\n        /* \"#utility.yul\":22020:22259   */\n    tag_266:\n        /* \"#utility.yul\":22160:22194   */\n      0x446f63746f72206d757374206265206173736f63696174656420776974682061\n        /* \"#utility.yul\":22156:22157   */\n      0x00\n        /* \"#utility.yul\":22148:22154   */\n      dup3\n        /* \"#utility.yul\":22144:22158   */\n      add\n        /* \"#utility.yul\":22137:22195   */\n      mstore\n        /* \"#utility.yul\":22229:22251   */\n      0x74206c65617374206f6e6520686f73706974616c000000000000000000000000\n        /* \"#utility.yul\":22224:22226   */\n      0x20\n        /* \"#utility.yul\":22216:22222   */\n      dup3\n        /* \"#utility.yul\":22212:22227   */\n      add\n        /* \"#utility.yul\":22205:22252   */\n      mstore\n        /* \"#utility.yul\":22020:22259   */\n      pop\n      jump\t// out\n        /* \"#utility.yul\":22265:22631   */\n    tag_267:\n        /* \"#utility.yul\":22407:22410   */\n      0x00\n        /* \"#utility.yul\":22428:22495   */\n      tag_502\n        /* \"#utility.yul\":22492:22494   */\n      0x34\n        /* \"#utility.yul\":22487:22490   */\n      dup4\n        /* \"#utility.yul\":22428:22495   */\n      tag_221\n      jump\t// in\n    tag_502:\n        /* \"#utility.yul\":22421:22495   */\n      swap2\n      pop\n        /* \"#utility.yul\":22504:22597   */\n      tag_503\n        /* \"#utility.yul\":22593:22596   */\n      dup3\n        /* \"#utility.yul\":22504:22597   */\n      tag_266\n      jump\t// in\n    tag_503:\n        /* \"#utility.yul\":22622:22624   */\n      0x40\n        /* \"#utility.yul\":22617:22620   */\n      dup3\n        /* \"#utility.yul\":22613:22625   */\n      add\n        /* \"#utility.yul\":22606:22625   */\n      swap1\n      pop\n        /* \"#utility.yul\":22265:22631   */\n      swap2\n      swap1\n      pop\n      jump\t// out\n        /* \"#utility.yul\":22637:23056   */\n    tag_115:\n        /* \"#utility.yul\":22803:22807   */\n      0x00\n        /* \"#utility.yul\":22841:22843   */\n      0x20\n        /* \"#utility.yul\":22830:22839   */\n      dup3\n        /* \"#utility.yul\":22826:22844   */\n      add\n        /* \"#utility.yul\":22818:22844   */\n      swap1\n      pop\n        /* \"#utility.yul\":22890:22899   */\n      dup2\n        /* \"#utility.yul\":22884:22888   */\n      dup2\n        /* \"#utility.yul\":22880:22900   */\n      sub\n        /* \"#utility.yul\":22876:22877   */\n      0x00\n        /* \"#utility.yul\":22865:22874   */\n      dup4\n        /* \"#utility.yul\":22861:22878   */\n      add\n        /* \"#utility.yul\":22854:22901   */\n      mstore\n        /* \"#utility.yul\":22918:23049   */\n      tag_505\n        /* \"#utility.yul\":23044:23048   */\n      dup2\n        /* \"#utility.yul\":22918:23049   */\n      tag_267\n      jump\t// in\n    tag_505:\n        /* \"#utility.yul\":22910:23049   */\n      swap1\n      pop\n        /* \"#utility.yul\":22637:23056   */\n      swap2\n      swap1\n      pop\n      jump\t// out\n        /* \"#utility.yul\":23062:23242   */\n    tag_118:\n        /* \"#utility.yul\":23110:23187   */\n      0x4e487b7100000000000000000000000000000000000000000000000000000000\n        /* \"#utility.yul\":23107:23108   */\n      0x00\n        /* \"#utility.yul\":23100:23188   */\n      mstore\n        /* \"#utility.yul\":23207:23211   */\n      0x32\n        /* \"#utility.yul\":23204:23205   */\n      0x04\n        /* \"#utility.yul\":23197:23212   */\n      mstore\n        /* \"#utility.yul\":23231:23235   */\n      0x24\n        /* \"#utility.yul\":23228:23229   */\n      0x00\n        /* \"#utility.yul\":23221:23236   */\n      revert\n        /* \"#utility.yul\":23248:23491   */\n    tag_268:\n        /* \"#utility.yul\":23388:23422   */\n      0x4f6e6c7920646f63746f7273206f6620746865206f7267616e697a6174696f6e\n        /* \"#utility.yul\":23384:23385   */\n      0x00\n        /* \"#utility.yul\":23376:23382   */\n      dup3\n        /* \"#utility.yul\":23372:23386   */\n      add\n        /* \"#utility.yul\":23365:23423   */\n      mstore\n        /* \"#utility.yul\":23457:23483   */\n      0x2063616e20706572666f726d207468697320616374696f6e0000000000000000\n        /* \"#utility.yul\":23452:23454   */\n      0x20\n        /* \"#utility.yul\":23444:23450   */\n      dup3\n        /* \"#utility.yul\":23440:23455   */\n      add\n        /* \"#utility.yul\":23433:23484   */\n      mstore\n        /* \"#utility.yul\":23248:23491   */\n      pop\n      jump\t// out\n        /* \"#utility.yul\":23497:23863   */\n    tag_269:\n        /* \"#utility.yul\":23639:23642   */\n      0x00\n        /* \"#utility.yul\":23660:23727   */\n      tag_509\n        /* \"#utility.yul\":23724:23726   */\n      0x38\n        /* \"#utility.yul\":23719:23722   */\n      dup4\n        /* \"#utility.yul\":23660:23727   */\n      tag_221\n      jump\t// in\n    tag_509:\n        /* \"#utility.yul\":23653:23727   */\n      swap2\n      pop\n        /* \"#utility.yul\":23736:23829   */\n      tag_510\n        /* \"#utility.yul\":23825:23828   */\n      dup3\n        /* \"#utility.yul\":23736:23829   */\n      tag_268\n      jump\t// in\n    tag_510:\n        /* \"#utility.yul\":23854:23856   */\n      0x40\n        /* \"#utility.yul\":23849:23852   */\n      dup3\n        /* \"#utility.yul\":23845:23857   */\n      add\n        /* \"#utility.yul\":23838:23857   */\n      swap1\n      pop\n        /* \"#utility.yul\":23497:23863   */\n      swap2\n      swap1\n      pop\n      jump\t// out\n        /* \"#utility.yul\":23869:24288   */\n    tag_122:\n        /* \"#utility.yul\":24035:24039   */\n      0x00\n        /* \"#utility.yul\":24073:24075   */\n      0x20\n        /* \"#utility.yul\":24062:24071   */\n      dup3\n        /* \"#utility.yul\":24058:24076   */\n      add\n        /* \"#utility.yul\":24050:24076   */\n      swap1\n      pop\n        /* \"#utility.yul\":24122:24131   */\n      dup2\n        /* \"#utility.yul\":24116:24120   */\n      dup2\n        /* \"#utility.yul\":24112:24132   */\n      sub\n        /* \"#utility.yul\":24108:24109   */\n      0x00\n        /* \"#utility.yul\":24097:24106   */\n      dup4\n        /* \"#utility.yul\":24093:24110   */\n      add\n        /* \"#utility.yul\":24086:24133   */\n      mstore\n        /* \"#utility.yul\":24150:24281   */\n      tag_512\n        /* \"#utility.yul\":24276:24280   */\n      dup2\n        /* \"#utility.yul\":24150:24281   */\n      tag_269\n      jump\t// in\n    tag_512:\n        /* \"#utility.yul\":24142:24281   */\n      swap1\n      pop\n        /* \"#utility.yul\":23869:24288   */\n      swap2\n      swap1\n      pop\n      jump\t// out\n        /* \"#utility.yul\":24294:24476   */\n    tag_270:\n        /* \"#utility.yul\":24434:24468   */\n      0x446f63746f72206e6f7420666f756e6420696e2067656e6572616c206c697374\n        /* \"#utility.yul\":24430:24431   */\n      0x00\n        /* \"#utility.yul\":24422:24428   */\n      dup3\n        /* \"#utility.yul\":24418:24432   */\n      add\n        /* \"#utility.yul\":24411:24469   */\n      mstore\n        /* \"#utility.yul\":24294:24476   */\n      pop\n      jump\t// out\n        /* \"#utility.yul\":24482:24848   */\n    tag_271:\n        /* \"#utility.yul\":24624:24627   */\n      0x00\n        /* \"#utility.yul\":24645:24712   */\n      tag_515\n        /* \"#utility.yul\":24709:24711   */\n      0x20\n        /* \"#utility.yul\":24704:24707   */\n      dup4\n        /* \"#utility.yul\":24645:24712   */\n      tag_221\n      jump\t// in\n    tag_515:\n        /* \"#utility.yul\":24638:24712   */\n      swap2\n      pop\n        /* \"#utility.yul\":24721:24814   */\n      tag_516\n        /* \"#utility.yul\":24810:24813   */\n      dup3\n        /* \"#utility.yul\":24721:24814   */\n      tag_270\n      jump\t// in\n    tag_516:\n        /* \"#utility.yul\":24839:24841   */\n      0x20\n        /* \"#utility.yul\":24834:24837   */\n      dup3\n        /* \"#utility.yul\":24830:24842   */\n      add\n        /* \"#utility.yul\":24823:24842   */\n      swap1\n      pop\n        /* \"#utility.yul\":24482:24848   */\n      swap2\n      swap1\n      pop\n      jump\t// out\n        /* \"#utility.yul\":24854:25273   */\n    tag_126:\n        /* \"#utility.yul\":25020:25024   */\n      0x00\n        /* \"#utility.yul\":25058:25060   */\n      0x20\n        /* \"#utility.yul\":25047:25056   */\n      dup3\n        /* \"#utility.yul\":25043:25061   */\n      add\n        /* \"#utility.yul\":25035:25061   */\n      swap1\n      pop\n        /* \"#utility.yul\":25107:25116   */\n      dup2\n        /* \"#utility.yul\":25101:25105   */\n      dup2\n        /* \"#utility.yul\":25097:25117   */\n      sub\n        /* \"#utility.yul\":25093:25094   */\n      0x00\n        /* \"#utility.yul\":25082:25091   */\n      dup4\n        /* \"#utility.yul\":25078:25095   */\n      add\n        /* \"#utility.yul\":25071:25118   */\n      mstore\n        /* \"#utility.yul\":25135:25266   */\n      tag_518\n        /* \"#utility.yul\":25261:25265   */\n      dup2\n        /* \"#utility.yul\":25135:25266   */\n      tag_271\n      jump\t// in\n    tag_518:\n        /* \"#utility.yul\":25127:25266   */\n      swap1\n      pop\n        /* \"#utility.yul\":24854:25273   */\n      swap2\n      swap1\n      pop\n      jump\t// out\n        /* \"#utility.yul\":25279:25506   */\n    tag_272:\n        /* \"#utility.yul\":25419:25453   */\n      0x446f63746f72206e6f74206173736f6369617465642077697468207468697320\n        /* \"#utility.yul\":25415:25416   */\n      0x00\n        /* \"#utility.yul\":25407:25413   */\n      dup3\n        /* \"#utility.yul\":25403:25417   */\n      add\n        /* \"#utility.yul\":25396:25454   */\n      mstore\n        /* \"#utility.yul\":25488:25498   */\n      0x686f73706974616c000000000000000000000000000000000000000000000000\n        /* \"#utility.yul\":25483:25485   */\n      0x20\n        /* \"#utility.yul\":25475:25481   */\n      dup3\n        /* \"#utility.yul\":25471:25486   */\n      add\n        /* \"#utility.yul\":25464:25499   */\n      mstore\n        /* \"#utility.yul\":25279:25506   */\n      pop\n      jump\t// out\n        /* \"#utility.yul\":25512:25878   */\n    tag_273:\n        /* \"#utility.yul\":25654:25657   */\n      0x00\n        /* \"#utility.yul\":25675:25742   */\n      tag_521\n        /* \"#utility.yul\":25739:25741   */\n      0x28\n        /* \"#utility.yul\":25734:25737   */\n      dup4\n        /* \"#utility.yul\":25675:25742   */\n      tag_221\n      jump\t// in\n    tag_521:\n        /* \"#utility.yul\":25668:25742   */\n      swap2\n      pop\n        /* \"#utility.yul\":25751:25844   */\n      tag_522\n        /* \"#utility.yul\":25840:25843   */\n      dup3\n        /* \"#utility.yul\":25751:25844   */\n      tag_272\n      jump\t// in\n    tag_522:\n        /* \"#utility.yul\":25869:25871   */\n      0x40\n        /* \"#utility.yul\":25864:25867   */\n      dup3\n        /* \"#utility.yul\":25860:25872   */\n      add\n        /* \"#utility.yul\":25853:25872   */\n      swap1\n      pop\n        /* \"#utility.yul\":25512:25878   */\n      swap2\n      swap1\n      pop\n      jump\t// out\n        /* \"#utility.yul\":25884:26303   */\n    tag_131:\n        /* \"#utility.yul\":26050:26054   */\n      0x00\n        /* \"#utility.yul\":26088:26090   */\n      0x20\n        /* \"#utility.yul\":26077:26086   */\n      dup3\n        /* \"#utility.yul\":26073:26091   */\n      add\n        /* \"#utility.yul\":26065:26091   */\n      swap1\n      pop\n        /* \"#utility.yul\":26137:26146   */\n      dup2\n        /* \"#utility.yul\":26131:26135   */\n      dup2\n        /* \"#utility.yul\":26127:26147   */\n      sub\n        /* \"#utility.yul\":26123:26124   */\n      0x00\n        /* \"#utility.yul\":26112:26121   */\n      dup4\n        /* \"#utility.yul\":26108:26125   */\n      add\n        /* \"#utility.yul\":26101:26148   */\n      mstore\n        /* \"#utility.yul\":26165:26296   */\n      tag_524\n        /* \"#utility.yul\":26291:26295   */\n      dup2\n        /* \"#utility.yul\":26165:26296   */\n      tag_273\n      jump\t// in\n    tag_524:\n        /* \"#utility.yul\":26157:26296   */\n      swap1\n      pop\n        /* \"#utility.yul\":25884:26303   */\n      swap2\n      swap1\n      pop\n      jump\t// out\n        /* \"#utility.yul\":26309:26538   */\n    tag_274:\n        /* \"#utility.yul\":26449:26483   */\n      0x446f63746f72206973206e6f74206173736f6369617465642077697468207468\n        /* \"#utility.yul\":26445:26446   */\n      0x00\n        /* \"#utility.yul\":26437:26443   */\n      dup3\n        /* \"#utility.yul\":26433:26447   */\n      add\n        /* \"#utility.yul\":26426:26484   */\n      mstore\n        /* \"#utility.yul\":26518:26530   */\n      0x6520686f73706974616c00000000000000000000000000000000000000000000\n        /* \"#utility.yul\":26513:26515   */\n      0x20\n        /* \"#utility.yul\":26505:26511   */\n      dup3\n        /* \"#utility.yul\":26501:26516   */\n      add\n        /* \"#utility.yul\":26494:26531   */\n      mstore\n        /* \"#utility.yul\":26309:26538   */\n      pop\n      jump\t// out\n        /* \"#utility.yul\":26544:26910   */\n    tag_275:\n        /* \"#utility.yul\":26686:26689   */\n      0x00\n        /* \"#utility.yul\":26707:26774   */\n      tag_527\n        /* \"#utility.yul\":26771:26773   */\n      0x2a\n        /* \"#utility.yul\":26766:26769   */\n      dup4\n        /* \"#utility.yul\":26707:26774   */\n      tag_221\n      jump\t// in\n    tag_527:\n        /* \"#utility.yul\":26700:26774   */\n      swap2\n      pop\n        /* \"#utility.yul\":26783:26876   */\n      tag_528\n        /* \"#utility.yul\":26872:26875   */\n      dup3\n        /* \"#utility.yul\":26783:26876   */\n      tag_274\n      jump\t// in\n    tag_528:\n        /* \"#utility.yul\":26901:26903   */\n      0x40\n        /* \"#utility.yul\":26896:26899   */\n      dup3\n        /* \"#utility.yul\":26892:26904   */\n      add\n        /* \"#utility.yul\":26885:26904   */\n      swap1\n      pop\n        /* \"#utility.yul\":26544:26910   */\n      swap2\n      swap1\n      pop\n      jump\t// out\n        /* \"#utility.yul\":26916:27335   */\n    tag_143:\n        /* \"#utility.yul\":27082:27086   */\n      0x00\n        /* \"#utility.yul\":27120:27122   */\n      0x20\n        /* \"#utility.yul\":27109:27118   */\n      dup3\n        /* \"#utility.yul\":27105:27123   */\n      add\n        /* \"#utility.yul\":27097:27123   */\n      swap1\n      pop\n        /* \"#utility.yul\":27169:27178   */\n      dup2\n        /* \"#utility.yul\":27163:27167   */\n      dup2\n        /* \"#utility.yul\":27159:27179   */\n      sub\n        /* \"#utility.yul\":27155:27156   */\n      0x00\n        /* \"#utility.yul\":27144:27153   */\n      dup4\n        /* \"#utility.yul\":27140:27157   */\n      add\n        /* \"#utility.yul\":27133:27180   */\n      mstore\n        /* \"#utility.yul\":27197:27328   */\n      tag_530\n        /* \"#utility.yul\":27323:27327   */\n      dup2\n        /* \"#utility.yul\":27197:27328   */\n      tag_275\n      jump\t// in\n    tag_530:\n        /* \"#utility.yul\":27189:27328   */\n      swap1\n      pop\n        /* \"#utility.yul\":26916:27335   */\n      swap2\n      swap1\n      pop\n      jump\t// out\n        /* \"#utility.yul\":27341:27562   */\n    tag_276:\n        /* \"#utility.yul\":27481:27515   */\n      0x4f6e6c792061646d696e2063616e20706572666f726d20746869732061637469\n        /* \"#utility.yul\":27477:27478   */\n      0x00\n        /* \"#utility.yul\":27469:27475   */\n      dup3\n        /* \"#utility.yul\":27465:27479   */\n      add\n        /* \"#utility.yul\":27458:27516   */\n      mstore\n        /* \"#utility.yul\":27550:27554   */\n      0x6f6e000000000000000000000000000000000000000000000000000000000000\n        /* \"#utility.yul\":27545:27547   */\n      0x20\n        /* \"#utility.yul\":27537:27543   */\n      dup3\n        /* \"#utility.yul\":27533:27548   */\n      add\n        /* \"#utility.yul\":27526:27555   */\n      mstore\n        /* \"#utility.yul\":27341:27562   */\n      pop\n      jump\t// out\n        /* \"#utility.yul\":27568:27934   */\n    tag_277:\n        /* \"#utility.yul\":27710:27713   */\n      0x00\n        /* \"#utility.yul\":27731:27798   */\n      tag_533\n        /* \"#utility.yul\":27795:27797   */\n      0x22\n        /* \"#utility.yul\":27790:27793   */\n      dup4\n        /* \"#utility.yul\":27731:27798   */\n      tag_221\n      jump\t// in\n    tag_533:\n        /* \"#utility.yul\":27724:27798   */\n      swap2\n      pop\n        /* \"#utility.yul\":27807:27900   */\n      tag_534\n        /* \"#utility.yul\":27896:27899   */\n      dup3\n        /* \"#utility.yul\":27807:27900   */\n      tag_276\n      jump\t// in\n    tag_534:\n        /* \"#utility.yul\":27925:27927   */\n      0x40\n        /* \"#utility.yul\":27920:27923   */\n      dup3\n        /* \"#utility.yul\":27916:27928   */\n      add\n        /* \"#utility.yul\":27909:27928   */\n      swap1\n      pop\n        /* \"#utility.yul\":27568:27934   */\n      swap2\n      swap1\n      pop\n      jump\t// out\n        /* \"#utility.yul\":27940:28359   */\n    tag_148:\n        /* \"#utility.yul\":28106:28110   */\n      0x00\n        /* \"#utility.yul\":28144:28146   */\n      0x20\n        /* \"#utility.yul\":28133:28142   */\n      dup3\n        /* \"#utility.yul\":28129:28147   */\n      add\n        /* \"#utility.yul\":28121:28147   */\n      swap1\n      pop\n        /* \"#utility.yul\":28193:28202   */\n      dup2\n        /* \"#utility.yul\":28187:28191   */\n      dup2\n        /* \"#utility.yul\":28183:28203   */\n      sub\n        /* \"#utility.yul\":28179:28180   */\n      0x00\n        /* \"#utility.yul\":28168:28177   */\n      dup4\n        /* \"#utility.yul\":28164:28181   */\n      add\n        /* \"#utility.yul\":28157:28204   */\n      mstore\n        /* \"#utility.yul\":28221:28352   */\n      tag_536\n        /* \"#utility.yul\":28347:28351   */\n      dup2\n        /* \"#utility.yul\":28221:28352   */\n      tag_277\n      jump\t// in\n    tag_536:\n        /* \"#utility.yul\":28213:28352   */\n      swap1\n      pop\n        /* \"#utility.yul\":27940:28359   */\n      swap2\n      swap1\n      pop\n      jump\t// out\n        /* \"#utility.yul\":28365:28506   */\n    tag_278:\n        /* \"#utility.yul\":28414:28418   */\n      0x00\n        /* \"#utility.yul\":28437:28440   */\n      dup2\n        /* \"#utility.yul\":28429:28440   */\n      swap1\n      pop\n        /* \"#utility.yul\":28460:28463   */\n      dup2\n        /* \"#utility.yul\":28457:28458   */\n      0x00\n        /* \"#utility.yul\":28450:28464   */\n      mstore\n        /* \"#utility.yul\":28494:28498   */\n      0x20\n        /* \"#utility.yul\":28491:28492   */\n      0x00\n        /* \"#utility.yul\":28481:28499   */\n      keccak256\n        /* \"#utility.yul\":28473:28499   */\n      swap1\n      pop\n        /* \"#utility.yul\":28365:28506   */\n      swap2\n      swap1\n      pop\n      jump\t// out\n        /* \"#utility.yul\":28512:28605   */\n    tag_279:\n        /* \"#utility.yul\":28549:28555   */\n      0x00\n        /* \"#utility.yul\":28596:28598   */\n      0x20\n        /* \"#utility.yul\":28591:28593   */\n      0x1f\n        /* \"#utility.yul\":28584:28589   */\n      dup4\n        /* \"#utility.yul\":28580:28594   */\n      add\n        /* \"#utility.yul\":28576:28599   */\n      div\n        /* \"#utility.yul\":28566:28599   */\n      swap1\n      pop\n        /* \"#utility.yul\":28512:28605   */\n      swap2\n      swap1\n      pop\n      jump\t// out\n        /* \"#utility.yul\":28611:28718   */\n    tag_280:\n        /* \"#utility.yul\":28655:28663   */\n      0x00\n        /* \"#utility.yul\":28705:28710   */\n      dup3\n        /* \"#utility.yul\":28699:28703   */\n      dup3\n        /* \"#utility.yul\":28695:28711   */\n      shl\n        /* \"#utility.yul\":28674:28711   */\n      swap1\n      pop\n        /* \"#utility.yul\":28611:28718   */\n      swap3\n      swap2\n      pop\n      pop\n      jump\t// out\n        /* \"#utility.yul\":28724:29117   */\n    tag_281:\n        /* \"#utility.yul\":28793:28799   */\n      0x00\n        /* \"#utility.yul\":28843:28844   */\n      0x08\n        /* \"#utility.yul\":28831:28841   */\n      dup4\n        /* \"#utility.yul\":28827:28845   */\n      mul\n        /* \"#utility.yul\":28866:28963   */\n      tag_541\n        /* \"#utility.yul\":28896:28962   */\n      0xffffffffffffffffffffffffffffffffffffffffffffffffffffffffffffffff\n        /* \"#utility.yul\":28885:28894   */\n      dup3\n        /* \"#utility.yul\":28866:28963   */\n      tag_280\n      jump\t// in\n    tag_541:\n        /* \"#utility.yul\":28984:29023   */\n      tag_542\n        /* \"#utility.yul\":29014:29022   */\n      dup7\n        /* \"#utility.yul\":29003:29012   */\n      dup4\n        /* \"#utility.yul\":28984:29023   */\n      tag_280\n      jump\t// in\n    tag_542:\n        /* \"#utility.yul\":28972:29023   */\n      swap6\n      pop\n        /* \"#utility.yul\":29056:29060   */\n      dup1\n        /* \"#utility.yul\":29052:29061   */\n      not\n        /* \"#utility.yul\":29045:29050   */\n      dup5\n        /* \"#utility.yul\":29041:29062   */\n      and\n        /* \"#utility.yul\":29032:29062   */\n      swap4\n      pop\n        /* \"#utility.yul\":29105:29109   */\n      dup1\n        /* \"#utility.yul\":29095:29103   */\n      dup7\n        /* \"#utility.yul\":29091:29110   */\n      and\n        /* \"#utility.yul\":29084:29089   */\n      dup5\n        /* \"#utility.yul\":29081:29111   */\n      or\n        /* \"#utility.yul\":29071:29111   */\n      swap3\n      pop\n        /* \"#utility.yul\":28800:29117   */\n      pop\n      pop\n        /* \"#utility.yul\":28724:29117   */\n      swap4\n      swap3\n      pop\n      pop\n      pop\n      jump\t// out\n        /* \"#utility.yul\":29123:29183   */\n    tag_282:\n        /* \"#utility.yul\":29151:29154   */\n      0x00\n        /* \"#utility.yul\":29172:29177   */\n      dup2\n        /* \"#utility.yul\":29165:29177   */\n      swap1\n      pop\n        /* \"#utility.yul\":29123:29183   */\n      swap2\n      swap1\n      pop\n      jump\t// out\n        /* \"#utility.yul\":29189:29331   */\n    tag_283:\n        /* \"#utility.yul\":29239:29248   */\n      0x00\n        /* \"#utility.yul\":29272:29325   */\n      tag_545\n        /* \"#utility.yul\":29290:29324   */\n      tag_546\n        /* \"#utility.yul\":29299:29323   */\n      tag_547\n        /* \"#utility.yul\":29317:29322   */\n      dup5\n        /* \"#utility.yul\":29299:29323   */\n      tag_217\n      jump\t// in\n    tag_547:\n        /* \"#utility.yul\":29290:29324   */\n      tag_282\n      jump\t// in\n    tag_546:\n        /* \"#utility.yul\":29272:29325   */\n      tag_217\n      jump\t// in\n    tag_545:\n        /* \"#utility.yul\":29259:29325   */\n      swap1\n      pop\n        /* \"#utility.yul\":29189:29331   */\n      swap2\n      swap1\n      pop\n      jump\t// out\n        /* \"#utility.yul\":29337:29412   */\n    tag_284:\n        /* \"#utility.yul\":29380:29383   */\n      0x00\n        /* \"#utility.yul\":29401:29406   */\n      dup2\n        /* \"#utility.yul\":29394:29406   */\n      swap1\n      pop\n        /* \"#utility.yul\":29337:29412   */\n      swap2\n      swap1\n      pop\n      jump\t// out\n        /* \"#utility.yul\":29418:29687   */\n    tag_285:\n        /* \"#utility.yul\":29528:29567   */\n      tag_550\n        /* \"#utility.yul\":29559:29566   */\n      dup4\n        /* \"#utility.yul\":29528:29567   */\n      tag_283\n      jump\t// in\n    tag_550:\n        /* \"#utility.yul\":29589:29680   */\n      tag_551\n        /* \"#utility.yul\":29638:29679   */\n      tag_552\n        /* \"#utility.yul\":29662:29678   */\n      dup3\n        /* \"#utility.yul\":29638:29679   */\n      tag_284\n      jump\t// in\n    tag_552:\n        /* \"#utility.yul\":29630:29636   */\n      dup5\n        /* \"#utility.yul\":29623:29627   */\n      dup5\n        /* \"#utility.yul\":29617:29628   */\n      sload\n        /* \"#utility.yul\":29589:29680   */\n      tag_281\n      jump\t// in\n    tag_551:\n        /* \"#utility.yul\":29583:29587   */\n      dup3\n        /* \"#utility.yul\":29576:29681   */\n      sstore\n        /* \"#utility.yul\":29494:29687   */\n      pop\n        /* \"#utility.yul\":29418:29687   */\n      pop\n      pop\n      pop\n      jump\t// out\n        /* \"#utility.yul\":29693:29766   */\n    tag_286:\n        /* \"#utility.yul\":29738:29741   */\n      0x00\n        /* \"#utility.yul\":29693:29766   */\n      swap1\n      jump\t// out\n        /* \"#utility.yul\":29772:29961   */\n    tag_287:\n        /* \"#utility.yul\":29849:29881   */\n      tag_555\n      tag_286\n      jump\t// in\n    tag_555:\n        /* \"#utility.yul\":29890:29955   */\n      tag_556\n        /* \"#utility.yul\":29948:29954   */\n      dup2\n        /* \"#utility.yul\":29940:29946   */\n      dup5\n        /* \"#utility.yul\":29934:29938   */\n      dup5\n        /* \"#utility.yul\":29890:29955   */\n      tag_285\n      jump\t// in\n    tag_556:\n        /* \"#utility.yul\":29825:29961   */\n      pop\n        /* \"#utility.yul\":29772:29961   */\n      pop\n      pop\n      jump\t// out\n        /* \"#utility.yul\":29967:30153   */\n    tag_288:\n        /* \"#utility.yul\":30027:30147   */\n    tag_558:\n        /* \"#utility.yul\":30044:30047   */\n      dup2\n        /* \"#utility.yul\":30037:30042   */\n      dup2\n        /* \"#utility.yul\":30034:30048   */\n      lt\n        /* \"#utility.yul\":30027:30147   */\n      iszero\n      tag_560\n      jumpi\n        /* \"#utility.yul\":30098:30137   */\n      tag_561\n        /* \"#utility.yul\":30135:30136   */\n      0x00\n        /* \"#utility.yul\":30128:30133   */\n      dup3\n        /* \"#utility.yul\":30098:30137   */\n      tag_287\n      jump\t// in\n    tag_561:\n        /* \"#utility.yul\":30071:30072   */\n      0x01\n        /* \"#utility.yul\":30064:30069   */\n      dup2\n        /* \"#utility.yul\":30060:30073   */\n      add\n        /* \"#utility.yul\":30051:30073   */\n      swap1\n      pop\n        /* \"#utility.yul\":30027:30147   */\n      jump(tag_558)\n    tag_560:\n        /* \"#utility.yul\":29967:30153   */\n      pop\n      pop\n      jump\t// out\n        /* \"#utility.yul\":30159:30702   */\n    tag_289:\n        /* \"#utility.yul\":30260:30262   */\n      0x1f\n        /* \"#utility.yul\":30255:30258   */\n      dup3\n        /* \"#utility.yul\":30252:30263   */\n      gt\n        /* \"#utility.yul\":30249:30695   */\n      iszero\n      tag_563\n      jumpi\n        /* \"#utility.yul\":30294:30332   */\n      tag_564\n        /* \"#utility.yul\":30326:30331   */\n      dup2\n        /* \"#utility.yul\":30294:30332   */\n      tag_278\n      jump\t// in\n    tag_564:\n        /* \"#utility.yul\":30378:30407   */\n      tag_565\n        /* \"#utility.yul\":30396:30406   */\n      dup5\n        /* \"#utility.yul\":30378:30407   */\n      tag_279\n      jump\t// in\n    tag_565:\n        /* \"#utility.yul\":30368:30376   */\n      dup2\n        /* \"#utility.yul\":30364:30408   */\n      add\n        /* \"#utility.yul\":30561:30563   */\n      0x20\n        /* \"#utility.yul\":30549:30559   */\n      dup6\n        /* \"#utility.yul\":30546:30564   */\n      lt\n        /* \"#utility.yul\":30543:30592   */\n      iszero\n      tag_566\n      jumpi\n        /* \"#utility.yul\":30582:30590   */\n      dup2\n        /* \"#utility.yul\":30567:30590   */\n      swap1\n      pop\n        /* \"#utility.yul\":30543:30592   */\n    tag_566:\n        /* \"#utility.yul\":30605:30685   */\n      tag_567\n        /* \"#utility.yul\":30661:30683   */\n      tag_568\n        /* \"#utility.yul\":30679:30682   */\n      dup6\n        /* \"#utility.yul\":30661:30683   */\n      tag_279\n      jump\t// in\n    tag_568:\n        /* \"#utility.yul\":30651:30659   */\n      dup4\n        /* \"#utility.yul\":30647:30684   */\n      add\n        /* \"#utility.yul\":30634:30645   */\n      dup3\n        /* \"#utility.yul\":30605:30685   */\n      tag_288\n      jump\t// in\n    tag_567:\n        /* \"#utility.yul\":30264:30695   */\n      pop\n      pop\n        /* \"#utility.yul\":30249:30695   */\n    tag_563:\n        /* \"#utility.yul\":30159:30702   */\n      pop\n      pop\n      pop\n      jump\t// out\n        /* \"#utility.yul\":30708:30825   */\n    tag_290:\n        /* \"#utility.yul\":30762:30770   */\n      0x00\n        /* \"#utility.yul\":30812:30817   */\n      dup3\n        /* \"#utility.yul\":30806:30810   */\n      dup3\n        /* \"#utility.yul\":30802:30818   */\n      shr\n        /* \"#utility.yul\":30781:30818   */\n      swap1\n      pop\n        /* \"#utility.yul\":30708:30825   */\n      swap3\n      swap2\n      pop\n      pop\n      jump\t// out\n        /* \"#utility.yul\":30831:31000   */\n    tag_291:\n        /* \"#utility.yul\":30875:30881   */\n      0x00\n        /* \"#utility.yul\":30908:30959   */\n      tag_571\n        /* \"#utility.yul\":30956:30957   */\n      0x00\n        /* \"#utility.yul\":30952:30958   */\n      not\n        /* \"#utility.yul\":30944:30949   */\n      dup5\n        /* \"#utility.yul\":30941:30942   */\n      0x08\n        /* \"#utility.yul\":30937:30950   */\n      mul\n        /* \"#utility.yul\":30908:30959   */\n      tag_290\n      jump\t// in\n    tag_571:\n        /* \"#utility.yul\":30904:30960   */\n      not\n        /* \"#utility.yul\":30989:30993   */\n      dup1\n        /* \"#utility.yul\":30983:30987   */\n      dup4\n        /* \"#utility.yul\":30979:30994   */\n      and\n        /* \"#utility.yul\":30969:30994   */\n      swap2\n      pop\n        /* \"#utility.yul\":30882:31000   */\n      pop\n        /* \"#utility.yul\":30831:31000   */\n      swap3\n      swap2\n      pop\n      pop\n      jump\t// out\n        /* \"#utility.yul\":31005:31300   */\n    tag_292:\n        /* \"#utility.yul\":31081:31085   */\n      0x00\n        /* \"#utility.yul\":31227:31256   */\n      tag_573\n        /* \"#utility.yul\":31252:31255   */\n      dup4\n        /* \"#utility.yul\":31246:31250   */\n      dup4\n        /* \"#utility.yul\":31227:31256   */\n      tag_291\n      jump\t// in\n    tag_573:\n        /* \"#utility.yul\":31219:31256   */\n      swap2\n      pop\n        /* \"#utility.yul\":31289:31292   */\n      dup3\n        /* \"#utility.yul\":31286:31287   */\n      0x02\n        /* \"#utility.yul\":31282:31293   */\n      mul\n        /* \"#utility.yul\":31276:31280   */\n      dup3\n        /* \"#utility.yul\":31273:31294   */\n      or\n        /* \"#utility.yul\":31265:31294   */\n      swap1\n      pop\n        /* \"#utility.yul\":31005:31300   */\n      swap3\n      swap2\n      pop\n      pop\n      jump\t// out\n        /* \"#utility.yul\":31305:32700   */\n    tag_151:\n        /* \"#utility.yul\":31422:31459   */\n      tag_575\n        /* \"#utility.yul\":31455:31458   */\n      dup3\n        /* \"#utility.yul\":31422:31459   */\n      tag_220\n      jump\t// in\n    tag_575:\n        /* \"#utility.yul\":31524:31542   */\n      0xffffffffffffffff\n        /* \"#utility.yul\":31516:31522   */\n      dup2\n        /* \"#utility.yul\":31513:31543   */\n      gt\n        /* \"#utility.yul\":31510:31566   */\n      iszero\n      tag_576\n      jumpi\n        /* \"#utility.yul\":31546:31564   */\n      tag_577\n      tag_243\n      jump\t// in\n    tag_577:\n        /* \"#utility.yul\":31510:31566   */\n    tag_576:\n        /* \"#utility.yul\":31590:31628   */\n      tag_578\n        /* \"#utility.yul\":31622:31626   */\n      dup3\n        /* \"#utility.yul\":31616:31627   */\n      sload\n        /* \"#utility.yul\":31590:31628   */\n      tag_63\n      jump\t// in\n    tag_578:\n        /* \"#utility.yul\":31675:31742   */\n      tag_579\n        /* \"#utility.yul\":31735:31741   */\n      dup3\n        /* \"#utility.yul\":31727:31733   */\n      dup3\n        /* \"#utility.yul\":31721:31725   */\n      dup6\n        /* \"#utility.yul\":31675:31742   */\n      tag_289\n      jump\t// in\n    tag_579:\n        /* \"#utility.yul\":31769:31770   */\n      0x00\n        /* \"#utility.yul\":31793:31797   */\n      0x20\n        /* \"#utility.yul\":31780:31797   */\n      swap1\n      pop\n        /* \"#utility.yul\":31825:31827   */\n      0x1f\n        /* \"#utility.yul\":31817:31823   */\n      dup4\n        /* \"#utility.yul\":31814:31828   */\n      gt\n        /* \"#utility.yul\":31842:31843   */\n      0x01\n        /* \"#utility.yul\":31837:32455   */\n      dup2\n      eq\n      tag_581\n      jumpi\n        /* \"#utility.yul\":32499:32500   */\n      0x00\n        /* \"#utility.yul\":32516:32522   */\n      dup5\n        /* \"#utility.yul\":32513:32590   */\n      iszero\n      tag_582\n      jumpi\n        /* \"#utility.yul\":32565:32574   */\n      dup3\n        /* \"#utility.yul\":32560:32563   */\n      dup8\n        /* \"#utility.yul\":32556:32575   */\n      add\n        /* \"#utility.yul\":32550:32576   */\n      mload\n        /* \"#utility.yul\":32541:32576   */\n      swap1\n      pop\n        /* \"#utility.yul\":32513:32590   */\n    tag_582:\n        /* \"#utility.yul\":32616:32683   */\n      tag_583\n        /* \"#utility.yul\":32676:32682   */\n      dup6\n        /* \"#utility.yul\":32669:32674   */\n      dup3\n        /* \"#utility.yul\":32616:32683   */\n      tag_292\n      jump\t// in\n    tag_583:\n        /* \"#utility.yul\":32610:32614   */\n      dup7\n        /* \"#utility.yul\":32603:32684   */\n      sstore\n        /* \"#utility.yul\":32472:32694   */\n      pop\n        /* \"#utility.yul\":31807:32694   */\n      jump(tag_580)\n        /* \"#utility.yul\":31837:32455   */\n    tag_581:\n        /* \"#utility.yul\":31889:31893   */\n      0x1f\n        /* \"#utility.yul\":31885:31894   */\n      not\n        /* \"#utility.yul\":31877:31883   */\n      dup5\n        /* \"#utility.yul\":31873:31895   */\n      and\n        /* \"#utility.yul\":31923:31960   */\n      tag_584\n        /* \"#utility.yul\":31955:31959   */\n      dup7\n        /* \"#utility.yul\":31923:31960   */\n      tag_278\n      jump\t// in\n    tag_584:\n        /* \"#utility.yul\":31982:31983   */\n      0x00\n        /* \"#utility.yul\":31996:32204   */\n    tag_585:\n        /* \"#utility.yul\":32010:32017   */\n      dup3\n        /* \"#utility.yul\":32007:32008   */\n      dup2\n        /* \"#utility.yul\":32004:32018   */\n      lt\n        /* \"#utility.yul\":31996:32204   */\n      iszero\n      tag_587\n      jumpi\n        /* \"#utility.yul\":32089:32098   */\n      dup5\n        /* \"#utility.yul\":32084:32087   */\n      dup10\n        /* \"#utility.yul\":32080:32099   */\n      add\n        /* \"#utility.yul\":32074:32100   */\n      mload\n        /* \"#utility.yul\":32066:32072   */\n      dup3\n        /* \"#utility.yul\":32059:32101   */\n      sstore\n        /* \"#utility.yul\":32140:32141   */\n      0x01\n        /* \"#utility.yul\":32132:32138   */\n      dup3\n        /* \"#utility.yul\":32128:32142   */\n      add\n        /* \"#utility.yul\":32118:32142   */\n      swap2\n      pop\n        /* \"#utility.yul\":32187:32189   */\n      0x20\n        /* \"#utility.yul\":32176:32185   */\n      dup6\n        /* \"#utility.yul\":32172:32190   */\n      add\n        /* \"#utility.yul\":32159:32190   */\n      swap5\n      pop\n        /* \"#utility.yul\":32033:32037   */\n      0x20\n        /* \"#utility.yul\":32030:32031   */\n      dup2\n        /* \"#utility.yul\":32026:32038   */\n      add\n        /* \"#utility.yul\":32021:32038   */\n      swap1\n      pop\n        /* \"#utility.yul\":31996:32204   */\n      jump(tag_585)\n    tag_587:\n        /* \"#utility.yul\":32232:32238   */\n      dup7\n        /* \"#utility.yul\":32223:32230   */\n      dup4\n        /* \"#utility.yul\":32220:32239   */\n      lt\n        /* \"#utility.yul\":32217:32396   */\n      iszero\n      tag_588\n      jumpi\n        /* \"#utility.yul\":32290:32299   */\n      dup5\n        /* \"#utility.yul\":32285:32288   */\n      dup10\n        /* \"#utility.yul\":32281:32300   */\n      add\n        /* \"#utility.yul\":32275:32301   */\n      mload\n        /* \"#utility.yul\":32333:32381   */\n      tag_589\n        /* \"#utility.yul\":32375:32379   */\n      0x1f\n        /* \"#utility.yul\":32367:32373   */\n      dup10\n        /* \"#utility.yul\":32363:32380   */\n      and\n        /* \"#utility.yul\":32352:32361   */\n      dup3\n        /* \"#utility.yul\":32333:32381   */\n      tag_291\n      jump\t// in\n    tag_589:\n        /* \"#utility.yul\":32325:32331   */\n      dup4\n        /* \"#utility.yul\":32318:32382   */\n      sstore\n        /* \"#utility.yul\":32240:32396   */\n      pop\n        /* \"#utility.yul\":32217:32396   */\n    tag_588:\n        /* \"#utility.yul\":32442:32443   */\n      0x01\n        /* \"#utility.yul\":32438:32439   */\n      0x02\n        /* \"#utility.yul\":32430:32436   */\n      dup9\n        /* \"#utility.yul\":32426:32440   */\n      mul\n        /* \"#utility.yul\":32422:32444   */\n      add\n        /* \"#utility.yul\":32416:32420   */\n      dup9\n        /* \"#utility.yul\":32409:32445   */\n      sstore\n        /* \"#utility.yul\":31844:32455   */\n      pop\n      pop\n      pop\n        /* \"#utility.yul\":31807:32694   */\n    tag_580:\n      pop\n        /* \"#utility.yul\":31397:32700   */\n      pop\n      pop\n      pop\n        /* \"#utility.yul\":31305:32700   */\n      pop\n      pop\n      jump\t// out\n        /* \"#utility.yul\":32706:32886   */\n    tag_293:\n        /* \"#utility.yul\":32754:32831   */\n      0x4e487b7100000000000000000000000000000000000000000000000000000000\n        /* \"#utility.yul\":32751:32752   */\n      0x00\n        /* \"#utility.yul\":32744:32832   */\n      mstore\n        /* \"#utility.yul\":32851:32855   */\n      0x11\n        /* \"#utility.yul\":32848:32849   */\n      0x04\n        /* \"#utility.yul\":32841:32856   */\n      mstore\n        /* \"#utility.yul\":32875:32879   */\n      0x24\n        /* \"#utility.yul\":32872:32873   */\n      0x00\n        /* \"#utility.yul\":32865:32880   */\n      revert\n        /* \"#utility.yul\":32892:33125   */\n    tag_154:\n        /* \"#utility.yul\":32931:32934   */\n      0x00\n        /* \"#utility.yul\":32954:32978   */\n      tag_592\n        /* \"#utility.yul\":32972:32977   */\n      dup3\n        /* \"#utility.yul\":32954:32978   */\n      tag_217\n      jump\t// in\n    tag_592:\n        /* \"#utility.yul\":32945:32978   */\n      swap2\n      pop\n        /* \"#utility.yul\":33000:33066   */\n      0xffffffffffffffffffffffffffffffffffffffffffffffffffffffffffffffff\n        /* \"#utility.yul\":32993:32998   */\n      dup3\n        /* \"#utility.yul\":32990:33067   */\n      sub\n        /* \"#utility.yul\":32987:33090   */\n      tag_593\n      jumpi\n        /* \"#utility.yul\":33070:33088   */\n      tag_594\n      tag_293\n      jump\t// in\n    tag_594:\n        /* \"#utility.yul\":32987:33090   */\n    tag_593:\n        /* \"#utility.yul\":33117:33118   */\n      0x01\n        /* \"#utility.yul\":33110:33115   */\n      dup3\n        /* \"#utility.yul\":33106:33119   */\n      add\n        /* \"#utility.yul\":33099:33119   */\n      swap1\n      pop\n        /* \"#utility.yul\":32892:33125   */\n      swap2\n      swap1\n      pop\n      jump\t// out\n        /* \"#utility.yul\":33131:33304   */\n    tag_294:\n        /* \"#utility.yul\":33271:33296   */\n      0x496e76616c69642070617469656e742064657461696c73000000000000000000\n        /* \"#utility.yul\":33267:33268   */\n      0x00\n        /* \"#utility.yul\":33259:33265   */\n      dup3\n        /* \"#utility.yul\":33255:33269   */\n      add\n        /* \"#utility.yul\":33248:33297   */\n      mstore\n        /* \"#utility.yul\":33131:33304   */\n      pop\n      jump\t// out\n        /* \"#utility.yul\":33310:33676   */\n    tag_295:\n        /* \"#utility.yul\":33452:33455   */\n      0x00\n        /* \"#utility.yul\":33473:33540   */\n      tag_597\n        /* \"#utility.yul\":33537:33539   */\n      0x17\n        /* \"#utility.yul\":33532:33535   */\n      dup4\n        /* \"#utility.yul\":33473:33540   */\n      tag_221\n      jump\t// in\n    tag_597:\n        /* \"#utility.yul\":33466:33540   */\n      swap2\n      pop\n        /* \"#utility.yul\":33549:33642   */\n      tag_598\n        /* \"#utility.yul\":33638:33641   */\n      dup3\n        /* \"#utility.yul\":33549:33642   */\n      tag_294\n      jump\t// in\n    tag_598:\n        /* \"#utility.yul\":33667:33669   */\n      0x20\n        /* \"#utility.yul\":33662:33665   */\n      dup3\n        /* \"#utility.yul\":33658:33670   */\n      add\n        /* \"#utility.yul\":33651:33670   */\n      swap1\n      pop\n        /* \"#utility.yul\":33310:33676   */\n      swap2\n      swap1\n      pop\n      jump\t// out\n        /* \"#utility.yul\":33682:34101   */\n    tag_167:\n        /* \"#utility.yul\":33848:33852   */\n      0x00\n        /* \"#utility.yul\":33886:33888   */\n      0x20\n        /* \"#utility.yul\":33875:33884   */\n      dup3\n        /* \"#utility.yul\":33871:33889   */\n      add\n        /* \"#utility.yul\":33863:33889   */\n      swap1\n      pop\n        /* \"#utility.yul\":33935:33944   */\n      dup2\n        /* \"#utility.yul\":33929:33933   */\n      dup2\n        /* \"#utility.yul\":33925:33945   */\n      sub\n        /* \"#utility.yul\":33921:33922   */\n      0x00\n        /* \"#utility.yul\":33910:33919   */\n      dup4\n        /* \"#utility.yul\":33906:33923   */\n      add\n        /* \"#utility.yul\":33899:33946   */\n      mstore\n        /* \"#utility.yul\":33963:34094   */\n      tag_600\n        /* \"#utility.yul\":34089:34093   */\n      dup2\n        /* \"#utility.yul\":33963:34094   */\n      tag_295\n      jump\t// in\n    tag_600:\n        /* \"#utility.yul\":33955:34094   */\n      swap1\n      pop\n        /* \"#utility.yul\":33682:34101   */\n      swap2\n      swap1\n      pop\n      jump\t// out\n        /* \"#utility.yul\":34107:34283   */\n    tag_296:\n        /* \"#utility.yul\":34247:34275   */\n      0x50617469656e7420616c72656164792072656769737465726564000000000000\n        /* \"#utility.yul\":34243:34244   */\n      0x00\n        /* \"#utility.yul\":34235:34241   */\n      dup3\n        /* \"#utility.yul\":34231:34245   */\n      add\n        /* \"#utility.yul\":34224:34276   */\n      mstore\n        /* \"#utility.yul\":34107:34283   */\n      pop\n      jump\t// out\n        /* \"#utility.yul\":34289:34655   */\n    tag_297:\n        /* \"#utility.yul\":34431:34434   */\n      0x00\n        /* \"#utility.yul\":34452:34519   */\n      tag_603\n        /* \"#utility.yul\":34516:34518   */\n      0x1a\n        /* \"#utility.yul\":34511:34514   */\n      dup4\n        /* \"#utility.yul\":34452:34519   */\n      tag_221\n      jump\t// in\n    tag_603:\n        /* \"#utility.yul\":34445:34519   */\n      swap2\n      pop\n        /* \"#utility.yul\":34528:34621   */\n      tag_604\n        /* \"#utility.yul\":34617:34620   */\n      dup3\n        /* \"#utility.yul\":34528:34621   */\n      tag_296\n      jump\t// in\n    tag_604:\n        /* \"#utility.yul\":34646:34648   */\n      0x20\n        /* \"#utility.yul\":34641:34644   */\n      dup3\n        /* \"#utility.yul\":34637:34649   */\n      add\n        /* \"#utility.yul\":34630:34649   */\n      swap1\n      pop\n        /* \"#utility.yul\":34289:34655   */\n      swap2\n      swap1\n      pop\n      jump\t// out\n        /* \"#utility.yul\":34661:35080   */\n    tag_170:\n        /* \"#utility.yul\":34827:34831   */\n      0x00\n        /* \"#utility.yul\":34865:34867   */\n      0x20\n        /* \"#utility.yul\":34854:34863   */\n      dup3\n        /* \"#utility.yul\":34850:34868   */\n      add\n        /* \"#utility.yul\":34842:34868   */\n      swap1\n      pop\n        /* \"#utility.yul\":34914:34923   */\n      dup2\n        /* \"#utility.yul\":34908:34912   */\n      dup2\n        /* \"#utility.yul\":34904:34924   */\n      sub\n        /* \"#utility.yul\":34900:34901   */\n      0x00\n        /* \"#utility.yul\":34889:34898   */\n      dup4\n        /* \"#utility.yul\":34885:34902   */\n      add\n        /* \"#utility.yul\":34878:34925   */\n      mstore\n        /* \"#utility.yul\":34942:35073   */\n      tag_606\n        /* \"#utility.yul\":35068:35072   */\n      dup2\n        /* \"#utility.yul\":34942:35073   */\n      tag_297\n      jump\t// in\n    tag_606:\n        /* \"#utility.yul\":34934:35073   */\n      swap1\n      pop\n        /* \"#utility.yul\":34661:35080   */\n      swap2\n      swap1\n      pop\n      jump\t// out\n        /* \"#utility.yul\":35086:35322   */\n    tag_298:\n        /* \"#utility.yul\":35226:35260   */\n      0x4f6e6c79206f7267616e697a6174696f6e206d656d626572732063616e207065\n        /* \"#utility.yul\":35222:35223   */\n      0x00\n        /* \"#utility.yul\":35214:35220   */\n      dup3\n        /* \"#utility.yul\":35210:35224   */\n      add\n        /* \"#utility.yul\":35203:35261   */\n      mstore\n        /* \"#utility.yul\":35295:35314   */\n      0x72666f726d207468697320616374696f6e000000000000000000000000000000\n        /* \"#utility.yul\":35290:35292   */\n      0x20\n        /* \"#utility.yul\":35282:35288   */\n      dup3\n        /* \"#utility.yul\":35278:35293   */\n      add\n        /* \"#utility.yul\":35271:35315   */\n      mstore\n        /* \"#utility.yul\":35086:35322   */\n      pop\n      jump\t// out\n        /* \"#utility.yul\":35328:35694   */\n    tag_299:\n        /* \"#utility.yul\":35470:35473   */\n      0x00\n        /* \"#utility.yul\":35491:35558   */\n      tag_609\n        /* \"#utility.yul\":35555:35557   */\n      0x31\n        /* \"#utility.yul\":35550:35553   */\n      dup4\n        /* \"#utility.yul\":35491:35558   */\n      tag_221\n      jump\t// in\n    tag_609:\n        /* \"#utility.yul\":35484:35558   */\n      swap2\n      pop\n        /* \"#utility.yul\":35567:35660   */\n      tag_610\n        /* \"#utility.yul\":35656:35659   */\n      dup3\n        /* \"#utility.yul\":35567:35660   */\n      tag_298\n      jump\t// in\n    tag_610:\n        /* \"#utility.yul\":35685:35687   */\n      0x40\n        /* \"#utility.yul\":35680:35683   */\n      dup3\n        /* \"#utility.yul\":35676:35688   */\n      add\n        /* \"#utility.yul\":35669:35688   */\n      swap1\n      pop\n        /* \"#utility.yul\":35328:35694   */\n      swap2\n      swap1\n      pop\n      jump\t// out\n        /* \"#utility.yul\":35700:36119   */\n    tag_183:\n        /* \"#utility.yul\":35866:35870   */\n      0x00\n        /* \"#utility.yul\":35904:35906   */\n      0x20\n        /* \"#utility.yul\":35893:35902   */\n      dup3\n        /* \"#utility.yul\":35889:35907   */\n      add\n        /* \"#utility.yul\":35881:35907   */\n      swap1\n      pop\n        /* \"#utility.yul\":35953:35962   */\n      dup2\n        /* \"#utility.yul\":35947:35951   */\n      dup2\n        /* \"#utility.yul\":35943:35963   */\n      sub\n        /* \"#utility.yul\":35939:35940   */\n      0x00\n        /* \"#utility.yul\":35928:35937   */\n      dup4\n        /* \"#utility.yul\":35924:35941   */\n      add\n        /* \"#utility.yul\":35917:35964   */\n      mstore\n        /* \"#utility.yul\":35981:36112   */\n      tag_612\n        /* \"#utility.yul\":36107:36111   */\n      dup2\n        /* \"#utility.yul\":35981:36112   */\n      tag_299\n      jump\t// in\n    tag_612:\n        /* \"#utility.yul\":35973:36112   */\n      swap1\n      pop\n        /* \"#utility.yul\":35700:36119   */\n      swap2\n      swap1\n      pop\n      jump\t// out\n        /* \"#utility.yul\":36125:36274   */\n    tag_300:\n        /* \"#utility.yul\":36174:36180   */\n      0x00\n        /* \"#utility.yul\":36208:36213   */\n      dup2\n        /* \"#utility.yul\":36202:36214   */\n      sload\n        /* \"#utility.yul\":36192:36214   */\n      swap1\n      pop\n        /* \"#utility.yul\":36234:36267   */\n      tag_614\n        /* \"#utility.yul\":36260:36266   */\n      dup2\n        /* \"#utility.yul\":36234:36267   */\n      tag_63\n      jump\t// in\n    tag_614:\n        /* \"#utility.yul\":36224:36267   */\n      swap1\n      pop\n        /* \"#utility.yul\":36125:36274   */\n      swap2\n      swap1\n      pop\n      jump\t// out\n        /* \"#utility.yul\":36280:37731   */\n    tag_188:\n        /* \"#utility.yul\":36391:36394   */\n      dup2\n        /* \"#utility.yul\":36385:36389   */\n      dup2\n        /* \"#utility.yul\":36382:36395   */\n      sub\n        /* \"#utility.yul\":36379:36405   */\n      tag_616\n      jumpi\n        /* \"#utility.yul\":36398:36403   */\n      pop\n      pop\n      jump(tag_615)\n        /* \"#utility.yul\":36379:36405   */\n    tag_616:\n        /* \"#utility.yul\":36429:36463   */\n      tag_617\n        /* \"#utility.yul\":36459:36462   */\n      dup3\n        /* \"#utility.yul\":36429:36463   */\n      tag_300\n      jump\t// in\n    tag_617:\n        /* \"#utility.yul\":36528:36546   */\n      0xffffffffffffffff\n        /* \"#utility.yul\":36520:36526   */\n      dup2\n        /* \"#utility.yul\":36517:36547   */\n      gt\n        /* \"#utility.yul\":36514:36570   */\n      iszero\n      tag_618\n      jumpi\n        /* \"#utility.yul\":36550:36568   */\n      tag_619\n      tag_243\n      jump\t// in\n    tag_619:\n        /* \"#utility.yul\":36514:36570   */\n    tag_618:\n        /* \"#utility.yul\":36594:36632   */\n      tag_620\n        /* \"#utility.yul\":36626:36630   */\n      dup3\n        /* \"#utility.yul\":36620:36631   */\n      sload\n        /* \"#utility.yul\":36594:36632   */\n      tag_63\n      jump\t// in\n    tag_620:\n        /* \"#utility.yul\":36679:36746   */\n      tag_621\n        /* \"#utility.yul\":36739:36745   */\n      dup3\n        /* \"#utility.yul\":36731:36737   */\n      dup3\n        /* \"#utility.yul\":36725:36729   */\n      dup6\n        /* \"#utility.yul\":36679:36746   */\n      tag_289\n      jump\t// in\n    tag_621:\n        /* \"#utility.yul\":36773:36774   */\n      0x00\n        /* \"#utility.yul\":36802:36804   */\n      0x1f\n        /* \"#utility.yul\":36794:36800   */\n      dup4\n        /* \"#utility.yul\":36791:36805   */\n      gt\n        /* \"#utility.yul\":36819:36820   */\n      0x01\n        /* \"#utility.yul\":36814:37486   */\n      dup2\n      eq\n      tag_623\n      jumpi\n        /* \"#utility.yul\":37530:37531   */\n      0x00\n        /* \"#utility.yul\":37547:37553   */\n      dup5\n        /* \"#utility.yul\":37544:37621   */\n      iszero\n      tag_624\n      jumpi\n        /* \"#utility.yul\":37596:37605   */\n      dup3\n        /* \"#utility.yul\":37591:37594   */\n      dup8\n        /* \"#utility.yul\":37587:37606   */\n      add\n        /* \"#utility.yul\":37581:37607   */\n      sload\n        /* \"#utility.yul\":37572:37607   */\n      swap1\n      pop\n        /* \"#utility.yul\":37544:37621   */\n    tag_624:\n        /* \"#utility.yul\":37647:37714   */\n      tag_625\n        /* \"#utility.yul\":37707:37713   */\n      dup6\n        /* \"#utility.yul\":37700:37705   */\n      dup3\n        /* \"#utility.yul\":37647:37714   */\n      tag_292\n      jump\t// in\n    tag_625:\n        /* \"#utility.yul\":37641:37645   */\n      dup7\n        /* \"#utility.yul\":37634:37715   */\n      sstore\n        /* \"#utility.yul\":37503:37725   */\n      pop\n        /* \"#utility.yul\":36784:37725   */\n      jump(tag_622)\n        /* \"#utility.yul\":36814:37486   */\n    tag_623:\n        /* \"#utility.yul\":36866:36870   */\n      0x1f\n        /* \"#utility.yul\":36862:36871   */\n      not\n        /* \"#utility.yul\":36854:36860   */\n      dup5\n        /* \"#utility.yul\":36850:36872   */\n      and\n        /* \"#utility.yul\":36892:36928   */\n      tag_626\n        /* \"#utility.yul\":36924:36927   */\n      dup8\n        /* \"#utility.yul\":36892:36928   */\n      tag_278\n      jump\t// in\n    tag_626:\n        /* \"#utility.yul\":36885:36928   */\n      swap7\n      pop\n        /* \"#utility.yul\":36955:36992   */\n      tag_627\n        /* \"#utility.yul\":36987:36991   */\n      dup7\n        /* \"#utility.yul\":36955:36992   */\n      tag_278\n      jump\t// in\n    tag_627:\n        /* \"#utility.yul\":37014:37015   */\n      0x00\n        /* \"#utility.yul\":37028:37235   */\n    tag_628:\n        /* \"#utility.yul\":37042:37049   */\n      dup3\n        /* \"#utility.yul\":37039:37040   */\n      dup2\n        /* \"#utility.yul\":37036:37050   */\n      lt\n        /* \"#utility.yul\":37028:37235   */\n      iszero\n      tag_630\n      jumpi\n        /* \"#utility.yul\":37121:37130   */\n      dup5\n        /* \"#utility.yul\":37116:37119   */\n      dup10\n        /* \"#utility.yul\":37112:37131   */\n      add\n        /* \"#utility.yul\":37106:37132   */\n      sload\n        /* \"#utility.yul\":37098:37104   */\n      dup3\n        /* \"#utility.yul\":37091:37133   */\n      sstore\n        /* \"#utility.yul\":37172:37173   */\n      0x01\n        /* \"#utility.yul\":37164:37170   */\n      dup3\n        /* \"#utility.yul\":37160:37174   */\n      add\n        /* \"#utility.yul\":37150:37174   */\n      swap2\n      pop\n        /* \"#utility.yul\":37219:37220   */\n      0x01\n        /* \"#utility.yul\":37208:37217   */\n      dup6\n        /* \"#utility.yul\":37204:37221   */\n      add\n        /* \"#utility.yul\":37191:37221   */\n      swap5\n      pop\n        /* \"#utility.yul\":37065:37069   */\n      0x20\n        /* \"#utility.yul\":37062:37063   */\n      dup2\n        /* \"#utility.yul\":37058:37070   */\n      add\n        /* \"#utility.yul\":37053:37070   */\n      swap1\n      pop\n        /* \"#utility.yul\":37028:37235   */\n      jump(tag_628)\n    tag_630:\n        /* \"#utility.yul\":37263:37269   */\n      dup7\n        /* \"#utility.yul\":37254:37261   */\n      dup4\n        /* \"#utility.yul\":37251:37270   */\n      lt\n        /* \"#utility.yul\":37248:37427   */\n      iszero\n      tag_631\n      jumpi\n        /* \"#utility.yul\":37321:37330   */\n      dup5\n        /* \"#utility.yul\":37316:37319   */\n      dup10\n        /* \"#utility.yul\":37312:37331   */\n      add\n        /* \"#utility.yul\":37306:37332   */\n      sload\n        /* \"#utility.yul\":37364:37412   */\n      tag_632\n        /* \"#utility.yul\":37406:37410   */\n      0x1f\n        /* \"#utility.yul\":37398:37404   */\n      dup10\n        /* \"#utility.yul\":37394:37411   */\n      and\n        /* \"#utility.yul\":37383:37392   */\n      dup3\n        /* \"#utility.yul\":37364:37412   */\n      tag_291\n      jump\t// in\n    tag_632:\n        /* \"#utility.yul\":37356:37362   */\n      dup4\n        /* \"#utility.yul\":37349:37413   */\n      sstore\n        /* \"#utility.yul\":37271:37427   */\n      pop\n        /* \"#utility.yul\":37248:37427   */\n    tag_631:\n        /* \"#utility.yul\":37473:37474   */\n      0x01\n        /* \"#utility.yul\":37469:37470   */\n      0x02\n        /* \"#utility.yul\":37461:37467   */\n      dup9\n        /* \"#utility.yul\":37457:37471   */\n      mul\n        /* \"#utility.yul\":37453:37475   */\n      add\n        /* \"#utility.yul\":37447:37451   */\n      dup9\n        /* \"#utility.yul\":37440:37476   */\n      sstore\n        /* \"#utility.yul\":36821:37486   */\n      pop\n      pop\n      pop\n        /* \"#utility.yul\":36784:37725   */\n    tag_622:\n      pop\n        /* \"#utility.yul\":36369:37731   */\n      pop\n      pop\n      pop\n        /* \"#utility.yul\":36280:37731   */\n      pop\n      pop\n    tag_615:\n      jump\t// out\n\n    auxdata: 0xa26469706673582212206fdeb2449ff89185c0dab97e32a8f38d814f8478c840c93ba96a784caf9bc68264736f6c63430008120033\n}\n",
				"bytecode": {
					"linkReferences": {},
					"object": "608060405234801561001057600080fd5b50336000806101000a81548173ffffffffffffffffffffffffffffffffffffffff021916908373ffffffffffffffffffffffffffffffffffffffff1602179055506000600181905550600060028190555060006003819055506131fe806100786000396000f3fe608060405234801561001057600080fd5b506004361061009e5760003560e01c806376017e5e1161006657806376017e5e146101725780639475c1631461018e578063aabaa4ff146101aa578063b333c308146101c6578063f3c894d6146101e45761009e565b8063300c601c146100a357806332092bab146100d95780633772b992146101095780634949e03e1461013a5780634b485bf414610156575b600080fd5b6100bd60048036038101906100b89190611e9a565b610200565b6040516100d09796959493929190611f66565b60405180910390f35b6100f360048036038101906100ee9190611e9a565b6104f6565b60405161010091906121c3565b60405180910390f35b610123600480360381019061011e9190612211565b610855565b60405161013192919061223e565b60405180910390f35b610154600480360381019061014f9190612211565b610ab1565b005b610170600480360381019061016b9190612211565b610e22565b005b61018c600480360381019061018791906123aa565b611167565b005b6101a860048036038101906101a39190612435565b611333565b005b6101c460048036038101906101bf9190612491565b6114ae565b005b6101ce6116ef565b6040516101db919061264a565b60405180910390f35b6101fe60048036038101906101f991906126cc565b61188e565b005b6060600080600080606080873373ffffffffffffffffffffffffffffffffffffffff166008600083815260200190815260200160002060009054906101000a900473ffffffffffffffffffffffffffffffffffffffff1673ffffffffffffffffffffffffffffffffffffffff16146102ad576040517f08c379a00000000000000000000000000000000000000000000000000000000081526004016102a49061279e565b60405180910390fd5b6000600760008b8152602001908152602001600020604051806101000160405290816000820180546102de906127ed565b80601f016020809104026020016040519081016040528092919081815260200182805461030a906127ed565b80156103575780601f1061032c57610100808354040283529160200191610357565b820191906000526020600020905b81548152906001019060200180831161033a57829003601f168201915b5050505050815260200160018201548152602001600282015481526020016003820154815260200160048201548152602001600582015481526020016006820180546103a2906127ed565b80601f01602080910402602001604051908101604052809291908181526020018280546103ce906127ed565b801561041b5780601f106103f05761010080835404028352916020019161041b565b820191906000526020600020905b8154815290600101906020018083116103fe57829003601f168201915b50505050508152602001600782018054610434906127ed565b80601f0160208091040260200160405190810160405280929190818152602001828054610460906127ed565b80156104ad5780601f10610482576101008083540402835291602001916104ad565b820191906000526020600020905b81548152906001019060200180831161049057829003601f168201915b505050505081525050905080600001518160200151826040015183608001518460a001518560c001518660e0015198509850985098509850985098505050919395979092949650565b6060813373ffffffffffffffffffffffffffffffffffffffff166008600083815260200190815260200160002060009054906101000a900473ffffffffffffffffffffffffffffffffffffffff1673ffffffffffffffffffffffffffffffffffffffff161461059a576040517f08c379a00000000000000000000000000000000000000000000000000000000081526004016105919061279e565b60405180910390fd5b6009600084815260200190815260200160002060006008600086815260200190815260200160002060009054906101000a900473ffffffffffffffffffffffffffffffffffffffff1673ffffffffffffffffffffffffffffffffffffffff1673ffffffffffffffffffffffffffffffffffffffff168152602001908152602001600020805480602002602001604051908101604052809291908181526020016000905b8282101561084957838290600052602060002090600502016040518060a0016040529081600082018054610670906127ed565b80601f016020809104026020016040519081016040528092919081815260200182805461069c906127ed565b80156106e95780601f106106be576101008083540402835291602001916106e9565b820191906000526020600020905b8154815290600101906020018083116106cc57829003601f168201915b50505050508152602001600182018054610702906127ed565b80601f016020809104026020016040519081016040528092919081815260200182805461072e906127ed565b801561077b5780601f106107505761010080835404028352916020019161077b565b820191906000526020600020905b81548152906001019060200180831161075e57829003601f168201915b50505050508152602001600282015481526020016003820160009054906101000a900473ffffffffffffffffffffffffffffffffffffffff1673ffffffffffffffffffffffffffffffffffffffff1673ffffffffffffffffffffffffffffffffffffffff1681526020016004820160009054906101000a900473ffffffffffffffffffffffffffffffffffffffff1673ffffffffffffffffffffffffffffffffffffffff1673ffffffffffffffffffffffffffffffffffffffff16815250508152602001906001019061063d565b50505050915050919050565b60608060006002541161089d576040517f08c379a00000000000000000000000000000000000000000000000000000000081526004016108949061286a565b60405180910390fd5b600073ffffffffffffffffffffffffffffffffffffffff168373ffffffffffffffffffffffffffffffffffffffff160361090c576040517f08c379a0000000000000000000000000000000000000000000000000000000008152600401610903906128d6565b60405180910390fd5b600560008473ffffffffffffffffffffffffffffffffffffffff1673ffffffffffffffffffffffffffffffffffffffff168152602001908152602001600020600001600560008573ffffffffffffffffffffffffffffffffffffffff1673ffffffffffffffffffffffffffffffffffffffff16815260200190815260200160002060010181805461099c906127ed565b80601f01602080910402602001604051908101604052809291908181526020018280546109c8906127ed565b8015610a155780601f106109ea57610100808354040283529160200191610a15565b820191906000526020600020905b8154815290600101906020018083116109f857829003601f168201915b50505050509150808054610a28906127ed565b80601f0160208091040260200160405190810160405280929190818152602001828054610a54906127ed565b8015610aa15780601f10610a7657610100808354040283529160200191610aa1565b820191906000526020600020905b815481529060010190602001808311610a8457829003601f168201915b5050505050905091509150915091565b6000600560003373ffffffffffffffffffffffffffffffffffffffff1673ffffffffffffffffffffffffffffffffffffffff1681526020019081526020016000206003018054905011610b39576040517f08c379a0000000000000000000000000000000000000000000000000000000008152600401610b3090612968565b60405180910390fd5b60046000600560003373ffffffffffffffffffffffffffffffffffffffff1673ffffffffffffffffffffffffffffffffffffffff168152602001908152602001600020600301600081548110610b9257610b91612988565b5b9060005260206000200160009054906101000a900473ffffffffffffffffffffffffffffffffffffffff1673ffffffffffffffffffffffffffffffffffffffff1673ffffffffffffffffffffffffffffffffffffffff16815260200190815260200160002060020160003373ffffffffffffffffffffffffffffffffffffffff1673ffffffffffffffffffffffffffffffffffffffff16815260200190815260200160002060009054906101000a900460ff16610c84576040517f08c379a0000000000000000000000000000000000000000000000000000000008152600401610c7b90612a29565b60405180910390fd5b600073ffffffffffffffffffffffffffffffffffffffff16600660003373ffffffffffffffffffffffffffffffffffffffff1673ffffffffffffffffffffffffffffffffffffffff16815260200190815260200160002060020160009054906101000a900473ffffffffffffffffffffffffffffffffffffffff1673ffffffffffffffffffffffffffffffffffffffff1603610d55576040517f08c379a0000000000000000000000000000000000000000000000000000000008152600401610d4c90612a95565b60405180910390fd5b610d5f3382611c12565b610d9e576040517f08c379a0000000000000000000000000000000000000000000000000000000008152600401610d9590612b27565b60405180910390fd5b80600660003373ffffffffffffffffffffffffffffffffffffffff1673ffffffffffffffffffffffffffffffffffffffff16815260200190815260200160002060040160006101000a81548173ffffffffffffffffffffffffffffffffffffffff021916908373ffffffffffffffffffffffffffffffffffffffff16021790555050565b6000600560003373ffffffffffffffffffffffffffffffffffffffff1673ffffffffffffffffffffffffffffffffffffffff1681526020019081526020016000206003018054905011610eaa576040517f08c379a0000000000000000000000000000000000000000000000000000000008152600401610ea190612968565b60405180910390fd5b60046000600560003373ffffffffffffffffffffffffffffffffffffffff1673ffffffffffffffffffffffffffffffffffffffff168152602001908152602001600020600301600081548110610f0357610f02612988565b5b9060005260206000200160009054906101000a900473ffffffffffffffffffffffffffffffffffffffff1673ffffffffffffffffffffffffffffffffffffffff1673ffffffffffffffffffffffffffffffffffffffff16815260200190815260200160002060020160003373ffffffffffffffffffffffffffffffffffffffff1673ffffffffffffffffffffffffffffffffffffffff16815260200190815260200160002060009054906101000a900460ff16610ff5576040517f08c379a0000000000000000000000000000000000000000000000000000000008152600401610fec90612a29565b60405180910390fd5b600460008273ffffffffffffffffffffffffffffffffffffffff1673ffffffffffffffffffffffffffffffffffffffff16815260200190815260200160002060020160003373ffffffffffffffffffffffffffffffffffffffff1673ffffffffffffffffffffffffffffffffffffffff16815260200190815260200160002060009054906101000a900460ff166110c1576040517f08c379a00000000000000000000000000000000000000000000000000000000081526004016110b890612bb9565b60405180910390fd5b600560003373ffffffffffffffffffffffffffffffffffffffff1673ffffffffffffffffffffffffffffffffffffffff168152602001908152602001600020600301819080600181540180825580915050600190039060005260206000200160009091909190916101000a81548173ffffffffffffffffffffffffffffffffffffffff021916908373ffffffffffffffffffffffffffffffffffffffff16021790555050565b60008054906101000a900473ffffffffffffffffffffffffffffffffffffffff1673ffffffffffffffffffffffffffffffffffffffff163373ffffffffffffffffffffffffffffffffffffffff16146111f5576040517f08c379a00000000000000000000000000000000000000000000000000000000081526004016111ec90612c4b565b60405180910390fd5b82600560008373ffffffffffffffffffffffffffffffffffffffff1673ffffffffffffffffffffffffffffffffffffffff16815260200190815260200160002060000190816112449190612e17565b5081600560008373ffffffffffffffffffffffffffffffffffffffff1673ffffffffffffffffffffffffffffffffffffffff16815260200190815260200160002060010190816112949190612e17565b5080600560008373ffffffffffffffffffffffffffffffffffffffff1673ffffffffffffffffffffffffffffffffffffffff16815260200190815260200160002060020160006101000a81548173ffffffffffffffffffffffffffffffffffffffff021916908373ffffffffffffffffffffffffffffffffffffffff1602179055506002600081548092919061132990612f18565b9190505550505050565b60008054906101000a900473ffffffffffffffffffffffffffffffffffffffff1673ffffffffffffffffffffffffffffffffffffffff163373ffffffffffffffffffffffffffffffffffffffff16146113c1576040517f08c379a00000000000000000000000000000000000000000000000000000000081526004016113b890612c4b565b60405180910390fd5b81600460003373ffffffffffffffffffffffffffffffffffffffff1673ffffffffffffffffffffffffffffffffffffffff16815260200190815260200160002060000190816114109190612e17565b5080600460003373ffffffffffffffffffffffffffffffffffffffff1673ffffffffffffffffffffffffffffffffffffffff16815260200190815260200160002060010160006101000a81548173ffffffffffffffffffffffffffffffffffffffff021916908373ffffffffffffffffffffffffffffffffffffffff160217905550600160008154809291906114a590612f18565b91905055505050565b6000871180156114be5750600086115b80156114ca5750600084115b80156114d65750600083115b611515576040517f08c379a000000000000000000000000000000000000000000000000000000000815260040161150c90612fac565b60405180910390fd5b600073ffffffffffffffffffffffffffffffffffffffff166008600088815260200190815260200160002060009054906101000a900473ffffffffffffffffffffffffffffffffffffffff1673ffffffffffffffffffffffffffffffffffffffff16146115b7576040517f08c379a00000000000000000000000000000000000000000000000000000000081526004016115ae90613018565b60405180910390fd5b604051806101000160405280898152602001888152602001878152602001868152602001858152602001848152602001838152602001828152506007600087815260200190815260200160002060008201518160000190816116199190612e17565b506020820151816001015560408201518160020155606082015181600301556080820151816004015560a0820151816005015560c08201518160060190816116619190612e17565b5060e08201518160070190816116779190612e17565b50905050336008600087815260200190815260200160002060006101000a81548173ffffffffffffffffffffffffffffffffffffffff021916908373ffffffffffffffffffffffffffffffffffffffff160217905550600360008154809291906116e090612f18565b91905055505050505050505050565b6060600073ffffffffffffffffffffffffffffffffffffffff16600560003373ffffffffffffffffffffffffffffffffffffffff1673ffffffffffffffffffffffffffffffffffffffff16815260200190815260200160002060020160009054906101000a900473ffffffffffffffffffffffffffffffffffffffff1673ffffffffffffffffffffffffffffffffffffffff16036117c2576040517f08c379a00000000000000000000000000000000000000000000000000000000081526004016117b990612a95565b60405180910390fd5b600560003373ffffffffffffffffffffffffffffffffffffffff1673ffffffffffffffffffffffffffffffffffffffff16815260200190815260200160002060030180548060200260200160405190810160405280929190818152602001828054801561188457602002820191906000526020600020905b8160009054906101000a900473ffffffffffffffffffffffffffffffffffffffff1673ffffffffffffffffffffffffffffffffffffffff168152602001906001019080831161183a575b5050505050905090565b600460003373ffffffffffffffffffffffffffffffffffffffff1673ffffffffffffffffffffffffffffffffffffffff16815260200190815260200160002060020160003373ffffffffffffffffffffffffffffffffffffffff1673ffffffffffffffffffffffffffffffffffffffff16815260200190815260200160002060009054906101000a900460ff1661195a576040517f08c379a0000000000000000000000000000000000000000000000000000000008152600401611951906130aa565b60405180910390fd5b600073ffffffffffffffffffffffffffffffffffffffff16600560008573ffffffffffffffffffffffffffffffffffffffff1673ffffffffffffffffffffffffffffffffffffffff16815260200190815260200160002060020160009054906101000a900473ffffffffffffffffffffffffffffffffffffffff1673ffffffffffffffffffffffffffffffffffffffff1603611a2b576040517f08c379a0000000000000000000000000000000000000000000000000000000008152600401611a2290612a95565b60405180910390fd5b600560008473ffffffffffffffffffffffffffffffffffffffff1673ffffffffffffffffffffffffffffffffffffffff168152602001908152602001600020600660008573ffffffffffffffffffffffffffffffffffffffff1673ffffffffffffffffffffffffffffffffffffffff16815260200190815260200160002060008201816000019081611abd91906130e0565b5060018201816001019081611ad291906130e0565b506002820160009054906101000a900473ffffffffffffffffffffffffffffffffffffffff168160020160006101000a81548173ffffffffffffffffffffffffffffffffffffffff021916908373ffffffffffffffffffffffffffffffffffffffff1602179055506003820181600301908054611b50929190611d41565b506004820160009054906101000a900473ffffffffffffffffffffffffffffffffffffffff168160040160006101000a81548173ffffffffffffffffffffffffffffffffffffffff021916908373ffffffffffffffffffffffffffffffffffffffff1602179055509050508181600660008673ffffffffffffffffffffffffffffffffffffffff1673ffffffffffffffffffffffffffffffffffffffff1681526020019081526020016000206003019190611c0c929190611d93565b50505050565b600080600090505b600560008573ffffffffffffffffffffffffffffffffffffffff1673ffffffffffffffffffffffffffffffffffffffff16815260200190815260200160002060030180549050811015611d35578273ffffffffffffffffffffffffffffffffffffffff16600560008673ffffffffffffffffffffffffffffffffffffffff1673ffffffffffffffffffffffffffffffffffffffff1681526020019081526020016000206003018281548110611cd257611cd1612988565b5b9060005260206000200160009054906101000a900473ffffffffffffffffffffffffffffffffffffffff1673ffffffffffffffffffffffffffffffffffffffff1603611d22576001915050611d3b565b8080611d2d90612f18565b915050611c1a565b50600090505b92915050565b828054828255906000526020600020908101928215611d825760005260206000209182015b82811115611d81578254825591600101919060010190611d66565b5b509050611d8f9190611e33565b5090565b828054828255906000526020600020908101928215611e22579160200282015b82811115611e2157823573ffffffffffffffffffffffffffffffffffffffff168260006101000a81548173ffffffffffffffffffffffffffffffffffffffff021916908373ffffffffffffffffffffffffffffffffffffffff16021790555091602001919060010190611db3565b5b509050611e2f9190611e33565b5090565b5b80821115611e4c576000816000905550600101611e34565b5090565b6000604051905090565b600080fd5b600080fd5b6000819050919050565b611e7781611e64565b8114611e8257600080fd5b50565b600081359050611e9481611e6e565b92915050565b600060208284031215611eb057611eaf611e5a565b5b6000611ebe84828501611e85565b91505092915050565b600081519050919050565b600082825260208201905092915050565b60005b83811015611f01578082015181840152602081019050611ee6565b60008484015250505050565b6000601f19601f8301169050919050565b6000611f2982611ec7565b611f338185611ed2565b9350611f43818560208601611ee3565b611f4c81611f0d565b840191505092915050565b611f6081611e64565b82525050565b600060e0820190508181036000830152611f80818a611f1e565b9050611f8f6020830189611f57565b611f9c6040830188611f57565b611fa96060830187611f57565b611fb66080830186611f57565b81810360a0830152611fc88185611f1e565b905081810360c0830152611fdc8184611f1e565b905098975050505050505050565b600081519050919050565b600082825260208201905092915050565b6000819050602082019050919050565b600082825260208201905092915050565b600061203282611ec7565b61203c8185612016565b935061204c818560208601611ee3565b61205581611f0d565b840191505092915050565b61206981611e64565b82525050565b600073ffffffffffffffffffffffffffffffffffffffff82169050919050565b600061209a8261206f565b9050919050565b6120aa8161208f565b82525050565b600060a08301600083015184820360008601526120cd8282612027565b915050602083015184820360208601526120e78282612027565b91505060408301516120fc6040860182612060565b50606083015161210f60608601826120a1565b50608083015161212260808601826120a1565b508091505092915050565b600061213983836120b0565b905092915050565b6000602082019050919050565b600061215982611fea565b6121638185611ff5565b93508360208202850161217585612006565b8060005b858110156121b15784840389528151612192858261212d565b945061219d83612141565b925060208a01995050600181019050612179565b50829750879550505050505092915050565b600060208201905081810360008301526121dd818461214e565b905092915050565b6121ee8161208f565b81146121f957600080fd5b50565b60008135905061220b816121e5565b92915050565b60006020828403121561222757612226611e5a565b5b6000612235848285016121fc565b91505092915050565b600060408201905081810360008301526122588185611f1e565b9050818103602083015261226c8184611f1e565b90509392505050565b600080fd5b600080fd5b7f4e487b7100000000000000000000000000000000000000000000000000000000600052604160045260246000fd5b6122b782611f0d565b810181811067ffffffffffffffff821117156122d6576122d561227f565b5b80604052505050565b60006122e9611e50565b90506122f582826122ae565b919050565b600067ffffffffffffffff8211156123155761231461227f565b5b61231e82611f0d565b9050602081019050919050565b82818337600083830152505050565b600061234d612348846122fa565b6122df565b9050828152602081018484840111156123695761236861227a565b5b61237484828561232b565b509392505050565b600082601f83011261239157612390612275565b5b81356123a184826020860161233a565b91505092915050565b6000806000606084860312156123c3576123c2611e5a565b5b600084013567ffffffffffffffff8111156123e1576123e0611e5f565b5b6123ed8682870161237c565b935050602084013567ffffffffffffffff81111561240e5761240d611e5f565b5b61241a8682870161237c565b925050604061242b868287016121fc565b9150509250925092565b6000806040838503121561244c5761244b611e5a565b5b600083013567ffffffffffffffff81111561246a57612469611e5f565b5b6124768582860161237c565b9250506020612487858286016121fc565b9150509250929050565b600080600080600080600080610100898b0312156124b2576124b1611e5a565b5b600089013567ffffffffffffffff8111156124d0576124cf611e5f565b5b6124dc8b828c0161237c565b98505060206124ed8b828c01611e85565b97505060406124fe8b828c01611e85565b965050606061250f8b828c01611e85565b95505060806125208b828c01611e85565b94505060a06125318b828c01611e85565b93505060c089013567ffffffffffffffff81111561255257612551611e5f565b5b61255e8b828c0161237c565b92505060e089013567ffffffffffffffff81111561257f5761257e611e5f565b5b61258b8b828c0161237c565b9150509295985092959890939650565b600081519050919050565b600082825260208201905092915050565b6000819050602082019050919050565b60006125d383836120a1565b60208301905092915050565b6000602082019050919050565b60006125f78261259b565b61260181856125a6565b935061260c836125b7565b8060005b8381101561263d57815161262488826125c7565b975061262f836125df565b925050600181019050612610565b5085935050505092915050565b6000602082019050818103600083015261266481846125ec565b905092915050565b600080fd5b600080fd5b60008083601f84011261268c5761268b612275565b5b8235905067ffffffffffffffff8111156126a9576126a861266c565b5b6020830191508360208202830111156126c5576126c4612671565b5b9250929050565b6000806000604084860312156126e5576126e4611e5a565b5b60006126f3868287016121fc565b935050602084013567ffffffffffffffff81111561271457612713611e5f565b5b61272086828701612676565b92509250509250925092565b7f596f752063616e206f6e6c792061636365737320796f7572206f776e2072656360008201527f6f72647300000000000000000000000000000000000000000000000000000000602082015250565b6000612788602483611ed2565b91506127938261272c565b604082019050919050565b600060208201905081810360008301526127b78161277b565b9050919050565b7f4e487b7100000000000000000000000000000000000000000000000000000000600052602260045260246000fd5b6000600282049050600182168061280557607f821691505b602082108103612818576128176127be565b5b50919050565b7f4e6f20646f63746f727320726567697374657265642079657400000000000000600082015250565b6000612854601983611ed2565b915061285f8261281e565b602082019050919050565b6000602082019050818103600083015261288381612847565b9050919050565b7f496e76616c696420646f63746f72206164647265737300000000000000000000600082015250565b60006128c0601683611ed2565b91506128cb8261288a565b602082019050919050565b600060208201905081810360008301526128ef816128b3565b9050919050565b7f446f63746f72206d757374206265206173736f6369617465642077697468206160008201527f74206c65617374206f6e6520686f73706974616c000000000000000000000000602082015250565b6000612952603483611ed2565b915061295d826128f6565b604082019050919050565b6000602082019050818103600083015261298181612945565b9050919050565b7f4e487b7100000000000000000000000000000000000000000000000000000000600052603260045260246000fd5b7f4f6e6c7920646f63746f7273206f6620746865206f7267616e697a6174696f6e60008201527f2063616e20706572666f726d207468697320616374696f6e0000000000000000602082015250565b6000612a13603883611ed2565b9150612a1e826129b7565b604082019050919050565b60006020820190508181036000830152612a4281612a06565b9050919050565b7f446f63746f72206e6f7420666f756e6420696e2067656e6572616c206c697374600082015250565b6000612a7f602083611ed2565b9150612a8a82612a49565b602082019050919050565b60006020820190508181036000830152612aae81612a72565b9050919050565b7f446f63746f72206e6f74206173736f636961746564207769746820746869732060008201527f686f73706974616c000000000000000000000000000000000000000000000000602082015250565b6000612b11602883611ed2565b9150612b1c82612ab5565b604082019050919050565b60006020820190508181036000830152612b4081612b04565b9050919050565b7f446f63746f72206973206e6f74206173736f636961746564207769746820746860008201527f6520686f73706974616c00000000000000000000000000000000000000000000602082015250565b6000612ba3602a83611ed2565b9150612bae82612b47565b604082019050919050565b60006020820190508181036000830152612bd281612b96565b9050919050565b7f4f6e6c792061646d696e2063616e20706572666f726d2074686973206163746960008201527f6f6e000000000000000000000000000000000000000000000000000000000000602082015250565b6000612c35602283611ed2565b9150612c4082612bd9565b604082019050919050565b60006020820190508181036000830152612c6481612c28565b9050919050565b60008190508160005260206000209050919050565b60006020601f8301049050919050565b600082821b905092915050565b600060088302612ccd7fffffffffffffffffffffffffffffffffffffffffffffffffffffffffffffffff82612c90565b612cd78683612c90565b95508019841693508086168417925050509392505050565b6000819050919050565b6000612d14612d0f612d0a84611e64565b612cef565b611e64565b9050919050565b6000819050919050565b612d2e83612cf9565b612d42612d3a82612d1b565b848454612c9d565b825550505050565b600090565b612d57612d4a565b612d62818484612d25565b505050565b5b81811015612d8657612d7b600082612d4f565b600181019050612d68565b5050565b601f821115612dcb57612d9c81612c6b565b612da584612c80565b81016020851015612db4578190505b612dc8612dc085612c80565b830182612d67565b50505b505050565b600082821c905092915050565b6000612dee60001984600802612dd0565b1980831691505092915050565b6000612e078383612ddd565b9150826002028217905092915050565b612e2082611ec7565b67ffffffffffffffff811115612e3957612e3861227f565b5b612e4382546127ed565b612e4e828285612d8a565b600060209050601f831160018114612e815760008415612e6f578287015190505b612e798582612dfb565b865550612ee1565b601f198416612e8f86612c6b565b60005b82811015612eb757848901518255600182019150602085019450602081019050612e92565b86831015612ed45784890151612ed0601f891682612ddd565b8355505b6001600288020188555050505b505050505050565b7f4e487b7100000000000000000000000000000000000000000000000000000000600052601160045260246000fd5b6000612f2382611e64565b91507fffffffffffffffffffffffffffffffffffffffffffffffffffffffffffffffff8203612f5557612f54612ee9565b5b600182019050919050565b7f496e76616c69642070617469656e742064657461696c73000000000000000000600082015250565b6000612f96601783611ed2565b9150612fa182612f60565b602082019050919050565b60006020820190508181036000830152612fc581612f89565b9050919050565b7f50617469656e7420616c72656164792072656769737465726564000000000000600082015250565b6000613002601a83611ed2565b915061300d82612fcc565b602082019050919050565b6000602082019050818103600083015261303181612ff5565b9050919050565b7f4f6e6c79206f7267616e697a6174696f6e206d656d626572732063616e20706560008201527f72666f726d207468697320616374696f6e000000000000000000000000000000602082015250565b6000613094603183611ed2565b915061309f82613038565b604082019050919050565b600060208201905081810360008301526130c381613087565b9050919050565b6000815490506130d9816127ed565b9050919050565b8181036130ee5750506131c6565b6130f7826130ca565b67ffffffffffffffff8111156131105761310f61227f565b5b61311a82546127ed565b613125828285612d8a565b6000601f8311600181146131545760008415613142578287015490505b61314c8582612dfb565b8655506131bf565b601f19841661316287612c6b565b965061316d86612c6b565b60005b8281101561319557848901548255600182019150600185019450602081019050613170565b868310156131b257848901546131ae601f891682612ddd565b8355505b6001600288020188555050505b5050505050505b56fea26469706673582212206fdeb2449ff89185c0dab97e32a8f38d814f8478c840c93ba96a784caf9bc68264736f6c63430008120033",
					"opcodes": "PUSH1 0x80 PUSH1 0x40 MSTORE CALLVALUE DUP1 ISZERO PUSH2 0x10 JUMPI PUSH1 0x0 DUP1 REVERT JUMPDEST POP CALLER PUSH1 0x0 DUP1 PUSH2 0x100 EXP DUP2 SLOAD DUP2 PUSH20 0xFFFFFFFFFFFFFFFFFFFFFFFFFFFFFFFFFFFFFFFF MUL NOT AND SWAP1 DUP4 PUSH20 0xFFFFFFFFFFFFFFFFFFFFFFFFFFFFFFFFFFFFFFFF AND MUL OR SWAP1 SSTORE POP PUSH1 0x0 PUSH1 0x1 DUP2 SWAP1 SSTORE POP PUSH1 0x0 PUSH1 0x2 DUP2 SWAP1 SSTORE POP PUSH1 0x0 PUSH1 0x3 DUP2 SWAP1 SSTORE POP PUSH2 0x31FE DUP1 PUSH2 0x78 PUSH1 0x0 CODECOPY PUSH1 0x0 RETURN INVALID PUSH1 0x80 PUSH1 0x40 MSTORE CALLVALUE DUP1 ISZERO PUSH2 0x10 JUMPI PUSH1 0x0 DUP1 REVERT JUMPDEST POP PUSH1 0x4 CALLDATASIZE LT PUSH2 0x9E JUMPI PUSH1 0x0 CALLDATALOAD PUSH1 0xE0 SHR DUP1 PUSH4 0x76017E5E GT PUSH2 0x66 JUMPI DUP1 PUSH4 0x76017E5E EQ PUSH2 0x172 JUMPI DUP1 PUSH4 0x9475C163 EQ PUSH2 0x18E JUMPI DUP1 PUSH4 0xAABAA4FF EQ PUSH2 0x1AA JUMPI DUP1 PUSH4 0xB333C308 EQ PUSH2 0x1C6 JUMPI DUP1 PUSH4 0xF3C894D6 EQ PUSH2 0x1E4 JUMPI PUSH2 0x9E JUMP JUMPDEST DUP1 PUSH4 0x300C601C EQ PUSH2 0xA3 JUMPI DUP1 PUSH4 0x32092BAB EQ PUSH2 0xD9 JUMPI DUP1 PUSH4 0x3772B992 EQ PUSH2 0x109 JUMPI DUP1 PUSH4 0x4949E03E EQ PUSH2 0x13A JUMPI DUP1 PUSH4 0x4B485BF4 EQ PUSH2 0x156 JUMPI JUMPDEST PUSH1 0x0 DUP1 REVERT JUMPDEST PUSH2 0xBD PUSH1 0x4 DUP1 CALLDATASIZE SUB DUP2 ADD SWAP1 PUSH2 0xB8 SWAP2 SWAP1 PUSH2 0x1E9A JUMP JUMPDEST PUSH2 0x200 JUMP JUMPDEST PUSH1 0x40 MLOAD PUSH2 0xD0 SWAP8 SWAP7 SWAP6 SWAP5 SWAP4 SWAP3 SWAP2 SWAP1 PUSH2 0x1F66 JUMP JUMPDEST PUSH1 0x40 MLOAD DUP1 SWAP2 SUB SWAP1 RETURN JUMPDEST PUSH2 0xF3 PUSH1 0x4 DUP1 CALLDATASIZE SUB DUP2 ADD SWAP1 PUSH2 0xEE SWAP2 SWAP1 PUSH2 0x1E9A JUMP JUMPDEST PUSH2 0x4F6 JUMP JUMPDEST PUSH1 0x40 MLOAD PUSH2 0x100 SWAP2 SWAP1 PUSH2 0x21C3 JUMP JUMPDEST PUSH1 0x40 MLOAD DUP1 SWAP2 SUB SWAP1 RETURN JUMPDEST PUSH2 0x123 PUSH1 0x4 DUP1 CALLDATASIZE SUB DUP2 ADD SWAP1 PUSH2 0x11E SWAP2 SWAP1 PUSH2 0x2211 JUMP JUMPDEST PUSH2 0x855 JUMP JUMPDEST PUSH1 0x40 MLOAD PUSH2 0x131 SWAP3 SWAP2 SWAP1 PUSH2 0x223E JUMP JUMPDEST PUSH1 0x40 MLOAD DUP1 SWAP2 SUB SWAP1 RETURN JUMPDEST PUSH2 0x154 PUSH1 0x4 DUP1 CALLDATASIZE SUB DUP2 ADD SWAP1 PUSH2 0x14F SWAP2 SWAP1 PUSH2 0x2211 JUMP JUMPDEST PUSH2 0xAB1 JUMP JUMPDEST STOP JUMPDEST PUSH2 0x170 PUSH1 0x4 DUP1 CALLDATASIZE SUB DUP2 ADD SWAP1 PUSH2 0x16B SWAP2 SWAP1 PUSH2 0x2211 JUMP JUMPDEST PUSH2 0xE22 JUMP JUMPDEST STOP JUMPDEST PUSH2 0x18C PUSH1 0x4 DUP1 CALLDATASIZE SUB DUP2 ADD SWAP1 PUSH2 0x187 SWAP2 SWAP1 PUSH2 0x23AA JUMP JUMPDEST PUSH2 0x1167 JUMP JUMPDEST STOP JUMPDEST PUSH2 0x1A8 PUSH1 0x4 DUP1 CALLDATASIZE SUB DUP2 ADD SWAP1 PUSH2 0x1A3 SWAP2 SWAP1 PUSH2 0x2435 JUMP JUMPDEST PUSH2 0x1333 JUMP JUMPDEST STOP JUMPDEST PUSH2 0x1C4 PUSH1 0x4 DUP1 CALLDATASIZE SUB DUP2 ADD SWAP1 PUSH2 0x1BF SWAP2 SWAP1 PUSH2 0x2491 JUMP JUMPDEST PUSH2 0x14AE JUMP JUMPDEST STOP JUMPDEST PUSH2 0x1CE PUSH2 0x16EF JUMP JUMPDEST PUSH1 0x40 MLOAD PUSH2 0x1DB SWAP2 SWAP1 PUSH2 0x264A JUMP JUMPDEST PUSH1 0x40 MLOAD DUP1 SWAP2 SUB SWAP1 RETURN JUMPDEST PUSH2 0x1FE PUSH1 0x4 DUP1 CALLDATASIZE SUB DUP2 ADD SWAP1 PUSH2 0x1F9 SWAP2 SWAP1 PUSH2 0x26CC JUMP JUMPDEST PUSH2 0x188E JUMP JUMPDEST STOP JUMPDEST PUSH1 0x60 PUSH1 0x0 DUP1 PUSH1 0x0 DUP1 PUSH1 0x60 DUP1 DUP8 CALLER PUSH20 0xFFFFFFFFFFFFFFFFFFFFFFFFFFFFFFFFFFFFFFFF AND PUSH1 0x8 PUSH1 0x0 DUP4 DUP2 MSTORE PUSH1 0x20 ADD SWAP1 DUP2 MSTORE PUSH1 0x20 ADD PUSH1 0x0 KECCAK256 PUSH1 0x0 SWAP1 SLOAD SWAP1 PUSH2 0x100 EXP SWAP1 DIV PUSH20 0xFFFFFFFFFFFFFFFFFFFFFFFFFFFFFFFFFFFFFFFF AND PUSH20 0xFFFFFFFFFFFFFFFFFFFFFFFFFFFFFFFFFFFFFFFF AND EQ PUSH2 0x2AD JUMPI PUSH1 0x40 MLOAD PUSH32 0x8C379A000000000000000000000000000000000000000000000000000000000 DUP2 MSTORE PUSH1 0x4 ADD PUSH2 0x2A4 SWAP1 PUSH2 0x279E JUMP JUMPDEST PUSH1 0x40 MLOAD DUP1 SWAP2 SUB SWAP1 REVERT JUMPDEST PUSH1 0x0 PUSH1 0x7 PUSH1 0x0 DUP12 DUP2 MSTORE PUSH1 0x20 ADD SWAP1 DUP2 MSTORE PUSH1 0x20 ADD PUSH1 0x0 KECCAK256 PUSH1 0x40 MLOAD DUP1 PUSH2 0x100 ADD PUSH1 0x40 MSTORE SWAP1 DUP2 PUSH1 0x0 DUP3 ADD DUP1 SLOAD PUSH2 0x2DE SWAP1 PUSH2 0x27ED JUMP JUMPDEST DUP1 PUSH1 0x1F ADD PUSH1 0x20 DUP1 SWAP2 DIV MUL PUSH1 0x20 ADD PUSH1 0x40 MLOAD SWAP1 DUP2 ADD PUSH1 0x40 MSTORE DUP1 SWAP3 SWAP2 SWAP1 DUP2 DUP2 MSTORE PUSH1 0x20 ADD DUP3 DUP1 SLOAD PUSH2 0x30A SWAP1 PUSH2 0x27ED JUMP JUMPDEST DUP1 ISZERO PUSH2 0x357 JUMPI DUP1 PUSH1 0x1F LT PUSH2 0x32C JUMPI PUSH2 0x100 DUP1 DUP4 SLOAD DIV MUL DUP4 MSTORE SWAP2 PUSH1 0x20 ADD SWAP2 PUSH2 0x357 JUMP JUMPDEST DUP3 ADD SWAP2 SWAP1 PUSH1 0x0 MSTORE PUSH1 0x20 PUSH1 0x0 KECCAK256 SWAP1 JUMPDEST DUP2 SLOAD DUP2 MSTORE SWAP1 PUSH1 0x1 ADD SWAP1 PUSH1 0x20 ADD DUP1 DUP4 GT PUSH2 0x33A JUMPI DUP3 SWAP1 SUB PUSH1 0x1F AND DUP3 ADD SWAP2 JUMPDEST POP POP POP POP POP DUP2 MSTORE PUSH1 0x20 ADD PUSH1 0x1 DUP3 ADD SLOAD DUP2 MSTORE PUSH1 0x20 ADD PUSH1 0x2 DUP3 ADD SLOAD DUP2 MSTORE PUSH1 0x20 ADD PUSH1 0x3 DUP3 ADD SLOAD DUP2 MSTORE PUSH1 0x20 ADD PUSH1 0x4 DUP3 ADD SLOAD DUP2 MSTORE PUSH1 0x20 ADD PUSH1 0x5 DUP3 ADD SLOAD DUP2 MSTORE PUSH1 0x20 ADD PUSH1 0x6 DUP3 ADD DUP1 SLOAD PUSH2 0x3A2 SWAP1 PUSH2 0x27ED JUMP JUMPDEST DUP1 PUSH1 0x1F ADD PUSH1 0x20 DUP1 SWAP2 DIV MUL PUSH1 0x20 ADD PUSH1 0x40 MLOAD SWAP1 DUP2 ADD PUSH1 0x40 MSTORE DUP1 SWAP3 SWAP2 SWAP1 DUP2 DUP2 MSTORE PUSH1 0x20 ADD DUP3 DUP1 SLOAD PUSH2 0x3CE SWAP1 PUSH2 0x27ED JUMP JUMPDEST DUP1 ISZERO PUSH2 0x41B JUMPI DUP1 PUSH1 0x1F LT PUSH2 0x3F0 JUMPI PUSH2 0x100 DUP1 DUP4 SLOAD DIV MUL DUP4 MSTORE SWAP2 PUSH1 0x20 ADD SWAP2 PUSH2 0x41B JUMP JUMPDEST DUP3 ADD SWAP2 SWAP1 PUSH1 0x0 MSTORE PUSH1 0x20 PUSH1 0x0 KECCAK256 SWAP1 JUMPDEST DUP2 SLOAD DUP2 MSTORE SWAP1 PUSH1 0x1 ADD SWAP1 PUSH1 0x20 ADD DUP1 DUP4 GT PUSH2 0x3FE JUMPI DUP3 SWAP1 SUB PUSH1 0x1F AND DUP3 ADD SWAP2 JUMPDEST POP POP POP POP POP DUP2 MSTORE PUSH1 0x20 ADD PUSH1 0x7 DUP3 ADD DUP1 SLOAD PUSH2 0x434 SWAP1 PUSH2 0x27ED JUMP JUMPDEST DUP1 PUSH1 0x1F ADD PUSH1 0x20 DUP1 SWAP2 DIV MUL PUSH1 0x20 ADD PUSH1 0x40 MLOAD SWAP1 DUP2 ADD PUSH1 0x40 MSTORE DUP1 SWAP3 SWAP2 SWAP1 DUP2 DUP2 MSTORE PUSH1 0x20 ADD DUP3 DUP1 SLOAD PUSH2 0x460 SWAP1 PUSH2 0x27ED JUMP JUMPDEST DUP1 ISZERO PUSH2 0x4AD JUMPI DUP1 PUSH1 0x1F LT PUSH2 0x482 JUMPI PUSH2 0x100 DUP1 DUP4 SLOAD DIV MUL DUP4 MSTORE SWAP2 PUSH1 0x20 ADD SWAP2 PUSH2 0x4AD JUMP JUMPDEST DUP3 ADD SWAP2 SWAP1 PUSH1 0x0 MSTORE PUSH1 0x20 PUSH1 0x0 KECCAK256 SWAP1 JUMPDEST DUP2 SLOAD DUP2 MSTORE SWAP1 PUSH1 0x1 ADD SWAP1 PUSH1 0x20 ADD DUP1 DUP4 GT PUSH2 0x490 JUMPI DUP3 SWAP1 SUB PUSH1 0x1F AND DUP3 ADD SWAP2 JUMPDEST POP POP POP POP POP DUP2 MSTORE POP POP SWAP1 POP DUP1 PUSH1 0x0 ADD MLOAD DUP2 PUSH1 0x20 ADD MLOAD DUP3 PUSH1 0x40 ADD MLOAD DUP4 PUSH1 0x80 ADD MLOAD DUP5 PUSH1 0xA0 ADD MLOAD DUP6 PUSH1 0xC0 ADD MLOAD DUP7 PUSH1 0xE0 ADD MLOAD SWAP9 POP SWAP9 POP SWAP9 POP SWAP9 POP SWAP9 POP SWAP9 POP SWAP9 POP POP POP SWAP2 SWAP4 SWAP6 SWAP8 SWAP1 SWAP3 SWAP5 SWAP7 POP JUMP JUMPDEST PUSH1 0x60 DUP2 CALLER PUSH20 0xFFFFFFFFFFFFFFFFFFFFFFFFFFFFFFFFFFFFFFFF AND PUSH1 0x8 PUSH1 0x0 DUP4 DUP2 MSTORE PUSH1 0x20 ADD SWAP1 DUP2 MSTORE PUSH1 0x20 ADD PUSH1 0x0 KECCAK256 PUSH1 0x0 SWAP1 SLOAD SWAP1 PUSH2 0x100 EXP SWAP1 DIV PUSH20 0xFFFFFFFFFFFFFFFFFFFFFFFFFFFFFFFFFFFFFFFF AND PUSH20 0xFFFFFFFFFFFFFFFFFFFFFFFFFFFFFFFFFFFFFFFF AND EQ PUSH2 0x59A JUMPI PUSH1 0x40 MLOAD PUSH32 0x8C379A000000000000000000000000000000000000000000000000000000000 DUP2 MSTORE PUSH1 0x4 ADD PUSH2 0x591 SWAP1 PUSH2 0x279E JUMP JUMPDEST PUSH1 0x40 MLOAD DUP1 SWAP2 SUB SWAP1 REVERT JUMPDEST PUSH1 0x9 PUSH1 0x0 DUP5 DUP2 MSTORE PUSH1 0x20 ADD SWAP1 DUP2 MSTORE PUSH1 0x20 ADD PUSH1 0x0 KECCAK256 PUSH1 0x0 PUSH1 0x8 PUSH1 0x0 DUP7 DUP2 MSTORE PUSH1 0x20 ADD SWAP1 DUP2 MSTORE PUSH1 0x20 ADD PUSH1 0x0 KECCAK256 PUSH1 0x0 SWAP1 SLOAD SWAP1 PUSH2 0x100 EXP SWAP1 DIV PUSH20 0xFFFFFFFFFFFFFFFFFFFFFFFFFFFFFFFFFFFFFFFF AND PUSH20 0xFFFFFFFFFFFFFFFFFFFFFFFFFFFFFFFFFFFFFFFF AND PUSH20 0xFFFFFFFFFFFFFFFFFFFFFFFFFFFFFFFFFFFFFFFF AND DUP2 MSTORE PUSH1 0x20 ADD SWAP1 DUP2 MSTORE PUSH1 0x20 ADD PUSH1 0x0 KECCAK256 DUP1 SLOAD DUP1 PUSH1 0x20 MUL PUSH1 0x20 ADD PUSH1 0x40 MLOAD SWAP1 DUP2 ADD PUSH1 0x40 MSTORE DUP1 SWAP3 SWAP2 SWAP1 DUP2 DUP2 MSTORE PUSH1 0x20 ADD PUSH1 0x0 SWAP1 JUMPDEST DUP3 DUP3 LT ISZERO PUSH2 0x849 JUMPI DUP4 DUP3 SWAP1 PUSH1 0x0 MSTORE PUSH1 0x20 PUSH1 0x0 KECCAK256 SWAP1 PUSH1 0x5 MUL ADD PUSH1 0x40 MLOAD DUP1 PUSH1 0xA0 ADD PUSH1 0x40 MSTORE SWAP1 DUP2 PUSH1 0x0 DUP3 ADD DUP1 SLOAD PUSH2 0x670 SWAP1 PUSH2 0x27ED JUMP JUMPDEST DUP1 PUSH1 0x1F ADD PUSH1 0x20 DUP1 SWAP2 DIV MUL PUSH1 0x20 ADD PUSH1 0x40 MLOAD SWAP1 DUP2 ADD PUSH1 0x40 MSTORE DUP1 SWAP3 SWAP2 SWAP1 DUP2 DUP2 MSTORE PUSH1 0x20 ADD DUP3 DUP1 SLOAD PUSH2 0x69C SWAP1 PUSH2 0x27ED JUMP JUMPDEST DUP1 ISZERO PUSH2 0x6E9 JUMPI DUP1 PUSH1 0x1F LT PUSH2 0x6BE JUMPI PUSH2 0x100 DUP1 DUP4 SLOAD DIV MUL DUP4 MSTORE SWAP2 PUSH1 0x20 ADD SWAP2 PUSH2 0x6E9 JUMP JUMPDEST DUP3 ADD SWAP2 SWAP1 PUSH1 0x0 MSTORE PUSH1 0x20 PUSH1 0x0 KECCAK256 SWAP1 JUMPDEST DUP2 SLOAD DUP2 MSTORE SWAP1 PUSH1 0x1 ADD SWAP1 PUSH1 0x20 ADD DUP1 DUP4 GT PUSH2 0x6CC JUMPI DUP3 SWAP1 SUB PUSH1 0x1F AND DUP3 ADD SWAP2 JUMPDEST POP POP POP POP POP DUP2 MSTORE PUSH1 0x20 ADD PUSH1 0x1 DUP3 ADD DUP1 SLOAD PUSH2 0x702 SWAP1 PUSH2 0x27ED JUMP JUMPDEST DUP1 PUSH1 0x1F ADD PUSH1 0x20 DUP1 SWAP2 DIV MUL PUSH1 0x20 ADD PUSH1 0x40 MLOAD SWAP1 DUP2 ADD PUSH1 0x40 MSTORE DUP1 SWAP3 SWAP2 SWAP1 DUP2 DUP2 MSTORE PUSH1 0x20 ADD DUP3 DUP1 SLOAD PUSH2 0x72E SWAP1 PUSH2 0x27ED JUMP JUMPDEST DUP1 ISZERO PUSH2 0x77B JUMPI DUP1 PUSH1 0x1F LT PUSH2 0x750 JUMPI PUSH2 0x100 DUP1 DUP4 SLOAD DIV MUL DUP4 MSTORE SWAP2 PUSH1 0x20 ADD SWAP2 PUSH2 0x77B JUMP JUMPDEST DUP3 ADD SWAP2 SWAP1 PUSH1 0x0 MSTORE PUSH1 0x20 PUSH1 0x0 KECCAK256 SWAP1 JUMPDEST DUP2 SLOAD DUP2 MSTORE SWAP1 PUSH1 0x1 ADD SWAP1 PUSH1 0x20 ADD DUP1 DUP4 GT PUSH2 0x75E JUMPI DUP3 SWAP1 SUB PUSH1 0x1F AND DUP3 ADD SWAP2 JUMPDEST POP POP POP POP POP DUP2 MSTORE PUSH1 0x20 ADD PUSH1 0x2 DUP3 ADD SLOAD DUP2 MSTORE PUSH1 0x20 ADD PUSH1 0x3 DUP3 ADD PUSH1 0x0 SWAP1 SLOAD SWAP1 PUSH2 0x100 EXP SWAP1 DIV PUSH20 0xFFFFFFFFFFFFFFFFFFFFFFFFFFFFFFFFFFFFFFFF AND PUSH20 0xFFFFFFFFFFFFFFFFFFFFFFFFFFFFFFFFFFFFFFFF AND PUSH20 0xFFFFFFFFFFFFFFFFFFFFFFFFFFFFFFFFFFFFFFFF AND DUP2 MSTORE PUSH1 0x20 ADD PUSH1 0x4 DUP3 ADD PUSH1 0x0 SWAP1 SLOAD SWAP1 PUSH2 0x100 EXP SWAP1 DIV PUSH20 0xFFFFFFFFFFFFFFFFFFFFFFFFFFFFFFFFFFFFFFFF AND PUSH20 0xFFFFFFFFFFFFFFFFFFFFFFFFFFFFFFFFFFFFFFFF AND PUSH20 0xFFFFFFFFFFFFFFFFFFFFFFFFFFFFFFFFFFFFFFFF AND DUP2 MSTORE POP POP DUP2 MSTORE PUSH1 0x20 ADD SWAP1 PUSH1 0x1 ADD SWAP1 PUSH2 0x63D JUMP JUMPDEST POP POP POP POP SWAP2 POP POP SWAP2 SWAP1 POP JUMP JUMPDEST PUSH1 0x60 DUP1 PUSH1 0x0 PUSH1 0x2 SLOAD GT PUSH2 0x89D JUMPI PUSH1 0x40 MLOAD PUSH32 0x8C379A000000000000000000000000000000000000000000000000000000000 DUP2 MSTORE PUSH1 0x4 ADD PUSH2 0x894 SWAP1 PUSH2 0x286A JUMP JUMPDEST PUSH1 0x40 MLOAD DUP1 SWAP2 SUB SWAP1 REVERT JUMPDEST PUSH1 0x0 PUSH20 0xFFFFFFFFFFFFFFFFFFFFFFFFFFFFFFFFFFFFFFFF AND DUP4 PUSH20 0xFFFFFFFFFFFFFFFFFFFFFFFFFFFFFFFFFFFFFFFF AND SUB PUSH2 0x90C JUMPI PUSH1 0x40 MLOAD PUSH32 0x8C379A000000000000000000000000000000000000000000000000000000000 DUP2 MSTORE PUSH1 0x4 ADD PUSH2 0x903 SWAP1 PUSH2 0x28D6 JUMP JUMPDEST PUSH1 0x40 MLOAD DUP1 SWAP2 SUB SWAP1 REVERT JUMPDEST PUSH1 0x5 PUSH1 0x0 DUP5 PUSH20 0xFFFFFFFFFFFFFFFFFFFFFFFFFFFFFFFFFFFFFFFF AND PUSH20 0xFFFFFFFFFFFFFFFFFFFFFFFFFFFFFFFFFFFFFFFF AND DUP2 MSTORE PUSH1 0x20 ADD SWAP1 DUP2 MSTORE PUSH1 0x20 ADD PUSH1 0x0 KECCAK256 PUSH1 0x0 ADD PUSH1 0x5 PUSH1 0x0 DUP6 PUSH20 0xFFFFFFFFFFFFFFFFFFFFFFFFFFFFFFFFFFFFFFFF AND PUSH20 0xFFFFFFFFFFFFFFFFFFFFFFFFFFFFFFFFFFFFFFFF AND DUP2 MSTORE PUSH1 0x20 ADD SWAP1 DUP2 MSTORE PUSH1 0x20 ADD PUSH1 0x0 KECCAK256 PUSH1 0x1 ADD DUP2 DUP1 SLOAD PUSH2 0x99C SWAP1 PUSH2 0x27ED JUMP JUMPDEST DUP1 PUSH1 0x1F ADD PUSH1 0x20 DUP1 SWAP2 DIV MUL PUSH1 0x20 ADD PUSH1 0x40 MLOAD SWAP1 DUP2 ADD PUSH1 0x40 MSTORE DUP1 SWAP3 SWAP2 SWAP1 DUP2 DUP2 MSTORE PUSH1 0x20 ADD DUP3 DUP1 SLOAD PUSH2 0x9C8 SWAP1 PUSH2 0x27ED JUMP JUMPDEST DUP1 ISZERO PUSH2 0xA15 JUMPI DUP1 PUSH1 0x1F LT PUSH2 0x9EA JUMPI PUSH2 0x100 DUP1 DUP4 SLOAD DIV MUL DUP4 MSTORE SWAP2 PUSH1 0x20 ADD SWAP2 PUSH2 0xA15 JUMP JUMPDEST DUP3 ADD SWAP2 SWAP1 PUSH1 0x0 MSTORE PUSH1 0x20 PUSH1 0x0 KECCAK256 SWAP1 JUMPDEST DUP2 SLOAD DUP2 MSTORE SWAP1 PUSH1 0x1 ADD SWAP1 PUSH1 0x20 ADD DUP1 DUP4 GT PUSH2 0x9F8 JUMPI DUP3 SWAP1 SUB PUSH1 0x1F AND DUP3 ADD SWAP2 JUMPDEST POP POP POP POP POP SWAP2 POP DUP1 DUP1 SLOAD PUSH2 0xA28 SWAP1 PUSH2 0x27ED JUMP JUMPDEST DUP1 PUSH1 0x1F ADD PUSH1 0x20 DUP1 SWAP2 DIV MUL PUSH1 0x20 ADD PUSH1 0x40 MLOAD SWAP1 DUP2 ADD PUSH1 0x40 MSTORE DUP1 SWAP3 SWAP2 SWAP1 DUP2 DUP2 MSTORE PUSH1 0x20 ADD DUP3 DUP1 SLOAD PUSH2 0xA54 SWAP1 PUSH2 0x27ED JUMP JUMPDEST DUP1 ISZERO PUSH2 0xAA1 JUMPI DUP1 PUSH1 0x1F LT PUSH2 0xA76 JUMPI PUSH2 0x100 DUP1 DUP4 SLOAD DIV MUL DUP4 MSTORE SWAP2 PUSH1 0x20 ADD SWAP2 PUSH2 0xAA1 JUMP JUMPDEST DUP3 ADD SWAP2 SWAP1 PUSH1 0x0 MSTORE PUSH1 0x20 PUSH1 0x0 KECCAK256 SWAP1 JUMPDEST DUP2 SLOAD DUP2 MSTORE SWAP1 PUSH1 0x1 ADD SWAP1 PUSH1 0x20 ADD DUP1 DUP4 GT PUSH2 0xA84 JUMPI DUP3 SWAP1 SUB PUSH1 0x1F AND DUP3 ADD SWAP2 JUMPDEST POP POP POP POP POP SWAP1 POP SWAP2 POP SWAP2 POP SWAP2 POP SWAP2 JUMP JUMPDEST PUSH1 0x0 PUSH1 0x5 PUSH1 0x0 CALLER PUSH20 0xFFFFFFFFFFFFFFFFFFFFFFFFFFFFFFFFFFFFFFFF AND PUSH20 0xFFFFFFFFFFFFFFFFFFFFFFFFFFFFFFFFFFFFFFFF AND DUP2 MSTORE PUSH1 0x20 ADD SWAP1 DUP2 MSTORE PUSH1 0x20 ADD PUSH1 0x0 KECCAK256 PUSH1 0x3 ADD DUP1 SLOAD SWAP1 POP GT PUSH2 0xB39 JUMPI PUSH1 0x40 MLOAD PUSH32 0x8C379A000000000000000000000000000000000000000000000000000000000 DUP2 MSTORE PUSH1 0x4 ADD PUSH2 0xB30 SWAP1 PUSH2 0x2968 JUMP JUMPDEST PUSH1 0x40 MLOAD DUP1 SWAP2 SUB SWAP1 REVERT JUMPDEST PUSH1 0x4 PUSH1 0x0 PUSH1 0x5 PUSH1 0x0 CALLER PUSH20 0xFFFFFFFFFFFFFFFFFFFFFFFFFFFFFFFFFFFFFFFF AND PUSH20 0xFFFFFFFFFFFFFFFFFFFFFFFFFFFFFFFFFFFFFFFF AND DUP2 MSTORE PUSH1 0x20 ADD SWAP1 DUP2 MSTORE PUSH1 0x20 ADD PUSH1 0x0 KECCAK256 PUSH1 0x3 ADD PUSH1 0x0 DUP2 SLOAD DUP2 LT PUSH2 0xB92 JUMPI PUSH2 0xB91 PUSH2 0x2988 JUMP JUMPDEST JUMPDEST SWAP1 PUSH1 0x0 MSTORE PUSH1 0x20 PUSH1 0x0 KECCAK256 ADD PUSH1 0x0 SWAP1 SLOAD SWAP1 PUSH2 0x100 EXP SWAP1 DIV PUSH20 0xFFFFFFFFFFFFFFFFFFFFFFFFFFFFFFFFFFFFFFFF AND PUSH20 0xFFFFFFFFFFFFFFFFFFFFFFFFFFFFFFFFFFFFFFFF AND PUSH20 0xFFFFFFFFFFFFFFFFFFFFFFFFFFFFFFFFFFFFFFFF AND DUP2 MSTORE PUSH1 0x20 ADD SWAP1 DUP2 MSTORE PUSH1 0x20 ADD PUSH1 0x0 KECCAK256 PUSH1 0x2 ADD PUSH1 0x0 CALLER PUSH20 0xFFFFFFFFFFFFFFFFFFFFFFFFFFFFFFFFFFFFFFFF AND PUSH20 0xFFFFFFFFFFFFFFFFFFFFFFFFFFFFFFFFFFFFFFFF AND DUP2 MSTORE PUSH1 0x20 ADD SWAP1 DUP2 MSTORE PUSH1 0x20 ADD PUSH1 0x0 KECCAK256 PUSH1 0x0 SWAP1 SLOAD SWAP1 PUSH2 0x100 EXP SWAP1 DIV PUSH1 0xFF AND PUSH2 0xC84 JUMPI PUSH1 0x40 MLOAD PUSH32 0x8C379A000000000000000000000000000000000000000000000000000000000 DUP2 MSTORE PUSH1 0x4 ADD PUSH2 0xC7B SWAP1 PUSH2 0x2A29 JUMP JUMPDEST PUSH1 0x40 MLOAD DUP1 SWAP2 SUB SWAP1 REVERT JUMPDEST PUSH1 0x0 PUSH20 0xFFFFFFFFFFFFFFFFFFFFFFFFFFFFFFFFFFFFFFFF AND PUSH1 0x6 PUSH1 0x0 CALLER PUSH20 0xFFFFFFFFFFFFFFFFFFFFFFFFFFFFFFFFFFFFFFFF AND PUSH20 0xFFFFFFFFFFFFFFFFFFFFFFFFFFFFFFFFFFFFFFFF AND DUP2 MSTORE PUSH1 0x20 ADD SWAP1 DUP2 MSTORE PUSH1 0x20 ADD PUSH1 0x0 KECCAK256 PUSH1 0x2 ADD PUSH1 0x0 SWAP1 SLOAD SWAP1 PUSH2 0x100 EXP SWAP1 DIV PUSH20 0xFFFFFFFFFFFFFFFFFFFFFFFFFFFFFFFFFFFFFFFF AND PUSH20 0xFFFFFFFFFFFFFFFFFFFFFFFFFFFFFFFFFFFFFFFF AND SUB PUSH2 0xD55 JUMPI PUSH1 0x40 MLOAD PUSH32 0x8C379A000000000000000000000000000000000000000000000000000000000 DUP2 MSTORE PUSH1 0x4 ADD PUSH2 0xD4C SWAP1 PUSH2 0x2A95 JUMP JUMPDEST PUSH1 0x40 MLOAD DUP1 SWAP2 SUB SWAP1 REVERT JUMPDEST PUSH2 0xD5F CALLER DUP3 PUSH2 0x1C12 JUMP JUMPDEST PUSH2 0xD9E JUMPI PUSH1 0x40 MLOAD PUSH32 0x8C379A000000000000000000000000000000000000000000000000000000000 DUP2 MSTORE PUSH1 0x4 ADD PUSH2 0xD95 SWAP1 PUSH2 0x2B27 JUMP JUMPDEST PUSH1 0x40 MLOAD DUP1 SWAP2 SUB SWAP1 REVERT JUMPDEST DUP1 PUSH1 0x6 PUSH1 0x0 CALLER PUSH20 0xFFFFFFFFFFFFFFFFFFFFFFFFFFFFFFFFFFFFFFFF AND PUSH20 0xFFFFFFFFFFFFFFFFFFFFFFFFFFFFFFFFFFFFFFFF AND DUP2 MSTORE PUSH1 0x20 ADD SWAP1 DUP2 MSTORE PUSH1 0x20 ADD PUSH1 0x0 KECCAK256 PUSH1 0x4 ADD PUSH1 0x0 PUSH2 0x100 EXP DUP2 SLOAD DUP2 PUSH20 0xFFFFFFFFFFFFFFFFFFFFFFFFFFFFFFFFFFFFFFFF MUL NOT AND SWAP1 DUP4 PUSH20 0xFFFFFFFFFFFFFFFFFFFFFFFFFFFFFFFFFFFFFFFF AND MUL OR SWAP1 SSTORE POP POP JUMP JUMPDEST PUSH1 0x0 PUSH1 0x5 PUSH1 0x0 CALLER PUSH20 0xFFFFFFFFFFFFFFFFFFFFFFFFFFFFFFFFFFFFFFFF AND PUSH20 0xFFFFFFFFFFFFFFFFFFFFFFFFFFFFFFFFFFFFFFFF AND DUP2 MSTORE PUSH1 0x20 ADD SWAP1 DUP2 MSTORE PUSH1 0x20 ADD PUSH1 0x0 KECCAK256 PUSH1 0x3 ADD DUP1 SLOAD SWAP1 POP GT PUSH2 0xEAA JUMPI PUSH1 0x40 MLOAD PUSH32 0x8C379A000000000000000000000000000000000000000000000000000000000 DUP2 MSTORE PUSH1 0x4 ADD PUSH2 0xEA1 SWAP1 PUSH2 0x2968 JUMP JUMPDEST PUSH1 0x40 MLOAD DUP1 SWAP2 SUB SWAP1 REVERT JUMPDEST PUSH1 0x4 PUSH1 0x0 PUSH1 0x5 PUSH1 0x0 CALLER PUSH20 0xFFFFFFFFFFFFFFFFFFFFFFFFFFFFFFFFFFFFFFFF AND PUSH20 0xFFFFFFFFFFFFFFFFFFFFFFFFFFFFFFFFFFFFFFFF AND DUP2 MSTORE PUSH1 0x20 ADD SWAP1 DUP2 MSTORE PUSH1 0x20 ADD PUSH1 0x0 KECCAK256 PUSH1 0x3 ADD PUSH1 0x0 DUP2 SLOAD DUP2 LT PUSH2 0xF03 JUMPI PUSH2 0xF02 PUSH2 0x2988 JUMP JUMPDEST JUMPDEST SWAP1 PUSH1 0x0 MSTORE PUSH1 0x20 PUSH1 0x0 KECCAK256 ADD PUSH1 0x0 SWAP1 SLOAD SWAP1 PUSH2 0x100 EXP SWAP1 DIV PUSH20 0xFFFFFFFFFFFFFFFFFFFFFFFFFFFFFFFFFFFFFFFF AND PUSH20 0xFFFFFFFFFFFFFFFFFFFFFFFFFFFFFFFFFFFFFFFF AND PUSH20 0xFFFFFFFFFFFFFFFFFFFFFFFFFFFFFFFFFFFFFFFF AND DUP2 MSTORE PUSH1 0x20 ADD SWAP1 DUP2 MSTORE PUSH1 0x20 ADD PUSH1 0x0 KECCAK256 PUSH1 0x2 ADD PUSH1 0x0 CALLER PUSH20 0xFFFFFFFFFFFFFFFFFFFFFFFFFFFFFFFFFFFFFFFF AND PUSH20 0xFFFFFFFFFFFFFFFFFFFFFFFFFFFFFFFFFFFFFFFF AND DUP2 MSTORE PUSH1 0x20 ADD SWAP1 DUP2 MSTORE PUSH1 0x20 ADD PUSH1 0x0 KECCAK256 PUSH1 0x0 SWAP1 SLOAD SWAP1 PUSH2 0x100 EXP SWAP1 DIV PUSH1 0xFF AND PUSH2 0xFF5 JUMPI PUSH1 0x40 MLOAD PUSH32 0x8C379A000000000000000000000000000000000000000000000000000000000 DUP2 MSTORE PUSH1 0x4 ADD PUSH2 0xFEC SWAP1 PUSH2 0x2A29 JUMP JUMPDEST PUSH1 0x40 MLOAD DUP1 SWAP2 SUB SWAP1 REVERT JUMPDEST PUSH1 0x4 PUSH1 0x0 DUP3 PUSH20 0xFFFFFFFFFFFFFFFFFFFFFFFFFFFFFFFFFFFFFFFF AND PUSH20 0xFFFFFFFFFFFFFFFFFFFFFFFFFFFFFFFFFFFFFFFF AND DUP2 MSTORE PUSH1 0x20 ADD SWAP1 DUP2 MSTORE PUSH1 0x20 ADD PUSH1 0x0 KECCAK256 PUSH1 0x2 ADD PUSH1 0x0 CALLER PUSH20 0xFFFFFFFFFFFFFFFFFFFFFFFFFFFFFFFFFFFFFFFF AND PUSH20 0xFFFFFFFFFFFFFFFFFFFFFFFFFFFFFFFFFFFFFFFF AND DUP2 MSTORE PUSH1 0x20 ADD SWAP1 DUP2 MSTORE PUSH1 0x20 ADD PUSH1 0x0 KECCAK256 PUSH1 0x0 SWAP1 SLOAD SWAP1 PUSH2 0x100 EXP SWAP1 DIV PUSH1 0xFF AND PUSH2 0x10C1 JUMPI PUSH1 0x40 MLOAD PUSH32 0x8C379A000000000000000000000000000000000000000000000000000000000 DUP2 MSTORE PUSH1 0x4 ADD PUSH2 0x10B8 SWAP1 PUSH2 0x2BB9 JUMP JUMPDEST PUSH1 0x40 MLOAD DUP1 SWAP2 SUB SWAP1 REVERT JUMPDEST PUSH1 0x5 PUSH1 0x0 CALLER PUSH20 0xFFFFFFFFFFFFFFFFFFFFFFFFFFFFFFFFFFFFFFFF AND PUSH20 0xFFFFFFFFFFFFFFFFFFFFFFFFFFFFFFFFFFFFFFFF AND DUP2 MSTORE PUSH1 0x20 ADD SWAP1 DUP2 MSTORE PUSH1 0x20 ADD PUSH1 0x0 KECCAK256 PUSH1 0x3 ADD DUP2 SWAP1 DUP1 PUSH1 0x1 DUP2 SLOAD ADD DUP1 DUP3 SSTORE DUP1 SWAP2 POP POP PUSH1 0x1 SWAP1 SUB SWAP1 PUSH1 0x0 MSTORE PUSH1 0x20 PUSH1 0x0 KECCAK256 ADD PUSH1 0x0 SWAP1 SWAP2 SWAP1 SWAP2 SWAP1 SWAP2 PUSH2 0x100 EXP DUP2 SLOAD DUP2 PUSH20 0xFFFFFFFFFFFFFFFFFFFFFFFFFFFFFFFFFFFFFFFF MUL NOT AND SWAP1 DUP4 PUSH20 0xFFFFFFFFFFFFFFFFFFFFFFFFFFFFFFFFFFFFFFFF AND MUL OR SWAP1 SSTORE POP POP JUMP JUMPDEST PUSH1 0x0 DUP1 SLOAD SWAP1 PUSH2 0x100 EXP SWAP1 DIV PUSH20 0xFFFFFFFFFFFFFFFFFFFFFFFFFFFFFFFFFFFFFFFF AND PUSH20 0xFFFFFFFFFFFFFFFFFFFFFFFFFFFFFFFFFFFFFFFF AND CALLER PUSH20 0xFFFFFFFFFFFFFFFFFFFFFFFFFFFFFFFFFFFFFFFF AND EQ PUSH2 0x11F5 JUMPI PUSH1 0x40 MLOAD PUSH32 0x8C379A000000000000000000000000000000000000000000000000000000000 DUP2 MSTORE PUSH1 0x4 ADD PUSH2 0x11EC SWAP1 PUSH2 0x2C4B JUMP JUMPDEST PUSH1 0x40 MLOAD DUP1 SWAP2 SUB SWAP1 REVERT JUMPDEST DUP3 PUSH1 0x5 PUSH1 0x0 DUP4 PUSH20 0xFFFFFFFFFFFFFFFFFFFFFFFFFFFFFFFFFFFFFFFF AND PUSH20 0xFFFFFFFFFFFFFFFFFFFFFFFFFFFFFFFFFFFFFFFF AND DUP2 MSTORE PUSH1 0x20 ADD SWAP1 DUP2 MSTORE PUSH1 0x20 ADD PUSH1 0x0 KECCAK256 PUSH1 0x0 ADD SWAP1 DUP2 PUSH2 0x1244 SWAP2 SWAP1 PUSH2 0x2E17 JUMP JUMPDEST POP DUP2 PUSH1 0x5 PUSH1 0x0 DUP4 PUSH20 0xFFFFFFFFFFFFFFFFFFFFFFFFFFFFFFFFFFFFFFFF AND PUSH20 0xFFFFFFFFFFFFFFFFFFFFFFFFFFFFFFFFFFFFFFFF AND DUP2 MSTORE PUSH1 0x20 ADD SWAP1 DUP2 MSTORE PUSH1 0x20 ADD PUSH1 0x0 KECCAK256 PUSH1 0x1 ADD SWAP1 DUP2 PUSH2 0x1294 SWAP2 SWAP1 PUSH2 0x2E17 JUMP JUMPDEST POP DUP1 PUSH1 0x5 PUSH1 0x0 DUP4 PUSH20 0xFFFFFFFFFFFFFFFFFFFFFFFFFFFFFFFFFFFFFFFF AND PUSH20 0xFFFFFFFFFFFFFFFFFFFFFFFFFFFFFFFFFFFFFFFF AND DUP2 MSTORE PUSH1 0x20 ADD SWAP1 DUP2 MSTORE PUSH1 0x20 ADD PUSH1 0x0 KECCAK256 PUSH1 0x2 ADD PUSH1 0x0 PUSH2 0x100 EXP DUP2 SLOAD DUP2 PUSH20 0xFFFFFFFFFFFFFFFFFFFFFFFFFFFFFFFFFFFFFFFF MUL NOT AND SWAP1 DUP4 PUSH20 0xFFFFFFFFFFFFFFFFFFFFFFFFFFFFFFFFFFFFFFFF AND MUL OR SWAP1 SSTORE POP PUSH1 0x2 PUSH1 0x0 DUP2 SLOAD DUP1 SWAP3 SWAP2 SWAP1 PUSH2 0x1329 SWAP1 PUSH2 0x2F18 JUMP JUMPDEST SWAP2 SWAP1 POP SSTORE POP POP POP POP JUMP JUMPDEST PUSH1 0x0 DUP1 SLOAD SWAP1 PUSH2 0x100 EXP SWAP1 DIV PUSH20 0xFFFFFFFFFFFFFFFFFFFFFFFFFFFFFFFFFFFFFFFF AND PUSH20 0xFFFFFFFFFFFFFFFFFFFFFFFFFFFFFFFFFFFFFFFF AND CALLER PUSH20 0xFFFFFFFFFFFFFFFFFFFFFFFFFFFFFFFFFFFFFFFF AND EQ PUSH2 0x13C1 JUMPI PUSH1 0x40 MLOAD PUSH32 0x8C379A000000000000000000000000000000000000000000000000000000000 DUP2 MSTORE PUSH1 0x4 ADD PUSH2 0x13B8 SWAP1 PUSH2 0x2C4B JUMP JUMPDEST PUSH1 0x40 MLOAD DUP1 SWAP2 SUB SWAP1 REVERT JUMPDEST DUP2 PUSH1 0x4 PUSH1 0x0 CALLER PUSH20 0xFFFFFFFFFFFFFFFFFFFFFFFFFFFFFFFFFFFFFFFF AND PUSH20 0xFFFFFFFFFFFFFFFFFFFFFFFFFFFFFFFFFFFFFFFF AND DUP2 MSTORE PUSH1 0x20 ADD SWAP1 DUP2 MSTORE PUSH1 0x20 ADD PUSH1 0x0 KECCAK256 PUSH1 0x0 ADD SWAP1 DUP2 PUSH2 0x1410 SWAP2 SWAP1 PUSH2 0x2E17 JUMP JUMPDEST POP DUP1 PUSH1 0x4 PUSH1 0x0 CALLER PUSH20 0xFFFFFFFFFFFFFFFFFFFFFFFFFFFFFFFFFFFFFFFF AND PUSH20 0xFFFFFFFFFFFFFFFFFFFFFFFFFFFFFFFFFFFFFFFF AND DUP2 MSTORE PUSH1 0x20 ADD SWAP1 DUP2 MSTORE PUSH1 0x20 ADD PUSH1 0x0 KECCAK256 PUSH1 0x1 ADD PUSH1 0x0 PUSH2 0x100 EXP DUP2 SLOAD DUP2 PUSH20 0xFFFFFFFFFFFFFFFFFFFFFFFFFFFFFFFFFFFFFFFF MUL NOT AND SWAP1 DUP4 PUSH20 0xFFFFFFFFFFFFFFFFFFFFFFFFFFFFFFFFFFFFFFFF AND MUL OR SWAP1 SSTORE POP PUSH1 0x1 PUSH1 0x0 DUP2 SLOAD DUP1 SWAP3 SWAP2 SWAP1 PUSH2 0x14A5 SWAP1 PUSH2 0x2F18 JUMP JUMPDEST SWAP2 SWAP1 POP SSTORE POP POP POP JUMP JUMPDEST PUSH1 0x0 DUP8 GT DUP1 ISZERO PUSH2 0x14BE JUMPI POP PUSH1 0x0 DUP7 GT JUMPDEST DUP1 ISZERO PUSH2 0x14CA JUMPI POP PUSH1 0x0 DUP5 GT JUMPDEST DUP1 ISZERO PUSH2 0x14D6 JUMPI POP PUSH1 0x0 DUP4 GT JUMPDEST PUSH2 0x1515 JUMPI PUSH1 0x40 MLOAD PUSH32 0x8C379A000000000000000000000000000000000000000000000000000000000 DUP2 MSTORE PUSH1 0x4 ADD PUSH2 0x150C SWAP1 PUSH2 0x2FAC JUMP JUMPDEST PUSH1 0x40 MLOAD DUP1 SWAP2 SUB SWAP1 REVERT JUMPDEST PUSH1 0x0 PUSH20 0xFFFFFFFFFFFFFFFFFFFFFFFFFFFFFFFFFFFFFFFF AND PUSH1 0x8 PUSH1 0x0 DUP9 DUP2 MSTORE PUSH1 0x20 ADD SWAP1 DUP2 MSTORE PUSH1 0x20 ADD PUSH1 0x0 KECCAK256 PUSH1 0x0 SWAP1 SLOAD SWAP1 PUSH2 0x100 EXP SWAP1 DIV PUSH20 0xFFFFFFFFFFFFFFFFFFFFFFFFFFFFFFFFFFFFFFFF AND PUSH20 0xFFFFFFFFFFFFFFFFFFFFFFFFFFFFFFFFFFFFFFFF AND EQ PUSH2 0x15B7 JUMPI PUSH1 0x40 MLOAD PUSH32 0x8C379A000000000000000000000000000000000000000000000000000000000 DUP2 MSTORE PUSH1 0x4 ADD PUSH2 0x15AE SWAP1 PUSH2 0x3018 JUMP JUMPDEST PUSH1 0x40 MLOAD DUP1 SWAP2 SUB SWAP1 REVERT JUMPDEST PUSH1 0x40 MLOAD DUP1 PUSH2 0x100 ADD PUSH1 0x40 MSTORE DUP1 DUP10 DUP2 MSTORE PUSH1 0x20 ADD DUP9 DUP2 MSTORE PUSH1 0x20 ADD DUP8 DUP2 MSTORE PUSH1 0x20 ADD DUP7 DUP2 MSTORE PUSH1 0x20 ADD DUP6 DUP2 MSTORE PUSH1 0x20 ADD DUP5 DUP2 MSTORE PUSH1 0x20 ADD DUP4 DUP2 MSTORE PUSH1 0x20 ADD DUP3 DUP2 MSTORE POP PUSH1 0x7 PUSH1 0x0 DUP8 DUP2 MSTORE PUSH1 0x20 ADD SWAP1 DUP2 MSTORE PUSH1 0x20 ADD PUSH1 0x0 KECCAK256 PUSH1 0x0 DUP3 ADD MLOAD DUP2 PUSH1 0x0 ADD SWAP1 DUP2 PUSH2 0x1619 SWAP2 SWAP1 PUSH2 0x2E17 JUMP JUMPDEST POP PUSH1 0x20 DUP3 ADD MLOAD DUP2 PUSH1 0x1 ADD SSTORE PUSH1 0x40 DUP3 ADD MLOAD DUP2 PUSH1 0x2 ADD SSTORE PUSH1 0x60 DUP3 ADD MLOAD DUP2 PUSH1 0x3 ADD SSTORE PUSH1 0x80 DUP3 ADD MLOAD DUP2 PUSH1 0x4 ADD SSTORE PUSH1 0xA0 DUP3 ADD MLOAD DUP2 PUSH1 0x5 ADD SSTORE PUSH1 0xC0 DUP3 ADD MLOAD DUP2 PUSH1 0x6 ADD SWAP1 DUP2 PUSH2 0x1661 SWAP2 SWAP1 PUSH2 0x2E17 JUMP JUMPDEST POP PUSH1 0xE0 DUP3 ADD MLOAD DUP2 PUSH1 0x7 ADD SWAP1 DUP2 PUSH2 0x1677 SWAP2 SWAP1 PUSH2 0x2E17 JUMP JUMPDEST POP SWAP1 POP POP CALLER PUSH1 0x8 PUSH1 0x0 DUP8 DUP2 MSTORE PUSH1 0x20 ADD SWAP1 DUP2 MSTORE PUSH1 0x20 ADD PUSH1 0x0 KECCAK256 PUSH1 0x0 PUSH2 0x100 EXP DUP2 SLOAD DUP2 PUSH20 0xFFFFFFFFFFFFFFFFFFFFFFFFFFFFFFFFFFFFFFFF MUL NOT AND SWAP1 DUP4 PUSH20 0xFFFFFFFFFFFFFFFFFFFFFFFFFFFFFFFFFFFFFFFF AND MUL OR SWAP1 SSTORE POP PUSH1 0x3 PUSH1 0x0 DUP2 SLOAD DUP1 SWAP3 SWAP2 SWAP1 PUSH2 0x16E0 SWAP1 PUSH2 0x2F18 JUMP JUMPDEST SWAP2 SWAP1 POP SSTORE POP POP POP POP POP POP POP POP POP JUMP JUMPDEST PUSH1 0x60 PUSH1 0x0 PUSH20 0xFFFFFFFFFFFFFFFFFFFFFFFFFFFFFFFFFFFFFFFF AND PUSH1 0x5 PUSH1 0x0 CALLER PUSH20 0xFFFFFFFFFFFFFFFFFFFFFFFFFFFFFFFFFFFFFFFF AND PUSH20 0xFFFFFFFFFFFFFFFFFFFFFFFFFFFFFFFFFFFFFFFF AND DUP2 MSTORE PUSH1 0x20 ADD SWAP1 DUP2 MSTORE PUSH1 0x20 ADD PUSH1 0x0 KECCAK256 PUSH1 0x2 ADD PUSH1 0x0 SWAP1 SLOAD SWAP1 PUSH2 0x100 EXP SWAP1 DIV PUSH20 0xFFFFFFFFFFFFFFFFFFFFFFFFFFFFFFFFFFFFFFFF AND PUSH20 0xFFFFFFFFFFFFFFFFFFFFFFFFFFFFFFFFFFFFFFFF AND SUB PUSH2 0x17C2 JUMPI PUSH1 0x40 MLOAD PUSH32 0x8C379A000000000000000000000000000000000000000000000000000000000 DUP2 MSTORE PUSH1 0x4 ADD PUSH2 0x17B9 SWAP1 PUSH2 0x2A95 JUMP JUMPDEST PUSH1 0x40 MLOAD DUP1 SWAP2 SUB SWAP1 REVERT JUMPDEST PUSH1 0x5 PUSH1 0x0 CALLER PUSH20 0xFFFFFFFFFFFFFFFFFFFFFFFFFFFFFFFFFFFFFFFF AND PUSH20 0xFFFFFFFFFFFFFFFFFFFFFFFFFFFFFFFFFFFFFFFF AND DUP2 MSTORE PUSH1 0x20 ADD SWAP1 DUP2 MSTORE PUSH1 0x20 ADD PUSH1 0x0 KECCAK256 PUSH1 0x3 ADD DUP1 SLOAD DUP1 PUSH1 0x20 MUL PUSH1 0x20 ADD PUSH1 0x40 MLOAD SWAP1 DUP2 ADD PUSH1 0x40 MSTORE DUP1 SWAP3 SWAP2 SWAP1 DUP2 DUP2 MSTORE PUSH1 0x20 ADD DUP3 DUP1 SLOAD DUP1 ISZERO PUSH2 0x1884 JUMPI PUSH1 0x20 MUL DUP3 ADD SWAP2 SWAP1 PUSH1 0x0 MSTORE PUSH1 0x20 PUSH1 0x0 KECCAK256 SWAP1 JUMPDEST DUP2 PUSH1 0x0 SWAP1 SLOAD SWAP1 PUSH2 0x100 EXP SWAP1 DIV PUSH20 0xFFFFFFFFFFFFFFFFFFFFFFFFFFFFFFFFFFFFFFFF AND PUSH20 0xFFFFFFFFFFFFFFFFFFFFFFFFFFFFFFFFFFFFFFFF AND DUP2 MSTORE PUSH1 0x20 ADD SWAP1 PUSH1 0x1 ADD SWAP1 DUP1 DUP4 GT PUSH2 0x183A JUMPI JUMPDEST POP POP POP POP POP SWAP1 POP SWAP1 JUMP JUMPDEST PUSH1 0x4 PUSH1 0x0 CALLER PUSH20 0xFFFFFFFFFFFFFFFFFFFFFFFFFFFFFFFFFFFFFFFF AND PUSH20 0xFFFFFFFFFFFFFFFFFFFFFFFFFFFFFFFFFFFFFFFF AND DUP2 MSTORE PUSH1 0x20 ADD SWAP1 DUP2 MSTORE PUSH1 0x20 ADD PUSH1 0x0 KECCAK256 PUSH1 0x2 ADD PUSH1 0x0 CALLER PUSH20 0xFFFFFFFFFFFFFFFFFFFFFFFFFFFFFFFFFFFFFFFF AND PUSH20 0xFFFFFFFFFFFFFFFFFFFFFFFFFFFFFFFFFFFFFFFF AND DUP2 MSTORE PUSH1 0x20 ADD SWAP1 DUP2 MSTORE PUSH1 0x20 ADD PUSH1 0x0 KECCAK256 PUSH1 0x0 SWAP1 SLOAD SWAP1 PUSH2 0x100 EXP SWAP1 DIV PUSH1 0xFF AND PUSH2 0x195A JUMPI PUSH1 0x40 MLOAD PUSH32 0x8C379A000000000000000000000000000000000000000000000000000000000 DUP2 MSTORE PUSH1 0x4 ADD PUSH2 0x1951 SWAP1 PUSH2 0x30AA JUMP JUMPDEST PUSH1 0x40 MLOAD DUP1 SWAP2 SUB SWAP1 REVERT JUMPDEST PUSH1 0x0 PUSH20 0xFFFFFFFFFFFFFFFFFFFFFFFFFFFFFFFFFFFFFFFF AND PUSH1 0x5 PUSH1 0x0 DUP6 PUSH20 0xFFFFFFFFFFFFFFFFFFFFFFFFFFFFFFFFFFFFFFFF AND PUSH20 0xFFFFFFFFFFFFFFFFFFFFFFFFFFFFFFFFFFFFFFFF AND DUP2 MSTORE PUSH1 0x20 ADD SWAP1 DUP2 MSTORE PUSH1 0x20 ADD PUSH1 0x0 KECCAK256 PUSH1 0x2 ADD PUSH1 0x0 SWAP1 SLOAD SWAP1 PUSH2 0x100 EXP SWAP1 DIV PUSH20 0xFFFFFFFFFFFFFFFFFFFFFFFFFFFFFFFFFFFFFFFF AND PUSH20 0xFFFFFFFFFFFFFFFFFFFFFFFFFFFFFFFFFFFFFFFF AND SUB PUSH2 0x1A2B JUMPI PUSH1 0x40 MLOAD PUSH32 0x8C379A000000000000000000000000000000000000000000000000000000000 DUP2 MSTORE PUSH1 0x4 ADD PUSH2 0x1A22 SWAP1 PUSH2 0x2A95 JUMP JUMPDEST PUSH1 0x40 MLOAD DUP1 SWAP2 SUB SWAP1 REVERT JUMPDEST PUSH1 0x5 PUSH1 0x0 DUP5 PUSH20 0xFFFFFFFFFFFFFFFFFFFFFFFFFFFFFFFFFFFFFFFF AND PUSH20 0xFFFFFFFFFFFFFFFFFFFFFFFFFFFFFFFFFFFFFFFF AND DUP2 MSTORE PUSH1 0x20 ADD SWAP1 DUP2 MSTORE PUSH1 0x20 ADD PUSH1 0x0 KECCAK256 PUSH1 0x6 PUSH1 0x0 DUP6 PUSH20 0xFFFFFFFFFFFFFFFFFFFFFFFFFFFFFFFFFFFFFFFF AND PUSH20 0xFFFFFFFFFFFFFFFFFFFFFFFFFFFFFFFFFFFFFFFF AND DUP2 MSTORE PUSH1 0x20 ADD SWAP1 DUP2 MSTORE PUSH1 0x20 ADD PUSH1 0x0 KECCAK256 PUSH1 0x0 DUP3 ADD DUP2 PUSH1 0x0 ADD SWAP1 DUP2 PUSH2 0x1ABD SWAP2 SWAP1 PUSH2 0x30E0 JUMP JUMPDEST POP PUSH1 0x1 DUP3 ADD DUP2 PUSH1 0x1 ADD SWAP1 DUP2 PUSH2 0x1AD2 SWAP2 SWAP1 PUSH2 0x30E0 JUMP JUMPDEST POP PUSH1 0x2 DUP3 ADD PUSH1 0x0 SWAP1 SLOAD SWAP1 PUSH2 0x100 EXP SWAP1 DIV PUSH20 0xFFFFFFFFFFFFFFFFFFFFFFFFFFFFFFFFFFFFFFFF AND DUP2 PUSH1 0x2 ADD PUSH1 0x0 PUSH2 0x100 EXP DUP2 SLOAD DUP2 PUSH20 0xFFFFFFFFFFFFFFFFFFFFFFFFFFFFFFFFFFFFFFFF MUL NOT AND SWAP1 DUP4 PUSH20 0xFFFFFFFFFFFFFFFFFFFFFFFFFFFFFFFFFFFFFFFF AND MUL OR SWAP1 SSTORE POP PUSH1 0x3 DUP3 ADD DUP2 PUSH1 0x3 ADD SWAP1 DUP1 SLOAD PUSH2 0x1B50 SWAP3 SWAP2 SWAP1 PUSH2 0x1D41 JUMP JUMPDEST POP PUSH1 0x4 DUP3 ADD PUSH1 0x0 SWAP1 SLOAD SWAP1 PUSH2 0x100 EXP SWAP1 DIV PUSH20 0xFFFFFFFFFFFFFFFFFFFFFFFFFFFFFFFFFFFFFFFF AND DUP2 PUSH1 0x4 ADD PUSH1 0x0 PUSH2 0x100 EXP DUP2 SLOAD DUP2 PUSH20 0xFFFFFFFFFFFFFFFFFFFFFFFFFFFFFFFFFFFFFFFF MUL NOT AND SWAP1 DUP4 PUSH20 0xFFFFFFFFFFFFFFFFFFFFFFFFFFFFFFFFFFFFFFFF AND MUL OR SWAP1 SSTORE POP SWAP1 POP POP DUP2 DUP2 PUSH1 0x6 PUSH1 0x0 DUP7 PUSH20 0xFFFFFFFFFFFFFFFFFFFFFFFFFFFFFFFFFFFFFFFF AND PUSH20 0xFFFFFFFFFFFFFFFFFFFFFFFFFFFFFFFFFFFFFFFF AND DUP2 MSTORE PUSH1 0x20 ADD SWAP1 DUP2 MSTORE PUSH1 0x20 ADD PUSH1 0x0 KECCAK256 PUSH1 0x3 ADD SWAP2 SWAP1 PUSH2 0x1C0C SWAP3 SWAP2 SWAP1 PUSH2 0x1D93 JUMP JUMPDEST POP POP POP POP JUMP JUMPDEST PUSH1 0x0 DUP1 PUSH1 0x0 SWAP1 POP JUMPDEST PUSH1 0x5 PUSH1 0x0 DUP6 PUSH20 0xFFFFFFFFFFFFFFFFFFFFFFFFFFFFFFFFFFFFFFFF AND PUSH20 0xFFFFFFFFFFFFFFFFFFFFFFFFFFFFFFFFFFFFFFFF AND DUP2 MSTORE PUSH1 0x20 ADD SWAP1 DUP2 MSTORE PUSH1 0x20 ADD PUSH1 0x0 KECCAK256 PUSH1 0x3 ADD DUP1 SLOAD SWAP1 POP DUP2 LT ISZERO PUSH2 0x1D35 JUMPI DUP3 PUSH20 0xFFFFFFFFFFFFFFFFFFFFFFFFFFFFFFFFFFFFFFFF AND PUSH1 0x5 PUSH1 0x0 DUP7 PUSH20 0xFFFFFFFFFFFFFFFFFFFFFFFFFFFFFFFFFFFFFFFF AND PUSH20 0xFFFFFFFFFFFFFFFFFFFFFFFFFFFFFFFFFFFFFFFF AND DUP2 MSTORE PUSH1 0x20 ADD SWAP1 DUP2 MSTORE PUSH1 0x20 ADD PUSH1 0x0 KECCAK256 PUSH1 0x3 ADD DUP3 DUP2 SLOAD DUP2 LT PUSH2 0x1CD2 JUMPI PUSH2 0x1CD1 PUSH2 0x2988 JUMP JUMPDEST JUMPDEST SWAP1 PUSH1 0x0 MSTORE PUSH1 0x20 PUSH1 0x0 KECCAK256 ADD PUSH1 0x0 SWAP1 SLOAD SWAP1 PUSH2 0x100 EXP SWAP1 DIV PUSH20 0xFFFFFFFFFFFFFFFFFFFFFFFFFFFFFFFFFFFFFFFF AND PUSH20 0xFFFFFFFFFFFFFFFFFFFFFFFFFFFFFFFFFFFFFFFF AND SUB PUSH2 0x1D22 JUMPI PUSH1 0x1 SWAP2 POP POP PUSH2 0x1D3B JUMP JUMPDEST DUP1 DUP1 PUSH2 0x1D2D SWAP1 PUSH2 0x2F18 JUMP JUMPDEST SWAP2 POP POP PUSH2 0x1C1A JUMP JUMPDEST POP PUSH1 0x0 SWAP1 POP JUMPDEST SWAP3 SWAP2 POP POP JUMP JUMPDEST DUP3 DUP1 SLOAD DUP3 DUP3 SSTORE SWAP1 PUSH1 0x0 MSTORE PUSH1 0x20 PUSH1 0x0 KECCAK256 SWAP1 DUP2 ADD SWAP3 DUP3 ISZERO PUSH2 0x1D82 JUMPI PUSH1 0x0 MSTORE PUSH1 0x20 PUSH1 0x0 KECCAK256 SWAP2 DUP3 ADD JUMPDEST DUP3 DUP2 GT ISZERO PUSH2 0x1D81 JUMPI DUP3 SLOAD DUP3 SSTORE SWAP2 PUSH1 0x1 ADD SWAP2 SWAP1 PUSH1 0x1 ADD SWAP1 PUSH2 0x1D66 JUMP JUMPDEST JUMPDEST POP SWAP1 POP PUSH2 0x1D8F SWAP2 SWAP1 PUSH2 0x1E33 JUMP JUMPDEST POP SWAP1 JUMP JUMPDEST DUP3 DUP1 SLOAD DUP3 DUP3 SSTORE SWAP1 PUSH1 0x0 MSTORE PUSH1 0x20 PUSH1 0x0 KECCAK256 SWAP1 DUP2 ADD SWAP3 DUP3 ISZERO PUSH2 0x1E22 JUMPI SWAP2 PUSH1 0x20 MUL DUP3 ADD JUMPDEST DUP3 DUP2 GT ISZERO PUSH2 0x1E21 JUMPI DUP3 CALLDATALOAD PUSH20 0xFFFFFFFFFFFFFFFFFFFFFFFFFFFFFFFFFFFFFFFF AND DUP3 PUSH1 0x0 PUSH2 0x100 EXP DUP2 SLOAD DUP2 PUSH20 0xFFFFFFFFFFFFFFFFFFFFFFFFFFFFFFFFFFFFFFFF MUL NOT AND SWAP1 DUP4 PUSH20 0xFFFFFFFFFFFFFFFFFFFFFFFFFFFFFFFFFFFFFFFF AND MUL OR SWAP1 SSTORE POP SWAP2 PUSH1 0x20 ADD SWAP2 SWAP1 PUSH1 0x1 ADD SWAP1 PUSH2 0x1DB3 JUMP JUMPDEST JUMPDEST POP SWAP1 POP PUSH2 0x1E2F SWAP2 SWAP1 PUSH2 0x1E33 JUMP JUMPDEST POP SWAP1 JUMP JUMPDEST JUMPDEST DUP1 DUP3 GT ISZERO PUSH2 0x1E4C JUMPI PUSH1 0x0 DUP2 PUSH1 0x0 SWAP1 SSTORE POP PUSH1 0x1 ADD PUSH2 0x1E34 JUMP JUMPDEST POP SWAP1 JUMP JUMPDEST PUSH1 0x0 PUSH1 0x40 MLOAD SWAP1 POP SWAP1 JUMP JUMPDEST PUSH1 0x0 DUP1 REVERT JUMPDEST PUSH1 0x0 DUP1 REVERT JUMPDEST PUSH1 0x0 DUP2 SWAP1 POP SWAP2 SWAP1 POP JUMP JUMPDEST PUSH2 0x1E77 DUP2 PUSH2 0x1E64 JUMP JUMPDEST DUP2 EQ PUSH2 0x1E82 JUMPI PUSH1 0x0 DUP1 REVERT JUMPDEST POP JUMP JUMPDEST PUSH1 0x0 DUP2 CALLDATALOAD SWAP1 POP PUSH2 0x1E94 DUP2 PUSH2 0x1E6E JUMP JUMPDEST SWAP3 SWAP2 POP POP JUMP JUMPDEST PUSH1 0x0 PUSH1 0x20 DUP3 DUP5 SUB SLT ISZERO PUSH2 0x1EB0 JUMPI PUSH2 0x1EAF PUSH2 0x1E5A JUMP JUMPDEST JUMPDEST PUSH1 0x0 PUSH2 0x1EBE DUP5 DUP3 DUP6 ADD PUSH2 0x1E85 JUMP JUMPDEST SWAP2 POP POP SWAP3 SWAP2 POP POP JUMP JUMPDEST PUSH1 0x0 DUP2 MLOAD SWAP1 POP SWAP2 SWAP1 POP JUMP JUMPDEST PUSH1 0x0 DUP3 DUP3 MSTORE PUSH1 0x20 DUP3 ADD SWAP1 POP SWAP3 SWAP2 POP POP JUMP JUMPDEST PUSH1 0x0 JUMPDEST DUP4 DUP2 LT ISZERO PUSH2 0x1F01 JUMPI DUP1 DUP3 ADD MLOAD DUP2 DUP5 ADD MSTORE PUSH1 0x20 DUP2 ADD SWAP1 POP PUSH2 0x1EE6 JUMP JUMPDEST PUSH1 0x0 DUP5 DUP5 ADD MSTORE POP POP POP POP JUMP JUMPDEST PUSH1 0x0 PUSH1 0x1F NOT PUSH1 0x1F DUP4 ADD AND SWAP1 POP SWAP2 SWAP1 POP JUMP JUMPDEST PUSH1 0x0 PUSH2 0x1F29 DUP3 PUSH2 0x1EC7 JUMP JUMPDEST PUSH2 0x1F33 DUP2 DUP6 PUSH2 0x1ED2 JUMP JUMPDEST SWAP4 POP PUSH2 0x1F43 DUP2 DUP6 PUSH1 0x20 DUP7 ADD PUSH2 0x1EE3 JUMP JUMPDEST PUSH2 0x1F4C DUP2 PUSH2 0x1F0D JUMP JUMPDEST DUP5 ADD SWAP2 POP POP SWAP3 SWAP2 POP POP JUMP JUMPDEST PUSH2 0x1F60 DUP2 PUSH2 0x1E64 JUMP JUMPDEST DUP3 MSTORE POP POP JUMP JUMPDEST PUSH1 0x0 PUSH1 0xE0 DUP3 ADD SWAP1 POP DUP2 DUP2 SUB PUSH1 0x0 DUP4 ADD MSTORE PUSH2 0x1F80 DUP2 DUP11 PUSH2 0x1F1E JUMP JUMPDEST SWAP1 POP PUSH2 0x1F8F PUSH1 0x20 DUP4 ADD DUP10 PUSH2 0x1F57 JUMP JUMPDEST PUSH2 0x1F9C PUSH1 0x40 DUP4 ADD DUP9 PUSH2 0x1F57 JUMP JUMPDEST PUSH2 0x1FA9 PUSH1 0x60 DUP4 ADD DUP8 PUSH2 0x1F57 JUMP JUMPDEST PUSH2 0x1FB6 PUSH1 0x80 DUP4 ADD DUP7 PUSH2 0x1F57 JUMP JUMPDEST DUP2 DUP2 SUB PUSH1 0xA0 DUP4 ADD MSTORE PUSH2 0x1FC8 DUP2 DUP6 PUSH2 0x1F1E JUMP JUMPDEST SWAP1 POP DUP2 DUP2 SUB PUSH1 0xC0 DUP4 ADD MSTORE PUSH2 0x1FDC DUP2 DUP5 PUSH2 0x1F1E JUMP JUMPDEST SWAP1 POP SWAP9 SWAP8 POP POP POP POP POP POP POP POP JUMP JUMPDEST PUSH1 0x0 DUP2 MLOAD SWAP1 POP SWAP2 SWAP1 POP JUMP JUMPDEST PUSH1 0x0 DUP3 DUP3 MSTORE PUSH1 0x20 DUP3 ADD SWAP1 POP SWAP3 SWAP2 POP POP JUMP JUMPDEST PUSH1 0x0 DUP2 SWAP1 POP PUSH1 0x20 DUP3 ADD SWAP1 POP SWAP2 SWAP1 POP JUMP JUMPDEST PUSH1 0x0 DUP3 DUP3 MSTORE PUSH1 0x20 DUP3 ADD SWAP1 POP SWAP3 SWAP2 POP POP JUMP JUMPDEST PUSH1 0x0 PUSH2 0x2032 DUP3 PUSH2 0x1EC7 JUMP JUMPDEST PUSH2 0x203C DUP2 DUP6 PUSH2 0x2016 JUMP JUMPDEST SWAP4 POP PUSH2 0x204C DUP2 DUP6 PUSH1 0x20 DUP7 ADD PUSH2 0x1EE3 JUMP JUMPDEST PUSH2 0x2055 DUP2 PUSH2 0x1F0D JUMP JUMPDEST DUP5 ADD SWAP2 POP POP SWAP3 SWAP2 POP POP JUMP JUMPDEST PUSH2 0x2069 DUP2 PUSH2 0x1E64 JUMP JUMPDEST DUP3 MSTORE POP POP JUMP JUMPDEST PUSH1 0x0 PUSH20 0xFFFFFFFFFFFFFFFFFFFFFFFFFFFFFFFFFFFFFFFF DUP3 AND SWAP1 POP SWAP2 SWAP1 POP JUMP JUMPDEST PUSH1 0x0 PUSH2 0x209A DUP3 PUSH2 0x206F JUMP JUMPDEST SWAP1 POP SWAP2 SWAP1 POP JUMP JUMPDEST PUSH2 0x20AA DUP2 PUSH2 0x208F JUMP JUMPDEST DUP3 MSTORE POP POP JUMP JUMPDEST PUSH1 0x0 PUSH1 0xA0 DUP4 ADD PUSH1 0x0 DUP4 ADD MLOAD DUP5 DUP3 SUB PUSH1 0x0 DUP7 ADD MSTORE PUSH2 0x20CD DUP3 DUP3 PUSH2 0x2027 JUMP JUMPDEST SWAP2 POP POP PUSH1 0x20 DUP4 ADD MLOAD DUP5 DUP3 SUB PUSH1 0x20 DUP7 ADD MSTORE PUSH2 0x20E7 DUP3 DUP3 PUSH2 0x2027 JUMP JUMPDEST SWAP2 POP POP PUSH1 0x40 DUP4 ADD MLOAD PUSH2 0x20FC PUSH1 0x40 DUP7 ADD DUP3 PUSH2 0x2060 JUMP JUMPDEST POP PUSH1 0x60 DUP4 ADD MLOAD PUSH2 0x210F PUSH1 0x60 DUP7 ADD DUP3 PUSH2 0x20A1 JUMP JUMPDEST POP PUSH1 0x80 DUP4 ADD MLOAD PUSH2 0x2122 PUSH1 0x80 DUP7 ADD DUP3 PUSH2 0x20A1 JUMP JUMPDEST POP DUP1 SWAP2 POP POP SWAP3 SWAP2 POP POP JUMP JUMPDEST PUSH1 0x0 PUSH2 0x2139 DUP4 DUP4 PUSH2 0x20B0 JUMP JUMPDEST SWAP1 POP SWAP3 SWAP2 POP POP JUMP JUMPDEST PUSH1 0x0 PUSH1 0x20 DUP3 ADD SWAP1 POP SWAP2 SWAP1 POP JUMP JUMPDEST PUSH1 0x0 PUSH2 0x2159 DUP3 PUSH2 0x1FEA JUMP JUMPDEST PUSH2 0x2163 DUP2 DUP6 PUSH2 0x1FF5 JUMP JUMPDEST SWAP4 POP DUP4 PUSH1 0x20 DUP3 MUL DUP6 ADD PUSH2 0x2175 DUP6 PUSH2 0x2006 JUMP JUMPDEST DUP1 PUSH1 0x0 JUMPDEST DUP6 DUP2 LT ISZERO PUSH2 0x21B1 JUMPI DUP5 DUP5 SUB DUP10 MSTORE DUP2 MLOAD PUSH2 0x2192 DUP6 DUP3 PUSH2 0x212D JUMP JUMPDEST SWAP5 POP PUSH2 0x219D DUP4 PUSH2 0x2141 JUMP JUMPDEST SWAP3 POP PUSH1 0x20 DUP11 ADD SWAP10 POP POP PUSH1 0x1 DUP2 ADD SWAP1 POP PUSH2 0x2179 JUMP JUMPDEST POP DUP3 SWAP8 POP DUP8 SWAP6 POP POP POP POP POP POP SWAP3 SWAP2 POP POP JUMP JUMPDEST PUSH1 0x0 PUSH1 0x20 DUP3 ADD SWAP1 POP DUP2 DUP2 SUB PUSH1 0x0 DUP4 ADD MSTORE PUSH2 0x21DD DUP2 DUP5 PUSH2 0x214E JUMP JUMPDEST SWAP1 POP SWAP3 SWAP2 POP POP JUMP JUMPDEST PUSH2 0x21EE DUP2 PUSH2 0x208F JUMP JUMPDEST DUP2 EQ PUSH2 0x21F9 JUMPI PUSH1 0x0 DUP1 REVERT JUMPDEST POP JUMP JUMPDEST PUSH1 0x0 DUP2 CALLDATALOAD SWAP1 POP PUSH2 0x220B DUP2 PUSH2 0x21E5 JUMP JUMPDEST SWAP3 SWAP2 POP POP JUMP JUMPDEST PUSH1 0x0 PUSH1 0x20 DUP3 DUP5 SUB SLT ISZERO PUSH2 0x2227 JUMPI PUSH2 0x2226 PUSH2 0x1E5A JUMP JUMPDEST JUMPDEST PUSH1 0x0 PUSH2 0x2235 DUP5 DUP3 DUP6 ADD PUSH2 0x21FC JUMP JUMPDEST SWAP2 POP POP SWAP3 SWAP2 POP POP JUMP JUMPDEST PUSH1 0x0 PUSH1 0x40 DUP3 ADD SWAP1 POP DUP2 DUP2 SUB PUSH1 0x0 DUP4 ADD MSTORE PUSH2 0x2258 DUP2 DUP6 PUSH2 0x1F1E JUMP JUMPDEST SWAP1 POP DUP2 DUP2 SUB PUSH1 0x20 DUP4 ADD MSTORE PUSH2 0x226C DUP2 DUP5 PUSH2 0x1F1E JUMP JUMPDEST SWAP1 POP SWAP4 SWAP3 POP POP POP JUMP JUMPDEST PUSH1 0x0 DUP1 REVERT JUMPDEST PUSH1 0x0 DUP1 REVERT JUMPDEST PUSH32 0x4E487B7100000000000000000000000000000000000000000000000000000000 PUSH1 0x0 MSTORE PUSH1 0x41 PUSH1 0x4 MSTORE PUSH1 0x24 PUSH1 0x0 REVERT JUMPDEST PUSH2 0x22B7 DUP3 PUSH2 0x1F0D JUMP JUMPDEST DUP2 ADD DUP2 DUP2 LT PUSH8 0xFFFFFFFFFFFFFFFF DUP3 GT OR ISZERO PUSH2 0x22D6 JUMPI PUSH2 0x22D5 PUSH2 0x227F JUMP JUMPDEST JUMPDEST DUP1 PUSH1 0x40 MSTORE POP POP POP JUMP JUMPDEST PUSH1 0x0 PUSH2 0x22E9 PUSH2 0x1E50 JUMP JUMPDEST SWAP1 POP PUSH2 0x22F5 DUP3 DUP3 PUSH2 0x22AE JUMP JUMPDEST SWAP2 SWAP1 POP JUMP JUMPDEST PUSH1 0x0 PUSH8 0xFFFFFFFFFFFFFFFF DUP3 GT ISZERO PUSH2 0x2315 JUMPI PUSH2 0x2314 PUSH2 0x227F JUMP JUMPDEST JUMPDEST PUSH2 0x231E DUP3 PUSH2 0x1F0D JUMP JUMPDEST SWAP1 POP PUSH1 0x20 DUP2 ADD SWAP1 POP SWAP2 SWAP1 POP JUMP JUMPDEST DUP3 DUP2 DUP4 CALLDATACOPY PUSH1 0x0 DUP4 DUP4 ADD MSTORE POP POP POP JUMP JUMPDEST PUSH1 0x0 PUSH2 0x234D PUSH2 0x2348 DUP5 PUSH2 0x22FA JUMP JUMPDEST PUSH2 0x22DF JUMP JUMPDEST SWAP1 POP DUP3 DUP2 MSTORE PUSH1 0x20 DUP2 ADD DUP5 DUP5 DUP5 ADD GT ISZERO PUSH2 0x2369 JUMPI PUSH2 0x2368 PUSH2 0x227A JUMP JUMPDEST JUMPDEST PUSH2 0x2374 DUP5 DUP3 DUP6 PUSH2 0x232B JUMP JUMPDEST POP SWAP4 SWAP3 POP POP POP JUMP JUMPDEST PUSH1 0x0 DUP3 PUSH1 0x1F DUP4 ADD SLT PUSH2 0x2391 JUMPI PUSH2 0x2390 PUSH2 0x2275 JUMP JUMPDEST JUMPDEST DUP2 CALLDATALOAD PUSH2 0x23A1 DUP5 DUP3 PUSH1 0x20 DUP7 ADD PUSH2 0x233A JUMP JUMPDEST SWAP2 POP POP SWAP3 SWAP2 POP POP JUMP JUMPDEST PUSH1 0x0 DUP1 PUSH1 0x0 PUSH1 0x60 DUP5 DUP7 SUB SLT ISZERO PUSH2 0x23C3 JUMPI PUSH2 0x23C2 PUSH2 0x1E5A JUMP JUMPDEST JUMPDEST PUSH1 0x0 DUP5 ADD CALLDATALOAD PUSH8 0xFFFFFFFFFFFFFFFF DUP2 GT ISZERO PUSH2 0x23E1 JUMPI PUSH2 0x23E0 PUSH2 0x1E5F JUMP JUMPDEST JUMPDEST PUSH2 0x23ED DUP7 DUP3 DUP8 ADD PUSH2 0x237C JUMP JUMPDEST SWAP4 POP POP PUSH1 0x20 DUP5 ADD CALLDATALOAD PUSH8 0xFFFFFFFFFFFFFFFF DUP2 GT ISZERO PUSH2 0x240E JUMPI PUSH2 0x240D PUSH2 0x1E5F JUMP JUMPDEST JUMPDEST PUSH2 0x241A DUP7 DUP3 DUP8 ADD PUSH2 0x237C JUMP JUMPDEST SWAP3 POP POP PUSH1 0x40 PUSH2 0x242B DUP7 DUP3 DUP8 ADD PUSH2 0x21FC JUMP JUMPDEST SWAP2 POP POP SWAP3 POP SWAP3 POP SWAP3 JUMP JUMPDEST PUSH1 0x0 DUP1 PUSH1 0x40 DUP4 DUP6 SUB SLT ISZERO PUSH2 0x244C JUMPI PUSH2 0x244B PUSH2 0x1E5A JUMP JUMPDEST JUMPDEST PUSH1 0x0 DUP4 ADD CALLDATALOAD PUSH8 0xFFFFFFFFFFFFFFFF DUP2 GT ISZERO PUSH2 0x246A JUMPI PUSH2 0x2469 PUSH2 0x1E5F JUMP JUMPDEST JUMPDEST PUSH2 0x2476 DUP6 DUP3 DUP7 ADD PUSH2 0x237C JUMP JUMPDEST SWAP3 POP POP PUSH1 0x20 PUSH2 0x2487 DUP6 DUP3 DUP7 ADD PUSH2 0x21FC JUMP JUMPDEST SWAP2 POP POP SWAP3 POP SWAP3 SWAP1 POP JUMP JUMPDEST PUSH1 0x0 DUP1 PUSH1 0x0 DUP1 PUSH1 0x0 DUP1 PUSH1 0x0 DUP1 PUSH2 0x100 DUP10 DUP12 SUB SLT ISZERO PUSH2 0x24B2 JUMPI PUSH2 0x24B1 PUSH2 0x1E5A JUMP JUMPDEST JUMPDEST PUSH1 0x0 DUP10 ADD CALLDATALOAD PUSH8 0xFFFFFFFFFFFFFFFF DUP2 GT ISZERO PUSH2 0x24D0 JUMPI PUSH2 0x24CF PUSH2 0x1E5F JUMP JUMPDEST JUMPDEST PUSH2 0x24DC DUP12 DUP3 DUP13 ADD PUSH2 0x237C JUMP JUMPDEST SWAP9 POP POP PUSH1 0x20 PUSH2 0x24ED DUP12 DUP3 DUP13 ADD PUSH2 0x1E85 JUMP JUMPDEST SWAP8 POP POP PUSH1 0x40 PUSH2 0x24FE DUP12 DUP3 DUP13 ADD PUSH2 0x1E85 JUMP JUMPDEST SWAP7 POP POP PUSH1 0x60 PUSH2 0x250F DUP12 DUP3 DUP13 ADD PUSH2 0x1E85 JUMP JUMPDEST SWAP6 POP POP PUSH1 0x80 PUSH2 0x2520 DUP12 DUP3 DUP13 ADD PUSH2 0x1E85 JUMP JUMPDEST SWAP5 POP POP PUSH1 0xA0 PUSH2 0x2531 DUP12 DUP3 DUP13 ADD PUSH2 0x1E85 JUMP JUMPDEST SWAP4 POP POP PUSH1 0xC0 DUP10 ADD CALLDATALOAD PUSH8 0xFFFFFFFFFFFFFFFF DUP2 GT ISZERO PUSH2 0x2552 JUMPI PUSH2 0x2551 PUSH2 0x1E5F JUMP JUMPDEST JUMPDEST PUSH2 0x255E DUP12 DUP3 DUP13 ADD PUSH2 0x237C JUMP JUMPDEST SWAP3 POP POP PUSH1 0xE0 DUP10 ADD CALLDATALOAD PUSH8 0xFFFFFFFFFFFFFFFF DUP2 GT ISZERO PUSH2 0x257F JUMPI PUSH2 0x257E PUSH2 0x1E5F JUMP JUMPDEST JUMPDEST PUSH2 0x258B DUP12 DUP3 DUP13 ADD PUSH2 0x237C JUMP JUMPDEST SWAP2 POP POP SWAP3 SWAP6 SWAP9 POP SWAP3 SWAP6 SWAP9 SWAP1 SWAP4 SWAP7 POP JUMP JUMPDEST PUSH1 0x0 DUP2 MLOAD SWAP1 POP SWAP2 SWAP1 POP JUMP JUMPDEST PUSH1 0x0 DUP3 DUP3 MSTORE PUSH1 0x20 DUP3 ADD SWAP1 POP SWAP3 SWAP2 POP POP JUMP JUMPDEST PUSH1 0x0 DUP2 SWAP1 POP PUSH1 0x20 DUP3 ADD SWAP1 POP SWAP2 SWAP1 POP JUMP JUMPDEST PUSH1 0x0 PUSH2 0x25D3 DUP4 DUP4 PUSH2 0x20A1 JUMP JUMPDEST PUSH1 0x20 DUP4 ADD SWAP1 POP SWAP3 SWAP2 POP POP JUMP JUMPDEST PUSH1 0x0 PUSH1 0x20 DUP3 ADD SWAP1 POP SWAP2 SWAP1 POP JUMP JUMPDEST PUSH1 0x0 PUSH2 0x25F7 DUP3 PUSH2 0x259B JUMP JUMPDEST PUSH2 0x2601 DUP2 DUP6 PUSH2 0x25A6 JUMP JUMPDEST SWAP4 POP PUSH2 0x260C DUP4 PUSH2 0x25B7 JUMP JUMPDEST DUP1 PUSH1 0x0 JUMPDEST DUP4 DUP2 LT ISZERO PUSH2 0x263D JUMPI DUP2 MLOAD PUSH2 0x2624 DUP9 DUP3 PUSH2 0x25C7 JUMP JUMPDEST SWAP8 POP PUSH2 0x262F DUP4 PUSH2 0x25DF JUMP JUMPDEST SWAP3 POP POP PUSH1 0x1 DUP2 ADD SWAP1 POP PUSH2 0x2610 JUMP JUMPDEST POP DUP6 SWAP4 POP POP POP POP SWAP3 SWAP2 POP POP JUMP JUMPDEST PUSH1 0x0 PUSH1 0x20 DUP3 ADD SWAP1 POP DUP2 DUP2 SUB PUSH1 0x0 DUP4 ADD MSTORE PUSH2 0x2664 DUP2 DUP5 PUSH2 0x25EC JUMP JUMPDEST SWAP1 POP SWAP3 SWAP2 POP POP JUMP JUMPDEST PUSH1 0x0 DUP1 REVERT JUMPDEST PUSH1 0x0 DUP1 REVERT JUMPDEST PUSH1 0x0 DUP1 DUP4 PUSH1 0x1F DUP5 ADD SLT PUSH2 0x268C JUMPI PUSH2 0x268B PUSH2 0x2275 JUMP JUMPDEST JUMPDEST DUP3 CALLDATALOAD SWAP1 POP PUSH8 0xFFFFFFFFFFFFFFFF DUP2 GT ISZERO PUSH2 0x26A9 JUMPI PUSH2 0x26A8 PUSH2 0x266C JUMP JUMPDEST JUMPDEST PUSH1 0x20 DUP4 ADD SWAP2 POP DUP4 PUSH1 0x20 DUP3 MUL DUP4 ADD GT ISZERO PUSH2 0x26C5 JUMPI PUSH2 0x26C4 PUSH2 0x2671 JUMP JUMPDEST JUMPDEST SWAP3 POP SWAP3 SWAP1 POP JUMP JUMPDEST PUSH1 0x0 DUP1 PUSH1 0x0 PUSH1 0x40 DUP5 DUP7 SUB SLT ISZERO PUSH2 0x26E5 JUMPI PUSH2 0x26E4 PUSH2 0x1E5A JUMP JUMPDEST JUMPDEST PUSH1 0x0 PUSH2 0x26F3 DUP7 DUP3 DUP8 ADD PUSH2 0x21FC JUMP JUMPDEST SWAP4 POP POP PUSH1 0x20 DUP5 ADD CALLDATALOAD PUSH8 0xFFFFFFFFFFFFFFFF DUP2 GT ISZERO PUSH2 0x2714 JUMPI PUSH2 0x2713 PUSH2 0x1E5F JUMP JUMPDEST JUMPDEST PUSH2 0x2720 DUP7 DUP3 DUP8 ADD PUSH2 0x2676 JUMP JUMPDEST SWAP3 POP SWAP3 POP POP SWAP3 POP SWAP3 POP SWAP3 JUMP JUMPDEST PUSH32 0x596F752063616E206F6E6C792061636365737320796F7572206F776E20726563 PUSH1 0x0 DUP3 ADD MSTORE PUSH32 0x6F72647300000000000000000000000000000000000000000000000000000000 PUSH1 0x20 DUP3 ADD MSTORE POP JUMP JUMPDEST PUSH1 0x0 PUSH2 0x2788 PUSH1 0x24 DUP4 PUSH2 0x1ED2 JUMP JUMPDEST SWAP2 POP PUSH2 0x2793 DUP3 PUSH2 0x272C JUMP JUMPDEST PUSH1 0x40 DUP3 ADD SWAP1 POP SWAP2 SWAP1 POP JUMP JUMPDEST PUSH1 0x0 PUSH1 0x20 DUP3 ADD SWAP1 POP DUP2 DUP2 SUB PUSH1 0x0 DUP4 ADD MSTORE PUSH2 0x27B7 DUP2 PUSH2 0x277B JUMP JUMPDEST SWAP1 POP SWAP2 SWAP1 POP JUMP JUMPDEST PUSH32 0x4E487B7100000000000000000000000000000000000000000000000000000000 PUSH1 0x0 MSTORE PUSH1 0x22 PUSH1 0x4 MSTORE PUSH1 0x24 PUSH1 0x0 REVERT JUMPDEST PUSH1 0x0 PUSH1 0x2 DUP3 DIV SWAP1 POP PUSH1 0x1 DUP3 AND DUP1 PUSH2 0x2805 JUMPI PUSH1 0x7F DUP3 AND SWAP2 POP JUMPDEST PUSH1 0x20 DUP3 LT DUP2 SUB PUSH2 0x2818 JUMPI PUSH2 0x2817 PUSH2 0x27BE JUMP JUMPDEST JUMPDEST POP SWAP2 SWAP1 POP JUMP JUMPDEST PUSH32 0x4E6F20646F63746F727320726567697374657265642079657400000000000000 PUSH1 0x0 DUP3 ADD MSTORE POP JUMP JUMPDEST PUSH1 0x0 PUSH2 0x2854 PUSH1 0x19 DUP4 PUSH2 0x1ED2 JUMP JUMPDEST SWAP2 POP PUSH2 0x285F DUP3 PUSH2 0x281E JUMP JUMPDEST PUSH1 0x20 DUP3 ADD SWAP1 POP SWAP2 SWAP1 POP JUMP JUMPDEST PUSH1 0x0 PUSH1 0x20 DUP3 ADD SWAP1 POP DUP2 DUP2 SUB PUSH1 0x0 DUP4 ADD MSTORE PUSH2 0x2883 DUP2 PUSH2 0x2847 JUMP JUMPDEST SWAP1 POP SWAP2 SWAP1 POP JUMP JUMPDEST PUSH32 0x496E76616C696420646F63746F72206164647265737300000000000000000000 PUSH1 0x0 DUP3 ADD MSTORE POP JUMP JUMPDEST PUSH1 0x0 PUSH2 0x28C0 PUSH1 0x16 DUP4 PUSH2 0x1ED2 JUMP JUMPDEST SWAP2 POP PUSH2 0x28CB DUP3 PUSH2 0x288A JUMP JUMPDEST PUSH1 0x20 DUP3 ADD SWAP1 POP SWAP2 SWAP1 POP JUMP JUMPDEST PUSH1 0x0 PUSH1 0x20 DUP3 ADD SWAP1 POP DUP2 DUP2 SUB PUSH1 0x0 DUP4 ADD MSTORE PUSH2 0x28EF DUP2 PUSH2 0x28B3 JUMP JUMPDEST SWAP1 POP SWAP2 SWAP1 POP JUMP JUMPDEST PUSH32 0x446F63746F72206D757374206265206173736F63696174656420776974682061 PUSH1 0x0 DUP3 ADD MSTORE PUSH32 0x74206C65617374206F6E6520686F73706974616C000000000000000000000000 PUSH1 0x20 DUP3 ADD MSTORE POP JUMP JUMPDEST PUSH1 0x0 PUSH2 0x2952 PUSH1 0x34 DUP4 PUSH2 0x1ED2 JUMP JUMPDEST SWAP2 POP PUSH2 0x295D DUP3 PUSH2 0x28F6 JUMP JUMPDEST PUSH1 0x40 DUP3 ADD SWAP1 POP SWAP2 SWAP1 POP JUMP JUMPDEST PUSH1 0x0 PUSH1 0x20 DUP3 ADD SWAP1 POP DUP2 DUP2 SUB PUSH1 0x0 DUP4 ADD MSTORE PUSH2 0x2981 DUP2 PUSH2 0x2945 JUMP JUMPDEST SWAP1 POP SWAP2 SWAP1 POP JUMP JUMPDEST PUSH32 0x4E487B7100000000000000000000000000000000000000000000000000000000 PUSH1 0x0 MSTORE PUSH1 0x32 PUSH1 0x4 MSTORE PUSH1 0x24 PUSH1 0x0 REVERT JUMPDEST PUSH32 0x4F6E6C7920646F63746F7273206F6620746865206F7267616E697A6174696F6E PUSH1 0x0 DUP3 ADD MSTORE PUSH32 0x2063616E20706572666F726D207468697320616374696F6E0000000000000000 PUSH1 0x20 DUP3 ADD MSTORE POP JUMP JUMPDEST PUSH1 0x0 PUSH2 0x2A13 PUSH1 0x38 DUP4 PUSH2 0x1ED2 JUMP JUMPDEST SWAP2 POP PUSH2 0x2A1E DUP3 PUSH2 0x29B7 JUMP JUMPDEST PUSH1 0x40 DUP3 ADD SWAP1 POP SWAP2 SWAP1 POP JUMP JUMPDEST PUSH1 0x0 PUSH1 0x20 DUP3 ADD SWAP1 POP DUP2 DUP2 SUB PUSH1 0x0 DUP4 ADD MSTORE PUSH2 0x2A42 DUP2 PUSH2 0x2A06 JUMP JUMPDEST SWAP1 POP SWAP2 SWAP1 POP JUMP JUMPDEST PUSH32 0x446F63746F72206E6F7420666F756E6420696E2067656E6572616C206C697374 PUSH1 0x0 DUP3 ADD MSTORE POP JUMP JUMPDEST PUSH1 0x0 PUSH2 0x2A7F PUSH1 0x20 DUP4 PUSH2 0x1ED2 JUMP JUMPDEST SWAP2 POP PUSH2 0x2A8A DUP3 PUSH2 0x2A49 JUMP JUMPDEST PUSH1 0x20 DUP3 ADD SWAP1 POP SWAP2 SWAP1 POP JUMP JUMPDEST PUSH1 0x0 PUSH1 0x20 DUP3 ADD SWAP1 POP DUP2 DUP2 SUB PUSH1 0x0 DUP4 ADD MSTORE PUSH2 0x2AAE DUP2 PUSH2 0x2A72 JUMP JUMPDEST SWAP1 POP SWAP2 SWAP1 POP JUMP JUMPDEST PUSH32 0x446F63746F72206E6F74206173736F6369617465642077697468207468697320 PUSH1 0x0 DUP3 ADD MSTORE PUSH32 0x686F73706974616C000000000000000000000000000000000000000000000000 PUSH1 0x20 DUP3 ADD MSTORE POP JUMP JUMPDEST PUSH1 0x0 PUSH2 0x2B11 PUSH1 0x28 DUP4 PUSH2 0x1ED2 JUMP JUMPDEST SWAP2 POP PUSH2 0x2B1C DUP3 PUSH2 0x2AB5 JUMP JUMPDEST PUSH1 0x40 DUP3 ADD SWAP1 POP SWAP2 SWAP1 POP JUMP JUMPDEST PUSH1 0x0 PUSH1 0x20 DUP3 ADD SWAP1 POP DUP2 DUP2 SUB PUSH1 0x0 DUP4 ADD MSTORE PUSH2 0x2B40 DUP2 PUSH2 0x2B04 JUMP JUMPDEST SWAP1 POP SWAP2 SWAP1 POP JUMP JUMPDEST PUSH32 0x446F63746F72206973206E6F74206173736F6369617465642077697468207468 PUSH1 0x0 DUP3 ADD MSTORE PUSH32 0x6520686F73706974616C00000000000000000000000000000000000000000000 PUSH1 0x20 DUP3 ADD MSTORE POP JUMP JUMPDEST PUSH1 0x0 PUSH2 0x2BA3 PUSH1 0x2A DUP4 PUSH2 0x1ED2 JUMP JUMPDEST SWAP2 POP PUSH2 0x2BAE DUP3 PUSH2 0x2B47 JUMP JUMPDEST PUSH1 0x40 DUP3 ADD SWAP1 POP SWAP2 SWAP1 POP JUMP JUMPDEST PUSH1 0x0 PUSH1 0x20 DUP3 ADD SWAP1 POP DUP2 DUP2 SUB PUSH1 0x0 DUP4 ADD MSTORE PUSH2 0x2BD2 DUP2 PUSH2 0x2B96 JUMP JUMPDEST SWAP1 POP SWAP2 SWAP1 POP JUMP JUMPDEST PUSH32 0x4F6E6C792061646D696E2063616E20706572666F726D20746869732061637469 PUSH1 0x0 DUP3 ADD MSTORE PUSH32 0x6F6E000000000000000000000000000000000000000000000000000000000000 PUSH1 0x20 DUP3 ADD MSTORE POP JUMP JUMPDEST PUSH1 0x0 PUSH2 0x2C35 PUSH1 0x22 DUP4 PUSH2 0x1ED2 JUMP JUMPDEST SWAP2 POP PUSH2 0x2C40 DUP3 PUSH2 0x2BD9 JUMP JUMPDEST PUSH1 0x40 DUP3 ADD SWAP1 POP SWAP2 SWAP1 POP JUMP JUMPDEST PUSH1 0x0 PUSH1 0x20 DUP3 ADD SWAP1 POP DUP2 DUP2 SUB PUSH1 0x0 DUP4 ADD MSTORE PUSH2 0x2C64 DUP2 PUSH2 0x2C28 JUMP JUMPDEST SWAP1 POP SWAP2 SWAP1 POP JUMP JUMPDEST PUSH1 0x0 DUP2 SWAP1 POP DUP2 PUSH1 0x0 MSTORE PUSH1 0x20 PUSH1 0x0 KECCAK256 SWAP1 POP SWAP2 SWAP1 POP JUMP JUMPDEST PUSH1 0x0 PUSH1 0x20 PUSH1 0x1F DUP4 ADD DIV SWAP1 POP SWAP2 SWAP1 POP JUMP JUMPDEST PUSH1 0x0 DUP3 DUP3 SHL SWAP1 POP SWAP3 SWAP2 POP POP JUMP JUMPDEST PUSH1 0x0 PUSH1 0x8 DUP4 MUL PUSH2 0x2CCD PUSH32 0xFFFFFFFFFFFFFFFFFFFFFFFFFFFFFFFFFFFFFFFFFFFFFFFFFFFFFFFFFFFFFFFF DUP3 PUSH2 0x2C90 JUMP JUMPDEST PUSH2 0x2CD7 DUP7 DUP4 PUSH2 0x2C90 JUMP JUMPDEST SWAP6 POP DUP1 NOT DUP5 AND SWAP4 POP DUP1 DUP7 AND DUP5 OR SWAP3 POP POP POP SWAP4 SWAP3 POP POP POP JUMP JUMPDEST PUSH1 0x0 DUP2 SWAP1 POP SWAP2 SWAP1 POP JUMP JUMPDEST PUSH1 0x0 PUSH2 0x2D14 PUSH2 0x2D0F PUSH2 0x2D0A DUP5 PUSH2 0x1E64 JUMP JUMPDEST PUSH2 0x2CEF JUMP JUMPDEST PUSH2 0x1E64 JUMP JUMPDEST SWAP1 POP SWAP2 SWAP1 POP JUMP JUMPDEST PUSH1 0x0 DUP2 SWAP1 POP SWAP2 SWAP1 POP JUMP JUMPDEST PUSH2 0x2D2E DUP4 PUSH2 0x2CF9 JUMP JUMPDEST PUSH2 0x2D42 PUSH2 0x2D3A DUP3 PUSH2 0x2D1B JUMP JUMPDEST DUP5 DUP5 SLOAD PUSH2 0x2C9D JUMP JUMPDEST DUP3 SSTORE POP POP POP POP JUMP JUMPDEST PUSH1 0x0 SWAP1 JUMP JUMPDEST PUSH2 0x2D57 PUSH2 0x2D4A JUMP JUMPDEST PUSH2 0x2D62 DUP2 DUP5 DUP5 PUSH2 0x2D25 JUMP JUMPDEST POP POP POP JUMP JUMPDEST JUMPDEST DUP2 DUP2 LT ISZERO PUSH2 0x2D86 JUMPI PUSH2 0x2D7B PUSH1 0x0 DUP3 PUSH2 0x2D4F JUMP JUMPDEST PUSH1 0x1 DUP2 ADD SWAP1 POP PUSH2 0x2D68 JUMP JUMPDEST POP POP JUMP JUMPDEST PUSH1 0x1F DUP3 GT ISZERO PUSH2 0x2DCB JUMPI PUSH2 0x2D9C DUP2 PUSH2 0x2C6B JUMP JUMPDEST PUSH2 0x2DA5 DUP5 PUSH2 0x2C80 JUMP JUMPDEST DUP2 ADD PUSH1 0x20 DUP6 LT ISZERO PUSH2 0x2DB4 JUMPI DUP2 SWAP1 POP JUMPDEST PUSH2 0x2DC8 PUSH2 0x2DC0 DUP6 PUSH2 0x2C80 JUMP JUMPDEST DUP4 ADD DUP3 PUSH2 0x2D67 JUMP JUMPDEST POP POP JUMPDEST POP POP POP JUMP JUMPDEST PUSH1 0x0 DUP3 DUP3 SHR SWAP1 POP SWAP3 SWAP2 POP POP JUMP JUMPDEST PUSH1 0x0 PUSH2 0x2DEE PUSH1 0x0 NOT DUP5 PUSH1 0x8 MUL PUSH2 0x2DD0 JUMP JUMPDEST NOT DUP1 DUP4 AND SWAP2 POP POP SWAP3 SWAP2 POP POP JUMP JUMPDEST PUSH1 0x0 PUSH2 0x2E07 DUP4 DUP4 PUSH2 0x2DDD JUMP JUMPDEST SWAP2 POP DUP3 PUSH1 0x2 MUL DUP3 OR SWAP1 POP SWAP3 SWAP2 POP POP JUMP JUMPDEST PUSH2 0x2E20 DUP3 PUSH2 0x1EC7 JUMP JUMPDEST PUSH8 0xFFFFFFFFFFFFFFFF DUP2 GT ISZERO PUSH2 0x2E39 JUMPI PUSH2 0x2E38 PUSH2 0x227F JUMP JUMPDEST JUMPDEST PUSH2 0x2E43 DUP3 SLOAD PUSH2 0x27ED JUMP JUMPDEST PUSH2 0x2E4E DUP3 DUP3 DUP6 PUSH2 0x2D8A JUMP JUMPDEST PUSH1 0x0 PUSH1 0x20 SWAP1 POP PUSH1 0x1F DUP4 GT PUSH1 0x1 DUP2 EQ PUSH2 0x2E81 JUMPI PUSH1 0x0 DUP5 ISZERO PUSH2 0x2E6F JUMPI DUP3 DUP8 ADD MLOAD SWAP1 POP JUMPDEST PUSH2 0x2E79 DUP6 DUP3 PUSH2 0x2DFB JUMP JUMPDEST DUP7 SSTORE POP PUSH2 0x2EE1 JUMP JUMPDEST PUSH1 0x1F NOT DUP5 AND PUSH2 0x2E8F DUP7 PUSH2 0x2C6B JUMP JUMPDEST PUSH1 0x0 JUMPDEST DUP3 DUP2 LT ISZERO PUSH2 0x2EB7 JUMPI DUP5 DUP10 ADD MLOAD DUP3 SSTORE PUSH1 0x1 DUP3 ADD SWAP2 POP PUSH1 0x20 DUP6 ADD SWAP5 POP PUSH1 0x20 DUP2 ADD SWAP1 POP PUSH2 0x2E92 JUMP JUMPDEST DUP7 DUP4 LT ISZERO PUSH2 0x2ED4 JUMPI DUP5 DUP10 ADD MLOAD PUSH2 0x2ED0 PUSH1 0x1F DUP10 AND DUP3 PUSH2 0x2DDD JUMP JUMPDEST DUP4 SSTORE POP JUMPDEST PUSH1 0x1 PUSH1 0x2 DUP9 MUL ADD DUP9 SSTORE POP POP POP JUMPDEST POP POP POP POP POP POP JUMP JUMPDEST PUSH32 0x4E487B7100000000000000000000000000000000000000000000000000000000 PUSH1 0x0 MSTORE PUSH1 0x11 PUSH1 0x4 MSTORE PUSH1 0x24 PUSH1 0x0 REVERT JUMPDEST PUSH1 0x0 PUSH2 0x2F23 DUP3 PUSH2 0x1E64 JUMP JUMPDEST SWAP2 POP PUSH32 0xFFFFFFFFFFFFFFFFFFFFFFFFFFFFFFFFFFFFFFFFFFFFFFFFFFFFFFFFFFFFFFFF DUP3 SUB PUSH2 0x2F55 JUMPI PUSH2 0x2F54 PUSH2 0x2EE9 JUMP JUMPDEST JUMPDEST PUSH1 0x1 DUP3 ADD SWAP1 POP SWAP2 SWAP1 POP JUMP JUMPDEST PUSH32 0x496E76616C69642070617469656E742064657461696C73000000000000000000 PUSH1 0x0 DUP3 ADD MSTORE POP JUMP JUMPDEST PUSH1 0x0 PUSH2 0x2F96 PUSH1 0x17 DUP4 PUSH2 0x1ED2 JUMP JUMPDEST SWAP2 POP PUSH2 0x2FA1 DUP3 PUSH2 0x2F60 JUMP JUMPDEST PUSH1 0x20 DUP3 ADD SWAP1 POP SWAP2 SWAP1 POP JUMP JUMPDEST PUSH1 0x0 PUSH1 0x20 DUP3 ADD SWAP1 POP DUP2 DUP2 SUB PUSH1 0x0 DUP4 ADD MSTORE PUSH2 0x2FC5 DUP2 PUSH2 0x2F89 JUMP JUMPDEST SWAP1 POP SWAP2 SWAP1 POP JUMP JUMPDEST PUSH32 0x50617469656E7420616C72656164792072656769737465726564000000000000 PUSH1 0x0 DUP3 ADD MSTORE POP JUMP JUMPDEST PUSH1 0x0 PUSH2 0x3002 PUSH1 0x1A DUP4 PUSH2 0x1ED2 JUMP JUMPDEST SWAP2 POP PUSH2 0x300D DUP3 PUSH2 0x2FCC JUMP JUMPDEST PUSH1 0x20 DUP3 ADD SWAP1 POP SWAP2 SWAP1 POP JUMP JUMPDEST PUSH1 0x0 PUSH1 0x20 DUP3 ADD SWAP1 POP DUP2 DUP2 SUB PUSH1 0x0 DUP4 ADD MSTORE PUSH2 0x3031 DUP2 PUSH2 0x2FF5 JUMP JUMPDEST SWAP1 POP SWAP2 SWAP1 POP JUMP JUMPDEST PUSH32 0x4F6E6C79206F7267616E697A6174696F6E206D656D626572732063616E207065 PUSH1 0x0 DUP3 ADD MSTORE PUSH32 0x72666F726D207468697320616374696F6E000000000000000000000000000000 PUSH1 0x20 DUP3 ADD MSTORE POP JUMP JUMPDEST PUSH1 0x0 PUSH2 0x3094 PUSH1 0x31 DUP4 PUSH2 0x1ED2 JUMP JUMPDEST SWAP2 POP PUSH2 0x309F DUP3 PUSH2 0x3038 JUMP JUMPDEST PUSH1 0x40 DUP3 ADD SWAP1 POP SWAP2 SWAP1 POP JUMP JUMPDEST PUSH1 0x0 PUSH1 0x20 DUP3 ADD SWAP1 POP DUP2 DUP2 SUB PUSH1 0x0 DUP4 ADD MSTORE PUSH2 0x30C3 DUP2 PUSH2 0x3087 JUMP JUMPDEST SWAP1 POP SWAP2 SWAP1 POP JUMP JUMPDEST PUSH1 0x0 DUP2 SLOAD SWAP1 POP PUSH2 0x30D9 DUP2 PUSH2 0x27ED JUMP JUMPDEST SWAP1 POP SWAP2 SWAP1 POP JUMP JUMPDEST DUP2 DUP2 SUB PUSH2 0x30EE JUMPI POP POP PUSH2 0x31C6 JUMP JUMPDEST PUSH2 0x30F7 DUP3 PUSH2 0x30CA JUMP JUMPDEST PUSH8 0xFFFFFFFFFFFFFFFF DUP2 GT ISZERO PUSH2 0x3110 JUMPI PUSH2 0x310F PUSH2 0x227F JUMP JUMPDEST JUMPDEST PUSH2 0x311A DUP3 SLOAD PUSH2 0x27ED JUMP JUMPDEST PUSH2 0x3125 DUP3 DUP3 DUP6 PUSH2 0x2D8A JUMP JUMPDEST PUSH1 0x0 PUSH1 0x1F DUP4 GT PUSH1 0x1 DUP2 EQ PUSH2 0x3154 JUMPI PUSH1 0x0 DUP5 ISZERO PUSH2 0x3142 JUMPI DUP3 DUP8 ADD SLOAD SWAP1 POP JUMPDEST PUSH2 0x314C DUP6 DUP3 PUSH2 0x2DFB JUMP JUMPDEST DUP7 SSTORE POP PUSH2 0x31BF JUMP JUMPDEST PUSH1 0x1F NOT DUP5 AND PUSH2 0x3162 DUP8 PUSH2 0x2C6B JUMP JUMPDEST SWAP7 POP PUSH2 0x316D DUP7 PUSH2 0x2C6B JUMP JUMPDEST PUSH1 0x0 JUMPDEST DUP3 DUP2 LT ISZERO PUSH2 0x3195 JUMPI DUP5 DUP10 ADD SLOAD DUP3 SSTORE PUSH1 0x1 DUP3 ADD SWAP2 POP PUSH1 0x1 DUP6 ADD SWAP5 POP PUSH1 0x20 DUP2 ADD SWAP1 POP PUSH2 0x3170 JUMP JUMPDEST DUP7 DUP4 LT ISZERO PUSH2 0x31B2 JUMPI DUP5 DUP10 ADD SLOAD PUSH2 0x31AE PUSH1 0x1F DUP10 AND DUP3 PUSH2 0x2DDD JUMP JUMPDEST DUP4 SSTORE POP JUMPDEST PUSH1 0x1 PUSH1 0x2 DUP9 MUL ADD DUP9 SSTORE POP POP POP JUMPDEST POP POP POP POP POP POP JUMPDEST JUMP INVALID LOG2 PUSH5 0x6970667358 0x22 SLT KECCAK256 PUSH16 0xDEB2449FF89185C0DAB97E32A8F38D81 0x4F DUP5 PUSH25 0xC840C93BA96A784CAF9BC68264736F6C634300081200330000 "
				},
				"gasEstimates": {
					"creation": {
						"codeDepositCost": "2559600",
						"executionCost": "42071",
						"totalCost": "2601671"
					},
					"external": {
						"addDoctor(string,string,address)": "infinite",
						"addDoctorToHospital(address,address[])": "infinite",
						"addOrganization(string,address)": "infinite",
						"associateDoctorWithHospital(address)": "60531",
						"chooseHospital(address)": "infinite",
						"displayDoctor(address)": "infinite",
						"getDoctorAssociatedHospitals()": "infinite",
						"getPatientDetails(uint256)": "infinite",
						"getPatientMedicalRecords(uint256)": "infinite",
						"registerPatient(string,uint256,uint256,uint256,uint256,uint256,string,string)": "infinite"
					},
					"internal": {
						"isDoctorAssociatedWithHospital(address,address)": "infinite"
					}
				},
				"methodIdentifiers": {
					"addDoctor(string,string,address)": "76017e5e",
					"addDoctorToHospital(address,address[])": "f3c894d6",
					"addOrganization(string,address)": "9475c163",
					"associateDoctorWithHospital(address)": "4b485bf4",
					"chooseHospital(address)": "4949e03e",
					"displayDoctor(address)": "3772b992",
					"getDoctorAssociatedHospitals()": "b333c308",
					"getPatientDetails(uint256)": "300c601c",
					"getPatientMedicalRecords(uint256)": "32092bab",
					"registerPatient(string,uint256,uint256,uint256,uint256,uint256,string,string)": "aabaa4ff"
				}
			},
			"storageLayout": {
				"storage": [
					{
						"astId": 3,
						"contract": "ehr.sol:EHRSystem",
						"label": "admin",
						"offset": 0,
						"slot": "0",
						"type": "t_address"
					},
					{
						"astId": 5,
						"contract": "ehr.sol:EHRSystem",
						"label": "organizationCount",
						"offset": 0,
						"slot": "1",
						"type": "t_uint256"
					},
					{
						"astId": 7,
						"contract": "ehr.sol:EHRSystem",
						"label": "doctorCount",
						"offset": 0,
						"slot": "2",
						"type": "t_uint256"
					},
					{
						"astId": 9,
						"contract": "ehr.sol:EHRSystem",
						"label": "patientCount",
						"offset": 0,
						"slot": "3",
						"type": "t_uint256"
					},
					{
						"astId": 67,
						"contract": "ehr.sol:EHRSystem",
						"label": "organizations",
						"offset": 0,
						"slot": "4",
						"type": "t_mapping(t_address,t_struct(Organization)22_storage)"
					},
					{
						"astId": 72,
						"contract": "ehr.sol:EHRSystem",
						"label": "doctors",
						"offset": 0,
						"slot": "5",
						"type": "t_mapping(t_address,t_struct(Doctor)34_storage)"
					},
					{
						"astId": 77,
						"contract": "ehr.sol:EHRSystem",
						"label": "hospitalDoctors",
						"offset": 0,
						"slot": "6",
						"type": "t_mapping(t_address,t_struct(Doctor)34_storage)"
					},
					{
						"astId": 82,
						"contract": "ehr.sol:EHRSystem",
						"label": "patients",
						"offset": 0,
						"slot": "7",
						"type": "t_mapping(t_uint256,t_struct(Patient)51_storage)"
					},
					{
						"astId": 86,
						"contract": "ehr.sol:EHRSystem",
						"label": "aadharToPatient",
						"offset": 0,
						"slot": "8",
						"type": "t_mapping(t_uint256,t_address)"
					},
					{
						"astId": 94,
						"contract": "ehr.sol:EHRSystem",
						"label": "patientMedicalRecords",
						"offset": 0,
						"slot": "9",
						"type": "t_mapping(t_uint256,t_mapping(t_address,t_array(t_struct(MedicalRecord)62_storage)dyn_storage))"
					}
				],
				"types": {
					"t_address": {
						"encoding": "inplace",
						"label": "address",
						"numberOfBytes": "20"
					},
					"t_array(t_address)dyn_storage": {
						"base": "t_address",
						"encoding": "dynamic_array",
						"label": "address[]",
						"numberOfBytes": "32"
					},
					"t_array(t_struct(MedicalRecord)62_storage)dyn_storage": {
						"base": "t_struct(MedicalRecord)62_storage",
						"encoding": "dynamic_array",
						"label": "struct EHRSystem.MedicalRecord[]",
						"numberOfBytes": "32"
					},
					"t_bool": {
						"encoding": "inplace",
						"label": "bool",
						"numberOfBytes": "1"
					},
					"t_mapping(t_address,t_array(t_struct(MedicalRecord)62_storage)dyn_storage)": {
						"encoding": "mapping",
						"key": "t_address",
						"label": "mapping(address => struct EHRSystem.MedicalRecord[])",
						"numberOfBytes": "32",
						"value": "t_array(t_struct(MedicalRecord)62_storage)dyn_storage"
					},
					"t_mapping(t_address,t_bool)": {
						"encoding": "mapping",
						"key": "t_address",
						"label": "mapping(address => bool)",
						"numberOfBytes": "32",
						"value": "t_bool"
					},
					"t_mapping(t_address,t_struct(Doctor)34_storage)": {
						"encoding": "mapping",
						"key": "t_address",
						"label": "mapping(address => struct EHRSystem.Doctor)",
						"numberOfBytes": "32",
						"value": "t_struct(Doctor)34_storage"
					},
					"t_mapping(t_address,t_struct(Organization)22_storage)": {
						"encoding": "mapping",
						"key": "t_address",
						"label": "mapping(address => struct EHRSystem.Organization)",
						"numberOfBytes": "32",
						"value": "t_struct(Organization)22_storage"
					},
					"t_mapping(t_uint256,t_address)": {
						"encoding": "mapping",
						"key": "t_uint256",
						"label": "mapping(uint256 => address)",
						"numberOfBytes": "32",
						"value": "t_address"
					},
					"t_mapping(t_uint256,t_mapping(t_address,t_array(t_struct(MedicalRecord)62_storage)dyn_storage))": {
						"encoding": "mapping",
						"key": "t_uint256",
						"label": "mapping(uint256 => mapping(address => struct EHRSystem.MedicalRecord[]))",
						"numberOfBytes": "32",
						"value": "t_mapping(t_address,t_array(t_struct(MedicalRecord)62_storage)dyn_storage)"
					},
					"t_mapping(t_uint256,t_struct(Patient)51_storage)": {
						"encoding": "mapping",
						"key": "t_uint256",
						"label": "mapping(uint256 => struct EHRSystem.Patient)",
						"numberOfBytes": "32",
						"value": "t_struct(Patient)51_storage"
					},
					"t_string_storage": {
						"encoding": "bytes",
						"label": "string",
						"numberOfBytes": "32"
					},
					"t_struct(Doctor)34_storage": {
						"encoding": "inplace",
						"label": "struct EHRSystem.Doctor",
						"members": [
							{
								"astId": 24,
								"contract": "ehr.sol:EHRSystem",
								"label": "name",
								"offset": 0,
								"slot": "0",
								"type": "t_string_storage"
							},
							{
								"astId": 26,
								"contract": "ehr.sol:EHRSystem",
								"label": "department",
								"offset": 0,
								"slot": "1",
								"type": "t_string_storage"
							},
							{
								"astId": 28,
								"contract": "ehr.sol:EHRSystem",
								"label": "docaddress",
								"offset": 0,
								"slot": "2",
								"type": "t_address"
							},
							{
								"astId": 31,
								"contract": "ehr.sol:EHRSystem",
								"label": "associatedHospitals",
								"offset": 0,
								"slot": "3",
								"type": "t_array(t_address)dyn_storage"
							},
							{
								"astId": 33,
								"contract": "ehr.sol:EHRSystem",
								"label": "chosenHospital",
								"offset": 0,
								"slot": "4",
								"type": "t_address"
							}
						],
						"numberOfBytes": "160"
					},
					"t_struct(MedicalRecord)62_storage": {
						"encoding": "inplace",
						"label": "struct EHRSystem.MedicalRecord",
						"members": [
							{
								"astId": 53,
								"contract": "ehr.sol:EHRSystem",
								"label": "report",
								"offset": 0,
								"slot": "0",
								"type": "t_string_storage"
							},
							{
								"astId": 55,
								"contract": "ehr.sol:EHRSystem",
								"label": "prescription",
								"offset": 0,
								"slot": "1",
								"type": "t_string_storage"
							},
							{
								"astId": 57,
								"contract": "ehr.sol:EHRSystem",
								"label": "timestamp",
								"offset": 0,
								"slot": "2",
								"type": "t_uint256"
							},
							{
								"astId": 59,
								"contract": "ehr.sol:EHRSystem",
								"label": "doctor",
								"offset": 0,
								"slot": "3",
								"type": "t_address"
							},
							{
								"astId": 61,
								"contract": "ehr.sol:EHRSystem",
								"label": "hospital",
								"offset": 0,
								"slot": "4",
								"type": "t_address"
							}
						],
						"numberOfBytes": "160"
					},
					"t_struct(Organization)22_storage": {
						"encoding": "inplace",
						"label": "struct EHRSystem.Organization",
						"members": [
							{
								"astId": 11,
								"contract": "ehr.sol:EHRSystem",
								"label": "name",
								"offset": 0,
								"slot": "0",
								"type": "t_string_storage"
							},
							{
								"astId": 13,
								"contract": "ehr.sol:EHRSystem",
								"label": "hospitalAddress",
								"offset": 0,
								"slot": "1",
								"type": "t_address"
							},
							{
								"astId": 17,
								"contract": "ehr.sol:EHRSystem",
								"label": "doctors",
								"offset": 0,
								"slot": "2",
								"type": "t_mapping(t_address,t_bool)"
							},
							{
								"astId": 21,
								"contract": "ehr.sol:EHRSystem",
								"label": "patientsVisited",
								"offset": 0,
								"slot": "3",
								"type": "t_mapping(t_address,t_bool)"
							}
						],
						"numberOfBytes": "128"
					},
					"t_struct(Patient)51_storage": {
						"encoding": "inplace",
						"label": "struct EHRSystem.Patient",
						"members": [
							{
								"astId": 36,
								"contract": "ehr.sol:EHRSystem",
								"label": "name",
								"offset": 0,
								"slot": "0",
								"type": "t_string_storage"
							},
							{
								"astId": 38,
								"contract": "ehr.sol:EHRSystem",
								"label": "age",
								"offset": 0,
								"slot": "1",
								"type": "t_uint256"
							},
							{
								"astId": 40,
								"contract": "ehr.sol:EHRSystem",
								"label": "dob",
								"offset": 0,
								"slot": "2",
								"type": "t_uint256"
							},
							{
								"astId": 42,
								"contract": "ehr.sol:EHRSystem",
								"label": "aadharnumber",
								"offset": 0,
								"slot": "3",
								"type": "t_uint256"
							},
							{
								"astId": 44,
								"contract": "ehr.sol:EHRSystem",
								"label": "height",
								"offset": 0,
								"slot": "4",
								"type": "t_uint256"
							},
							{
								"astId": 46,
								"contract": "ehr.sol:EHRSystem",
								"label": "weight",
								"offset": 0,
								"slot": "5",
								"type": "t_uint256"
							},
							{
								"astId": 48,
								"contract": "ehr.sol:EHRSystem",
								"label": "addressInfo",
								"offset": 0,
								"slot": "6",
								"type": "t_string_storage"
							},
							{
								"astId": 50,
								"contract": "ehr.sol:EHRSystem",
								"label": "phoneNumber",
								"offset": 0,
								"slot": "7",
								"type": "t_string_storage"
							}
						],
						"numberOfBytes": "256"
					},
					"t_uint256": {
						"encoding": "inplace",
						"label": "uint256",
						"numberOfBytes": "32"
					}
				}
			},
			"userdoc": {
				"kind": "user",
				"methods": {},
				"version": 1
			}
		}
	}
}