{
	"ehr1.sol": {
		"Hospital": {
			"abi": [
				{
					"inputs": [],
					"stateMutability": "nonpayable",
					"type": "constructor"
				},
				{
					"anonymous": false,
					"inputs": [
						{
							"indexed": false,
							"internalType": "string",
							"name": "name",
							"type": "string"
						},
						{
							"indexed": false,
							"internalType": "address",
							"name": "doctorAddress",
							"type": "address"
						},
						{
							"indexed": false,
							"internalType": "uint256",
							"name": "hospitalIndex",
							"type": "uint256"
						}
					],
					"name": "doctorDetails",
					"type": "event"
				},
				{
					"anonymous": false,
					"inputs": [
						{
							"indexed": false,
							"internalType": "string",
							"name": "name",
							"type": "string"
						},
						{
							"indexed": false,
							"internalType": "address",
							"name": "hospitalAddress",
							"type": "address"
						}
					],
					"name": "hospitalDetails",
					"type": "event"
				},
				{
					"anonymous": false,
					"inputs": [
						{
							"indexed": false,
							"internalType": "string",
							"name": "name",
							"type": "string"
						},
						{
							"indexed": false,
							"internalType": "uint256",
							"name": "age",
							"type": "uint256"
						},
						{
							"indexed": false,
							"internalType": "uint256",
							"name": "height",
							"type": "uint256"
						},
						{
							"indexed": false,
							"internalType": "uint256",
							"name": "weight",
							"type": "uint256"
						},
						{
							"indexed": false,
							"internalType": "uint256",
							"name": "aadharno",
							"type": "uint256"
						},
						{
							"indexed": false,
							"internalType": "string",
							"name": "patientAddress",
							"type": "string"
						}
					],
					"name": "patientDetails",
					"type": "event"
				},
				{
					"inputs": [
						{
							"internalType": "string",
							"name": "_name",
							"type": "string"
						},
						{
							"internalType": "address",
							"name": "_doctorAddress",
							"type": "address"
						},
						{
							"internalType": "uint256",
							"name": "_hospitalIndex",
							"type": "uint256"
						}
					],
					"name": "addDoctor",
					"outputs": [],
					"stateMutability": "nonpayable",
					"type": "function"
				},
				{
					"inputs": [
						{
							"internalType": "string",
							"name": "_name",
							"type": "string"
						},
						{
							"internalType": "address",
							"name": "_hospitalAddress",
							"type": "address"
						}
					],
					"name": "addHospital",
					"outputs": [],
					"stateMutability": "nonpayable",
					"type": "function"
				},
				{
					"inputs": [
						{
							"internalType": "uint256",
							"name": "_patientIndex",
							"type": "uint256"
						},
						{
							"internalType": "string",
							"name": "_medicalReport",
							"type": "string"
						},
						{
							"internalType": "string",
							"name": "_prescription",
							"type": "string"
						}
					],
					"name": "addMedicalRecord",
					"outputs": [],
					"stateMutability": "nonpayable",
					"type": "function"
				},
				{
					"inputs": [
						{
							"internalType": "string",
							"name": "_name",
							"type": "string"
						},
						{
							"internalType": "uint256",
							"name": "_age",
							"type": "uint256"
						},
						{
							"internalType": "uint256",
							"name": "_height",
							"type": "uint256"
						},
						{
							"internalType": "uint256",
							"name": "_weight",
							"type": "uint256"
						},
						{
							"internalType": "uint256",
							"name": "_aadharNo",
							"type": "uint256"
						},
						{
							"internalType": "string",
							"name": "_patientaddress",
							"type": "string"
						}
					],
					"name": "addPatientDetails",
					"outputs": [],
					"stateMutability": "nonpayable",
					"type": "function"
				},
				{
					"inputs": [],
					"name": "admin",
					"outputs": [
						{
							"internalType": "address",
							"name": "",
							"type": "address"
						}
					],
					"stateMutability": "view",
					"type": "function"
				},
				{
					"inputs": [
						{
							"internalType": "uint256",
							"name": "",
							"type": "uint256"
						}
					],
					"name": "doctors",
					"outputs": [
						{
							"internalType": "string",
							"name": "name",
							"type": "string"
						},
						{
							"internalType": "address",
							"name": "doctorAddress",
							"type": "address"
						},
						{
							"internalType": "uint256",
							"name": "hospitalIndex",
							"type": "uint256"
						}
					],
					"stateMutability": "view",
					"type": "function"
				},
				{
					"inputs": [
						{
							"internalType": "uint256",
							"name": "index",
							"type": "uint256"
						}
					],
					"name": "getDoctorByIndex",
					"outputs": [
						{
							"internalType": "string",
							"name": "",
							"type": "string"
						},
						{
							"internalType": "address",
							"name": "",
							"type": "address"
						},
						{
							"internalType": "string",
							"name": "",
							"type": "string"
						}
					],
					"stateMutability": "view",
					"type": "function"
				},
				{
					"inputs": [],
					"name": "getDoctorCount",
					"outputs": [
						{
							"internalType": "uint256",
							"name": "",
							"type": "uint256"
						}
					],
					"stateMutability": "view",
					"type": "function"
				},
				{
					"inputs": [
						{
							"internalType": "uint256",
							"name": "index",
							"type": "uint256"
						}
					],
					"name": "getHospitalByIndex",
					"outputs": [
						{
							"internalType": "string",
							"name": "",
							"type": "string"
						},
						{
							"internalType": "address",
							"name": "",
							"type": "address"
						}
					],
					"stateMutability": "view",
					"type": "function"
				},
				{
					"inputs": [],
					"name": "getHospitalCount",
					"outputs": [
						{
							"internalType": "uint256",
							"name": "",
							"type": "uint256"
						}
					],
					"stateMutability": "view",
					"type": "function"
				},
				{
					"inputs": [],
					"name": "getPatientCount",
					"outputs": [
						{
							"internalType": "uint256",
							"name": "",
							"type": "uint256"
						}
					],
					"stateMutability": "view",
					"type": "function"
				},
				{
					"inputs": [
						{
							"internalType": "uint256",
							"name": "_aadharNo",
							"type": "uint256"
						}
					],
					"name": "getPatientDetailsByAadhar",
					"outputs": [
						{
							"internalType": "string[]",
							"name": "names",
							"type": "string[]"
						},
						{
							"internalType": "uint256[]",
							"name": "ages",
							"type": "uint256[]"
						},
						{
							"internalType": "uint256[]",
							"name": "heights",
							"type": "uint256[]"
						},
						{
							"internalType": "uint256[]",
							"name": "weights",
							"type": "uint256[]"
						},
						{
							"internalType": "string[]",
							"name": "medicalReports",
							"type": "string[]"
						},
						{
							"internalType": "string[]",
							"name": "prescriptions",
							"type": "string[]"
						},
						{
							"internalType": "string[]",
							"name": "doctorNames",
							"type": "string[]"
						}
					],
					"stateMutability": "view",
					"type": "function"
				},
				{
					"inputs": [
						{
							"internalType": "string",
							"name": "_name",
							"type": "string"
						}
					],
					"name": "getPatientDetailsByName",
					"outputs": [
						{
							"internalType": "string[]",
							"name": "names",
							"type": "string[]"
						},
						{
							"internalType": "uint256[]",
							"name": "ages",
							"type": "uint256[]"
						},
						{
							"internalType": "uint256[]",
							"name": "heights",
							"type": "uint256[]"
						},
						{
							"internalType": "uint256[]",
							"name": "weights",
							"type": "uint256[]"
						},
						{
							"internalType": "uint256[]",
							"name": "aadharNos",
							"type": "uint256[]"
						},
						{
							"internalType": "string[]",
							"name": "medicalReports",
							"type": "string[]"
						},
						{
							"internalType": "string[]",
							"name": "prescriptions",
							"type": "string[]"
						},
						{
							"internalType": "string[]",
							"name": "doctornames",
							"type": "string[]"
						}
					],
					"stateMutability": "view",
					"type": "function"
				},
				{
					"inputs": [
						{
							"internalType": "uint256",
							"name": "",
							"type": "uint256"
						}
					],
					"name": "hospitals",
					"outputs": [
						{
							"internalType": "string",
							"name": "name",
							"type": "string"
						},
						{
							"internalType": "address",
							"name": "hospitalAddress",
							"type": "address"
						}
					],
					"stateMutability": "view",
					"type": "function"
				},
				{
					"inputs": [
						{
							"internalType": "address",
							"name": "",
							"type": "address"
						}
					],
					"name": "isDoctor",
					"outputs": [
						{
							"internalType": "bool",
							"name": "",
							"type": "bool"
						}
					],
					"stateMutability": "view",
					"type": "function"
				},
				{
					"inputs": [
						{
							"internalType": "address",
							"name": "",
							"type": "address"
						}
					],
					"name": "isPatient",
					"outputs": [
						{
							"internalType": "bool",
							"name": "",
							"type": "bool"
						}
					],
					"stateMutability": "view",
					"type": "function"
				},
				{
					"inputs": [
						{
							"internalType": "uint256",
							"name": "",
							"type": "uint256"
						}
					],
					"name": "patients",
					"outputs": [
						{
							"internalType": "string",
							"name": "name",
							"type": "string"
						},
						{
							"internalType": "uint256",
							"name": "age",
							"type": "uint256"
						},
						{
							"internalType": "uint256",
							"name": "height",
							"type": "uint256"
						},
						{
							"internalType": "uint256",
							"name": "weight",
							"type": "uint256"
						},
						{
							"internalType": "uint256",
							"name": "aadharNo",
							"type": "uint256"
						},
						{
							"internalType": "string",
							"name": "patientAddress",
							"type": "string"
						},
						{
							"internalType": "uint256",
							"name": "hospitalIndex",
							"type": "uint256"
						},
						{
							"internalType": "string",
							"name": "medicalReport",
							"type": "string"
						},
						{
							"internalType": "string",
							"name": "prescription",
							"type": "string"
						},
						{
							"internalType": "string",
							"name": "doctorname",
							"type": "string"
						}
					],
					"stateMutability": "view",
					"type": "function"
				}
			],
			"devdoc": {
				"kind": "dev",
				"methods": {},
				"version": 1
			},
			"evm": {
				"assembly": "    /* \"ehr1.sol\":60:8499  contract Hospital {... */\n  mstore(0x40, 0x80)\n    /* \"ehr1.sol\":1882:1965  constructor() {... */\n  callvalue\n  dup1\n  iszero\n  tag_1\n  jumpi\n  0x00\n  dup1\n  revert\ntag_1:\n  pop\n    /* \"ehr1.sol\":1915:1957  0x5B38Da6a701c568545dCfcB03FcB875f56beddC4 */\n  0x5b38da6a701c568545dcfcb03fcb875f56beddc4\n    /* \"ehr1.sol\":1907:1912  admin */\n  0x00\n  dup1\n    /* \"ehr1.sol\":1907:1957  admin = 0x5B38Da6a701c568545dCfcB03FcB875f56beddC4 */\n  0x0100\n  exp\n  dup2\n  sload\n  dup2\n  0xffffffffffffffffffffffffffffffffffffffff\n  mul\n  not\n  and\n  swap1\n  dup4\n  0xffffffffffffffffffffffffffffffffffffffff\n  and\n  mul\n  or\n  swap1\n  sstore\n  pop\n    /* \"ehr1.sol\":60:8499  contract Hospital {... */\n  dataSize(sub_0)\n  dup1\n  dataOffset(sub_0)\n  0x00\n  codecopy\n  0x00\n  return\nstop\n\nsub_0: assembly {\n        /* \"ehr1.sol\":60:8499  contract Hospital {... */\n      mstore(0x40, 0x80)\n      callvalue\n      dup1\n      iszero\n      tag_1\n      jumpi\n      0x00\n      dup1\n      revert\n    tag_1:\n      pop\n      jumpi(tag_2, lt(calldatasize, 0x04))\n      shr(0xe0, calldataload(0x00))\n      dup1\n      0x846bcce2\n      gt\n      tag_20\n      jumpi\n      dup1\n      0x9e3b6565\n      gt\n      tag_21\n      jumpi\n      dup1\n      0x9e3b6565\n      eq\n      tag_15\n      jumpi\n      dup1\n      0xc190665b\n      eq\n      tag_16\n      jumpi\n      dup1\n      0xeb96ed9c\n      eq\n      tag_17\n      jumpi\n      dup1\n      0xf851a440\n      eq\n      tag_18\n      jumpi\n      dup1\n      0xfe45a81d\n      eq\n      tag_19\n      jumpi\n      jump(tag_2)\n    tag_21:\n      dup1\n      0x846bcce2\n      eq\n      tag_11\n      jumpi\n      dup1\n      0x8f9c79ed\n      eq\n      tag_12\n      jumpi\n      dup1\n      0x93119a83\n      eq\n      tag_13\n      jumpi\n      dup1\n      0x996440c6\n      eq\n      tag_14\n      jumpi\n      jump(tag_2)\n    tag_20:\n      dup1\n      0x79111c1c\n      gt\n      tag_22\n      jumpi\n      dup1\n      0x79111c1c\n      eq\n      tag_7\n      jumpi\n      dup1\n      0x7e0a63ac\n      eq\n      tag_8\n      jumpi\n      dup1\n      0x7fed33ff\n      eq\n      tag_9\n      jumpi\n      dup1\n      0x81dc6fd2\n      eq\n      tag_10\n      jumpi\n      jump(tag_2)\n    tag_22:\n      dup1\n      0x30ff6f15\n      eq\n      tag_3\n      jumpi\n      dup1\n      0x4d099648\n      eq\n      tag_4\n      jumpi\n      dup1\n      0x5a357c19\n      eq\n      tag_5\n      jumpi\n      dup1\n      0x6efb1b84\n      eq\n      tag_6\n      jumpi\n    tag_2:\n      0x00\n      dup1\n      revert\n        /* \"ehr1.sol\":2548:3009  function addDoctor(string memory _name, address _doctorAddress, uint256 _hospitalIndex) public onlyHospital {... */\n    tag_3:\n      tag_23\n      0x04\n      dup1\n      calldatasize\n      sub\n      dup2\n      add\n      swap1\n      tag_24\n      swap2\n      swap1\n      tag_25\n      jump\t// in\n    tag_24:\n      tag_26\n      jump\t// in\n    tag_23:\n      stop\n        /* \"ehr1.sol\":2102:2377  function addHospital(string memory _name, address _hospitalAddress) public onlyAdmin {... */\n    tag_4:\n      tag_27\n      0x04\n      dup1\n      calldatasize\n      sub\n      dup2\n      add\n      swap1\n      tag_28\n      swap2\n      swap1\n      tag_29\n      jump\t// in\n    tag_28:\n      tag_30\n      jump\t// in\n    tag_27:\n      stop\n        /* \"ehr1.sol\":5045:5425  function getDoctorByIndex(uint256 index) public view returns (... */\n    tag_5:\n      tag_31\n      0x04\n      dup1\n      calldatasize\n      sub\n      dup2\n      add\n      swap1\n      tag_32\n      swap2\n      swap1\n      tag_33\n      jump\t// in\n    tag_32:\n      tag_34\n      jump\t// in\n    tag_31:\n      mload(0x40)\n      tag_35\n      swap4\n      swap3\n      swap2\n      swap1\n      tag_36\n      jump\t// in\n    tag_35:\n      mload(0x40)\n      dup1\n      swap2\n      sub\n      swap1\n      return\n        /* \"ehr1.sol\":873:896  Doctor[] public doctors */\n    tag_6:\n      tag_37\n      0x04\n      dup1\n      calldatasize\n      sub\n      dup2\n      add\n      swap1\n      tag_38\n      swap2\n      swap1\n      tag_33\n      jump\t// in\n    tag_38:\n      tag_39\n      jump\t// in\n    tag_37:\n      mload(0x40)\n      tag_40\n      swap4\n      swap3\n      swap2\n      swap1\n      tag_41\n      jump\t// in\n    tag_40:\n      mload(0x40)\n      dup1\n      swap2\n      sub\n      swap1\n      return\n        /* \"ehr1.sol\":4941:5037  function getDoctorCount() public view returns (uint256) {... */\n    tag_7:\n      tag_42\n      tag_43\n      jump\t// in\n    tag_42:\n      mload(0x40)\n      tag_44\n      swap2\n      swap1\n      tag_45\n      jump\t// in\n    tag_44:\n      mload(0x40)\n      dup1\n      swap2\n      sub\n      swap1\n      return\n        /* \"ehr1.sol\":5536:7106  function getPatientDetailsByName(string memory _name) public view returns (... */\n    tag_8:\n      tag_46\n      0x04\n      dup1\n      calldatasize\n      sub\n      dup2\n      add\n      swap1\n      tag_47\n      swap2\n      swap1\n      tag_48\n      jump\t// in\n    tag_47:\n      tag_49\n      jump\t// in\n    tag_46:\n      mload(0x40)\n      tag_50\n      swap9\n      swap8\n      swap7\n      swap6\n      swap5\n      swap4\n      swap3\n      swap2\n      swap1\n      tag_51\n      jump\t// in\n    tag_50:\n      mload(0x40)\n      dup1\n      swap2\n      sub\n      swap1\n      return\n        /* \"ehr1.sol\":4694:4935  function getHospitalByIndex(uint256 index) public view returns (string memory, address) {... */\n    tag_9:\n      tag_52\n      0x04\n      dup1\n      calldatasize\n      sub\n      dup2\n      add\n      swap1\n      tag_53\n      swap2\n      swap1\n      tag_33\n      jump\t// in\n    tag_53:\n      tag_54\n      jump\t// in\n    tag_52:\n      mload(0x40)\n      tag_55\n      swap3\n      swap2\n      swap1\n      tag_56\n      jump\t// in\n    tag_55:\n      mload(0x40)\n      dup1\n      swap2\n      sub\n      swap1\n      return\n        /* \"ehr1.sol\":835:866  HospitalInfo[] public hospitals */\n    tag_10:\n      tag_57\n      0x04\n      dup1\n      calldatasize\n      sub\n      dup2\n      add\n      swap1\n      tag_58\n      swap2\n      swap1\n      tag_33\n      jump\t// in\n    tag_58:\n      tag_59\n      jump\t// in\n    tag_57:\n      mload(0x40)\n      tag_60\n      swap3\n      swap2\n      swap1\n      tag_56\n      jump\t// in\n    tag_60:\n      mload(0x40)\n      dup1\n      swap2\n      sub\n      swap1\n      return\n        /* \"ehr1.sol\":7114:8491  function getPatientDetailsByAadhar(uint256 _aadharNo) public view returns (... */\n    tag_11:\n      tag_61\n      0x04\n      dup1\n      calldatasize\n      sub\n      dup2\n      add\n      swap1\n      tag_62\n      swap2\n      swap1\n      tag_33\n      jump\t// in\n    tag_62:\n      tag_63\n      jump\t// in\n    tag_61:\n      mload(0x40)\n      tag_64\n      swap8\n      swap7\n      swap6\n      swap5\n      swap4\n      swap3\n      swap2\n      swap1\n      tag_65\n      jump\t// in\n    tag_64:\n      mload(0x40)\n      dup1\n      swap2\n      sub\n      swap1\n      return\n        /* \"ehr1.sol\":935:975  mapping(address =>bool) public isPatient */\n    tag_12:\n      tag_66\n      0x04\n      dup1\n      calldatasize\n      sub\n      dup2\n      add\n      swap1\n      tag_67\n      swap2\n      swap1\n      tag_68\n      jump\t// in\n    tag_67:\n      tag_69\n      jump\t// in\n    tag_66:\n      mload(0x40)\n      tag_70\n      swap2\n      swap1\n      tag_71\n      jump\t// in\n    tag_70:\n      mload(0x40)\n      dup1\n      swap2\n      sub\n      swap1\n      return\n        /* \"ehr1.sol\":903:928  Patient[] public patients */\n    tag_13:\n      tag_72\n      0x04\n      dup1\n      calldatasize\n      sub\n      dup2\n      add\n      swap1\n      tag_73\n      swap2\n      swap1\n      tag_33\n      jump\t// in\n    tag_73:\n      tag_74\n      jump\t// in\n    tag_72:\n      mload(0x40)\n      tag_75\n      swap11\n      swap10\n      swap9\n      swap8\n      swap7\n      swap6\n      swap5\n      swap4\n      swap3\n      swap2\n      swap1\n      tag_76\n      jump\t// in\n    tag_75:\n      mload(0x40)\n      dup1\n      swap2\n      sub\n      swap1\n      return\n        /* \"ehr1.sol\":982:1021  mapping(address =>bool) public isDoctor */\n    tag_14:\n      tag_77\n      0x04\n      dup1\n      calldatasize\n      sub\n      dup2\n      add\n      swap1\n      tag_78\n      swap2\n      swap1\n      tag_68\n      jump\t// in\n    tag_78:\n      tag_79\n      jump\t// in\n    tag_77:\n      mload(0x40)\n      tag_80\n      swap2\n      swap1\n      tag_71\n      jump\t// in\n    tag_80:\n      mload(0x40)\n      dup1\n      swap2\n      sub\n      swap1\n      return\n        /* \"ehr1.sol\":3936:4578  function addMedicalRecord(uint256 _patientIndex, string memory _medicalReport, string memory _prescription) public onlyDoctor {... */\n    tag_15:\n      tag_81\n      0x04\n      dup1\n      calldatasize\n      sub\n      dup2\n      add\n      swap1\n      tag_82\n      swap2\n      swap1\n      tag_83\n      jump\t// in\n    tag_82:\n      tag_84\n      jump\t// in\n    tag_81:\n      stop\n        /* \"ehr1.sol\":5433:5531  function getPatientCount() public view returns (uint256) {... */\n    tag_16:\n      tag_85\n      tag_86\n      jump\t// in\n    tag_85:\n      mload(0x40)\n      tag_87\n      swap2\n      swap1\n      tag_45\n      jump\t// in\n    tag_87:\n      mload(0x40)\n      dup1\n      swap2\n      sub\n      swap1\n      return\n        /* \"ehr1.sol\":3196:3922  function addPatientDetails(string memory _name, uint256 _age, uint256 _height, uint256 _weight, uint256 _aadharNo,string memory _patientaddress) public {... */\n    tag_17:\n      tag_88\n      0x04\n      dup1\n      calldatasize\n      sub\n      dup2\n      add\n      swap1\n      tag_89\n      swap2\n      swap1\n      tag_90\n      jump\t// in\n    tag_89:\n      tag_91\n      jump\t// in\n    tag_88:\n      stop\n        /* \"ehr1.sol\":85:105  address public admin */\n    tag_18:\n      tag_92\n      tag_93\n      jump\t// in\n    tag_92:\n      mload(0x40)\n      tag_94\n      swap2\n      swap1\n      tag_95\n      jump\t// in\n    tag_94:\n      mload(0x40)\n      dup1\n      swap2\n      sub\n      swap1\n      return\n        /* \"ehr1.sol\":4586:4686  function getHospitalCount() public view returns (uint256) {... */\n    tag_19:\n      tag_96\n      tag_97\n      jump\t// in\n    tag_96:\n      mload(0x40)\n      tag_98\n      swap2\n      swap1\n      tag_45\n      jump\t// in\n    tag_98:\n      mload(0x40)\n      dup1\n      swap2\n      sub\n      swap1\n      return\n        /* \"ehr1.sol\":2548:3009  function addDoctor(string memory _name, address _doctorAddress, uint256 _hospitalIndex) public onlyHospital {... */\n    tag_26:\n        /* \"ehr1.sol\":1557:1572  bool isHospital */\n      0x00\n        /* \"ehr1.sol\":1596:1605  uint256 i */\n      dup1\n        /* \"ehr1.sol\":1591:1788  for (uint256 i = 0; i < hospitals.length; i++) {... */\n    tag_100:\n        /* \"ehr1.sol\":1615:1624  hospitals */\n      0x01\n        /* \"ehr1.sol\":1615:1631  hospitals.length */\n      dup1\n      sload\n      swap1\n      pop\n        /* \"ehr1.sol\":1611:1612  i */\n      dup2\n        /* \"ehr1.sol\":1611:1631  i < hospitals.length */\n      lt\n        /* \"ehr1.sol\":1591:1788  for (uint256 i = 0; i < hospitals.length; i++) {... */\n      iszero\n      tag_101\n      jumpi\n        /* \"ehr1.sol\":1689:1699  msg.sender */\n      caller\n        /* \"ehr1.sol\":1657:1699  hospitals[i].hospitalAddress == msg.sender */\n      0xffffffffffffffffffffffffffffffffffffffff\n      and\n        /* \"ehr1.sol\":1657:1666  hospitals */\n      0x01\n        /* \"ehr1.sol\":1667:1668  i */\n      dup3\n        /* \"ehr1.sol\":1657:1669  hospitals[i] */\n      dup2\n      sload\n      dup2\n      lt\n      tag_103\n      jumpi\n      tag_104\n      tag_105\n      jump\t// in\n    tag_104:\n    tag_103:\n      swap1\n      0x00\n      mstore\n      keccak256(0x00, 0x20)\n      swap1\n      0x02\n      mul\n      add\n        /* \"ehr1.sol\":1657:1685  hospitals[i].hospitalAddress */\n      0x01\n      add\n      0x00\n      swap1\n      sload\n      swap1\n      0x0100\n      exp\n      swap1\n      div\n      0xffffffffffffffffffffffffffffffffffffffff\n      and\n        /* \"ehr1.sol\":1657:1699  hospitals[i].hospitalAddress == msg.sender */\n      0xffffffffffffffffffffffffffffffffffffffff\n      and\n      sub\n        /* \"ehr1.sol\":1653:1777  if (hospitals[i].hospitalAddress == msg.sender) {... */\n      tag_107\n      jumpi\n        /* \"ehr1.sol\":1733:1737  true */\n      0x01\n        /* \"ehr1.sol\":1720:1737  isHospital = true */\n      swap2\n      pop\n        /* \"ehr1.sol\":1756:1761  break */\n      jump(tag_101)\n        /* \"ehr1.sol\":1653:1777  if (hospitals[i].hospitalAddress == msg.sender) {... */\n    tag_107:\n        /* \"ehr1.sol\":1633:1636  i++ */\n      dup1\n      dup1\n      tag_108\n      swap1\n      tag_109\n      jump\t// in\n    tag_108:\n      swap2\n      pop\n      pop\n        /* \"ehr1.sol\":1591:1788  for (uint256 i = 0; i < hospitals.length; i++) {... */\n      jump(tag_100)\n    tag_101:\n      pop\n        /* \"ehr1.sol\":1806:1816  isHospital */\n      dup1\n        /* \"ehr1.sol\":1798:1854  require(isHospital, \"You are not a registered hospital\") */\n      tag_110\n      jumpi\n      mload(0x40)\n      0x08c379a000000000000000000000000000000000000000000000000000000000\n      dup2\n      mstore\n      0x04\n      add\n      tag_111\n      swap1\n      tag_112\n      jump\t// in\n    tag_111:\n      mload(0x40)\n      dup1\n      swap2\n      sub\n      swap1\n      revert\n    tag_110:\n        /* \"ehr1.sol\":2692:2701  hospitals */\n      0x01\n        /* \"ehr1.sol\":2692:2708  hospitals.length */\n      dup1\n      sload\n      swap1\n      pop\n        /* \"ehr1.sol\":2675:2689  _hospitalIndex */\n      dup3\n        /* \"ehr1.sol\":2675:2708  _hospitalIndex < hospitals.length */\n      lt\n        /* \"ehr1.sol\":2667:2735  require(_hospitalIndex < hospitals.length, \"Invalid hospital index\") */\n      tag_114\n      jumpi\n      mload(0x40)\n      0x08c379a000000000000000000000000000000000000000000000000000000000\n      dup2\n      mstore\n      0x04\n      add\n      tag_115\n      swap1\n      tag_116\n      jump\t// in\n    tag_115:\n      mload(0x40)\n      dup1\n      swap2\n      sub\n      swap1\n      revert\n    tag_114:\n        /* \"ehr1.sol\":2746:2753  doctors */\n      0x02\n        /* \"ehr1.sol\":2759:2892  Doctor({... */\n      mload(0x40)\n      dup1\n      0x60\n      add\n      0x40\n      mstore\n      dup1\n        /* \"ehr1.sol\":2787:2792  _name */\n      dup7\n        /* \"ehr1.sol\":2759:2892  Doctor({... */\n      dup2\n      mstore\n      0x20\n      add\n        /* \"ehr1.sol\":2822:2836  _doctorAddress */\n      dup6\n        /* \"ehr1.sol\":2759:2892  Doctor({... */\n      0xffffffffffffffffffffffffffffffffffffffff\n      and\n      dup2\n      mstore\n      0x20\n      add\n        /* \"ehr1.sol\":2866:2880  _hospitalIndex */\n      dup5\n        /* \"ehr1.sol\":2759:2892  Doctor({... */\n      dup2\n      mstore\n      pop\n        /* \"ehr1.sol\":2746:2893  doctors.push(Doctor({... */\n      swap1\n      dup1\n      0x01\n      dup2\n      sload\n      add\n      dup1\n      dup3\n      sstore\n      dup1\n      swap2\n      pop\n      pop\n      0x01\n      swap1\n      sub\n      swap1\n      0x00\n      mstore\n      keccak256(0x00, 0x20)\n      swap1\n      0x03\n      mul\n      add\n      0x00\n      swap1\n      swap2\n      swap1\n      swap2\n      swap1\n      swap2\n      pop\n      0x00\n      dup3\n      add\n      mload\n      dup2\n      0x00\n      add\n      swap1\n      dup2\n      tag_118\n      swap2\n      swap1\n      tag_119\n      jump\t// in\n    tag_118:\n      pop\n      0x20\n      dup3\n      add\n      mload\n      dup2\n      0x01\n      add\n      exp(0x0100, 0x00)\n      dup2\n      sload\n      dup2\n      0xffffffffffffffffffffffffffffffffffffffff\n      mul\n      not\n      and\n      swap1\n      dup4\n      0xffffffffffffffffffffffffffffffffffffffff\n      and\n      mul\n      or\n      swap1\n      sstore\n      pop\n      0x40\n      dup3\n      add\n      mload\n      dup2\n      0x02\n      add\n      sstore\n      pop\n      pop\n        /* \"ehr1.sol\":2929:2933  true */\n      0x01\n        /* \"ehr1.sol\":2904:2912  isDoctor */\n      0x05\n        /* \"ehr1.sol\":2904:2928  isDoctor[_doctorAddress] */\n      0x00\n        /* \"ehr1.sol\":2913:2927  _doctorAddress */\n      dup6\n        /* \"ehr1.sol\":2904:2928  isDoctor[_doctorAddress] */\n      0xffffffffffffffffffffffffffffffffffffffff\n      and\n      0xffffffffffffffffffffffffffffffffffffffff\n      and\n      dup2\n      mstore\n      0x20\n      add\n      swap1\n      dup2\n      mstore\n      0x20\n      add\n      0x00\n      keccak256\n      0x00\n        /* \"ehr1.sol\":2904:2933  isDoctor[_doctorAddress]=true */\n      0x0100\n      exp\n      dup2\n      sload\n      dup2\n      0xff\n      mul\n      not\n      and\n      swap1\n      dup4\n      iszero\n      iszero\n      mul\n      or\n      swap1\n      sstore\n      pop\n        /* \"ehr1.sol\":2949:3001  doctorDetails(_name, _doctorAddress, _hospitalIndex) */\n      0x742c06a6ca71851c82c62c919b22afa159c65a8cbbecf4c516ef3bc98131ccc6\n        /* \"ehr1.sol\":2963:2968  _name */\n      dup5\n        /* \"ehr1.sol\":2970:2984  _doctorAddress */\n      dup5\n        /* \"ehr1.sol\":2986:3000  _hospitalIndex */\n      dup5\n        /* \"ehr1.sol\":2949:3001  doctorDetails(_name, _doctorAddress, _hospitalIndex) */\n      mload(0x40)\n      tag_120\n      swap4\n      swap3\n      swap2\n      swap1\n      tag_41\n      jump\t// in\n    tag_120:\n      mload(0x40)\n      dup1\n      swap2\n      sub\n      swap1\n      log1\n        /* \"ehr1.sol\":1546:1874  {... */\n      pop\n        /* \"ehr1.sol\":2548:3009  function addDoctor(string memory _name, address _doctorAddress, uint256 _hospitalIndex) public onlyHospital {... */\n      pop\n      pop\n      pop\n      jump\t// out\n        /* \"ehr1.sol\":2102:2377  function addHospital(string memory _name, address _hospitalAddress) public onlyAdmin {... */\n    tag_30:\n        /* \"ehr1.sol\":1133:1138  admin */\n      0x00\n      dup1\n      sload\n      swap1\n      0x0100\n      exp\n      swap1\n      div\n      0xffffffffffffffffffffffffffffffffffffffff\n      and\n        /* \"ehr1.sol\":1119:1138  msg.sender == admin */\n      0xffffffffffffffffffffffffffffffffffffffff\n      and\n        /* \"ehr1.sol\":1119:1129  msg.sender */\n      caller\n        /* \"ehr1.sol\":1119:1138  msg.sender == admin */\n      0xffffffffffffffffffffffffffffffffffffffff\n      and\n      eq\n        /* \"ehr1.sol\":1111:1184  require(msg.sender == admin, \"Only the admin can perform this operation\") */\n      tag_122\n      jumpi\n      mload(0x40)\n      0x08c379a000000000000000000000000000000000000000000000000000000000\n      dup2\n      mstore\n      0x04\n      add\n      tag_123\n      swap1\n      tag_124\n      jump\t// in\n    tag_123:\n      mload(0x40)\n      dup1\n      swap2\n      sub\n      swap1\n      revert\n    tag_122:\n        /* \"ehr1.sol\":2198:2207  hospitals */\n      0x01\n        /* \"ehr1.sol\":2213:2312  HospitalInfo({... */\n      mload(0x40)\n      dup1\n      0x40\n      add\n      0x40\n      mstore\n      dup1\n        /* \"ehr1.sol\":2247:2252  _name */\n      dup5\n        /* \"ehr1.sol\":2213:2312  HospitalInfo({... */\n      dup2\n      mstore\n      0x20\n      add\n        /* \"ehr1.sol\":2284:2300  _hospitalAddress */\n      dup4\n        /* \"ehr1.sol\":2213:2312  HospitalInfo({... */\n      0xffffffffffffffffffffffffffffffffffffffff\n      and\n      dup2\n      mstore\n      pop\n        /* \"ehr1.sol\":2198:2313  hospitals.push(HospitalInfo({... */\n      swap1\n      dup1\n      0x01\n      dup2\n      sload\n      add\n      dup1\n      dup3\n      sstore\n      dup1\n      swap2\n      pop\n      pop\n      0x01\n      swap1\n      sub\n      swap1\n      0x00\n      mstore\n      keccak256(0x00, 0x20)\n      swap1\n      0x02\n      mul\n      add\n      0x00\n      swap1\n      swap2\n      swap1\n      swap2\n      swap1\n      swap2\n      pop\n      0x00\n      dup3\n      add\n      mload\n      dup2\n      0x00\n      add\n      swap1\n      dup2\n      tag_127\n      swap2\n      swap1\n      tag_119\n      jump\t// in\n    tag_127:\n      pop\n      0x20\n      dup3\n      add\n      mload\n      dup2\n      0x01\n      add\n      exp(0x0100, 0x00)\n      dup2\n      sload\n      dup2\n      0xffffffffffffffffffffffffffffffffffffffff\n      mul\n      not\n      and\n      swap1\n      dup4\n      0xffffffffffffffffffffffffffffffffffffffff\n      and\n      mul\n      or\n      swap1\n      sstore\n      pop\n      pop\n      pop\n        /* \"ehr1.sol\":2329:2369  hospitalDetails(_name, _hospitalAddress) */\n      0xd46a3ffbe29f14555dfaef3732f100cd93dac8455bafc3a294e2132e56e508b9\n        /* \"ehr1.sol\":2345:2350  _name */\n      dup3\n        /* \"ehr1.sol\":2352:2368  _hospitalAddress */\n      dup3\n        /* \"ehr1.sol\":2329:2369  hospitalDetails(_name, _hospitalAddress) */\n      mload(0x40)\n      tag_128\n      swap3\n      swap2\n      swap1\n      tag_56\n      jump\t// in\n    tag_128:\n      mload(0x40)\n      dup1\n      swap2\n      sub\n      swap1\n      log1\n        /* \"ehr1.sol\":2102:2377  function addHospital(string memory _name, address _hospitalAddress) public onlyAdmin {... */\n      pop\n      pop\n      jump\t// out\n        /* \"ehr1.sol\":5045:5425  function getDoctorByIndex(uint256 index) public view returns (... */\n    tag_34:\n        /* \"ehr1.sol\":5117:5130  string memory */\n      0x60\n        /* \"ehr1.sol\":5132:5139  address */\n      0x00\n        /* \"ehr1.sol\":5141:5154  string memory */\n      0x60\n        /* \"ehr1.sol\":5189:5196  doctors */\n      0x02\n        /* \"ehr1.sol\":5189:5203  doctors.length */\n      dup1\n      sload\n      swap1\n      pop\n        /* \"ehr1.sol\":5181:5186  index */\n      dup5\n        /* \"ehr1.sol\":5181:5203  index < doctors.length */\n      lt\n        /* \"ehr1.sol\":5173:5228  require(index < doctors.length, \"Invalid doctor index\") */\n      tag_130\n      jumpi\n      mload(0x40)\n      0x08c379a000000000000000000000000000000000000000000000000000000000\n      dup2\n      mstore\n      0x04\n      add\n      tag_131\n      swap1\n      tag_132\n      jump\t// in\n    tag_131:\n      mload(0x40)\n      dup1\n      swap2\n      sub\n      swap1\n      revert\n    tag_130:\n        /* \"ehr1.sol\":5239:5259  Doctor memory doctor */\n      0x00\n        /* \"ehr1.sol\":5262:5269  doctors */\n      0x02\n        /* \"ehr1.sol\":5270:5275  index */\n      dup6\n        /* \"ehr1.sol\":5262:5276  doctors[index] */\n      dup2\n      sload\n      dup2\n      lt\n      tag_133\n      jumpi\n      tag_134\n      tag_105\n      jump\t// in\n    tag_134:\n    tag_133:\n      swap1\n      0x00\n      mstore\n      keccak256(0x00, 0x20)\n      swap1\n      0x03\n      mul\n      add\n        /* \"ehr1.sol\":5239:5276  Doctor memory doctor = doctors[index] */\n      mload(0x40)\n      dup1\n      0x60\n      add\n      0x40\n      mstore\n      swap1\n      dup2\n      0x00\n      dup3\n      add\n      dup1\n      sload\n      tag_136\n      swap1\n      tag_137\n      jump\t// in\n    tag_136:\n      dup1\n      0x1f\n      add\n      0x20\n      dup1\n      swap2\n      div\n      mul\n      0x20\n      add\n      mload(0x40)\n      swap1\n      dup2\n      add\n      0x40\n      mstore\n      dup1\n      swap3\n      swap2\n      swap1\n      dup2\n      dup2\n      mstore\n      0x20\n      add\n      dup3\n      dup1\n      sload\n      tag_138\n      swap1\n      tag_137\n      jump\t// in\n    tag_138:\n      dup1\n      iszero\n      tag_139\n      jumpi\n      dup1\n      0x1f\n      lt\n      tag_140\n      jumpi\n      0x0100\n      dup1\n      dup4\n      sload\n      div\n      mul\n      dup4\n      mstore\n      swap2\n      0x20\n      add\n      swap2\n      jump(tag_139)\n    tag_140:\n      dup3\n      add\n      swap2\n      swap1\n      0x00\n      mstore\n      keccak256(0x00, 0x20)\n      swap1\n    tag_141:\n      dup2\n      sload\n      dup2\n      mstore\n      swap1\n      0x01\n      add\n      swap1\n      0x20\n      add\n      dup1\n      dup4\n      gt\n      tag_141\n      jumpi\n      dup3\n      swap1\n      sub\n      0x1f\n      and\n      dup3\n      add\n      swap2\n    tag_139:\n      pop\n      pop\n      pop\n      pop\n      pop\n      dup2\n      mstore\n      0x20\n      add\n      0x01\n      dup3\n      add\n      0x00\n      swap1\n      sload\n      swap1\n      0x0100\n      exp\n      swap1\n      div\n      0xffffffffffffffffffffffffffffffffffffffff\n      and\n      0xffffffffffffffffffffffffffffffffffffffff\n      and\n      0xffffffffffffffffffffffffffffffffffffffff\n      and\n      dup2\n      mstore\n      0x20\n      add\n      0x02\n      dup3\n      add\n      sload\n      dup2\n      mstore\n      pop\n      pop\n      swap1\n      pop\n        /* \"ehr1.sol\":5287:5315  HospitalInfo memory hospital */\n      0x00\n        /* \"ehr1.sol\":5318:5327  hospitals */\n      0x01\n        /* \"ehr1.sol\":5328:5334  doctor */\n      dup3\n        /* \"ehr1.sol\":5328:5348  doctor.hospitalIndex */\n      0x40\n      add\n      mload\n        /* \"ehr1.sol\":5318:5349  hospitals[doctor.hospitalIndex] */\n      dup2\n      sload\n      dup2\n      lt\n      tag_142\n      jumpi\n      tag_143\n      tag_105\n      jump\t// in\n    tag_143:\n    tag_142:\n      swap1\n      0x00\n      mstore\n      keccak256(0x00, 0x20)\n      swap1\n      0x02\n      mul\n      add\n        /* \"ehr1.sol\":5287:5349  HospitalInfo memory hospital = hospitals[doctor.hospitalIndex] */\n      mload(0x40)\n      dup1\n      0x40\n      add\n      0x40\n      mstore\n      swap1\n      dup2\n      0x00\n      dup3\n      add\n      dup1\n      sload\n      tag_145\n      swap1\n      tag_137\n      jump\t// in\n    tag_145:\n      dup1\n      0x1f\n      add\n      0x20\n      dup1\n      swap2\n      div\n      mul\n      0x20\n      add\n      mload(0x40)\n      swap1\n      dup2\n      add\n      0x40\n      mstore\n      dup1\n      swap3\n      swap2\n      swap1\n      dup2\n      dup2\n      mstore\n      0x20\n      add\n      dup3\n      dup1\n      sload\n      tag_146\n      swap1\n      tag_137\n      jump\t// in\n    tag_146:\n      dup1\n      iszero\n      tag_147\n      jumpi\n      dup1\n      0x1f\n      lt\n      tag_148\n      jumpi\n      0x0100\n      dup1\n      dup4\n      sload\n      div\n      mul\n      dup4\n      mstore\n      swap2\n      0x20\n      add\n      swap2\n      jump(tag_147)\n    tag_148:\n      dup3\n      add\n      swap2\n      swap1\n      0x00\n      mstore\n      keccak256(0x00, 0x20)\n      swap1\n    tag_149:\n      dup2\n      sload\n      dup2\n      mstore\n      swap1\n      0x01\n      add\n      swap1\n      0x20\n      add\n      dup1\n      dup4\n      gt\n      tag_149\n      jumpi\n      dup3\n      swap1\n      sub\n      0x1f\n      and\n      dup3\n      add\n      swap2\n    tag_147:\n      pop\n      pop\n      pop\n      pop\n      pop\n      dup2\n      mstore\n      0x20\n      add\n      0x01\n      dup3\n      add\n      0x00\n      swap1\n      sload\n      swap1\n      0x0100\n      exp\n      swap1\n      div\n      0xffffffffffffffffffffffffffffffffffffffff\n      and\n      0xffffffffffffffffffffffffffffffffffffffff\n      and\n      0xffffffffffffffffffffffffffffffffffffffff\n      and\n      dup2\n      mstore\n      pop\n      pop\n      swap1\n      pop\n        /* \"ehr1.sol\":5368:5374  doctor */\n      dup2\n        /* \"ehr1.sol\":5368:5379  doctor.name */\n      0x00\n      add\n      mload\n        /* \"ehr1.sol\":5381:5387  doctor */\n      dup3\n        /* \"ehr1.sol\":5381:5401  doctor.doctorAddress */\n      0x20\n      add\n      mload\n        /* \"ehr1.sol\":5403:5411  hospital */\n      dup3\n        /* \"ehr1.sol\":5403:5416  hospital.name */\n      0x00\n      add\n      mload\n        /* \"ehr1.sol\":5360:5417  return (doctor.name, doctor.doctorAddress, hospital.name) */\n      swap5\n      pop\n      swap5\n      pop\n      swap5\n      pop\n      pop\n      pop\n        /* \"ehr1.sol\":5045:5425  function getDoctorByIndex(uint256 index) public view returns (... */\n      swap2\n      swap4\n      swap1\n      swap3\n      pop\n      jump\t// out\n        /* \"ehr1.sol\":873:896  Doctor[] public doctors */\n    tag_39:\n      0x02\n      dup2\n      dup2\n      sload\n      dup2\n      lt\n      tag_150\n      jumpi\n      0x00\n      dup1\n      revert\n    tag_150:\n      swap1\n      0x00\n      mstore\n      keccak256(0x00, 0x20)\n      swap1\n      0x03\n      mul\n      add\n      0x00\n      swap2\n      pop\n      swap1\n      pop\n      dup1\n      0x00\n      add\n      dup1\n      sload\n      tag_152\n      swap1\n      tag_137\n      jump\t// in\n    tag_152:\n      dup1\n      0x1f\n      add\n      0x20\n      dup1\n      swap2\n      div\n      mul\n      0x20\n      add\n      mload(0x40)\n      swap1\n      dup2\n      add\n      0x40\n      mstore\n      dup1\n      swap3\n      swap2\n      swap1\n      dup2\n      dup2\n      mstore\n      0x20\n      add\n      dup3\n      dup1\n      sload\n      tag_153\n      swap1\n      tag_137\n      jump\t// in\n    tag_153:\n      dup1\n      iszero\n      tag_154\n      jumpi\n      dup1\n      0x1f\n      lt\n      tag_155\n      jumpi\n      0x0100\n      dup1\n      dup4\n      sload\n      div\n      mul\n      dup4\n      mstore\n      swap2\n      0x20\n      add\n      swap2\n      jump(tag_154)\n    tag_155:\n      dup3\n      add\n      swap2\n      swap1\n      0x00\n      mstore\n      keccak256(0x00, 0x20)\n      swap1\n    tag_156:\n      dup2\n      sload\n      dup2\n      mstore\n      swap1\n      0x01\n      add\n      swap1\n      0x20\n      add\n      dup1\n      dup4\n      gt\n      tag_156\n      jumpi\n      dup3\n      swap1\n      sub\n      0x1f\n      and\n      dup3\n      add\n      swap2\n    tag_154:\n      pop\n      pop\n      pop\n      pop\n      pop\n      swap1\n      dup1\n      0x01\n      add\n      0x00\n      swap1\n      sload\n      swap1\n      0x0100\n      exp\n      swap1\n      div\n      0xffffffffffffffffffffffffffffffffffffffff\n      and\n      swap1\n      dup1\n      0x02\n      add\n      sload\n      swap1\n      pop\n      dup4\n      jump\t// out\n        /* \"ehr1.sol\":4941:5037  function getDoctorCount() public view returns (uint256) {... */\n    tag_43:\n        /* \"ehr1.sol\":4988:4995  uint256 */\n      0x00\n        /* \"ehr1.sol\":5015:5022  doctors */\n      0x02\n        /* \"ehr1.sol\":5015:5029  doctors.length */\n      dup1\n      sload\n      swap1\n      pop\n        /* \"ehr1.sol\":5008:5029  return doctors.length */\n      swap1\n      pop\n        /* \"ehr1.sol\":4941:5037  function getDoctorCount() public view returns (uint256) {... */\n      swap1\n      jump\t// out\n        /* \"ehr1.sol\":5536:7106  function getPatientDetailsByName(string memory _name) public view returns (... */\n    tag_49:\n        /* \"ehr1.sol\":5617:5638  string[] memory names */\n      0x60\n        /* \"ehr1.sol\":5645:5666  uint256[] memory ages */\n      dup1\n        /* \"ehr1.sol\":5673:5697  uint256[] memory heights */\n      0x60\n        /* \"ehr1.sol\":5704:5728  uint256[] memory weights */\n      dup1\n        /* \"ehr1.sol\":5735:5761  uint256[] memory aadharNos */\n      0x60\n        /* \"ehr1.sol\":5768:5798  string[] memory medicalReports */\n      dup1\n        /* \"ehr1.sol\":5805:5834  string[] memory prescriptions */\n      0x60\n        /* \"ehr1.sol\":5841:5868  string[] memory doctornames */\n      dup1\n        /* \"ehr1.sol\":5879:5892  uint256 count */\n      0x00\n        /* \"ehr1.sol\":5908:5917  uint256 i */\n      dup1\n        /* \"ehr1.sol\":5903:6068  for (uint256 i = 0; i < patients.length; i++) {... */\n    tag_159:\n        /* \"ehr1.sol\":5927:5935  patients */\n      0x03\n        /* \"ehr1.sol\":5927:5942  patients.length */\n      dup1\n      sload\n      swap1\n      pop\n        /* \"ehr1.sol\":5923:5924  i */\n      dup2\n        /* \"ehr1.sol\":5923:5942  i < patients.length */\n      lt\n        /* \"ehr1.sol\":5903:6068  for (uint256 i = 0; i < patients.length; i++) {... */\n      iszero\n      tag_160\n      jumpi\n        /* \"ehr1.sol\":6018:6023  _name */\n      dup11\n        /* \"ehr1.sol\":6002:6025  keccak256(bytes(_name)) */\n      dup1\n      mload\n      swap1\n      0x20\n      add\n      keccak256\n        /* \"ehr1.sol\":5980:5988  patients */\n      0x03\n        /* \"ehr1.sol\":5989:5990  i */\n      dup3\n        /* \"ehr1.sol\":5980:5991  patients[i] */\n      dup2\n      sload\n      dup2\n      lt\n      tag_162\n      jumpi\n      tag_163\n      tag_105\n      jump\t// in\n    tag_163:\n    tag_162:\n      swap1\n      0x00\n      mstore\n      keccak256(0x00, 0x20)\n      swap1\n      0x0a\n      mul\n      add\n        /* \"ehr1.sol\":5980:5996  patients[i].name */\n      0x00\n      add\n        /* \"ehr1.sol\":5964:5998  keccak256(bytes(patients[i].name)) */\n      mload(0x40)\n      tag_165\n      swap2\n      swap1\n      tag_166\n      jump\t// in\n    tag_165:\n      mload(0x40)\n      dup1\n      swap2\n      sub\n      swap1\n      keccak256\n        /* \"ehr1.sol\":5964:6025  keccak256(bytes(patients[i].name)) == keccak256(bytes(_name)) */\n      sub\n        /* \"ehr1.sol\":5960:6061  if (keccak256(bytes(patients[i].name)) == keccak256(bytes(_name))) {... */\n      tag_167\n      jumpi\n        /* \"ehr1.sol\":6042:6049  count++ */\n      dup2\n      dup1\n      tag_168\n      swap1\n      tag_109\n      jump\t// in\n    tag_168:\n      swap3\n      pop\n      pop\n        /* \"ehr1.sol\":5960:6061  if (keccak256(bytes(patients[i].name)) == keccak256(bytes(_name))) {... */\n    tag_167:\n        /* \"ehr1.sol\":5944:5947  i++ */\n      dup1\n      dup1\n      tag_169\n      swap1\n      tag_109\n      jump\t// in\n    tag_169:\n      swap2\n      pop\n      pop\n        /* \"ehr1.sol\":5903:6068  for (uint256 i = 0; i < patients.length; i++) {... */\n      jump(tag_159)\n    tag_160:\n      pop\n        /* \"ehr1.sol\":6097:6102  count */\n      dup1\n        /* \"ehr1.sol\":6084:6103  new string[](count) */\n      0xffffffffffffffff\n      dup2\n      gt\n      iszero\n      tag_170\n      jumpi\n      tag_171\n      tag_172\n      jump\t// in\n    tag_171:\n    tag_170:\n      mload(0x40)\n      swap1\n      dup1\n      dup3\n      mstore\n      dup1\n      0x20\n      mul\n      0x20\n      add\n      dup3\n      add\n      0x40\n      mstore\n      dup1\n      iszero\n      tag_173\n      jumpi\n      dup2\n      0x20\n      add\n    tag_174:\n      0x60\n      dup2\n      mstore\n      0x20\n      add\n      swap1\n      0x01\n      swap1\n      sub\n      swap1\n      dup2\n      tag_174\n      jumpi\n      swap1\n      pop\n    tag_173:\n      pop\n        /* \"ehr1.sol\":6076:6103  names = new string[](count) */\n      swap9\n      pop\n        /* \"ehr1.sol\":6131:6136  count */\n      dup1\n        /* \"ehr1.sol\":6117:6137  new uint256[](count) */\n      0xffffffffffffffff\n      dup2\n      gt\n      iszero\n      tag_175\n      jumpi\n      tag_176\n      tag_172\n      jump\t// in\n    tag_176:\n    tag_175:\n      mload(0x40)\n      swap1\n      dup1\n      dup3\n      mstore\n      dup1\n      0x20\n      mul\n      0x20\n      add\n      dup3\n      add\n      0x40\n      mstore\n      dup1\n      iszero\n      tag_177\n      jumpi\n      dup2\n      0x20\n      add\n      0x20\n      dup3\n      mul\n      dup1\n      calldatasize\n      dup4\n      calldatacopy\n      dup1\n      dup3\n      add\n      swap2\n      pop\n      pop\n      swap1\n      pop\n    tag_177:\n      pop\n        /* \"ehr1.sol\":6110:6137  ages = new uint256[](count) */\n      swap8\n      pop\n        /* \"ehr1.sol\":6168:6173  count */\n      dup1\n        /* \"ehr1.sol\":6154:6174  new uint256[](count) */\n      0xffffffffffffffff\n      dup2\n      gt\n      iszero\n      tag_178\n      jumpi\n      tag_179\n      tag_172\n      jump\t// in\n    tag_179:\n    tag_178:\n      mload(0x40)\n      swap1\n      dup1\n      dup3\n      mstore\n      dup1\n      0x20\n      mul\n      0x20\n      add\n      dup3\n      add\n      0x40\n      mstore\n      dup1\n      iszero\n      tag_180\n      jumpi\n      dup2\n      0x20\n      add\n      0x20\n      dup3\n      mul\n      dup1\n      calldatasize\n      dup4\n      calldatacopy\n      dup1\n      dup3\n      add\n      swap2\n      pop\n      pop\n      swap1\n      pop\n    tag_180:\n      pop\n        /* \"ehr1.sol\":6144:6174  heights = new uint256[](count) */\n      swap7\n      pop\n        /* \"ehr1.sol\":6205:6210  count */\n      dup1\n        /* \"ehr1.sol\":6191:6211  new uint256[](count) */\n      0xffffffffffffffff\n      dup2\n      gt\n      iszero\n      tag_181\n      jumpi\n      tag_182\n      tag_172\n      jump\t// in\n    tag_182:\n    tag_181:\n      mload(0x40)\n      swap1\n      dup1\n      dup3\n      mstore\n      dup1\n      0x20\n      mul\n      0x20\n      add\n      dup3\n      add\n      0x40\n      mstore\n      dup1\n      iszero\n      tag_183\n      jumpi\n      dup2\n      0x20\n      add\n      0x20\n      dup3\n      mul\n      dup1\n      calldatasize\n      dup4\n      calldatacopy\n      dup1\n      dup3\n      add\n      swap2\n      pop\n      pop\n      swap1\n      pop\n    tag_183:\n      pop\n        /* \"ehr1.sol\":6181:6211  weights = new uint256[](count) */\n      swap6\n      pop\n        /* \"ehr1.sol\":6244:6249  count */\n      dup1\n        /* \"ehr1.sol\":6230:6250  new uint256[](count) */\n      0xffffffffffffffff\n      dup2\n      gt\n      iszero\n      tag_184\n      jumpi\n      tag_185\n      tag_172\n      jump\t// in\n    tag_185:\n    tag_184:\n      mload(0x40)\n      swap1\n      dup1\n      dup3\n      mstore\n      dup1\n      0x20\n      mul\n      0x20\n      add\n      dup3\n      add\n      0x40\n      mstore\n      dup1\n      iszero\n      tag_186\n      jumpi\n      dup2\n      0x20\n      add\n      0x20\n      dup3\n      mul\n      dup1\n      calldatasize\n      dup4\n      calldatacopy\n      dup1\n      dup3\n      add\n      swap2\n      pop\n      pop\n      swap1\n      pop\n    tag_186:\n      pop\n        /* \"ehr1.sol\":6218:6250  aadharNos = new uint256[](count) */\n      swap5\n      pop\n        /* \"ehr1.sol\":6287:6292  count */\n      dup1\n        /* \"ehr1.sol\":6274:6293  new string[](count) */\n      0xffffffffffffffff\n      dup2\n      gt\n      iszero\n      tag_187\n      jumpi\n      tag_188\n      tag_172\n      jump\t// in\n    tag_188:\n    tag_187:\n      mload(0x40)\n      swap1\n      dup1\n      dup3\n      mstore\n      dup1\n      0x20\n      mul\n      0x20\n      add\n      dup3\n      add\n      0x40\n      mstore\n      dup1\n      iszero\n      tag_189\n      jumpi\n      dup2\n      0x20\n      add\n    tag_190:\n      0x60\n      dup2\n      mstore\n      0x20\n      add\n      swap1\n      0x01\n      swap1\n      sub\n      swap1\n      dup2\n      tag_190\n      jumpi\n      swap1\n      pop\n    tag_189:\n      pop\n        /* \"ehr1.sol\":6257:6293  medicalReports = new string[](count) */\n      swap4\n      pop\n        /* \"ehr1.sol\":6329:6334  count */\n      dup1\n        /* \"ehr1.sol\":6316:6335  new string[](count) */\n      0xffffffffffffffff\n      dup2\n      gt\n      iszero\n      tag_191\n      jumpi\n      tag_192\n      tag_172\n      jump\t// in\n    tag_192:\n    tag_191:\n      mload(0x40)\n      swap1\n      dup1\n      dup3\n      mstore\n      dup1\n      0x20\n      mul\n      0x20\n      add\n      dup3\n      add\n      0x40\n      mstore\n      dup1\n      iszero\n      tag_193\n      jumpi\n      dup2\n      0x20\n      add\n    tag_194:\n      0x60\n      dup2\n      mstore\n      0x20\n      add\n      swap1\n      0x01\n      swap1\n      sub\n      swap1\n      dup2\n      tag_194\n      jumpi\n      swap1\n      pop\n    tag_193:\n      pop\n        /* \"ehr1.sol\":6300:6335  prescriptions = new string[](count) */\n      swap3\n      pop\n        /* \"ehr1.sol\":6369:6374  count */\n      dup1\n        /* \"ehr1.sol\":6356:6375  new string[](count) */\n      0xffffffffffffffff\n      dup2\n      gt\n      iszero\n      tag_195\n      jumpi\n      tag_196\n      tag_172\n      jump\t// in\n    tag_196:\n    tag_195:\n      mload(0x40)\n      swap1\n      dup1\n      dup3\n      mstore\n      dup1\n      0x20\n      mul\n      0x20\n      add\n      dup3\n      add\n      0x40\n      mstore\n      dup1\n      iszero\n      tag_197\n      jumpi\n      dup2\n      0x20\n      add\n    tag_198:\n      0x60\n      dup2\n      mstore\n      0x20\n      add\n      swap1\n      0x01\n      swap1\n      sub\n      swap1\n      dup2\n      tag_198\n      jumpi\n      swap1\n      pop\n    tag_197:\n      pop\n        /* \"ehr1.sol\":6342:6375  doctornames = new string[](count) */\n      swap2\n      pop\n        /* \"ehr1.sol\":6384:6397  uint256 index */\n      0x00\n        /* \"ehr1.sol\":6413:6422  uint256 i */\n      dup1\n        /* \"ehr1.sol\":6408:7001  for (uint256 i = 0; i < patients.length; i++) {... */\n    tag_199:\n        /* \"ehr1.sol\":6432:6440  patients */\n      0x03\n        /* \"ehr1.sol\":6432:6447  patients.length */\n      dup1\n      sload\n      swap1\n      pop\n        /* \"ehr1.sol\":6428:6429  i */\n      dup2\n        /* \"ehr1.sol\":6428:6447  i < patients.length */\n      lt\n        /* \"ehr1.sol\":6408:7001  for (uint256 i = 0; i < patients.length; i++) {... */\n      iszero\n      tag_200\n      jumpi\n        /* \"ehr1.sol\":6523:6528  _name */\n      dup12\n        /* \"ehr1.sol\":6507:6530  keccak256(bytes(_name)) */\n      dup1\n      mload\n      swap1\n      0x20\n      add\n      keccak256\n        /* \"ehr1.sol\":6485:6493  patients */\n      0x03\n        /* \"ehr1.sol\":6494:6495  i */\n      dup3\n        /* \"ehr1.sol\":6485:6496  patients[i] */\n      dup2\n      sload\n      dup2\n      lt\n      tag_202\n      jumpi\n      tag_203\n      tag_105\n      jump\t// in\n    tag_203:\n    tag_202:\n      swap1\n      0x00\n      mstore\n      keccak256(0x00, 0x20)\n      swap1\n      0x0a\n      mul\n      add\n        /* \"ehr1.sol\":6485:6501  patients[i].name */\n      0x00\n      add\n        /* \"ehr1.sol\":6469:6503  keccak256(bytes(patients[i].name)) */\n      mload(0x40)\n      tag_205\n      swap2\n      swap1\n      tag_166\n      jump\t// in\n    tag_205:\n      mload(0x40)\n      dup1\n      swap2\n      sub\n      swap1\n      keccak256\n        /* \"ehr1.sol\":6469:6530  keccak256(bytes(patients[i].name)) == keccak256(bytes(_name)) */\n      sub\n        /* \"ehr1.sol\":6465:6994  if (keccak256(bytes(patients[i].name)) == keccak256(bytes(_name))) {... */\n      tag_206\n      jumpi\n        /* \"ehr1.sol\":6562:6570  patients */\n      0x03\n        /* \"ehr1.sol\":6571:6572  i */\n      dup2\n        /* \"ehr1.sol\":6562:6573  patients[i] */\n      dup2\n      sload\n      dup2\n      lt\n      tag_207\n      jumpi\n      tag_208\n      tag_105\n      jump\t// in\n    tag_208:\n    tag_207:\n      swap1\n      0x00\n      mstore\n      keccak256(0x00, 0x20)\n      swap1\n      0x0a\n      mul\n      add\n        /* \"ehr1.sol\":6562:6578  patients[i].name */\n      0x00\n      add\n        /* \"ehr1.sol\":6547:6578  names[index] = patients[i].name */\n      dup1\n      sload\n      tag_210\n      swap1\n      tag_137\n      jump\t// in\n    tag_210:\n      dup1\n      0x1f\n      add\n      0x20\n      dup1\n      swap2\n      div\n      mul\n      0x20\n      add\n      mload(0x40)\n      swap1\n      dup2\n      add\n      0x40\n      mstore\n      dup1\n      swap3\n      swap2\n      swap1\n      dup2\n      dup2\n      mstore\n      0x20\n      add\n      dup3\n      dup1\n      sload\n      tag_211\n      swap1\n      tag_137\n      jump\t// in\n    tag_211:\n      dup1\n      iszero\n      tag_212\n      jumpi\n      dup1\n      0x1f\n      lt\n      tag_213\n      jumpi\n      0x0100\n      dup1\n      dup4\n      sload\n      div\n      mul\n      dup4\n      mstore\n      swap2\n      0x20\n      add\n      swap2\n      jump(tag_212)\n    tag_213:\n      dup3\n      add\n      swap2\n      swap1\n      0x00\n      mstore\n      keccak256(0x00, 0x20)\n      swap1\n    tag_214:\n      dup2\n      sload\n      dup2\n      mstore\n      swap1\n      0x01\n      add\n      swap1\n      0x20\n      add\n      dup1\n      dup4\n      gt\n      tag_214\n      jumpi\n      dup3\n      swap1\n      sub\n      0x1f\n      and\n      dup3\n      add\n      swap2\n    tag_212:\n      pop\n      pop\n      pop\n      pop\n      pop\n        /* \"ehr1.sol\":6547:6552  names */\n      dup12\n        /* \"ehr1.sol\":6553:6558  index */\n      dup4\n        /* \"ehr1.sol\":6547:6559  names[index] */\n      dup2\n      mload\n      dup2\n      lt\n      tag_215\n      jumpi\n      tag_216\n      tag_105\n      jump\t// in\n    tag_216:\n    tag_215:\n      0x20\n      mul\n      0x20\n      add\n      add\n        /* \"ehr1.sol\":6547:6578  names[index] = patients[i].name */\n      dup2\n      swap1\n      mstore\n      pop\n        /* \"ehr1.sol\":6607:6615  patients */\n      0x03\n        /* \"ehr1.sol\":6616:6617  i */\n      dup2\n        /* \"ehr1.sol\":6607:6618  patients[i] */\n      dup2\n      sload\n      dup2\n      lt\n      tag_217\n      jumpi\n      tag_218\n      tag_105\n      jump\t// in\n    tag_218:\n    tag_217:\n      swap1\n      0x00\n      mstore\n      keccak256(0x00, 0x20)\n      swap1\n      0x0a\n      mul\n      add\n        /* \"ehr1.sol\":6607:6622  patients[i].age */\n      0x01\n      add\n      sload\n        /* \"ehr1.sol\":6593:6597  ages */\n      dup11\n        /* \"ehr1.sol\":6598:6603  index */\n      dup4\n        /* \"ehr1.sol\":6593:6604  ages[index] */\n      dup2\n      mload\n      dup2\n      lt\n      tag_220\n      jumpi\n      tag_221\n      tag_105\n      jump\t// in\n    tag_221:\n    tag_220:\n      0x20\n      mul\n      0x20\n      add\n      add\n        /* \"ehr1.sol\":6593:6622  ages[index] = patients[i].age */\n      dup2\n      dup2\n      mstore\n      pop\n      pop\n        /* \"ehr1.sol\":6654:6662  patients */\n      0x03\n        /* \"ehr1.sol\":6663:6664  i */\n      dup2\n        /* \"ehr1.sol\":6654:6665  patients[i] */\n      dup2\n      sload\n      dup2\n      lt\n      tag_222\n      jumpi\n      tag_223\n      tag_105\n      jump\t// in\n    tag_223:\n    tag_222:\n      swap1\n      0x00\n      mstore\n      keccak256(0x00, 0x20)\n      swap1\n      0x0a\n      mul\n      add\n        /* \"ehr1.sol\":6654:6672  patients[i].height */\n      0x02\n      add\n      sload\n        /* \"ehr1.sol\":6637:6644  heights */\n      dup10\n        /* \"ehr1.sol\":6645:6650  index */\n      dup4\n        /* \"ehr1.sol\":6637:6651  heights[index] */\n      dup2\n      mload\n      dup2\n      lt\n      tag_225\n      jumpi\n      tag_226\n      tag_105\n      jump\t// in\n    tag_226:\n    tag_225:\n      0x20\n      mul\n      0x20\n      add\n      add\n        /* \"ehr1.sol\":6637:6672  heights[index] = patients[i].height */\n      dup2\n      dup2\n      mstore\n      pop\n      pop\n        /* \"ehr1.sol\":6704:6712  patients */\n      0x03\n        /* \"ehr1.sol\":6713:6714  i */\n      dup2\n        /* \"ehr1.sol\":6704:6715  patients[i] */\n      dup2\n      sload\n      dup2\n      lt\n      tag_227\n      jumpi\n      tag_228\n      tag_105\n      jump\t// in\n    tag_228:\n    tag_227:\n      swap1\n      0x00\n      mstore\n      keccak256(0x00, 0x20)\n      swap1\n      0x0a\n      mul\n      add\n        /* \"ehr1.sol\":6704:6722  patients[i].weight */\n      0x03\n      add\n      sload\n        /* \"ehr1.sol\":6687:6694  weights */\n      dup9\n        /* \"ehr1.sol\":6695:6700  index */\n      dup4\n        /* \"ehr1.sol\":6687:6701  weights[index] */\n      dup2\n      mload\n      dup2\n      lt\n      tag_230\n      jumpi\n      tag_231\n      tag_105\n      jump\t// in\n    tag_231:\n    tag_230:\n      0x20\n      mul\n      0x20\n      add\n      add\n        /* \"ehr1.sol\":6687:6722  weights[index] = patients[i].weight */\n      dup2\n      dup2\n      mstore\n      pop\n      pop\n        /* \"ehr1.sol\":6756:6764  patients */\n      0x03\n        /* \"ehr1.sol\":6765:6766  i */\n      dup2\n        /* \"ehr1.sol\":6756:6767  patients[i] */\n      dup2\n      sload\n      dup2\n      lt\n      tag_232\n      jumpi\n      tag_233\n      tag_105\n      jump\t// in\n    tag_233:\n    tag_232:\n      swap1\n      0x00\n      mstore\n      keccak256(0x00, 0x20)\n      swap1\n      0x0a\n      mul\n      add\n        /* \"ehr1.sol\":6756:6776  patients[i].aadharNo */\n      0x04\n      add\n      sload\n        /* \"ehr1.sol\":6737:6746  aadharNos */\n      dup8\n        /* \"ehr1.sol\":6747:6752  index */\n      dup4\n        /* \"ehr1.sol\":6737:6753  aadharNos[index] */\n      dup2\n      mload\n      dup2\n      lt\n      tag_235\n      jumpi\n      tag_236\n      tag_105\n      jump\t// in\n    tag_236:\n    tag_235:\n      0x20\n      mul\n      0x20\n      add\n      add\n        /* \"ehr1.sol\":6737:6776  aadharNos[index] = patients[i].aadharNo */\n      dup2\n      dup2\n      mstore\n      pop\n      pop\n        /* \"ehr1.sol\":6815:6823  patients */\n      0x03\n        /* \"ehr1.sol\":6824:6825  i */\n      dup2\n        /* \"ehr1.sol\":6815:6826  patients[i] */\n      dup2\n      sload\n      dup2\n      lt\n      tag_237\n      jumpi\n      tag_238\n      tag_105\n      jump\t// in\n    tag_238:\n    tag_237:\n      swap1\n      0x00\n      mstore\n      keccak256(0x00, 0x20)\n      swap1\n      0x0a\n      mul\n      add\n        /* \"ehr1.sol\":6815:6840  patients[i].medicalReport */\n      0x07\n      add\n        /* \"ehr1.sol\":6791:6840  medicalReports[index] = patients[i].medicalReport */\n      dup1\n      sload\n      tag_240\n      swap1\n      tag_137\n      jump\t// in\n    tag_240:\n      dup1\n      0x1f\n      add\n      0x20\n      dup1\n      swap2\n      div\n      mul\n      0x20\n      add\n      mload(0x40)\n      swap1\n      dup2\n      add\n      0x40\n      mstore\n      dup1\n      swap3\n      swap2\n      swap1\n      dup2\n      dup2\n      mstore\n      0x20\n      add\n      dup3\n      dup1\n      sload\n      tag_241\n      swap1\n      tag_137\n      jump\t// in\n    tag_241:\n      dup1\n      iszero\n      tag_242\n      jumpi\n      dup1\n      0x1f\n      lt\n      tag_243\n      jumpi\n      0x0100\n      dup1\n      dup4\n      sload\n      div\n      mul\n      dup4\n      mstore\n      swap2\n      0x20\n      add\n      swap2\n      jump(tag_242)\n    tag_243:\n      dup3\n      add\n      swap2\n      swap1\n      0x00\n      mstore\n      keccak256(0x00, 0x20)\n      swap1\n    tag_244:\n      dup2\n      sload\n      dup2\n      mstore\n      swap1\n      0x01\n      add\n      swap1\n      0x20\n      add\n      dup1\n      dup4\n      gt\n      tag_244\n      jumpi\n      dup3\n      swap1\n      sub\n      0x1f\n      and\n      dup3\n      add\n      swap2\n    tag_242:\n      pop\n      pop\n      pop\n      pop\n      pop\n        /* \"ehr1.sol\":6791:6805  medicalReports */\n      dup7\n        /* \"ehr1.sol\":6806:6811  index */\n      dup4\n        /* \"ehr1.sol\":6791:6812  medicalReports[index] */\n      dup2\n      mload\n      dup2\n      lt\n      tag_245\n      jumpi\n      tag_246\n      tag_105\n      jump\t// in\n    tag_246:\n    tag_245:\n      0x20\n      mul\n      0x20\n      add\n      add\n        /* \"ehr1.sol\":6791:6840  medicalReports[index] = patients[i].medicalReport */\n      dup2\n      swap1\n      mstore\n      pop\n        /* \"ehr1.sol\":6878:6886  patients */\n      0x03\n        /* \"ehr1.sol\":6887:6888  i */\n      dup2\n        /* \"ehr1.sol\":6878:6889  patients[i] */\n      dup2\n      sload\n      dup2\n      lt\n      tag_247\n      jumpi\n      tag_248\n      tag_105\n      jump\t// in\n    tag_248:\n    tag_247:\n      swap1\n      0x00\n      mstore\n      keccak256(0x00, 0x20)\n      swap1\n      0x0a\n      mul\n      add\n        /* \"ehr1.sol\":6878:6902  patients[i].prescription */\n      0x08\n      add\n        /* \"ehr1.sol\":6855:6902  prescriptions[index] = patients[i].prescription */\n      dup1\n      sload\n      tag_250\n      swap1\n      tag_137\n      jump\t// in\n    tag_250:\n      dup1\n      0x1f\n      add\n      0x20\n      dup1\n      swap2\n      div\n      mul\n      0x20\n      add\n      mload(0x40)\n      swap1\n      dup2\n      add\n      0x40\n      mstore\n      dup1\n      swap3\n      swap2\n      swap1\n      dup2\n      dup2\n      mstore\n      0x20\n      add\n      dup3\n      dup1\n      sload\n      tag_251\n      swap1\n      tag_137\n      jump\t// in\n    tag_251:\n      dup1\n      iszero\n      tag_252\n      jumpi\n      dup1\n      0x1f\n      lt\n      tag_253\n      jumpi\n      0x0100\n      dup1\n      dup4\n      sload\n      div\n      mul\n      dup4\n      mstore\n      swap2\n      0x20\n      add\n      swap2\n      jump(tag_252)\n    tag_253:\n      dup3\n      add\n      swap2\n      swap1\n      0x00\n      mstore\n      keccak256(0x00, 0x20)\n      swap1\n    tag_254:\n      dup2\n      sload\n      dup2\n      mstore\n      swap1\n      0x01\n      add\n      swap1\n      0x20\n      add\n      dup1\n      dup4\n      gt\n      tag_254\n      jumpi\n      dup3\n      swap1\n      sub\n      0x1f\n      and\n      dup3\n      add\n      swap2\n    tag_252:\n      pop\n      pop\n      pop\n      pop\n      pop\n        /* \"ehr1.sol\":6855:6868  prescriptions */\n      dup6\n        /* \"ehr1.sol\":6869:6874  index */\n      dup4\n        /* \"ehr1.sol\":6855:6875  prescriptions[index] */\n      dup2\n      mload\n      dup2\n      lt\n      tag_255\n      jumpi\n      tag_256\n      tag_105\n      jump\t// in\n    tag_256:\n    tag_255:\n      0x20\n      mul\n      0x20\n      add\n      add\n        /* \"ehr1.sol\":6855:6902  prescriptions[index] = patients[i].prescription */\n      dup2\n      swap1\n      mstore\n      pop\n        /* \"ehr1.sol\":6938:6946  patients */\n      0x03\n        /* \"ehr1.sol\":6947:6948  i */\n      dup2\n        /* \"ehr1.sol\":6938:6949  patients[i] */\n      dup2\n      sload\n      dup2\n      lt\n      tag_257\n      jumpi\n      tag_258\n      tag_105\n      jump\t// in\n    tag_258:\n    tag_257:\n      swap1\n      0x00\n      mstore\n      keccak256(0x00, 0x20)\n      swap1\n      0x0a\n      mul\n      add\n        /* \"ehr1.sol\":6938:6960  patients[i].doctorname */\n      0x09\n      add\n        /* \"ehr1.sol\":6917:6960  doctornames[index] = patients[i].doctorname */\n      dup1\n      sload\n      tag_260\n      swap1\n      tag_137\n      jump\t// in\n    tag_260:\n      dup1\n      0x1f\n      add\n      0x20\n      dup1\n      swap2\n      div\n      mul\n      0x20\n      add\n      mload(0x40)\n      swap1\n      dup2\n      add\n      0x40\n      mstore\n      dup1\n      swap3\n      swap2\n      swap1\n      dup2\n      dup2\n      mstore\n      0x20\n      add\n      dup3\n      dup1\n      sload\n      tag_261\n      swap1\n      tag_137\n      jump\t// in\n    tag_261:\n      dup1\n      iszero\n      tag_262\n      jumpi\n      dup1\n      0x1f\n      lt\n      tag_263\n      jumpi\n      0x0100\n      dup1\n      dup4\n      sload\n      div\n      mul\n      dup4\n      mstore\n      swap2\n      0x20\n      add\n      swap2\n      jump(tag_262)\n    tag_263:\n      dup3\n      add\n      swap2\n      swap1\n      0x00\n      mstore\n      keccak256(0x00, 0x20)\n      swap1\n    tag_264:\n      dup2\n      sload\n      dup2\n      mstore\n      swap1\n      0x01\n      add\n      swap1\n      0x20\n      add\n      dup1\n      dup4\n      gt\n      tag_264\n      jumpi\n      dup3\n      swap1\n      sub\n      0x1f\n      and\n      dup3\n      add\n      swap2\n    tag_262:\n      pop\n      pop\n      pop\n      pop\n      pop\n        /* \"ehr1.sol\":6917:6928  doctornames */\n      dup5\n        /* \"ehr1.sol\":6929:6934  index */\n      dup4\n        /* \"ehr1.sol\":6917:6935  doctornames[index] */\n      dup2\n      mload\n      dup2\n      lt\n      tag_265\n      jumpi\n      tag_266\n      tag_105\n      jump\t// in\n    tag_266:\n    tag_265:\n      0x20\n      mul\n      0x20\n      add\n      add\n        /* \"ehr1.sol\":6917:6960  doctornames[index] = patients[i].doctorname */\n      dup2\n      swap1\n      mstore\n      pop\n        /* \"ehr1.sol\":6975:6982  index++ */\n      dup2\n      dup1\n      tag_267\n      swap1\n      tag_109\n      jump\t// in\n    tag_267:\n      swap3\n      pop\n      pop\n        /* \"ehr1.sol\":6465:6994  if (keccak256(bytes(patients[i].name)) == keccak256(bytes(_name))) {... */\n    tag_206:\n        /* \"ehr1.sol\":6449:6452  i++ */\n      dup1\n      dup1\n      tag_268\n      swap1\n      tag_109\n      jump\t// in\n    tag_268:\n      swap2\n      pop\n      pop\n        /* \"ehr1.sol\":6408:7001  for (uint256 i = 0; i < patients.length; i++) {... */\n      jump(tag_199)\n    tag_200:\n      pop\n        /* \"ehr1.sol\":7009:7102  return (names, ages, heights, weights, aadharNos, medicalReports, prescriptions, doctornames) */\n      pop\n      pop\n        /* \"ehr1.sol\":5536:7106  function getPatientDetailsByName(string memory _name) public view returns (... */\n      swap2\n      swap4\n      swap6\n      swap8\n      pop\n      swap2\n      swap4\n      swap6\n      swap8\n      jump\t// out\n        /* \"ehr1.sol\":4694:4935  function getHospitalByIndex(uint256 index) public view returns (string memory, address) {... */\n    tag_54:\n        /* \"ehr1.sol\":4758:4771  string memory */\n      0x60\n        /* \"ehr1.sol\":4773:4780  address */\n      0x00\n        /* \"ehr1.sol\":4809:4818  hospitals */\n      0x01\n        /* \"ehr1.sol\":4809:4825  hospitals.length */\n      dup1\n      sload\n      swap1\n      pop\n        /* \"ehr1.sol\":4801:4806  index */\n      dup4\n        /* \"ehr1.sol\":4801:4825  index < hospitals.length */\n      lt\n        /* \"ehr1.sol\":4793:4852  require(index < hospitals.length, \"Invalid hospital index\") */\n      tag_270\n      jumpi\n      mload(0x40)\n      0x08c379a000000000000000000000000000000000000000000000000000000000\n      dup2\n      mstore\n      0x04\n      add\n      tag_271\n      swap1\n      tag_116\n      jump\t// in\n    tag_271:\n      mload(0x40)\n      dup1\n      swap2\n      sub\n      swap1\n      revert\n    tag_270:\n        /* \"ehr1.sol\":4871:4880  hospitals */\n      0x01\n        /* \"ehr1.sol\":4881:4886  index */\n      dup4\n        /* \"ehr1.sol\":4871:4887  hospitals[index] */\n      dup2\n      sload\n      dup2\n      lt\n      tag_272\n      jumpi\n      tag_273\n      tag_105\n      jump\t// in\n    tag_273:\n    tag_272:\n      swap1\n      0x00\n      mstore\n      keccak256(0x00, 0x20)\n      swap1\n      0x02\n      mul\n      add\n        /* \"ehr1.sol\":4871:4892  hospitals[index].name */\n      0x00\n      add\n        /* \"ehr1.sol\":4894:4903  hospitals */\n      0x01\n        /* \"ehr1.sol\":4904:4909  index */\n      dup5\n        /* \"ehr1.sol\":4894:4910  hospitals[index] */\n      dup2\n      sload\n      dup2\n      lt\n      tag_275\n      jumpi\n      tag_276\n      tag_105\n      jump\t// in\n    tag_276:\n    tag_275:\n      swap1\n      0x00\n      mstore\n      keccak256(0x00, 0x20)\n      swap1\n      0x02\n      mul\n      add\n        /* \"ehr1.sol\":4894:4926  hospitals[index].hospitalAddress */\n      0x01\n      add\n      0x00\n      swap1\n      sload\n      swap1\n      0x0100\n      exp\n      swap1\n      div\n      0xffffffffffffffffffffffffffffffffffffffff\n      and\n        /* \"ehr1.sol\":4863:4927  return (hospitals[index].name, hospitals[index].hospitalAddress) */\n      dup2\n      dup1\n      sload\n      tag_278\n      swap1\n      tag_137\n      jump\t// in\n    tag_278:\n      dup1\n      0x1f\n      add\n      0x20\n      dup1\n      swap2\n      div\n      mul\n      0x20\n      add\n      mload(0x40)\n      swap1\n      dup2\n      add\n      0x40\n      mstore\n      dup1\n      swap3\n      swap2\n      swap1\n      dup2\n      dup2\n      mstore\n      0x20\n      add\n      dup3\n      dup1\n      sload\n      tag_279\n      swap1\n      tag_137\n      jump\t// in\n    tag_279:\n      dup1\n      iszero\n      tag_280\n      jumpi\n      dup1\n      0x1f\n      lt\n      tag_281\n      jumpi\n      0x0100\n      dup1\n      dup4\n      sload\n      div\n      mul\n      dup4\n      mstore\n      swap2\n      0x20\n      add\n      swap2\n      jump(tag_280)\n    tag_281:\n      dup3\n      add\n      swap2\n      swap1\n      0x00\n      mstore\n      keccak256(0x00, 0x20)\n      swap1\n    tag_282:\n      dup2\n      sload\n      dup2\n      mstore\n      swap1\n      0x01\n      add\n      swap1\n      0x20\n      add\n      dup1\n      dup4\n      gt\n      tag_282\n      jumpi\n      dup3\n      swap1\n      sub\n      0x1f\n      and\n      dup3\n      add\n      swap2\n    tag_280:\n      pop\n      pop\n      pop\n      pop\n      pop\n      swap2\n      pop\n      swap2\n      pop\n      swap2\n      pop\n        /* \"ehr1.sol\":4694:4935  function getHospitalByIndex(uint256 index) public view returns (string memory, address) {... */\n      swap2\n      pop\n      swap2\n      jump\t// out\n        /* \"ehr1.sol\":835:866  HospitalInfo[] public hospitals */\n    tag_59:\n      0x01\n      dup2\n      dup2\n      sload\n      dup2\n      lt\n      tag_283\n      jumpi\n      0x00\n      dup1\n      revert\n    tag_283:\n      swap1\n      0x00\n      mstore\n      keccak256(0x00, 0x20)\n      swap1\n      0x02\n      mul\n      add\n      0x00\n      swap2\n      pop\n      swap1\n      pop\n      dup1\n      0x00\n      add\n      dup1\n      sload\n      tag_285\n      swap1\n      tag_137\n      jump\t// in\n    tag_285:\n      dup1\n      0x1f\n      add\n      0x20\n      dup1\n      swap2\n      div\n      mul\n      0x20\n      add\n      mload(0x40)\n      swap1\n      dup2\n      add\n      0x40\n      mstore\n      dup1\n      swap3\n      swap2\n      swap1\n      dup2\n      dup2\n      mstore\n      0x20\n      add\n      dup3\n      dup1\n      sload\n      tag_286\n      swap1\n      tag_137\n      jump\t// in\n    tag_286:\n      dup1\n      iszero\n      tag_287\n      jumpi\n      dup1\n      0x1f\n      lt\n      tag_288\n      jumpi\n      0x0100\n      dup1\n      dup4\n      sload\n      div\n      mul\n      dup4\n      mstore\n      swap2\n      0x20\n      add\n      swap2\n      jump(tag_287)\n    tag_288:\n      dup3\n      add\n      swap2\n      swap1\n      0x00\n      mstore\n      keccak256(0x00, 0x20)\n      swap1\n    tag_289:\n      dup2\n      sload\n      dup2\n      mstore\n      swap1\n      0x01\n      add\n      swap1\n      0x20\n      add\n      dup1\n      dup4\n      gt\n      tag_289\n      jumpi\n      dup3\n      swap1\n      sub\n      0x1f\n      and\n      dup3\n      add\n      swap2\n    tag_287:\n      pop\n      pop\n      pop\n      pop\n      pop\n      swap1\n      dup1\n      0x01\n      add\n      0x00\n      swap1\n      sload\n      swap1\n      0x0100\n      exp\n      swap1\n      div\n      0xffffffffffffffffffffffffffffffffffffffff\n      and\n      swap1\n      pop\n      dup3\n      jump\t// out\n        /* \"ehr1.sol\":7114:8491  function getPatientDetailsByAadhar(uint256 _aadharNo) public view returns (... */\n    tag_63:\n        /* \"ehr1.sol\":7195:7216  string[] memory names */\n      0x60\n        /* \"ehr1.sol\":7223:7244  uint256[] memory ages */\n      dup1\n        /* \"ehr1.sol\":7251:7275  uint256[] memory heights */\n      0x60\n        /* \"ehr1.sol\":7282:7306  uint256[] memory weights */\n      dup1\n        /* \"ehr1.sol\":7313:7343  string[] memory medicalReports */\n      0x60\n        /* \"ehr1.sol\":7350:7379  string[] memory prescriptions */\n      dup1\n        /* \"ehr1.sol\":7386:7413  string[] memory doctorNames */\n      0x60\n        /* \"ehr1.sol\":7424:7437  uint256 count */\n      0x00\n        /* \"ehr1.sol\":7453:7462  uint256 i */\n      dup1\n        /* \"ehr1.sol\":7448:7585  for (uint256 i = 0; i < patients.length; i++) {... */\n    tag_291:\n        /* \"ehr1.sol\":7472:7480  patients */\n      0x03\n        /* \"ehr1.sol\":7472:7487  patients.length */\n      dup1\n      sload\n      swap1\n      pop\n        /* \"ehr1.sol\":7468:7469  i */\n      dup2\n        /* \"ehr1.sol\":7468:7487  i < patients.length */\n      lt\n        /* \"ehr1.sol\":7448:7585  for (uint256 i = 0; i < patients.length; i++) {... */\n      iszero\n      tag_292\n      jumpi\n        /* \"ehr1.sol\":7533:7542  _aadharNo */\n      dup10\n        /* \"ehr1.sol\":7509:7517  patients */\n      0x03\n        /* \"ehr1.sol\":7518:7519  i */\n      dup3\n        /* \"ehr1.sol\":7509:7520  patients[i] */\n      dup2\n      sload\n      dup2\n      lt\n      tag_294\n      jumpi\n      tag_295\n      tag_105\n      jump\t// in\n    tag_295:\n    tag_294:\n      swap1\n      0x00\n      mstore\n      keccak256(0x00, 0x20)\n      swap1\n      0x0a\n      mul\n      add\n        /* \"ehr1.sol\":7509:7529  patients[i].aadharNo */\n      0x04\n      add\n      sload\n        /* \"ehr1.sol\":7509:7542  patients[i].aadharNo == _aadharNo */\n      sub\n        /* \"ehr1.sol\":7505:7578  if (patients[i].aadharNo == _aadharNo) {... */\n      tag_297\n      jumpi\n        /* \"ehr1.sol\":7559:7566  count++ */\n      dup2\n      dup1\n      tag_298\n      swap1\n      tag_109\n      jump\t// in\n    tag_298:\n      swap3\n      pop\n      pop\n        /* \"ehr1.sol\":7505:7578  if (patients[i].aadharNo == _aadharNo) {... */\n    tag_297:\n        /* \"ehr1.sol\":7489:7492  i++ */\n      dup1\n      dup1\n      tag_299\n      swap1\n      tag_109\n      jump\t// in\n    tag_299:\n      swap2\n      pop\n      pop\n        /* \"ehr1.sol\":7448:7585  for (uint256 i = 0; i < patients.length; i++) {... */\n      jump(tag_291)\n    tag_292:\n      pop\n        /* \"ehr1.sol\":7614:7619  count */\n      dup1\n        /* \"ehr1.sol\":7601:7620  new string[](count) */\n      0xffffffffffffffff\n      dup2\n      gt\n      iszero\n      tag_300\n      jumpi\n      tag_301\n      tag_172\n      jump\t// in\n    tag_301:\n    tag_300:\n      mload(0x40)\n      swap1\n      dup1\n      dup3\n      mstore\n      dup1\n      0x20\n      mul\n      0x20\n      add\n      dup3\n      add\n      0x40\n      mstore\n      dup1\n      iszero\n      tag_302\n      jumpi\n      dup2\n      0x20\n      add\n    tag_303:\n      0x60\n      dup2\n      mstore\n      0x20\n      add\n      swap1\n      0x01\n      swap1\n      sub\n      swap1\n      dup2\n      tag_303\n      jumpi\n      swap1\n      pop\n    tag_302:\n      pop\n        /* \"ehr1.sol\":7593:7620  names = new string[](count) */\n      swap8\n      pop\n        /* \"ehr1.sol\":7648:7653  count */\n      dup1\n        /* \"ehr1.sol\":7634:7654  new uint256[](count) */\n      0xffffffffffffffff\n      dup2\n      gt\n      iszero\n      tag_304\n      jumpi\n      tag_305\n      tag_172\n      jump\t// in\n    tag_305:\n    tag_304:\n      mload(0x40)\n      swap1\n      dup1\n      dup3\n      mstore\n      dup1\n      0x20\n      mul\n      0x20\n      add\n      dup3\n      add\n      0x40\n      mstore\n      dup1\n      iszero\n      tag_306\n      jumpi\n      dup2\n      0x20\n      add\n      0x20\n      dup3\n      mul\n      dup1\n      calldatasize\n      dup4\n      calldatacopy\n      dup1\n      dup3\n      add\n      swap2\n      pop\n      pop\n      swap1\n      pop\n    tag_306:\n      pop\n        /* \"ehr1.sol\":7627:7654  ages = new uint256[](count) */\n      swap7\n      pop\n        /* \"ehr1.sol\":7685:7690  count */\n      dup1\n        /* \"ehr1.sol\":7671:7691  new uint256[](count) */\n      0xffffffffffffffff\n      dup2\n      gt\n      iszero\n      tag_307\n      jumpi\n      tag_308\n      tag_172\n      jump\t// in\n    tag_308:\n    tag_307:\n      mload(0x40)\n      swap1\n      dup1\n      dup3\n      mstore\n      dup1\n      0x20\n      mul\n      0x20\n      add\n      dup3\n      add\n      0x40\n      mstore\n      dup1\n      iszero\n      tag_309\n      jumpi\n      dup2\n      0x20\n      add\n      0x20\n      dup3\n      mul\n      dup1\n      calldatasize\n      dup4\n      calldatacopy\n      dup1\n      dup3\n      add\n      swap2\n      pop\n      pop\n      swap1\n      pop\n    tag_309:\n      pop\n        /* \"ehr1.sol\":7661:7691  heights = new uint256[](count) */\n      swap6\n      pop\n        /* \"ehr1.sol\":7722:7727  count */\n      dup1\n        /* \"ehr1.sol\":7708:7728  new uint256[](count) */\n      0xffffffffffffffff\n      dup2\n      gt\n      iszero\n      tag_310\n      jumpi\n      tag_311\n      tag_172\n      jump\t// in\n    tag_311:\n    tag_310:\n      mload(0x40)\n      swap1\n      dup1\n      dup3\n      mstore\n      dup1\n      0x20\n      mul\n      0x20\n      add\n      dup3\n      add\n      0x40\n      mstore\n      dup1\n      iszero\n      tag_312\n      jumpi\n      dup2\n      0x20\n      add\n      0x20\n      dup3\n      mul\n      dup1\n      calldatasize\n      dup4\n      calldatacopy\n      dup1\n      dup3\n      add\n      swap2\n      pop\n      pop\n      swap1\n      pop\n    tag_312:\n      pop\n        /* \"ehr1.sol\":7698:7728  weights = new uint256[](count) */\n      swap5\n      pop\n        /* \"ehr1.sol\":7765:7770  count */\n      dup1\n        /* \"ehr1.sol\":7752:7771  new string[](count) */\n      0xffffffffffffffff\n      dup2\n      gt\n      iszero\n      tag_313\n      jumpi\n      tag_314\n      tag_172\n      jump\t// in\n    tag_314:\n    tag_313:\n      mload(0x40)\n      swap1\n      dup1\n      dup3\n      mstore\n      dup1\n      0x20\n      mul\n      0x20\n      add\n      dup3\n      add\n      0x40\n      mstore\n      dup1\n      iszero\n      tag_315\n      jumpi\n      dup2\n      0x20\n      add\n    tag_316:\n      0x60\n      dup2\n      mstore\n      0x20\n      add\n      swap1\n      0x01\n      swap1\n      sub\n      swap1\n      dup2\n      tag_316\n      jumpi\n      swap1\n      pop\n    tag_315:\n      pop\n        /* \"ehr1.sol\":7735:7771  medicalReports = new string[](count) */\n      swap4\n      pop\n        /* \"ehr1.sol\":7807:7812  count */\n      dup1\n        /* \"ehr1.sol\":7794:7813  new string[](count) */\n      0xffffffffffffffff\n      dup2\n      gt\n      iszero\n      tag_317\n      jumpi\n      tag_318\n      tag_172\n      jump\t// in\n    tag_318:\n    tag_317:\n      mload(0x40)\n      swap1\n      dup1\n      dup3\n      mstore\n      dup1\n      0x20\n      mul\n      0x20\n      add\n      dup3\n      add\n      0x40\n      mstore\n      dup1\n      iszero\n      tag_319\n      jumpi\n      dup2\n      0x20\n      add\n    tag_320:\n      0x60\n      dup2\n      mstore\n      0x20\n      add\n      swap1\n      0x01\n      swap1\n      sub\n      swap1\n      dup2\n      tag_320\n      jumpi\n      swap1\n      pop\n    tag_319:\n      pop\n        /* \"ehr1.sol\":7778:7813  prescriptions = new string[](count) */\n      swap3\n      pop\n        /* \"ehr1.sol\":7847:7852  count */\n      dup1\n        /* \"ehr1.sol\":7834:7853  new string[](count) */\n      0xffffffffffffffff\n      dup2\n      gt\n      iszero\n      tag_321\n      jumpi\n      tag_322\n      tag_172\n      jump\t// in\n    tag_322:\n    tag_321:\n      mload(0x40)\n      swap1\n      dup1\n      dup3\n      mstore\n      dup1\n      0x20\n      mul\n      0x20\n      add\n      dup3\n      add\n      0x40\n      mstore\n      dup1\n      iszero\n      tag_323\n      jumpi\n      dup2\n      0x20\n      add\n    tag_324:\n      0x60\n      dup2\n      mstore\n      0x20\n      add\n      swap1\n      0x01\n      swap1\n      sub\n      swap1\n      dup2\n      tag_324\n      jumpi\n      swap1\n      pop\n    tag_323:\n      pop\n        /* \"ehr1.sol\":7820:7853  doctorNames = new string[](count) */\n      swap2\n      pop\n        /* \"ehr1.sol\":7862:7875  uint256 index */\n      0x00\n        /* \"ehr1.sol\":7891:7900  uint256 i */\n      dup1\n        /* \"ehr1.sol\":7886:8397  for (uint256 i = 0; i < patients.length; i++) {... */\n    tag_325:\n        /* \"ehr1.sol\":7910:7918  patients */\n      0x03\n        /* \"ehr1.sol\":7910:7925  patients.length */\n      dup1\n      sload\n      swap1\n      pop\n        /* \"ehr1.sol\":7906:7907  i */\n      dup2\n        /* \"ehr1.sol\":7906:7925  i < patients.length */\n      lt\n        /* \"ehr1.sol\":7886:8397  for (uint256 i = 0; i < patients.length; i++) {... */\n      iszero\n      tag_326\n      jumpi\n        /* \"ehr1.sol\":7971:7980  _aadharNo */\n      dup11\n        /* \"ehr1.sol\":7947:7955  patients */\n      0x03\n        /* \"ehr1.sol\":7956:7957  i */\n      dup3\n        /* \"ehr1.sol\":7947:7958  patients[i] */\n      dup2\n      sload\n      dup2\n      lt\n      tag_328\n      jumpi\n      tag_329\n      tag_105\n      jump\t// in\n    tag_329:\n    tag_328:\n      swap1\n      0x00\n      mstore\n      keccak256(0x00, 0x20)\n      swap1\n      0x0a\n      mul\n      add\n        /* \"ehr1.sol\":7947:7967  patients[i].aadharNo */\n      0x04\n      add\n      sload\n        /* \"ehr1.sol\":7947:7980  patients[i].aadharNo == _aadharNo */\n      sub\n        /* \"ehr1.sol\":7943:8390  if (patients[i].aadharNo == _aadharNo) {... */\n      tag_331\n      jumpi\n        /* \"ehr1.sol\":8012:8020  patients */\n      0x03\n        /* \"ehr1.sol\":8021:8022  i */\n      dup2\n        /* \"ehr1.sol\":8012:8023  patients[i] */\n      dup2\n      sload\n      dup2\n      lt\n      tag_332\n      jumpi\n      tag_333\n      tag_105\n      jump\t// in\n    tag_333:\n    tag_332:\n      swap1\n      0x00\n      mstore\n      keccak256(0x00, 0x20)\n      swap1\n      0x0a\n      mul\n      add\n        /* \"ehr1.sol\":8012:8028  patients[i].name */\n      0x00\n      add\n        /* \"ehr1.sol\":7997:8028  names[index] = patients[i].name */\n      dup1\n      sload\n      tag_335\n      swap1\n      tag_137\n      jump\t// in\n    tag_335:\n      dup1\n      0x1f\n      add\n      0x20\n      dup1\n      swap2\n      div\n      mul\n      0x20\n      add\n      mload(0x40)\n      swap1\n      dup2\n      add\n      0x40\n      mstore\n      dup1\n      swap3\n      swap2\n      swap1\n      dup2\n      dup2\n      mstore\n      0x20\n      add\n      dup3\n      dup1\n      sload\n      tag_336\n      swap1\n      tag_137\n      jump\t// in\n    tag_336:\n      dup1\n      iszero\n      tag_337\n      jumpi\n      dup1\n      0x1f\n      lt\n      tag_338\n      jumpi\n      0x0100\n      dup1\n      dup4\n      sload\n      div\n      mul\n      dup4\n      mstore\n      swap2\n      0x20\n      add\n      swap2\n      jump(tag_337)\n    tag_338:\n      dup3\n      add\n      swap2\n      swap1\n      0x00\n      mstore\n      keccak256(0x00, 0x20)\n      swap1\n    tag_339:\n      dup2\n      sload\n      dup2\n      mstore\n      swap1\n      0x01\n      add\n      swap1\n      0x20\n      add\n      dup1\n      dup4\n      gt\n      tag_339\n      jumpi\n      dup3\n      swap1\n      sub\n      0x1f\n      and\n      dup3\n      add\n      swap2\n    tag_337:\n      pop\n      pop\n      pop\n      pop\n      pop\n        /* \"ehr1.sol\":7997:8002  names */\n      dup11\n        /* \"ehr1.sol\":8003:8008  index */\n      dup4\n        /* \"ehr1.sol\":7997:8009  names[index] */\n      dup2\n      mload\n      dup2\n      lt\n      tag_340\n      jumpi\n      tag_341\n      tag_105\n      jump\t// in\n    tag_341:\n    tag_340:\n      0x20\n      mul\n      0x20\n      add\n      add\n        /* \"ehr1.sol\":7997:8028  names[index] = patients[i].name */\n      dup2\n      swap1\n      mstore\n      pop\n        /* \"ehr1.sol\":8057:8065  patients */\n      0x03\n        /* \"ehr1.sol\":8066:8067  i */\n      dup2\n        /* \"ehr1.sol\":8057:8068  patients[i] */\n      dup2\n      sload\n      dup2\n      lt\n      tag_342\n      jumpi\n      tag_343\n      tag_105\n      jump\t// in\n    tag_343:\n    tag_342:\n      swap1\n      0x00\n      mstore\n      keccak256(0x00, 0x20)\n      swap1\n      0x0a\n      mul\n      add\n        /* \"ehr1.sol\":8057:8072  patients[i].age */\n      0x01\n      add\n      sload\n        /* \"ehr1.sol\":8043:8047  ages */\n      dup10\n        /* \"ehr1.sol\":8048:8053  index */\n      dup4\n        /* \"ehr1.sol\":8043:8054  ages[index] */\n      dup2\n      mload\n      dup2\n      lt\n      tag_345\n      jumpi\n      tag_346\n      tag_105\n      jump\t// in\n    tag_346:\n    tag_345:\n      0x20\n      mul\n      0x20\n      add\n      add\n        /* \"ehr1.sol\":8043:8072  ages[index] = patients[i].age */\n      dup2\n      dup2\n      mstore\n      pop\n      pop\n        /* \"ehr1.sol\":8104:8112  patients */\n      0x03\n        /* \"ehr1.sol\":8113:8114  i */\n      dup2\n        /* \"ehr1.sol\":8104:8115  patients[i] */\n      dup2\n      sload\n      dup2\n      lt\n      tag_347\n      jumpi\n      tag_348\n      tag_105\n      jump\t// in\n    tag_348:\n    tag_347:\n      swap1\n      0x00\n      mstore\n      keccak256(0x00, 0x20)\n      swap1\n      0x0a\n      mul\n      add\n        /* \"ehr1.sol\":8104:8122  patients[i].height */\n      0x02\n      add\n      sload\n        /* \"ehr1.sol\":8087:8094  heights */\n      dup9\n        /* \"ehr1.sol\":8095:8100  index */\n      dup4\n        /* \"ehr1.sol\":8087:8101  heights[index] */\n      dup2\n      mload\n      dup2\n      lt\n      tag_350\n      jumpi\n      tag_351\n      tag_105\n      jump\t// in\n    tag_351:\n    tag_350:\n      0x20\n      mul\n      0x20\n      add\n      add\n        /* \"ehr1.sol\":8087:8122  heights[index] = patients[i].height */\n      dup2\n      dup2\n      mstore\n      pop\n      pop\n        /* \"ehr1.sol\":8154:8162  patients */\n      0x03\n        /* \"ehr1.sol\":8163:8164  i */\n      dup2\n        /* \"ehr1.sol\":8154:8165  patients[i] */\n      dup2\n      sload\n      dup2\n      lt\n      tag_352\n      jumpi\n      tag_353\n      tag_105\n      jump\t// in\n    tag_353:\n    tag_352:\n      swap1\n      0x00\n      mstore\n      keccak256(0x00, 0x20)\n      swap1\n      0x0a\n      mul\n      add\n        /* \"ehr1.sol\":8154:8172  patients[i].weight */\n      0x03\n      add\n      sload\n        /* \"ehr1.sol\":8137:8144  weights */\n      dup8\n        /* \"ehr1.sol\":8145:8150  index */\n      dup4\n        /* \"ehr1.sol\":8137:8151  weights[index] */\n      dup2\n      mload\n      dup2\n      lt\n      tag_355\n      jumpi\n      tag_356\n      tag_105\n      jump\t// in\n    tag_356:\n    tag_355:\n      0x20\n      mul\n      0x20\n      add\n      add\n        /* \"ehr1.sol\":8137:8172  weights[index] = patients[i].weight */\n      dup2\n      dup2\n      mstore\n      pop\n      pop\n        /* \"ehr1.sol\":8211:8219  patients */\n      0x03\n        /* \"ehr1.sol\":8220:8221  i */\n      dup2\n        /* \"ehr1.sol\":8211:8222  patients[i] */\n      dup2\n      sload\n      dup2\n      lt\n      tag_357\n      jumpi\n      tag_358\n      tag_105\n      jump\t// in\n    tag_358:\n    tag_357:\n      swap1\n      0x00\n      mstore\n      keccak256(0x00, 0x20)\n      swap1\n      0x0a\n      mul\n      add\n        /* \"ehr1.sol\":8211:8236  patients[i].medicalReport */\n      0x07\n      add\n        /* \"ehr1.sol\":8187:8236  medicalReports[index] = patients[i].medicalReport */\n      dup1\n      sload\n      tag_360\n      swap1\n      tag_137\n      jump\t// in\n    tag_360:\n      dup1\n      0x1f\n      add\n      0x20\n      dup1\n      swap2\n      div\n      mul\n      0x20\n      add\n      mload(0x40)\n      swap1\n      dup2\n      add\n      0x40\n      mstore\n      dup1\n      swap3\n      swap2\n      swap1\n      dup2\n      dup2\n      mstore\n      0x20\n      add\n      dup3\n      dup1\n      sload\n      tag_361\n      swap1\n      tag_137\n      jump\t// in\n    tag_361:\n      dup1\n      iszero\n      tag_362\n      jumpi\n      dup1\n      0x1f\n      lt\n      tag_363\n      jumpi\n      0x0100\n      dup1\n      dup4\n      sload\n      div\n      mul\n      dup4\n      mstore\n      swap2\n      0x20\n      add\n      swap2\n      jump(tag_362)\n    tag_363:\n      dup3\n      add\n      swap2\n      swap1\n      0x00\n      mstore\n      keccak256(0x00, 0x20)\n      swap1\n    tag_364:\n      dup2\n      sload\n      dup2\n      mstore\n      swap1\n      0x01\n      add\n      swap1\n      0x20\n      add\n      dup1\n      dup4\n      gt\n      tag_364\n      jumpi\n      dup3\n      swap1\n      sub\n      0x1f\n      and\n      dup3\n      add\n      swap2\n    tag_362:\n      pop\n      pop\n      pop\n      pop\n      pop\n        /* \"ehr1.sol\":8187:8201  medicalReports */\n      dup7\n        /* \"ehr1.sol\":8202:8207  index */\n      dup4\n        /* \"ehr1.sol\":8187:8208  medicalReports[index] */\n      dup2\n      mload\n      dup2\n      lt\n      tag_365\n      jumpi\n      tag_366\n      tag_105\n      jump\t// in\n    tag_366:\n    tag_365:\n      0x20\n      mul\n      0x20\n      add\n      add\n        /* \"ehr1.sol\":8187:8236  medicalReports[index] = patients[i].medicalReport */\n      dup2\n      swap1\n      mstore\n      pop\n        /* \"ehr1.sol\":8274:8282  patients */\n      0x03\n        /* \"ehr1.sol\":8283:8284  i */\n      dup2\n        /* \"ehr1.sol\":8274:8285  patients[i] */\n      dup2\n      sload\n      dup2\n      lt\n      tag_367\n      jumpi\n      tag_368\n      tag_105\n      jump\t// in\n    tag_368:\n    tag_367:\n      swap1\n      0x00\n      mstore\n      keccak256(0x00, 0x20)\n      swap1\n      0x0a\n      mul\n      add\n        /* \"ehr1.sol\":8274:8298  patients[i].prescription */\n      0x08\n      add\n        /* \"ehr1.sol\":8251:8298  prescriptions[index] = patients[i].prescription */\n      dup1\n      sload\n      tag_370\n      swap1\n      tag_137\n      jump\t// in\n    tag_370:\n      dup1\n      0x1f\n      add\n      0x20\n      dup1\n      swap2\n      div\n      mul\n      0x20\n      add\n      mload(0x40)\n      swap1\n      dup2\n      add\n      0x40\n      mstore\n      dup1\n      swap3\n      swap2\n      swap1\n      dup2\n      dup2\n      mstore\n      0x20\n      add\n      dup3\n      dup1\n      sload\n      tag_371\n      swap1\n      tag_137\n      jump\t// in\n    tag_371:\n      dup1\n      iszero\n      tag_372\n      jumpi\n      dup1\n      0x1f\n      lt\n      tag_373\n      jumpi\n      0x0100\n      dup1\n      dup4\n      sload\n      div\n      mul\n      dup4\n      mstore\n      swap2\n      0x20\n      add\n      swap2\n      jump(tag_372)\n    tag_373:\n      dup3\n      add\n      swap2\n      swap1\n      0x00\n      mstore\n      keccak256(0x00, 0x20)\n      swap1\n    tag_374:\n      dup2\n      sload\n      dup2\n      mstore\n      swap1\n      0x01\n      add\n      swap1\n      0x20\n      add\n      dup1\n      dup4\n      gt\n      tag_374\n      jumpi\n      dup3\n      swap1\n      sub\n      0x1f\n      and\n      dup3\n      add\n      swap2\n    tag_372:\n      pop\n      pop\n      pop\n      pop\n      pop\n        /* \"ehr1.sol\":8251:8264  prescriptions */\n      dup6\n        /* \"ehr1.sol\":8265:8270  index */\n      dup4\n        /* \"ehr1.sol\":8251:8271  prescriptions[index] */\n      dup2\n      mload\n      dup2\n      lt\n      tag_375\n      jumpi\n      tag_376\n      tag_105\n      jump\t// in\n    tag_376:\n    tag_375:\n      0x20\n      mul\n      0x20\n      add\n      add\n        /* \"ehr1.sol\":8251:8298  prescriptions[index] = patients[i].prescription */\n      dup2\n      swap1\n      mstore\n      pop\n        /* \"ehr1.sol\":8334:8342  patients */\n      0x03\n        /* \"ehr1.sol\":8343:8344  i */\n      dup2\n        /* \"ehr1.sol\":8334:8345  patients[i] */\n      dup2\n      sload\n      dup2\n      lt\n      tag_377\n      jumpi\n      tag_378\n      tag_105\n      jump\t// in\n    tag_378:\n    tag_377:\n      swap1\n      0x00\n      mstore\n      keccak256(0x00, 0x20)\n      swap1\n      0x0a\n      mul\n      add\n        /* \"ehr1.sol\":8334:8356  patients[i].doctorname */\n      0x09\n      add\n        /* \"ehr1.sol\":8313:8356  doctorNames[index] = patients[i].doctorname */\n      dup1\n      sload\n      tag_380\n      swap1\n      tag_137\n      jump\t// in\n    tag_380:\n      dup1\n      0x1f\n      add\n      0x20\n      dup1\n      swap2\n      div\n      mul\n      0x20\n      add\n      mload(0x40)\n      swap1\n      dup2\n      add\n      0x40\n      mstore\n      dup1\n      swap3\n      swap2\n      swap1\n      dup2\n      dup2\n      mstore\n      0x20\n      add\n      dup3\n      dup1\n      sload\n      tag_381\n      swap1\n      tag_137\n      jump\t// in\n    tag_381:\n      dup1\n      iszero\n      tag_382\n      jumpi\n      dup1\n      0x1f\n      lt\n      tag_383\n      jumpi\n      0x0100\n      dup1\n      dup4\n      sload\n      div\n      mul\n      dup4\n      mstore\n      swap2\n      0x20\n      add\n      swap2\n      jump(tag_382)\n    tag_383:\n      dup3\n      add\n      swap2\n      swap1\n      0x00\n      mstore\n      keccak256(0x00, 0x20)\n      swap1\n    tag_384:\n      dup2\n      sload\n      dup2\n      mstore\n      swap1\n      0x01\n      add\n      swap1\n      0x20\n      add\n      dup1\n      dup4\n      gt\n      tag_384\n      jumpi\n      dup3\n      swap1\n      sub\n      0x1f\n      and\n      dup3\n      add\n      swap2\n    tag_382:\n      pop\n      pop\n      pop\n      pop\n      pop\n        /* \"ehr1.sol\":8313:8324  doctorNames */\n      dup5\n        /* \"ehr1.sol\":8325:8330  index */\n      dup4\n        /* \"ehr1.sol\":8313:8331  doctorNames[index] */\n      dup2\n      mload\n      dup2\n      lt\n      tag_385\n      jumpi\n      tag_386\n      tag_105\n      jump\t// in\n    tag_386:\n    tag_385:\n      0x20\n      mul\n      0x20\n      add\n      add\n        /* \"ehr1.sol\":8313:8356  doctorNames[index] = patients[i].doctorname */\n      dup2\n      swap1\n      mstore\n      pop\n        /* \"ehr1.sol\":8371:8378  index++ */\n      dup2\n      dup1\n      tag_387\n      swap1\n      tag_109\n      jump\t// in\n    tag_387:\n      swap3\n      pop\n      pop\n        /* \"ehr1.sol\":7943:8390  if (patients[i].aadharNo == _aadharNo) {... */\n    tag_331:\n        /* \"ehr1.sol\":7927:7930  i++ */\n      dup1\n      dup1\n      tag_388\n      swap1\n      tag_109\n      jump\t// in\n    tag_388:\n      swap2\n      pop\n      pop\n        /* \"ehr1.sol\":7886:8397  for (uint256 i = 0; i < patients.length; i++) {... */\n      jump(tag_325)\n    tag_326:\n      pop\n        /* \"ehr1.sol\":8405:8487  return (names, ages, heights, weights, medicalReports, prescriptions, doctorNames) */\n      pop\n      pop\n        /* \"ehr1.sol\":7114:8491  function getPatientDetailsByAadhar(uint256 _aadharNo) public view returns (... */\n      swap2\n      swap4\n      swap6\n      swap8\n      swap1\n      swap3\n      swap5\n      swap7\n      pop\n      jump\t// out\n        /* \"ehr1.sol\":935:975  mapping(address =>bool) public isPatient */\n    tag_69:\n      mstore(0x20, 0x04)\n      dup1\n      0x00\n      mstore\n      keccak256(0x00, 0x40)\n      0x00\n      swap2\n      pop\n      sload\n      swap1\n      0x0100\n      exp\n      swap1\n      div\n      0xff\n      and\n      dup2\n      jump\t// out\n        /* \"ehr1.sol\":903:928  Patient[] public patients */\n    tag_74:\n      0x03\n      dup2\n      dup2\n      sload\n      dup2\n      lt\n      tag_389\n      jumpi\n      0x00\n      dup1\n      revert\n    tag_389:\n      swap1\n      0x00\n      mstore\n      keccak256(0x00, 0x20)\n      swap1\n      0x0a\n      mul\n      add\n      0x00\n      swap2\n      pop\n      swap1\n      pop\n      dup1\n      0x00\n      add\n      dup1\n      sload\n      tag_391\n      swap1\n      tag_137\n      jump\t// in\n    tag_391:\n      dup1\n      0x1f\n      add\n      0x20\n      dup1\n      swap2\n      div\n      mul\n      0x20\n      add\n      mload(0x40)\n      swap1\n      dup2\n      add\n      0x40\n      mstore\n      dup1\n      swap3\n      swap2\n      swap1\n      dup2\n      dup2\n      mstore\n      0x20\n      add\n      dup3\n      dup1\n      sload\n      tag_392\n      swap1\n      tag_137\n      jump\t// in\n    tag_392:\n      dup1\n      iszero\n      tag_393\n      jumpi\n      dup1\n      0x1f\n      lt\n      tag_394\n      jumpi\n      0x0100\n      dup1\n      dup4\n      sload\n      div\n      mul\n      dup4\n      mstore\n      swap2\n      0x20\n      add\n      swap2\n      jump(tag_393)\n    tag_394:\n      dup3\n      add\n      swap2\n      swap1\n      0x00\n      mstore\n      keccak256(0x00, 0x20)\n      swap1\n    tag_395:\n      dup2\n      sload\n      dup2\n      mstore\n      swap1\n      0x01\n      add\n      swap1\n      0x20\n      add\n      dup1\n      dup4\n      gt\n      tag_395\n      jumpi\n      dup3\n      swap1\n      sub\n      0x1f\n      and\n      dup3\n      add\n      swap2\n    tag_393:\n      pop\n      pop\n      pop\n      pop\n      pop\n      swap1\n      dup1\n      0x01\n      add\n      sload\n      swap1\n      dup1\n      0x02\n      add\n      sload\n      swap1\n      dup1\n      0x03\n      add\n      sload\n      swap1\n      dup1\n      0x04\n      add\n      sload\n      swap1\n      dup1\n      0x05\n      add\n      dup1\n      sload\n      tag_396\n      swap1\n      tag_137\n      jump\t// in\n    tag_396:\n      dup1\n      0x1f\n      add\n      0x20\n      dup1\n      swap2\n      div\n      mul\n      0x20\n      add\n      mload(0x40)\n      swap1\n      dup2\n      add\n      0x40\n      mstore\n      dup1\n      swap3\n      swap2\n      swap1\n      dup2\n      dup2\n      mstore\n      0x20\n      add\n      dup3\n      dup1\n      sload\n      tag_397\n      swap1\n      tag_137\n      jump\t// in\n    tag_397:\n      dup1\n      iszero\n      tag_398\n      jumpi\n      dup1\n      0x1f\n      lt\n      tag_399\n      jumpi\n      0x0100\n      dup1\n      dup4\n      sload\n      div\n      mul\n      dup4\n      mstore\n      swap2\n      0x20\n      add\n      swap2\n      jump(tag_398)\n    tag_399:\n      dup3\n      add\n      swap2\n      swap1\n      0x00\n      mstore\n      keccak256(0x00, 0x20)\n      swap1\n    tag_400:\n      dup2\n      sload\n      dup2\n      mstore\n      swap1\n      0x01\n      add\n      swap1\n      0x20\n      add\n      dup1\n      dup4\n      gt\n      tag_400\n      jumpi\n      dup3\n      swap1\n      sub\n      0x1f\n      and\n      dup3\n      add\n      swap2\n    tag_398:\n      pop\n      pop\n      pop\n      pop\n      pop\n      swap1\n      dup1\n      0x06\n      add\n      sload\n      swap1\n      dup1\n      0x07\n      add\n      dup1\n      sload\n      tag_401\n      swap1\n      tag_137\n      jump\t// in\n    tag_401:\n      dup1\n      0x1f\n      add\n      0x20\n      dup1\n      swap2\n      div\n      mul\n      0x20\n      add\n      mload(0x40)\n      swap1\n      dup2\n      add\n      0x40\n      mstore\n      dup1\n      swap3\n      swap2\n      swap1\n      dup2\n      dup2\n      mstore\n      0x20\n      add\n      dup3\n      dup1\n      sload\n      tag_402\n      swap1\n      tag_137\n      jump\t// in\n    tag_402:\n      dup1\n      iszero\n      tag_403\n      jumpi\n      dup1\n      0x1f\n      lt\n      tag_404\n      jumpi\n      0x0100\n      dup1\n      dup4\n      sload\n      div\n      mul\n      dup4\n      mstore\n      swap2\n      0x20\n      add\n      swap2\n      jump(tag_403)\n    tag_404:\n      dup3\n      add\n      swap2\n      swap1\n      0x00\n      mstore\n      keccak256(0x00, 0x20)\n      swap1\n    tag_405:\n      dup2\n      sload\n      dup2\n      mstore\n      swap1\n      0x01\n      add\n      swap1\n      0x20\n      add\n      dup1\n      dup4\n      gt\n      tag_405\n      jumpi\n      dup3\n      swap1\n      sub\n      0x1f\n      and\n      dup3\n      add\n      swap2\n    tag_403:\n      pop\n      pop\n      pop\n      pop\n      pop\n      swap1\n      dup1\n      0x08\n      add\n      dup1\n      sload\n      tag_406\n      swap1\n      tag_137\n      jump\t// in\n    tag_406:\n      dup1\n      0x1f\n      add\n      0x20\n      dup1\n      swap2\n      div\n      mul\n      0x20\n      add\n      mload(0x40)\n      swap1\n      dup2\n      add\n      0x40\n      mstore\n      dup1\n      swap3\n      swap2\n      swap1\n      dup2\n      dup2\n      mstore\n      0x20\n      add\n      dup3\n      dup1\n      sload\n      tag_407\n      swap1\n      tag_137\n      jump\t// in\n    tag_407:\n      dup1\n      iszero\n      tag_408\n      jumpi\n      dup1\n      0x1f\n      lt\n      tag_409\n      jumpi\n      0x0100\n      dup1\n      dup4\n      sload\n      div\n      mul\n      dup4\n      mstore\n      swap2\n      0x20\n      add\n      swap2\n      jump(tag_408)\n    tag_409:\n      dup3\n      add\n      swap2\n      swap1\n      0x00\n      mstore\n      keccak256(0x00, 0x20)\n      swap1\n    tag_410:\n      dup2\n      sload\n      dup2\n      mstore\n      swap1\n      0x01\n      add\n      swap1\n      0x20\n      add\n      dup1\n      dup4\n      gt\n      tag_410\n      jumpi\n      dup3\n      swap1\n      sub\n      0x1f\n      and\n      dup3\n      add\n      swap2\n    tag_408:\n      pop\n      pop\n      pop\n      pop\n      pop\n      swap1\n      dup1\n      0x09\n      add\n      dup1\n      sload\n      tag_411\n      swap1\n      tag_137\n      jump\t// in\n    tag_411:\n      dup1\n      0x1f\n      add\n      0x20\n      dup1\n      swap2\n      div\n      mul\n      0x20\n      add\n      mload(0x40)\n      swap1\n      dup2\n      add\n      0x40\n      mstore\n      dup1\n      swap3\n      swap2\n      swap1\n      dup2\n      dup2\n      mstore\n      0x20\n      add\n      dup3\n      dup1\n      sload\n      tag_412\n      swap1\n      tag_137\n      jump\t// in\n    tag_412:\n      dup1\n      iszero\n      tag_413\n      jumpi\n      dup1\n      0x1f\n      lt\n      tag_414\n      jumpi\n      0x0100\n      dup1\n      dup4\n      sload\n      div\n      mul\n      dup4\n      mstore\n      swap2\n      0x20\n      add\n      swap2\n      jump(tag_413)\n    tag_414:\n      dup3\n      add\n      swap2\n      swap1\n      0x00\n      mstore\n      keccak256(0x00, 0x20)\n      swap1\n    tag_415:\n      dup2\n      sload\n      dup2\n      mstore\n      swap1\n      0x01\n      add\n      swap1\n      0x20\n      add\n      dup1\n      dup4\n      gt\n      tag_415\n      jumpi\n      dup3\n      swap1\n      sub\n      0x1f\n      and\n      dup3\n      add\n      swap2\n    tag_413:\n      pop\n      pop\n      pop\n      pop\n      pop\n      swap1\n      pop\n      dup11\n      jump\t// out\n        /* \"ehr1.sol\":982:1021  mapping(address =>bool) public isDoctor */\n    tag_79:\n      mstore(0x20, 0x05)\n      dup1\n      0x00\n      mstore\n      keccak256(0x00, 0x40)\n      0x00\n      swap2\n      pop\n      sload\n      swap1\n      0x0100\n      exp\n      swap1\n      div\n      0xff\n      and\n      dup2\n      jump\t// out\n        /* \"ehr1.sol\":3936:4578  function addMedicalRecord(uint256 _patientIndex, string memory _medicalReport, string memory _prescription) public onlyDoctor {... */\n    tag_84:\n        /* \"ehr1.sol\":1374:1382  isDoctor */\n      0x05\n        /* \"ehr1.sol\":1374:1394  isDoctor[msg.sender] */\n      0x00\n        /* \"ehr1.sol\":1383:1393  msg.sender */\n      caller\n        /* \"ehr1.sol\":1374:1394  isDoctor[msg.sender] */\n      0xffffffffffffffffffffffffffffffffffffffff\n      and\n      0xffffffffffffffffffffffffffffffffffffffff\n      and\n      dup2\n      mstore\n      0x20\n      add\n      swap1\n      dup2\n      mstore\n      0x20\n      add\n      0x00\n      keccak256\n      0x00\n      swap1\n      sload\n      swap1\n      0x0100\n      exp\n      swap1\n      div\n      0xff\n      and\n        /* \"ehr1.sol\":1366:1429  require(isDoctor[msg.sender],\"you are not a registered doctor\") */\n      tag_417\n      jumpi\n      mload(0x40)\n      0x08c379a000000000000000000000000000000000000000000000000000000000\n      dup2\n      mstore\n      0x04\n      add\n      tag_418\n      swap1\n      tag_419\n      jump\t// in\n    tag_418:\n      mload(0x40)\n      dup1\n      swap2\n      sub\n      swap1\n      revert\n    tag_417:\n        /* \"ehr1.sol\":4097:4105  patients */\n      0x03\n        /* \"ehr1.sol\":4097:4112  patients.length */\n      dup1\n      sload\n      swap1\n      pop\n        /* \"ehr1.sol\":4081:4094  _patientIndex */\n      dup4\n        /* \"ehr1.sol\":4081:4112  _patientIndex < patients.length */\n      lt\n        /* \"ehr1.sol\":4073:4138  require(_patientIndex < patients.length, \"Invalid patient index\") */\n      tag_421\n      jumpi\n      mload(0x40)\n      0x08c379a000000000000000000000000000000000000000000000000000000000\n      dup2\n      mstore\n      0x04\n      add\n      tag_422\n      swap1\n      tag_423\n      jump\t// in\n    tag_422:\n      mload(0x40)\n      dup1\n      swap2\n      sub\n      swap1\n      revert\n    tag_421:\n        /* \"ehr1.sol\":4158:4178  Doctor memory doctor */\n      tag_424\n      tag_425\n      jump\t// in\n    tag_424:\n        /* \"ehr1.sol\":4194:4203  uint256 i */\n      0x00\n        /* \"ehr1.sol\":4189:4382  for (uint256 i = 0; i < doctors.length; i++) {... */\n    tag_426:\n        /* \"ehr1.sol\":4213:4220  doctors */\n      0x02\n        /* \"ehr1.sol\":4213:4227  doctors.length */\n      dup1\n      sload\n      swap1\n      pop\n        /* \"ehr1.sol\":4209:4210  i */\n      dup2\n        /* \"ehr1.sol\":4209:4227  i < doctors.length */\n      lt\n        /* \"ehr1.sol\":4189:4382  for (uint256 i = 0; i < doctors.length; i++) {... */\n      iszero\n      tag_427\n      jumpi\n        /* \"ehr1.sol\":4281:4291  msg.sender */\n      caller\n        /* \"ehr1.sol\":4253:4291  doctors[i].doctorAddress == msg.sender */\n      0xffffffffffffffffffffffffffffffffffffffff\n      and\n        /* \"ehr1.sol\":4253:4260  doctors */\n      0x02\n        /* \"ehr1.sol\":4261:4262  i */\n      dup3\n        /* \"ehr1.sol\":4253:4263  doctors[i] */\n      dup2\n      sload\n      dup2\n      lt\n      tag_429\n      jumpi\n      tag_430\n      tag_105\n      jump\t// in\n    tag_430:\n    tag_429:\n      swap1\n      0x00\n      mstore\n      keccak256(0x00, 0x20)\n      swap1\n      0x03\n      mul\n      add\n        /* \"ehr1.sol\":4253:4277  doctors[i].doctorAddress */\n      0x01\n      add\n      0x00\n      swap1\n      sload\n      swap1\n      0x0100\n      exp\n      swap1\n      div\n      0xffffffffffffffffffffffffffffffffffffffff\n      and\n        /* \"ehr1.sol\":4253:4291  doctors[i].doctorAddress == msg.sender */\n      0xffffffffffffffffffffffffffffffffffffffff\n      and\n      sub\n        /* \"ehr1.sol\":4249:4371  if (doctors[i].doctorAddress == msg.sender) {... */\n      tag_432\n      jumpi\n        /* \"ehr1.sol\":4321:4328  doctors */\n      0x02\n        /* \"ehr1.sol\":4329:4330  i */\n      dup2\n        /* \"ehr1.sol\":4321:4331  doctors[i] */\n      dup2\n      sload\n      dup2\n      lt\n      tag_433\n      jumpi\n      tag_434\n      tag_105\n      jump\t// in\n    tag_434:\n    tag_433:\n      swap1\n      0x00\n      mstore\n      keccak256(0x00, 0x20)\n      swap1\n      0x03\n      mul\n      add\n        /* \"ehr1.sol\":4312:4331  doctor = doctors[i] */\n      mload(0x40)\n      dup1\n      0x60\n      add\n      0x40\n      mstore\n      swap1\n      dup2\n      0x00\n      dup3\n      add\n      dup1\n      sload\n      tag_436\n      swap1\n      tag_137\n      jump\t// in\n    tag_436:\n      dup1\n      0x1f\n      add\n      0x20\n      dup1\n      swap2\n      div\n      mul\n      0x20\n      add\n      mload(0x40)\n      swap1\n      dup2\n      add\n      0x40\n      mstore\n      dup1\n      swap3\n      swap2\n      swap1\n      dup2\n      dup2\n      mstore\n      0x20\n      add\n      dup3\n      dup1\n      sload\n      tag_437\n      swap1\n      tag_137\n      jump\t// in\n    tag_437:\n      dup1\n      iszero\n      tag_438\n      jumpi\n      dup1\n      0x1f\n      lt\n      tag_439\n      jumpi\n      0x0100\n      dup1\n      dup4\n      sload\n      div\n      mul\n      dup4\n      mstore\n      swap2\n      0x20\n      add\n      swap2\n      jump(tag_438)\n    tag_439:\n      dup3\n      add\n      swap2\n      swap1\n      0x00\n      mstore\n      keccak256(0x00, 0x20)\n      swap1\n    tag_440:\n      dup2\n      sload\n      dup2\n      mstore\n      swap1\n      0x01\n      add\n      swap1\n      0x20\n      add\n      dup1\n      dup4\n      gt\n      tag_440\n      jumpi\n      dup3\n      swap1\n      sub\n      0x1f\n      and\n      dup3\n      add\n      swap2\n    tag_438:\n      pop\n      pop\n      pop\n      pop\n      pop\n      dup2\n      mstore\n      0x20\n      add\n      0x01\n      dup3\n      add\n      0x00\n      swap1\n      sload\n      swap1\n      0x0100\n      exp\n      swap1\n      div\n      0xffffffffffffffffffffffffffffffffffffffff\n      and\n      0xffffffffffffffffffffffffffffffffffffffff\n      and\n      0xffffffffffffffffffffffffffffffffffffffff\n      and\n      dup2\n      mstore\n      0x20\n      add\n      0x02\n      dup3\n      add\n      sload\n      dup2\n      mstore\n      pop\n      pop\n      swap2\n      pop\n        /* \"ehr1.sol\":4350:4355  break */\n      jump(tag_427)\n        /* \"ehr1.sol\":4249:4371  if (doctors[i].doctorAddress == msg.sender) {... */\n    tag_432:\n        /* \"ehr1.sol\":4229:4232  i++ */\n      dup1\n      dup1\n      tag_441\n      swap1\n      tag_109\n      jump\t// in\n    tag_441:\n      swap2\n      pop\n      pop\n        /* \"ehr1.sol\":4189:4382  for (uint256 i = 0; i < doctors.length; i++) {... */\n      jump(tag_426)\n    tag_427:\n      pop\n        /* \"ehr1.sol\":4434:4448  _medicalReport */\n      dup3\n        /* \"ehr1.sol\":4394:4402  patients */\n      0x03\n        /* \"ehr1.sol\":4403:4416  _patientIndex */\n      dup6\n        /* \"ehr1.sol\":4394:4417  patients[_patientIndex] */\n      dup2\n      sload\n      dup2\n      lt\n      tag_442\n      jumpi\n      tag_443\n      tag_105\n      jump\t// in\n    tag_443:\n    tag_442:\n      swap1\n      0x00\n      mstore\n      keccak256(0x00, 0x20)\n      swap1\n      0x0a\n      mul\n      add\n        /* \"ehr1.sol\":4394:4431  patients[_patientIndex].medicalReport */\n      0x07\n      add\n        /* \"ehr1.sol\":4394:4448  patients[_patientIndex].medicalReport = _medicalReport */\n      swap1\n      dup2\n      tag_445\n      swap2\n      swap1\n      tag_119\n      jump\t// in\n    tag_445:\n      pop\n        /* \"ehr1.sol\":4498:4511  _prescription */\n      dup2\n        /* \"ehr1.sol\":4459:4467  patients */\n      0x03\n        /* \"ehr1.sol\":4468:4481  _patientIndex */\n      dup6\n        /* \"ehr1.sol\":4459:4482  patients[_patientIndex] */\n      dup2\n      sload\n      dup2\n      lt\n      tag_446\n      jumpi\n      tag_447\n      tag_105\n      jump\t// in\n    tag_447:\n    tag_446:\n      swap1\n      0x00\n      mstore\n      keccak256(0x00, 0x20)\n      swap1\n      0x0a\n      mul\n      add\n        /* \"ehr1.sol\":4459:4495  patients[_patientIndex].prescription */\n      0x08\n      add\n        /* \"ehr1.sol\":4459:4511  patients[_patientIndex].prescription = _prescription */\n      swap1\n      dup2\n      tag_449\n      swap2\n      swap1\n      tag_119\n      jump\t// in\n    tag_449:\n      pop\n        /* \"ehr1.sol\":4559:4565  doctor */\n      dup1\n        /* \"ehr1.sol\":4559:4570  doctor.name */\n      0x00\n      add\n      mload\n        /* \"ehr1.sol\":4522:4530  patients */\n      0x03\n        /* \"ehr1.sol\":4531:4544  _patientIndex */\n      dup6\n        /* \"ehr1.sol\":4522:4545  patients[_patientIndex] */\n      dup2\n      sload\n      dup2\n      lt\n      tag_450\n      jumpi\n      tag_451\n      tag_105\n      jump\t// in\n    tag_451:\n    tag_450:\n      swap1\n      0x00\n      mstore\n      keccak256(0x00, 0x20)\n      swap1\n      0x0a\n      mul\n      add\n        /* \"ehr1.sol\":4522:4556  patients[_patientIndex].doctorname */\n      0x09\n      add\n        /* \"ehr1.sol\":4522:4570  patients[_patientIndex].doctorname = doctor.name */\n      swap1\n      dup2\n      tag_453\n      swap2\n      swap1\n      tag_119\n      jump\t// in\n    tag_453:\n      pop\n        /* \"ehr1.sol\":4062:4578  {... */\n      pop\n        /* \"ehr1.sol\":3936:4578  function addMedicalRecord(uint256 _patientIndex, string memory _medicalReport, string memory _prescription) public onlyDoctor {... */\n      pop\n      pop\n      pop\n      jump\t// out\n        /* \"ehr1.sol\":5433:5531  function getPatientCount() public view returns (uint256) {... */\n    tag_86:\n        /* \"ehr1.sol\":5481:5488  uint256 */\n      0x00\n        /* \"ehr1.sol\":5508:5516  patients */\n      0x03\n        /* \"ehr1.sol\":5508:5523  patients.length */\n      dup1\n      sload\n      swap1\n      pop\n        /* \"ehr1.sol\":5501:5523  return patients.length */\n      swap1\n      pop\n        /* \"ehr1.sol\":5433:5531  function getPatientCount() public view returns (uint256) {... */\n      swap1\n      jump\t// out\n        /* \"ehr1.sol\":3196:3922  function addPatientDetails(string memory _name, uint256 _age, uint256 _height, uint256 _weight, uint256 _aadharNo,string memory _patientaddress) public {... */\n    tag_91:\n        /* \"ehr1.sol\":3447:3455  patients */\n      0x03\n        /* \"ehr1.sol\":3461:3824  Patient({... */\n      mload(0x40)\n      dup1\n      0x0140\n      add\n      0x40\n      mstore\n      dup1\n        /* \"ehr1.sol\":3490:3495  _name */\n      dup9\n        /* \"ehr1.sol\":3461:3824  Patient({... */\n      dup2\n      mstore\n      0x20\n      add\n        /* \"ehr1.sol\":3515:3519  _age */\n      dup8\n        /* \"ehr1.sol\":3461:3824  Patient({... */\n      dup2\n      mstore\n      0x20\n      add\n        /* \"ehr1.sol\":3542:3549  _height */\n      dup7\n        /* \"ehr1.sol\":3461:3824  Patient({... */\n      dup2\n      mstore\n      0x20\n      add\n        /* \"ehr1.sol\":3572:3579  _weight */\n      dup6\n        /* \"ehr1.sol\":3461:3824  Patient({... */\n      dup2\n      mstore\n      0x20\n      add\n        /* \"ehr1.sol\":3604:3613  _aadharNo */\n      dup5\n        /* \"ehr1.sol\":3461:3824  Patient({... */\n      dup2\n      mstore\n      0x20\n      add\n        /* \"ehr1.sol\":3644:3659  _patientaddress */\n      dup4\n        /* \"ehr1.sol\":3461:3824  Patient({... */\n      dup2\n      mstore\n      0x20\n      add\n        /* \"ehr1.sol\":3689:3690  0 */\n      0x00\n        /* \"ehr1.sol\":3461:3824  Patient({... */\n      dup2\n      mstore\n      0x20\n      add\n      mload(0x40)\n      dup1\n      0x20\n      add\n      0x40\n      mstore\n      dup1\n      0x00\n      dup2\n      mstore\n      pop\n      dup2\n      mstore\n      0x20\n      add\n      mload(0x40)\n      dup1\n      0x20\n      add\n      0x40\n      mstore\n      dup1\n      0x00\n      dup2\n      mstore\n      pop\n      dup2\n      mstore\n      0x20\n      add\n      mload(0x40)\n      dup1\n      0x20\n      add\n      0x40\n      mstore\n      dup1\n      0x00\n      dup2\n      mstore\n      pop\n      dup2\n      mstore\n      pop\n        /* \"ehr1.sol\":3447:3825  patients.push(Patient({... */\n      swap1\n      dup1\n      0x01\n      dup2\n      sload\n      add\n      dup1\n      dup3\n      sstore\n      dup1\n      swap2\n      pop\n      pop\n      0x01\n      swap1\n      sub\n      swap1\n      0x00\n      mstore\n      keccak256(0x00, 0x20)\n      swap1\n      0x0a\n      mul\n      add\n      0x00\n      swap1\n      swap2\n      swap1\n      swap2\n      swap1\n      swap2\n      pop\n      0x00\n      dup3\n      add\n      mload\n      dup2\n      0x00\n      add\n      swap1\n      dup2\n      tag_457\n      swap2\n      swap1\n      tag_119\n      jump\t// in\n    tag_457:\n      pop\n      0x20\n      dup3\n      add\n      mload\n      dup2\n      0x01\n      add\n      sstore\n      0x40\n      dup3\n      add\n      mload\n      dup2\n      0x02\n      add\n      sstore\n      0x60\n      dup3\n      add\n      mload\n      dup2\n      0x03\n      add\n      sstore\n      0x80\n      dup3\n      add\n      mload\n      dup2\n      0x04\n      add\n      sstore\n      0xa0\n      dup3\n      add\n      mload\n      dup2\n      0x05\n      add\n      swap1\n      dup2\n      tag_458\n      swap2\n      swap1\n      tag_119\n      jump\t// in\n    tag_458:\n      pop\n      0xc0\n      dup3\n      add\n      mload\n      dup2\n      0x06\n      add\n      sstore\n      0xe0\n      dup3\n      add\n      mload\n      dup2\n      0x07\n      add\n      swap1\n      dup2\n      tag_459\n      swap2\n      swap1\n      tag_119\n      jump\t// in\n    tag_459:\n      pop\n      0x0100\n      dup3\n      add\n      mload\n      dup2\n      0x08\n      add\n      swap1\n      dup2\n      tag_460\n      swap2\n      swap1\n      tag_119\n      jump\t// in\n    tag_460:\n      pop\n      0x0120\n      dup3\n      add\n      mload\n      dup2\n      0x09\n      add\n      swap1\n      dup2\n      tag_461\n      swap2\n      swap1\n      tag_119\n      jump\t// in\n    tag_461:\n      pop\n      pop\n      pop\n        /* \"ehr1.sol\":3841:3914  patientDetails(_name, _age, _height, _weight, _aadharNo, _patientaddress) */\n      0xcdeb7c36b2e64cbcbdd0ad00c0fc2ceae9444edd2682279aee2e56b8a01c0934\n        /* \"ehr1.sol\":3856:3861  _name */\n      dup7\n        /* \"ehr1.sol\":3863:3867  _age */\n      dup7\n        /* \"ehr1.sol\":3869:3876  _height */\n      dup7\n        /* \"ehr1.sol\":3878:3885  _weight */\n      dup7\n        /* \"ehr1.sol\":3887:3896  _aadharNo */\n      dup7\n        /* \"ehr1.sol\":3898:3913  _patientaddress */\n      dup7\n        /* \"ehr1.sol\":3841:3914  patientDetails(_name, _age, _height, _weight, _aadharNo, _patientaddress) */\n      mload(0x40)\n      tag_462\n      swap7\n      swap6\n      swap5\n      swap4\n      swap3\n      swap2\n      swap1\n      tag_463\n      jump\t// in\n    tag_462:\n      mload(0x40)\n      dup1\n      swap2\n      sub\n      swap1\n      log1\n        /* \"ehr1.sol\":3196:3922  function addPatientDetails(string memory _name, uint256 _age, uint256 _height, uint256 _weight, uint256 _aadharNo,string memory _patientaddress) public {... */\n      pop\n      pop\n      pop\n      pop\n      pop\n      pop\n      jump\t// out\n        /* \"ehr1.sol\":85:105  address public admin */\n    tag_93:\n      0x00\n      dup1\n      sload\n      swap1\n      0x0100\n      exp\n      swap1\n      div\n      0xffffffffffffffffffffffffffffffffffffffff\n      and\n      dup2\n      jump\t// out\n        /* \"ehr1.sol\":4586:4686  function getHospitalCount() public view returns (uint256) {... */\n    tag_97:\n        /* \"ehr1.sol\":4635:4642  uint256 */\n      0x00\n        /* \"ehr1.sol\":4662:4671  hospitals */\n      0x01\n        /* \"ehr1.sol\":4662:4678  hospitals.length */\n      dup1\n      sload\n      swap1\n      pop\n        /* \"ehr1.sol\":4655:4678  return hospitals.length */\n      swap1\n      pop\n        /* \"ehr1.sol\":4586:4686  function getHospitalCount() public view returns (uint256) {... */\n      swap1\n      jump\t// out\n    tag_425:\n      mload(0x40)\n      dup1\n      0x60\n      add\n      0x40\n      mstore\n      dup1\n      0x60\n      dup2\n      mstore\n      0x20\n      add\n      and(0xffffffffffffffffffffffffffffffffffffffff, 0x00)\n      dup2\n      mstore\n      0x20\n      add\n      0x00\n      dup2\n      mstore\n      pop\n      swap1\n      jump\t// out\n        /* \"#utility.yul\":7:82   */\n    tag_465:\n        /* \"#utility.yul\":40:46   */\n      0x00\n        /* \"#utility.yul\":73:75   */\n      0x40\n        /* \"#utility.yul\":67:76   */\n      mload\n        /* \"#utility.yul\":57:76   */\n      swap1\n      pop\n        /* \"#utility.yul\":7:82   */\n      swap1\n      jump\t// out\n        /* \"#utility.yul\":88:205   */\n    tag_466:\n        /* \"#utility.yul\":197:198   */\n      0x00\n        /* \"#utility.yul\":194:195   */\n      dup1\n        /* \"#utility.yul\":187:199   */\n      revert\n        /* \"#utility.yul\":211:328   */\n    tag_467:\n        /* \"#utility.yul\":320:321   */\n      0x00\n        /* \"#utility.yul\":317:318   */\n      dup1\n        /* \"#utility.yul\":310:322   */\n      revert\n        /* \"#utility.yul\":334:451   */\n    tag_468:\n        /* \"#utility.yul\":443:444   */\n      0x00\n        /* \"#utility.yul\":440:441   */\n      dup1\n        /* \"#utility.yul\":433:445   */\n      revert\n        /* \"#utility.yul\":457:574   */\n    tag_469:\n        /* \"#utility.yul\":566:567   */\n      0x00\n        /* \"#utility.yul\":563:564   */\n      dup1\n        /* \"#utility.yul\":556:568   */\n      revert\n        /* \"#utility.yul\":580:682   */\n    tag_470:\n        /* \"#utility.yul\":621:627   */\n      0x00\n        /* \"#utility.yul\":672:674   */\n      0x1f\n        /* \"#utility.yul\":668:675   */\n      not\n        /* \"#utility.yul\":663:665   */\n      0x1f\n        /* \"#utility.yul\":656:661   */\n      dup4\n        /* \"#utility.yul\":652:666   */\n      add\n        /* \"#utility.yul\":648:676   */\n      and\n        /* \"#utility.yul\":638:676   */\n      swap1\n      pop\n        /* \"#utility.yul\":580:682   */\n      swap2\n      swap1\n      pop\n      jump\t// out\n        /* \"#utility.yul\":688:868   */\n    tag_172:\n        /* \"#utility.yul\":736:813   */\n      0x4e487b7100000000000000000000000000000000000000000000000000000000\n        /* \"#utility.yul\":733:734   */\n      0x00\n        /* \"#utility.yul\":726:814   */\n      mstore\n        /* \"#utility.yul\":833:837   */\n      0x41\n        /* \"#utility.yul\":830:831   */\n      0x04\n        /* \"#utility.yul\":823:838   */\n      mstore\n        /* \"#utility.yul\":857:861   */\n      0x24\n        /* \"#utility.yul\":854:855   */\n      0x00\n        /* \"#utility.yul\":847:862   */\n      revert\n        /* \"#utility.yul\":874:1155   */\n    tag_471:\n        /* \"#utility.yul\":957:984   */\n      tag_548\n        /* \"#utility.yul\":979:983   */\n      dup3\n        /* \"#utility.yul\":957:984   */\n      tag_470\n      jump\t// in\n    tag_548:\n        /* \"#utility.yul\":949:955   */\n      dup2\n        /* \"#utility.yul\":945:985   */\n      add\n        /* \"#utility.yul\":1087:1093   */\n      dup2\n        /* \"#utility.yul\":1075:1085   */\n      dup2\n        /* \"#utility.yul\":1072:1094   */\n      lt\n        /* \"#utility.yul\":1051:1069   */\n      0xffffffffffffffff\n        /* \"#utility.yul\":1039:1049   */\n      dup3\n        /* \"#utility.yul\":1036:1070   */\n      gt\n        /* \"#utility.yul\":1033:1095   */\n      or\n        /* \"#utility.yul\":1030:1118   */\n      iszero\n      tag_549\n      jumpi\n        /* \"#utility.yul\":1098:1116   */\n      tag_550\n      tag_172\n      jump\t// in\n    tag_550:\n        /* \"#utility.yul\":1030:1118   */\n    tag_549:\n        /* \"#utility.yul\":1138:1148   */\n      dup1\n        /* \"#utility.yul\":1134:1136   */\n      0x40\n        /* \"#utility.yul\":1127:1149   */\n      mstore\n        /* \"#utility.yul\":917:1155   */\n      pop\n        /* \"#utility.yul\":874:1155   */\n      pop\n      pop\n      jump\t// out\n        /* \"#utility.yul\":1161:1290   */\n    tag_472:\n        /* \"#utility.yul\":1195:1201   */\n      0x00\n        /* \"#utility.yul\":1222:1242   */\n      tag_552\n      tag_465\n      jump\t// in\n    tag_552:\n        /* \"#utility.yul\":1212:1242   */\n      swap1\n      pop\n        /* \"#utility.yul\":1251:1284   */\n      tag_553\n        /* \"#utility.yul\":1279:1283   */\n      dup3\n        /* \"#utility.yul\":1271:1277   */\n      dup3\n        /* \"#utility.yul\":1251:1284   */\n      tag_471\n      jump\t// in\n    tag_553:\n        /* \"#utility.yul\":1161:1290   */\n      swap2\n      swap1\n      pop\n      jump\t// out\n        /* \"#utility.yul\":1296:1604   */\n    tag_473:\n        /* \"#utility.yul\":1358:1362   */\n      0x00\n        /* \"#utility.yul\":1448:1466   */\n      0xffffffffffffffff\n        /* \"#utility.yul\":1440:1446   */\n      dup3\n        /* \"#utility.yul\":1437:1467   */\n      gt\n        /* \"#utility.yul\":1434:1490   */\n      iszero\n      tag_555\n      jumpi\n        /* \"#utility.yul\":1470:1488   */\n      tag_556\n      tag_172\n      jump\t// in\n    tag_556:\n        /* \"#utility.yul\":1434:1490   */\n    tag_555:\n        /* \"#utility.yul\":1508:1537   */\n      tag_557\n        /* \"#utility.yul\":1530:1536   */\n      dup3\n        /* \"#utility.yul\":1508:1537   */\n      tag_470\n      jump\t// in\n    tag_557:\n        /* \"#utility.yul\":1500:1537   */\n      swap1\n      pop\n        /* \"#utility.yul\":1592:1596   */\n      0x20\n        /* \"#utility.yul\":1586:1590   */\n      dup2\n        /* \"#utility.yul\":1582:1597   */\n      add\n        /* \"#utility.yul\":1574:1597   */\n      swap1\n      pop\n        /* \"#utility.yul\":1296:1604   */\n      swap2\n      swap1\n      pop\n      jump\t// out\n        /* \"#utility.yul\":1610:1756   */\n    tag_474:\n        /* \"#utility.yul\":1707:1713   */\n      dup3\n        /* \"#utility.yul\":1702:1705   */\n      dup2\n        /* \"#utility.yul\":1697:1700   */\n      dup4\n        /* \"#utility.yul\":1684:1714   */\n      calldatacopy\n        /* \"#utility.yul\":1748:1749   */\n      0x00\n        /* \"#utility.yul\":1739:1745   */\n      dup4\n        /* \"#utility.yul\":1734:1737   */\n      dup4\n        /* \"#utility.yul\":1730:1746   */\n      add\n        /* \"#utility.yul\":1723:1750   */\n      mstore\n        /* \"#utility.yul\":1610:1756   */\n      pop\n      pop\n      pop\n      jump\t// out\n        /* \"#utility.yul\":1762:2187   */\n    tag_475:\n        /* \"#utility.yul\":1840:1845   */\n      0x00\n        /* \"#utility.yul\":1865:1931   */\n      tag_560\n        /* \"#utility.yul\":1881:1930   */\n      tag_561\n        /* \"#utility.yul\":1923:1929   */\n      dup5\n        /* \"#utility.yul\":1881:1930   */\n      tag_473\n      jump\t// in\n    tag_561:\n        /* \"#utility.yul\":1865:1931   */\n      tag_472\n      jump\t// in\n    tag_560:\n        /* \"#utility.yul\":1856:1931   */\n      swap1\n      pop\n        /* \"#utility.yul\":1954:1960   */\n      dup3\n        /* \"#utility.yul\":1947:1952   */\n      dup2\n        /* \"#utility.yul\":1940:1961   */\n      mstore\n        /* \"#utility.yul\":1992:1996   */\n      0x20\n        /* \"#utility.yul\":1985:1990   */\n      dup2\n        /* \"#utility.yul\":1981:1997   */\n      add\n        /* \"#utility.yul\":2030:2033   */\n      dup5\n        /* \"#utility.yul\":2021:2027   */\n      dup5\n        /* \"#utility.yul\":2016:2019   */\n      dup5\n        /* \"#utility.yul\":2012:2028   */\n      add\n        /* \"#utility.yul\":2009:2034   */\n      gt\n        /* \"#utility.yul\":2006:2118   */\n      iszero\n      tag_562\n      jumpi\n        /* \"#utility.yul\":2037:2116   */\n      tag_563\n      tag_469\n      jump\t// in\n    tag_563:\n        /* \"#utility.yul\":2006:2118   */\n    tag_562:\n        /* \"#utility.yul\":2127:2181   */\n      tag_564\n        /* \"#utility.yul\":2174:2180   */\n      dup5\n        /* \"#utility.yul\":2169:2172   */\n      dup3\n        /* \"#utility.yul\":2164:2167   */\n      dup6\n        /* \"#utility.yul\":2127:2181   */\n      tag_474\n      jump\t// in\n    tag_564:\n        /* \"#utility.yul\":1846:2187   */\n      pop\n        /* \"#utility.yul\":1762:2187   */\n      swap4\n      swap3\n      pop\n      pop\n      pop\n      jump\t// out\n        /* \"#utility.yul\":2207:2547   */\n    tag_476:\n        /* \"#utility.yul\":2263:2268   */\n      0x00\n        /* \"#utility.yul\":2312:2315   */\n      dup3\n        /* \"#utility.yul\":2305:2309   */\n      0x1f\n        /* \"#utility.yul\":2297:2303   */\n      dup4\n        /* \"#utility.yul\":2293:2310   */\n      add\n        /* \"#utility.yul\":2289:2316   */\n      slt\n        /* \"#utility.yul\":2279:2401   */\n      tag_566\n      jumpi\n        /* \"#utility.yul\":2320:2399   */\n      tag_567\n      tag_468\n      jump\t// in\n    tag_567:\n        /* \"#utility.yul\":2279:2401   */\n    tag_566:\n        /* \"#utility.yul\":2437:2443   */\n      dup2\n        /* \"#utility.yul\":2424:2444   */\n      calldataload\n        /* \"#utility.yul\":2462:2541   */\n      tag_568\n        /* \"#utility.yul\":2537:2540   */\n      dup5\n        /* \"#utility.yul\":2529:2535   */\n      dup3\n        /* \"#utility.yul\":2522:2526   */\n      0x20\n        /* \"#utility.yul\":2514:2520   */\n      dup7\n        /* \"#utility.yul\":2510:2527   */\n      add\n        /* \"#utility.yul\":2462:2541   */\n      tag_475\n      jump\t// in\n    tag_568:\n        /* \"#utility.yul\":2453:2541   */\n      swap2\n      pop\n        /* \"#utility.yul\":2269:2547   */\n      pop\n        /* \"#utility.yul\":2207:2547   */\n      swap3\n      swap2\n      pop\n      pop\n      jump\t// out\n        /* \"#utility.yul\":2553:2679   */\n    tag_477:\n        /* \"#utility.yul\":2590:2597   */\n      0x00\n        /* \"#utility.yul\":2630:2672   */\n      0xffffffffffffffffffffffffffffffffffffffff\n        /* \"#utility.yul\":2623:2628   */\n      dup3\n        /* \"#utility.yul\":2619:2673   */\n      and\n        /* \"#utility.yul\":2608:2673   */\n      swap1\n      pop\n        /* \"#utility.yul\":2553:2679   */\n      swap2\n      swap1\n      pop\n      jump\t// out\n        /* \"#utility.yul\":2685:2781   */\n    tag_478:\n        /* \"#utility.yul\":2722:2729   */\n      0x00\n        /* \"#utility.yul\":2751:2775   */\n      tag_571\n        /* \"#utility.yul\":2769:2774   */\n      dup3\n        /* \"#utility.yul\":2751:2775   */\n      tag_477\n      jump\t// in\n    tag_571:\n        /* \"#utility.yul\":2740:2775   */\n      swap1\n      pop\n        /* \"#utility.yul\":2685:2781   */\n      swap2\n      swap1\n      pop\n      jump\t// out\n        /* \"#utility.yul\":2787:2909   */\n    tag_479:\n        /* \"#utility.yul\":2860:2884   */\n      tag_573\n        /* \"#utility.yul\":2878:2883   */\n      dup2\n        /* \"#utility.yul\":2860:2884   */\n      tag_478\n      jump\t// in\n    tag_573:\n        /* \"#utility.yul\":2853:2858   */\n      dup2\n        /* \"#utility.yul\":2850:2885   */\n      eq\n        /* \"#utility.yul\":2840:2903   */\n      tag_574\n      jumpi\n        /* \"#utility.yul\":2899:2900   */\n      0x00\n        /* \"#utility.yul\":2896:2897   */\n      dup1\n        /* \"#utility.yul\":2889:2901   */\n      revert\n        /* \"#utility.yul\":2840:2903   */\n    tag_574:\n        /* \"#utility.yul\":2787:2909   */\n      pop\n      jump\t// out\n        /* \"#utility.yul\":2915:3054   */\n    tag_480:\n        /* \"#utility.yul\":2961:2966   */\n      0x00\n        /* \"#utility.yul\":2999:3005   */\n      dup2\n        /* \"#utility.yul\":2986:3006   */\n      calldataload\n        /* \"#utility.yul\":2977:3006   */\n      swap1\n      pop\n        /* \"#utility.yul\":3015:3048   */\n      tag_576\n        /* \"#utility.yul\":3042:3047   */\n      dup2\n        /* \"#utility.yul\":3015:3048   */\n      tag_479\n      jump\t// in\n    tag_576:\n        /* \"#utility.yul\":2915:3054   */\n      swap3\n      swap2\n      pop\n      pop\n      jump\t// out\n        /* \"#utility.yul\":3060:3137   */\n    tag_481:\n        /* \"#utility.yul\":3097:3104   */\n      0x00\n        /* \"#utility.yul\":3126:3131   */\n      dup2\n        /* \"#utility.yul\":3115:3131   */\n      swap1\n      pop\n        /* \"#utility.yul\":3060:3137   */\n      swap2\n      swap1\n      pop\n      jump\t// out\n        /* \"#utility.yul\":3143:3265   */\n    tag_482:\n        /* \"#utility.yul\":3216:3240   */\n      tag_579\n        /* \"#utility.yul\":3234:3239   */\n      dup2\n        /* \"#utility.yul\":3216:3240   */\n      tag_481\n      jump\t// in\n    tag_579:\n        /* \"#utility.yul\":3209:3214   */\n      dup2\n        /* \"#utility.yul\":3206:3241   */\n      eq\n        /* \"#utility.yul\":3196:3259   */\n      tag_580\n      jumpi\n        /* \"#utility.yul\":3255:3256   */\n      0x00\n        /* \"#utility.yul\":3252:3253   */\n      dup1\n        /* \"#utility.yul\":3245:3257   */\n      revert\n        /* \"#utility.yul\":3196:3259   */\n    tag_580:\n        /* \"#utility.yul\":3143:3265   */\n      pop\n      jump\t// out\n        /* \"#utility.yul\":3271:3410   */\n    tag_483:\n        /* \"#utility.yul\":3317:3322   */\n      0x00\n        /* \"#utility.yul\":3355:3361   */\n      dup2\n        /* \"#utility.yul\":3342:3362   */\n      calldataload\n        /* \"#utility.yul\":3333:3362   */\n      swap1\n      pop\n        /* \"#utility.yul\":3371:3404   */\n      tag_582\n        /* \"#utility.yul\":3398:3403   */\n      dup2\n        /* \"#utility.yul\":3371:3404   */\n      tag_482\n      jump\t// in\n    tag_582:\n        /* \"#utility.yul\":3271:3410   */\n      swap3\n      swap2\n      pop\n      pop\n      jump\t// out\n        /* \"#utility.yul\":3416:4215   */\n    tag_25:\n        /* \"#utility.yul\":3503:3509   */\n      0x00\n        /* \"#utility.yul\":3511:3517   */\n      dup1\n        /* \"#utility.yul\":3519:3525   */\n      0x00\n        /* \"#utility.yul\":3568:3570   */\n      0x60\n        /* \"#utility.yul\":3556:3565   */\n      dup5\n        /* \"#utility.yul\":3547:3554   */\n      dup7\n        /* \"#utility.yul\":3543:3566   */\n      sub\n        /* \"#utility.yul\":3539:3571   */\n      slt\n        /* \"#utility.yul\":3536:3655   */\n      iszero\n      tag_584\n      jumpi\n        /* \"#utility.yul\":3574:3653   */\n      tag_585\n      tag_466\n      jump\t// in\n    tag_585:\n        /* \"#utility.yul\":3536:3655   */\n    tag_584:\n        /* \"#utility.yul\":3722:3723   */\n      0x00\n        /* \"#utility.yul\":3711:3720   */\n      dup5\n        /* \"#utility.yul\":3707:3724   */\n      add\n        /* \"#utility.yul\":3694:3725   */\n      calldataload\n        /* \"#utility.yul\":3752:3770   */\n      0xffffffffffffffff\n        /* \"#utility.yul\":3744:3750   */\n      dup2\n        /* \"#utility.yul\":3741:3771   */\n      gt\n        /* \"#utility.yul\":3738:3855   */\n      iszero\n      tag_586\n      jumpi\n        /* \"#utility.yul\":3774:3853   */\n      tag_587\n      tag_467\n      jump\t// in\n    tag_587:\n        /* \"#utility.yul\":3738:3855   */\n    tag_586:\n        /* \"#utility.yul\":3879:3942   */\n      tag_588\n        /* \"#utility.yul\":3934:3941   */\n      dup7\n        /* \"#utility.yul\":3925:3931   */\n      dup3\n        /* \"#utility.yul\":3914:3923   */\n      dup8\n        /* \"#utility.yul\":3910:3932   */\n      add\n        /* \"#utility.yul\":3879:3942   */\n      tag_476\n      jump\t// in\n    tag_588:\n        /* \"#utility.yul\":3869:3942   */\n      swap4\n      pop\n        /* \"#utility.yul\":3665:3952   */\n      pop\n        /* \"#utility.yul\":3991:3993   */\n      0x20\n        /* \"#utility.yul\":4017:4070   */\n      tag_589\n        /* \"#utility.yul\":4062:4069   */\n      dup7\n        /* \"#utility.yul\":4053:4059   */\n      dup3\n        /* \"#utility.yul\":4042:4051   */\n      dup8\n        /* \"#utility.yul\":4038:4060   */\n      add\n        /* \"#utility.yul\":4017:4070   */\n      tag_480\n      jump\t// in\n    tag_589:\n        /* \"#utility.yul\":4007:4070   */\n      swap3\n      pop\n        /* \"#utility.yul\":3962:4080   */\n      pop\n        /* \"#utility.yul\":4119:4121   */\n      0x40\n        /* \"#utility.yul\":4145:4198   */\n      tag_590\n        /* \"#utility.yul\":4190:4197   */\n      dup7\n        /* \"#utility.yul\":4181:4187   */\n      dup3\n        /* \"#utility.yul\":4170:4179   */\n      dup8\n        /* \"#utility.yul\":4166:4188   */\n      add\n        /* \"#utility.yul\":4145:4198   */\n      tag_483\n      jump\t// in\n    tag_590:\n        /* \"#utility.yul\":4135:4198   */\n      swap2\n      pop\n        /* \"#utility.yul\":4090:4208   */\n      pop\n        /* \"#utility.yul\":3416:4215   */\n      swap3\n      pop\n      swap3\n      pop\n      swap3\n      jump\t// out\n        /* \"#utility.yul\":4221:4875   */\n    tag_29:\n        /* \"#utility.yul\":4299:4305   */\n      0x00\n        /* \"#utility.yul\":4307:4313   */\n      dup1\n        /* \"#utility.yul\":4356:4358   */\n      0x40\n        /* \"#utility.yul\":4344:4353   */\n      dup4\n        /* \"#utility.yul\":4335:4342   */\n      dup6\n        /* \"#utility.yul\":4331:4354   */\n      sub\n        /* \"#utility.yul\":4327:4359   */\n      slt\n        /* \"#utility.yul\":4324:4443   */\n      iszero\n      tag_592\n      jumpi\n        /* \"#utility.yul\":4362:4441   */\n      tag_593\n      tag_466\n      jump\t// in\n    tag_593:\n        /* \"#utility.yul\":4324:4443   */\n    tag_592:\n        /* \"#utility.yul\":4510:4511   */\n      0x00\n        /* \"#utility.yul\":4499:4508   */\n      dup4\n        /* \"#utility.yul\":4495:4512   */\n      add\n        /* \"#utility.yul\":4482:4513   */\n      calldataload\n        /* \"#utility.yul\":4540:4558   */\n      0xffffffffffffffff\n        /* \"#utility.yul\":4532:4538   */\n      dup2\n        /* \"#utility.yul\":4529:4559   */\n      gt\n        /* \"#utility.yul\":4526:4643   */\n      iszero\n      tag_594\n      jumpi\n        /* \"#utility.yul\":4562:4641   */\n      tag_595\n      tag_467\n      jump\t// in\n    tag_595:\n        /* \"#utility.yul\":4526:4643   */\n    tag_594:\n        /* \"#utility.yul\":4667:4730   */\n      tag_596\n        /* \"#utility.yul\":4722:4729   */\n      dup6\n        /* \"#utility.yul\":4713:4719   */\n      dup3\n        /* \"#utility.yul\":4702:4711   */\n      dup7\n        /* \"#utility.yul\":4698:4720   */\n      add\n        /* \"#utility.yul\":4667:4730   */\n      tag_476\n      jump\t// in\n    tag_596:\n        /* \"#utility.yul\":4657:4730   */\n      swap3\n      pop\n        /* \"#utility.yul\":4453:4740   */\n      pop\n        /* \"#utility.yul\":4779:4781   */\n      0x20\n        /* \"#utility.yul\":4805:4858   */\n      tag_597\n        /* \"#utility.yul\":4850:4857   */\n      dup6\n        /* \"#utility.yul\":4841:4847   */\n      dup3\n        /* \"#utility.yul\":4830:4839   */\n      dup7\n        /* \"#utility.yul\":4826:4848   */\n      add\n        /* \"#utility.yul\":4805:4858   */\n      tag_480\n      jump\t// in\n    tag_597:\n        /* \"#utility.yul\":4795:4858   */\n      swap2\n      pop\n        /* \"#utility.yul\":4750:4868   */\n      pop\n        /* \"#utility.yul\":4221:4875   */\n      swap3\n      pop\n      swap3\n      swap1\n      pop\n      jump\t// out\n        /* \"#utility.yul\":4881:5210   */\n    tag_33:\n        /* \"#utility.yul\":4940:4946   */\n      0x00\n        /* \"#utility.yul\":4989:4991   */\n      0x20\n        /* \"#utility.yul\":4977:4986   */\n      dup3\n        /* \"#utility.yul\":4968:4975   */\n      dup5\n        /* \"#utility.yul\":4964:4987   */\n      sub\n        /* \"#utility.yul\":4960:4992   */\n      slt\n        /* \"#utility.yul\":4957:5076   */\n      iszero\n      tag_599\n      jumpi\n        /* \"#utility.yul\":4995:5074   */\n      tag_600\n      tag_466\n      jump\t// in\n    tag_600:\n        /* \"#utility.yul\":4957:5076   */\n    tag_599:\n        /* \"#utility.yul\":5115:5116   */\n      0x00\n        /* \"#utility.yul\":5140:5193   */\n      tag_601\n        /* \"#utility.yul\":5185:5192   */\n      dup5\n        /* \"#utility.yul\":5176:5182   */\n      dup3\n        /* \"#utility.yul\":5165:5174   */\n      dup6\n        /* \"#utility.yul\":5161:5183   */\n      add\n        /* \"#utility.yul\":5140:5193   */\n      tag_483\n      jump\t// in\n    tag_601:\n        /* \"#utility.yul\":5130:5193   */\n      swap2\n      pop\n        /* \"#utility.yul\":5086:5203   */\n      pop\n        /* \"#utility.yul\":4881:5210   */\n      swap3\n      swap2\n      pop\n      pop\n      jump\t// out\n        /* \"#utility.yul\":5216:5315   */\n    tag_484:\n        /* \"#utility.yul\":5268:5274   */\n      0x00\n        /* \"#utility.yul\":5302:5307   */\n      dup2\n        /* \"#utility.yul\":5296:5308   */\n      mload\n        /* \"#utility.yul\":5286:5308   */\n      swap1\n      pop\n        /* \"#utility.yul\":5216:5315   */\n      swap2\n      swap1\n      pop\n      jump\t// out\n        /* \"#utility.yul\":5321:5490   */\n    tag_485:\n        /* \"#utility.yul\":5405:5416   */\n      0x00\n        /* \"#utility.yul\":5439:5445   */\n      dup3\n        /* \"#utility.yul\":5434:5437   */\n      dup3\n        /* \"#utility.yul\":5427:5446   */\n      mstore\n        /* \"#utility.yul\":5479:5483   */\n      0x20\n        /* \"#utility.yul\":5474:5477   */\n      dup3\n        /* \"#utility.yul\":5470:5484   */\n      add\n        /* \"#utility.yul\":5455:5484   */\n      swap1\n      pop\n        /* \"#utility.yul\":5321:5490   */\n      swap3\n      swap2\n      pop\n      pop\n      jump\t// out\n        /* \"#utility.yul\":5496:5742   */\n    tag_486:\n        /* \"#utility.yul\":5577:5578   */\n      0x00\n        /* \"#utility.yul\":5587:5700   */\n    tag_605:\n        /* \"#utility.yul\":5601:5607   */\n      dup4\n        /* \"#utility.yul\":5598:5599   */\n      dup2\n        /* \"#utility.yul\":5595:5608   */\n      lt\n        /* \"#utility.yul\":5587:5700   */\n      iszero\n      tag_607\n      jumpi\n        /* \"#utility.yul\":5686:5687   */\n      dup1\n        /* \"#utility.yul\":5681:5684   */\n      dup3\n        /* \"#utility.yul\":5677:5688   */\n      add\n        /* \"#utility.yul\":5671:5689   */\n      mload\n        /* \"#utility.yul\":5667:5668   */\n      dup2\n        /* \"#utility.yul\":5662:5665   */\n      dup5\n        /* \"#utility.yul\":5658:5669   */\n      add\n        /* \"#utility.yul\":5651:5690   */\n      mstore\n        /* \"#utility.yul\":5623:5625   */\n      0x20\n        /* \"#utility.yul\":5620:5621   */\n      dup2\n        /* \"#utility.yul\":5616:5626   */\n      add\n        /* \"#utility.yul\":5611:5626   */\n      swap1\n      pop\n        /* \"#utility.yul\":5587:5700   */\n      jump(tag_605)\n    tag_607:\n        /* \"#utility.yul\":5734:5735   */\n      0x00\n        /* \"#utility.yul\":5725:5731   */\n      dup5\n        /* \"#utility.yul\":5720:5723   */\n      dup5\n        /* \"#utility.yul\":5716:5732   */\n      add\n        /* \"#utility.yul\":5709:5736   */\n      mstore\n        /* \"#utility.yul\":5558:5742   */\n      pop\n        /* \"#utility.yul\":5496:5742   */\n      pop\n      pop\n      pop\n      jump\t// out\n        /* \"#utility.yul\":5748:6125   */\n    tag_487:\n        /* \"#utility.yul\":5836:5839   */\n      0x00\n        /* \"#utility.yul\":5864:5903   */\n      tag_609\n        /* \"#utility.yul\":5897:5902   */\n      dup3\n        /* \"#utility.yul\":5864:5903   */\n      tag_484\n      jump\t// in\n    tag_609:\n        /* \"#utility.yul\":5919:5990   */\n      tag_610\n        /* \"#utility.yul\":5983:5989   */\n      dup2\n        /* \"#utility.yul\":5978:5981   */\n      dup6\n        /* \"#utility.yul\":5919:5990   */\n      tag_485\n      jump\t// in\n    tag_610:\n        /* \"#utility.yul\":5912:5990   */\n      swap4\n      pop\n        /* \"#utility.yul\":5999:6064   */\n      tag_611\n        /* \"#utility.yul\":6057:6063   */\n      dup2\n        /* \"#utility.yul\":6052:6055   */\n      dup6\n        /* \"#utility.yul\":6045:6049   */\n      0x20\n        /* \"#utility.yul\":6038:6043   */\n      dup7\n        /* \"#utility.yul\":6034:6050   */\n      add\n        /* \"#utility.yul\":5999:6064   */\n      tag_486\n      jump\t// in\n    tag_611:\n        /* \"#utility.yul\":6089:6118   */\n      tag_612\n        /* \"#utility.yul\":6111:6117   */\n      dup2\n        /* \"#utility.yul\":6089:6118   */\n      tag_470\n      jump\t// in\n    tag_612:\n        /* \"#utility.yul\":6084:6087   */\n      dup5\n        /* \"#utility.yul\":6080:6119   */\n      add\n        /* \"#utility.yul\":6073:6119   */\n      swap2\n      pop\n        /* \"#utility.yul\":5840:6125   */\n      pop\n        /* \"#utility.yul\":5748:6125   */\n      swap3\n      swap2\n      pop\n      pop\n      jump\t// out\n        /* \"#utility.yul\":6131:6249   */\n    tag_488:\n        /* \"#utility.yul\":6218:6242   */\n      tag_614\n        /* \"#utility.yul\":6236:6241   */\n      dup2\n        /* \"#utility.yul\":6218:6242   */\n      tag_478\n      jump\t// in\n    tag_614:\n        /* \"#utility.yul\":6213:6216   */\n      dup3\n        /* \"#utility.yul\":6206:6243   */\n      mstore\n        /* \"#utility.yul\":6131:6249   */\n      pop\n      pop\n      jump\t// out\n        /* \"#utility.yul\":6255:6879   */\n    tag_36:\n        /* \"#utility.yul\":6444:6448   */\n      0x00\n        /* \"#utility.yul\":6482:6484   */\n      0x60\n        /* \"#utility.yul\":6471:6480   */\n      dup3\n        /* \"#utility.yul\":6467:6485   */\n      add\n        /* \"#utility.yul\":6459:6485   */\n      swap1\n      pop\n        /* \"#utility.yul\":6531:6540   */\n      dup2\n        /* \"#utility.yul\":6525:6529   */\n      dup2\n        /* \"#utility.yul\":6521:6541   */\n      sub\n        /* \"#utility.yul\":6517:6518   */\n      0x00\n        /* \"#utility.yul\":6506:6515   */\n      dup4\n        /* \"#utility.yul\":6502:6519   */\n      add\n        /* \"#utility.yul\":6495:6542   */\n      mstore\n        /* \"#utility.yul\":6559:6637   */\n      tag_616\n        /* \"#utility.yul\":6632:6636   */\n      dup2\n        /* \"#utility.yul\":6623:6629   */\n      dup7\n        /* \"#utility.yul\":6559:6637   */\n      tag_487\n      jump\t// in\n    tag_616:\n        /* \"#utility.yul\":6551:6637   */\n      swap1\n      pop\n        /* \"#utility.yul\":6647:6719   */\n      tag_617\n        /* \"#utility.yul\":6715:6717   */\n      0x20\n        /* \"#utility.yul\":6704:6713   */\n      dup4\n        /* \"#utility.yul\":6700:6718   */\n      add\n        /* \"#utility.yul\":6691:6697   */\n      dup6\n        /* \"#utility.yul\":6647:6719   */\n      tag_488\n      jump\t// in\n    tag_617:\n        /* \"#utility.yul\":6766:6775   */\n      dup2\n        /* \"#utility.yul\":6760:6764   */\n      dup2\n        /* \"#utility.yul\":6756:6776   */\n      sub\n        /* \"#utility.yul\":6751:6753   */\n      0x40\n        /* \"#utility.yul\":6740:6749   */\n      dup4\n        /* \"#utility.yul\":6736:6754   */\n      add\n        /* \"#utility.yul\":6729:6777   */\n      mstore\n        /* \"#utility.yul\":6794:6872   */\n      tag_618\n        /* \"#utility.yul\":6867:6871   */\n      dup2\n        /* \"#utility.yul\":6858:6864   */\n      dup5\n        /* \"#utility.yul\":6794:6872   */\n      tag_487\n      jump\t// in\n    tag_618:\n        /* \"#utility.yul\":6786:6872   */\n      swap1\n      pop\n        /* \"#utility.yul\":6255:6879   */\n      swap5\n      swap4\n      pop\n      pop\n      pop\n      pop\n      jump\t// out\n        /* \"#utility.yul\":6885:7003   */\n    tag_489:\n        /* \"#utility.yul\":6972:6996   */\n      tag_620\n        /* \"#utility.yul\":6990:6995   */\n      dup2\n        /* \"#utility.yul\":6972:6996   */\n      tag_481\n      jump\t// in\n    tag_620:\n        /* \"#utility.yul\":6967:6970   */\n      dup3\n        /* \"#utility.yul\":6960:6997   */\n      mstore\n        /* \"#utility.yul\":6885:7003   */\n      pop\n      pop\n      jump\t// out\n        /* \"#utility.yul\":7009:7542   */\n    tag_41:\n        /* \"#utility.yul\":7178:7182   */\n      0x00\n        /* \"#utility.yul\":7216:7218   */\n      0x60\n        /* \"#utility.yul\":7205:7214   */\n      dup3\n        /* \"#utility.yul\":7201:7219   */\n      add\n        /* \"#utility.yul\":7193:7219   */\n      swap1\n      pop\n        /* \"#utility.yul\":7265:7274   */\n      dup2\n        /* \"#utility.yul\":7259:7263   */\n      dup2\n        /* \"#utility.yul\":7255:7275   */\n      sub\n        /* \"#utility.yul\":7251:7252   */\n      0x00\n        /* \"#utility.yul\":7240:7249   */\n      dup4\n        /* \"#utility.yul\":7236:7253   */\n      add\n        /* \"#utility.yul\":7229:7276   */\n      mstore\n        /* \"#utility.yul\":7293:7371   */\n      tag_622\n        /* \"#utility.yul\":7366:7370   */\n      dup2\n        /* \"#utility.yul\":7357:7363   */\n      dup7\n        /* \"#utility.yul\":7293:7371   */\n      tag_487\n      jump\t// in\n    tag_622:\n        /* \"#utility.yul\":7285:7371   */\n      swap1\n      pop\n        /* \"#utility.yul\":7381:7453   */\n      tag_623\n        /* \"#utility.yul\":7449:7451   */\n      0x20\n        /* \"#utility.yul\":7438:7447   */\n      dup4\n        /* \"#utility.yul\":7434:7452   */\n      add\n        /* \"#utility.yul\":7425:7431   */\n      dup6\n        /* \"#utility.yul\":7381:7453   */\n      tag_488\n      jump\t// in\n    tag_623:\n        /* \"#utility.yul\":7463:7535   */\n      tag_624\n        /* \"#utility.yul\":7531:7533   */\n      0x40\n        /* \"#utility.yul\":7520:7529   */\n      dup4\n        /* \"#utility.yul\":7516:7534   */\n      add\n        /* \"#utility.yul\":7507:7513   */\n      dup5\n        /* \"#utility.yul\":7463:7535   */\n      tag_489\n      jump\t// in\n    tag_624:\n        /* \"#utility.yul\":7009:7542   */\n      swap5\n      swap4\n      pop\n      pop\n      pop\n      pop\n      jump\t// out\n        /* \"#utility.yul\":7548:7770   */\n    tag_45:\n        /* \"#utility.yul\":7641:7645   */\n      0x00\n        /* \"#utility.yul\":7679:7681   */\n      0x20\n        /* \"#utility.yul\":7668:7677   */\n      dup3\n        /* \"#utility.yul\":7664:7682   */\n      add\n        /* \"#utility.yul\":7656:7682   */\n      swap1\n      pop\n        /* \"#utility.yul\":7692:7763   */\n      tag_626\n        /* \"#utility.yul\":7760:7761   */\n      0x00\n        /* \"#utility.yul\":7749:7758   */\n      dup4\n        /* \"#utility.yul\":7745:7762   */\n      add\n        /* \"#utility.yul\":7736:7742   */\n      dup5\n        /* \"#utility.yul\":7692:7763   */\n      tag_489\n      jump\t// in\n    tag_626:\n        /* \"#utility.yul\":7548:7770   */\n      swap3\n      swap2\n      pop\n      pop\n      jump\t// out\n        /* \"#utility.yul\":7776:8285   */\n    tag_48:\n        /* \"#utility.yul\":7845:7851   */\n      0x00\n        /* \"#utility.yul\":7894:7896   */\n      0x20\n        /* \"#utility.yul\":7882:7891   */\n      dup3\n        /* \"#utility.yul\":7873:7880   */\n      dup5\n        /* \"#utility.yul\":7869:7892   */\n      sub\n        /* \"#utility.yul\":7865:7897   */\n      slt\n        /* \"#utility.yul\":7862:7981   */\n      iszero\n      tag_628\n      jumpi\n        /* \"#utility.yul\":7900:7979   */\n      tag_629\n      tag_466\n      jump\t// in\n    tag_629:\n        /* \"#utility.yul\":7862:7981   */\n    tag_628:\n        /* \"#utility.yul\":8048:8049   */\n      0x00\n        /* \"#utility.yul\":8037:8046   */\n      dup3\n        /* \"#utility.yul\":8033:8050   */\n      add\n        /* \"#utility.yul\":8020:8051   */\n      calldataload\n        /* \"#utility.yul\":8078:8096   */\n      0xffffffffffffffff\n        /* \"#utility.yul\":8070:8076   */\n      dup2\n        /* \"#utility.yul\":8067:8097   */\n      gt\n        /* \"#utility.yul\":8064:8181   */\n      iszero\n      tag_630\n      jumpi\n        /* \"#utility.yul\":8100:8179   */\n      tag_631\n      tag_467\n      jump\t// in\n    tag_631:\n        /* \"#utility.yul\":8064:8181   */\n    tag_630:\n        /* \"#utility.yul\":8205:8268   */\n      tag_632\n        /* \"#utility.yul\":8260:8267   */\n      dup5\n        /* \"#utility.yul\":8251:8257   */\n      dup3\n        /* \"#utility.yul\":8240:8249   */\n      dup6\n        /* \"#utility.yul\":8236:8258   */\n      add\n        /* \"#utility.yul\":8205:8268   */\n      tag_476\n      jump\t// in\n    tag_632:\n        /* \"#utility.yul\":8195:8268   */\n      swap2\n      pop\n        /* \"#utility.yul\":7991:8278   */\n      pop\n        /* \"#utility.yul\":7776:8285   */\n      swap3\n      swap2\n      pop\n      pop\n      jump\t// out\n        /* \"#utility.yul\":8291:8415   */\n    tag_490:\n        /* \"#utility.yul\":8368:8374   */\n      0x00\n        /* \"#utility.yul\":8402:8407   */\n      dup2\n        /* \"#utility.yul\":8396:8408   */\n      mload\n        /* \"#utility.yul\":8386:8408   */\n      swap1\n      pop\n        /* \"#utility.yul\":8291:8415   */\n      swap2\n      swap1\n      pop\n      jump\t// out\n        /* \"#utility.yul\":8421:8615   */\n    tag_491:\n        /* \"#utility.yul\":8530:8541   */\n      0x00\n        /* \"#utility.yul\":8564:8570   */\n      dup3\n        /* \"#utility.yul\":8559:8562   */\n      dup3\n        /* \"#utility.yul\":8552:8571   */\n      mstore\n        /* \"#utility.yul\":8604:8608   */\n      0x20\n        /* \"#utility.yul\":8599:8602   */\n      dup3\n        /* \"#utility.yul\":8595:8609   */\n      add\n        /* \"#utility.yul\":8580:8609   */\n      swap1\n      pop\n        /* \"#utility.yul\":8421:8615   */\n      swap3\n      swap2\n      pop\n      pop\n      jump\t// out\n        /* \"#utility.yul\":8621:8763   */\n    tag_492:\n        /* \"#utility.yul\":8698:8702   */\n      0x00\n        /* \"#utility.yul\":8721:8724   */\n      dup2\n        /* \"#utility.yul\":8713:8724   */\n      swap1\n      pop\n        /* \"#utility.yul\":8751:8755   */\n      0x20\n        /* \"#utility.yul\":8746:8749   */\n      dup3\n        /* \"#utility.yul\":8742:8756   */\n      add\n        /* \"#utility.yul\":8734:8756   */\n      swap1\n      pop\n        /* \"#utility.yul\":8621:8763   */\n      swap2\n      swap1\n      pop\n      jump\t// out\n        /* \"#utility.yul\":8769:8928   */\n    tag_493:\n        /* \"#utility.yul\":8843:8854   */\n      0x00\n        /* \"#utility.yul\":8877:8883   */\n      dup3\n        /* \"#utility.yul\":8872:8875   */\n      dup3\n        /* \"#utility.yul\":8865:8884   */\n      mstore\n        /* \"#utility.yul\":8917:8921   */\n      0x20\n        /* \"#utility.yul\":8912:8915   */\n      dup3\n        /* \"#utility.yul\":8908:8922   */\n      add\n        /* \"#utility.yul\":8893:8922   */\n      swap1\n      pop\n        /* \"#utility.yul\":8769:8928   */\n      swap3\n      swap2\n      pop\n      pop\n      jump\t// out\n        /* \"#utility.yul\":8934:9291   */\n    tag_494:\n        /* \"#utility.yul\":9012:9015   */\n      0x00\n        /* \"#utility.yul\":9040:9079   */\n      tag_638\n        /* \"#utility.yul\":9073:9078   */\n      dup3\n        /* \"#utility.yul\":9040:9079   */\n      tag_484\n      jump\t// in\n    tag_638:\n        /* \"#utility.yul\":9095:9156   */\n      tag_639\n        /* \"#utility.yul\":9149:9155   */\n      dup2\n        /* \"#utility.yul\":9144:9147   */\n      dup6\n        /* \"#utility.yul\":9095:9156   */\n      tag_493\n      jump\t// in\n    tag_639:\n        /* \"#utility.yul\":9088:9156   */\n      swap4\n      pop\n        /* \"#utility.yul\":9165:9230   */\n      tag_640\n        /* \"#utility.yul\":9223:9229   */\n      dup2\n        /* \"#utility.yul\":9218:9221   */\n      dup6\n        /* \"#utility.yul\":9211:9215   */\n      0x20\n        /* \"#utility.yul\":9204:9209   */\n      dup7\n        /* \"#utility.yul\":9200:9216   */\n      add\n        /* \"#utility.yul\":9165:9230   */\n      tag_486\n      jump\t// in\n    tag_640:\n        /* \"#utility.yul\":9255:9284   */\n      tag_641\n        /* \"#utility.yul\":9277:9283   */\n      dup2\n        /* \"#utility.yul\":9255:9284   */\n      tag_470\n      jump\t// in\n    tag_641:\n        /* \"#utility.yul\":9250:9253   */\n      dup5\n        /* \"#utility.yul\":9246:9285   */\n      add\n        /* \"#utility.yul\":9239:9285   */\n      swap2\n      pop\n        /* \"#utility.yul\":9016:9291   */\n      pop\n        /* \"#utility.yul\":8934:9291   */\n      swap3\n      swap2\n      pop\n      pop\n      jump\t// out\n        /* \"#utility.yul\":9297:9493   */\n    tag_495:\n        /* \"#utility.yul\":9386:9396   */\n      0x00\n        /* \"#utility.yul\":9421:9487   */\n      tag_643\n        /* \"#utility.yul\":9483:9486   */\n      dup4\n        /* \"#utility.yul\":9475:9481   */\n      dup4\n        /* \"#utility.yul\":9421:9487   */\n      tag_494\n      jump\t// in\n    tag_643:\n        /* \"#utility.yul\":9407:9487   */\n      swap1\n      pop\n        /* \"#utility.yul\":9297:9493   */\n      swap3\n      swap2\n      pop\n      pop\n      jump\t// out\n        /* \"#utility.yul\":9499:9622   */\n    tag_496:\n        /* \"#utility.yul\":9579:9583   */\n      0x00\n        /* \"#utility.yul\":9611:9615   */\n      0x20\n        /* \"#utility.yul\":9606:9609   */\n      dup3\n        /* \"#utility.yul\":9602:9616   */\n      add\n        /* \"#utility.yul\":9594:9616   */\n      swap1\n      pop\n        /* \"#utility.yul\":9499:9622   */\n      swap2\n      swap1\n      pop\n      jump\t// out\n        /* \"#utility.yul\":9656:10647   */\n    tag_497:\n        /* \"#utility.yul\":9795:9798   */\n      0x00\n        /* \"#utility.yul\":9824:9888   */\n      tag_646\n        /* \"#utility.yul\":9882:9887   */\n      dup3\n        /* \"#utility.yul\":9824:9888   */\n      tag_490\n      jump\t// in\n    tag_646:\n        /* \"#utility.yul\":9904:10000   */\n      tag_647\n        /* \"#utility.yul\":9993:9999   */\n      dup2\n        /* \"#utility.yul\":9988:9991   */\n      dup6\n        /* \"#utility.yul\":9904:10000   */\n      tag_491\n      jump\t// in\n    tag_647:\n        /* \"#utility.yul\":9897:10000   */\n      swap4\n      pop\n        /* \"#utility.yul\":10026:10029   */\n      dup4\n        /* \"#utility.yul\":10071:10075   */\n      0x20\n        /* \"#utility.yul\":10063:10069   */\n      dup3\n        /* \"#utility.yul\":10059:10076   */\n      mul\n        /* \"#utility.yul\":10054:10057   */\n      dup6\n        /* \"#utility.yul\":10050:10077   */\n      add\n        /* \"#utility.yul\":10101:10167   */\n      tag_648\n        /* \"#utility.yul\":10161:10166   */\n      dup6\n        /* \"#utility.yul\":10101:10167   */\n      tag_492\n      jump\t// in\n    tag_648:\n        /* \"#utility.yul\":10190:10197   */\n      dup1\n        /* \"#utility.yul\":10221:10222   */\n      0x00\n        /* \"#utility.yul\":10206:10602   */\n    tag_649:\n        /* \"#utility.yul\":10231:10237   */\n      dup6\n        /* \"#utility.yul\":10228:10229   */\n      dup2\n        /* \"#utility.yul\":10225:10238   */\n      lt\n        /* \"#utility.yul\":10206:10602   */\n      iszero\n      tag_651\n      jumpi\n        /* \"#utility.yul\":10302:10311   */\n      dup5\n        /* \"#utility.yul\":10296:10300   */\n      dup5\n        /* \"#utility.yul\":10292:10312   */\n      sub\n        /* \"#utility.yul\":10287:10290   */\n      dup10\n        /* \"#utility.yul\":10280:10313   */\n      mstore\n        /* \"#utility.yul\":10353:10359   */\n      dup2\n        /* \"#utility.yul\":10347:10360   */\n      mload\n        /* \"#utility.yul\":10381:10465   */\n      tag_652\n        /* \"#utility.yul\":10460:10464   */\n      dup6\n        /* \"#utility.yul\":10445:10458   */\n      dup3\n        /* \"#utility.yul\":10381:10465   */\n      tag_495\n      jump\t// in\n    tag_652:\n        /* \"#utility.yul\":10373:10465   */\n      swap5\n      pop\n        /* \"#utility.yul\":10488:10558   */\n      tag_653\n        /* \"#utility.yul\":10551:10557   */\n      dup4\n        /* \"#utility.yul\":10488:10558   */\n      tag_496\n      jump\t// in\n    tag_653:\n        /* \"#utility.yul\":10478:10558   */\n      swap3\n      pop\n        /* \"#utility.yul\":10587:10591   */\n      0x20\n        /* \"#utility.yul\":10582:10585   */\n      dup11\n        /* \"#utility.yul\":10578:10592   */\n      add\n        /* \"#utility.yul\":10571:10592   */\n      swap10\n      pop\n        /* \"#utility.yul\":10266:10602   */\n      pop\n        /* \"#utility.yul\":10253:10254   */\n      0x01\n        /* \"#utility.yul\":10250:10251   */\n      dup2\n        /* \"#utility.yul\":10246:10255   */\n      add\n        /* \"#utility.yul\":10241:10255   */\n      swap1\n      pop\n        /* \"#utility.yul\":10206:10602   */\n      jump(tag_649)\n    tag_651:\n        /* \"#utility.yul\":10210:10224   */\n      pop\n        /* \"#utility.yul\":10618:10622   */\n      dup3\n        /* \"#utility.yul\":10611:10622   */\n      swap8\n      pop\n        /* \"#utility.yul\":10638:10641   */\n      dup8\n        /* \"#utility.yul\":10631:10641   */\n      swap6\n      pop\n        /* \"#utility.yul\":9800:10647   */\n      pop\n      pop\n      pop\n      pop\n      pop\n        /* \"#utility.yul\":9656:10647   */\n      swap3\n      swap2\n      pop\n      pop\n      jump\t// out\n        /* \"#utility.yul\":10653:10767   */\n    tag_498:\n        /* \"#utility.yul\":10720:10726   */\n      0x00\n        /* \"#utility.yul\":10754:10759   */\n      dup2\n        /* \"#utility.yul\":10748:10760   */\n      mload\n        /* \"#utility.yul\":10738:10760   */\n      swap1\n      pop\n        /* \"#utility.yul\":10653:10767   */\n      swap2\n      swap1\n      pop\n      jump\t// out\n        /* \"#utility.yul\":10773:10957   */\n    tag_499:\n        /* \"#utility.yul\":10872:10883   */\n      0x00\n        /* \"#utility.yul\":10906:10912   */\n      dup3\n        /* \"#utility.yul\":10901:10904   */\n      dup3\n        /* \"#utility.yul\":10894:10913   */\n      mstore\n        /* \"#utility.yul\":10946:10950   */\n      0x20\n        /* \"#utility.yul\":10941:10944   */\n      dup3\n        /* \"#utility.yul\":10937:10951   */\n      add\n        /* \"#utility.yul\":10922:10951   */\n      swap1\n      pop\n        /* \"#utility.yul\":10773:10957   */\n      swap3\n      swap2\n      pop\n      pop\n      jump\t// out\n        /* \"#utility.yul\":10963:11095   */\n    tag_500:\n        /* \"#utility.yul\":11030:11034   */\n      0x00\n        /* \"#utility.yul\":11053:11056   */\n      dup2\n        /* \"#utility.yul\":11045:11056   */\n      swap1\n      pop\n        /* \"#utility.yul\":11083:11087   */\n      0x20\n        /* \"#utility.yul\":11078:11081   */\n      dup3\n        /* \"#utility.yul\":11074:11088   */\n      add\n        /* \"#utility.yul\":11066:11088   */\n      swap1\n      pop\n        /* \"#utility.yul\":10963:11095   */\n      swap2\n      swap1\n      pop\n      jump\t// out\n        /* \"#utility.yul\":11101:11209   */\n    tag_501:\n        /* \"#utility.yul\":11178:11202   */\n      tag_658\n        /* \"#utility.yul\":11196:11201   */\n      dup2\n        /* \"#utility.yul\":11178:11202   */\n      tag_481\n      jump\t// in\n    tag_658:\n        /* \"#utility.yul\":11173:11176   */\n      dup3\n        /* \"#utility.yul\":11166:11203   */\n      mstore\n        /* \"#utility.yul\":11101:11209   */\n      pop\n      pop\n      jump\t// out\n        /* \"#utility.yul\":11215:11394   */\n    tag_502:\n        /* \"#utility.yul\":11284:11294   */\n      0x00\n        /* \"#utility.yul\":11305:11351   */\n      tag_660\n        /* \"#utility.yul\":11347:11350   */\n      dup4\n        /* \"#utility.yul\":11339:11345   */\n      dup4\n        /* \"#utility.yul\":11305:11351   */\n      tag_501\n      jump\t// in\n    tag_660:\n        /* \"#utility.yul\":11383:11387   */\n      0x20\n        /* \"#utility.yul\":11378:11381   */\n      dup4\n        /* \"#utility.yul\":11374:11388   */\n      add\n        /* \"#utility.yul\":11360:11388   */\n      swap1\n      pop\n        /* \"#utility.yul\":11215:11394   */\n      swap3\n      swap2\n      pop\n      pop\n      jump\t// out\n        /* \"#utility.yul\":11400:11513   */\n    tag_503:\n        /* \"#utility.yul\":11470:11474   */\n      0x00\n        /* \"#utility.yul\":11502:11506   */\n      0x20\n        /* \"#utility.yul\":11497:11500   */\n      dup3\n        /* \"#utility.yul\":11493:11507   */\n      add\n        /* \"#utility.yul\":11485:11507   */\n      swap1\n      pop\n        /* \"#utility.yul\":11400:11513   */\n      swap2\n      swap1\n      pop\n      jump\t// out\n        /* \"#utility.yul\":11549:12281   */\n    tag_504:\n        /* \"#utility.yul\":11668:11671   */\n      0x00\n        /* \"#utility.yul\":11697:11751   */\n      tag_663\n        /* \"#utility.yul\":11745:11750   */\n      dup3\n        /* \"#utility.yul\":11697:11751   */\n      tag_498\n      jump\t// in\n    tag_663:\n        /* \"#utility.yul\":11767:11853   */\n      tag_664\n        /* \"#utility.yul\":11846:11852   */\n      dup2\n        /* \"#utility.yul\":11841:11844   */\n      dup6\n        /* \"#utility.yul\":11767:11853   */\n      tag_499\n      jump\t// in\n    tag_664:\n        /* \"#utility.yul\":11760:11853   */\n      swap4\n      pop\n        /* \"#utility.yul\":11877:11933   */\n      tag_665\n        /* \"#utility.yul\":11927:11932   */\n      dup4\n        /* \"#utility.yul\":11877:11933   */\n      tag_500\n      jump\t// in\n    tag_665:\n        /* \"#utility.yul\":11956:11963   */\n      dup1\n        /* \"#utility.yul\":11987:11988   */\n      0x00\n        /* \"#utility.yul\":11972:12256   */\n    tag_666:\n        /* \"#utility.yul\":11997:12003   */\n      dup4\n        /* \"#utility.yul\":11994:11995   */\n      dup2\n        /* \"#utility.yul\":11991:12004   */\n      lt\n        /* \"#utility.yul\":11972:12256   */\n      iszero\n      tag_668\n      jumpi\n        /* \"#utility.yul\":12073:12079   */\n      dup2\n        /* \"#utility.yul\":12067:12080   */\n      mload\n        /* \"#utility.yul\":12100:12163   */\n      tag_669\n        /* \"#utility.yul\":12159:12162   */\n      dup9\n        /* \"#utility.yul\":12144:12157   */\n      dup3\n        /* \"#utility.yul\":12100:12163   */\n      tag_502\n      jump\t// in\n    tag_669:\n        /* \"#utility.yul\":12093:12163   */\n      swap8\n      pop\n        /* \"#utility.yul\":12186:12246   */\n      tag_670\n        /* \"#utility.yul\":12239:12245   */\n      dup4\n        /* \"#utility.yul\":12186:12246   */\n      tag_503\n      jump\t// in\n    tag_670:\n        /* \"#utility.yul\":12176:12246   */\n      swap3\n      pop\n        /* \"#utility.yul\":12032:12256   */\n      pop\n        /* \"#utility.yul\":12019:12020   */\n      0x01\n        /* \"#utility.yul\":12016:12017   */\n      dup2\n        /* \"#utility.yul\":12012:12021   */\n      add\n        /* \"#utility.yul\":12007:12021   */\n      swap1\n      pop\n        /* \"#utility.yul\":11972:12256   */\n      jump(tag_666)\n    tag_668:\n        /* \"#utility.yul\":11976:11990   */\n      pop\n        /* \"#utility.yul\":12272:12275   */\n      dup6\n        /* \"#utility.yul\":12265:12275   */\n      swap4\n      pop\n        /* \"#utility.yul\":11673:12281   */\n      pop\n      pop\n      pop\n        /* \"#utility.yul\":11549:12281   */\n      swap3\n      swap2\n      pop\n      pop\n      jump\t// out\n        /* \"#utility.yul\":12287:14652   */\n    tag_51:\n        /* \"#utility.yul\":13056:13060   */\n      0x00\n        /* \"#utility.yul\":13094:13097   */\n      0x0100\n        /* \"#utility.yul\":13083:13092   */\n      dup3\n        /* \"#utility.yul\":13079:13098   */\n      add\n        /* \"#utility.yul\":13071:13098   */\n      swap1\n      pop\n        /* \"#utility.yul\":13144:13153   */\n      dup2\n        /* \"#utility.yul\":13138:13142   */\n      dup2\n        /* \"#utility.yul\":13134:13154   */\n      sub\n        /* \"#utility.yul\":13130:13131   */\n      0x00\n        /* \"#utility.yul\":13119:13128   */\n      dup4\n        /* \"#utility.yul\":13115:13132   */\n      add\n        /* \"#utility.yul\":13108:13155   */\n      mstore\n        /* \"#utility.yul\":13172:13300   */\n      tag_672\n        /* \"#utility.yul\":13295:13299   */\n      dup2\n        /* \"#utility.yul\":13286:13292   */\n      dup12\n        /* \"#utility.yul\":13172:13300   */\n      tag_497\n      jump\t// in\n    tag_672:\n        /* \"#utility.yul\":13164:13300   */\n      swap1\n      pop\n        /* \"#utility.yul\":13347:13356   */\n      dup2\n        /* \"#utility.yul\":13341:13345   */\n      dup2\n        /* \"#utility.yul\":13337:13357   */\n      sub\n        /* \"#utility.yul\":13332:13334   */\n      0x20\n        /* \"#utility.yul\":13321:13330   */\n      dup4\n        /* \"#utility.yul\":13317:13335   */\n      add\n        /* \"#utility.yul\":13310:13358   */\n      mstore\n        /* \"#utility.yul\":13375:13483   */\n      tag_673\n        /* \"#utility.yul\":13478:13482   */\n      dup2\n        /* \"#utility.yul\":13469:13475   */\n      dup11\n        /* \"#utility.yul\":13375:13483   */\n      tag_504\n      jump\t// in\n    tag_673:\n        /* \"#utility.yul\":13367:13483   */\n      swap1\n      pop\n        /* \"#utility.yul\":13530:13539   */\n      dup2\n        /* \"#utility.yul\":13524:13528   */\n      dup2\n        /* \"#utility.yul\":13520:13540   */\n      sub\n        /* \"#utility.yul\":13515:13517   */\n      0x40\n        /* \"#utility.yul\":13504:13513   */\n      dup4\n        /* \"#utility.yul\":13500:13518   */\n      add\n        /* \"#utility.yul\":13493:13541   */\n      mstore\n        /* \"#utility.yul\":13558:13666   */\n      tag_674\n        /* \"#utility.yul\":13661:13665   */\n      dup2\n        /* \"#utility.yul\":13652:13658   */\n      dup10\n        /* \"#utility.yul\":13558:13666   */\n      tag_504\n      jump\t// in\n    tag_674:\n        /* \"#utility.yul\":13550:13666   */\n      swap1\n      pop\n        /* \"#utility.yul\":13713:13722   */\n      dup2\n        /* \"#utility.yul\":13707:13711   */\n      dup2\n        /* \"#utility.yul\":13703:13723   */\n      sub\n        /* \"#utility.yul\":13698:13700   */\n      0x60\n        /* \"#utility.yul\":13687:13696   */\n      dup4\n        /* \"#utility.yul\":13683:13701   */\n      add\n        /* \"#utility.yul\":13676:13724   */\n      mstore\n        /* \"#utility.yul\":13741:13849   */\n      tag_675\n        /* \"#utility.yul\":13844:13848   */\n      dup2\n        /* \"#utility.yul\":13835:13841   */\n      dup9\n        /* \"#utility.yul\":13741:13849   */\n      tag_504\n      jump\t// in\n    tag_675:\n        /* \"#utility.yul\":13733:13849   */\n      swap1\n      pop\n        /* \"#utility.yul\":13897:13906   */\n      dup2\n        /* \"#utility.yul\":13891:13895   */\n      dup2\n        /* \"#utility.yul\":13887:13907   */\n      sub\n        /* \"#utility.yul\":13881:13884   */\n      0x80\n        /* \"#utility.yul\":13870:13879   */\n      dup4\n        /* \"#utility.yul\":13866:13885   */\n      add\n        /* \"#utility.yul\":13859:13908   */\n      mstore\n        /* \"#utility.yul\":13925:14033   */\n      tag_676\n        /* \"#utility.yul\":14028:14032   */\n      dup2\n        /* \"#utility.yul\":14019:14025   */\n      dup8\n        /* \"#utility.yul\":13925:14033   */\n      tag_504\n      jump\t// in\n    tag_676:\n        /* \"#utility.yul\":13917:14033   */\n      swap1\n      pop\n        /* \"#utility.yul\":14081:14090   */\n      dup2\n        /* \"#utility.yul\":14075:14079   */\n      dup2\n        /* \"#utility.yul\":14071:14091   */\n      sub\n        /* \"#utility.yul\":14065:14068   */\n      0xa0\n        /* \"#utility.yul\":14054:14063   */\n      dup4\n        /* \"#utility.yul\":14050:14069   */\n      add\n        /* \"#utility.yul\":14043:14092   */\n      mstore\n        /* \"#utility.yul\":14109:14237   */\n      tag_677\n        /* \"#utility.yul\":14232:14236   */\n      dup2\n        /* \"#utility.yul\":14223:14229   */\n      dup7\n        /* \"#utility.yul\":14109:14237   */\n      tag_497\n      jump\t// in\n    tag_677:\n        /* \"#utility.yul\":14101:14237   */\n      swap1\n      pop\n        /* \"#utility.yul\":14285:14294   */\n      dup2\n        /* \"#utility.yul\":14279:14283   */\n      dup2\n        /* \"#utility.yul\":14275:14295   */\n      sub\n        /* \"#utility.yul\":14269:14272   */\n      0xc0\n        /* \"#utility.yul\":14258:14267   */\n      dup4\n        /* \"#utility.yul\":14254:14273   */\n      add\n        /* \"#utility.yul\":14247:14296   */\n      mstore\n        /* \"#utility.yul\":14313:14441   */\n      tag_678\n        /* \"#utility.yul\":14436:14440   */\n      dup2\n        /* \"#utility.yul\":14427:14433   */\n      dup6\n        /* \"#utility.yul\":14313:14441   */\n      tag_497\n      jump\t// in\n    tag_678:\n        /* \"#utility.yul\":14305:14441   */\n      swap1\n      pop\n        /* \"#utility.yul\":14489:14498   */\n      dup2\n        /* \"#utility.yul\":14483:14487   */\n      dup2\n        /* \"#utility.yul\":14479:14499   */\n      sub\n        /* \"#utility.yul\":14473:14476   */\n      0xe0\n        /* \"#utility.yul\":14462:14471   */\n      dup4\n        /* \"#utility.yul\":14458:14477   */\n      add\n        /* \"#utility.yul\":14451:14500   */\n      mstore\n        /* \"#utility.yul\":14517:14645   */\n      tag_679\n        /* \"#utility.yul\":14640:14644   */\n      dup2\n        /* \"#utility.yul\":14631:14637   */\n      dup5\n        /* \"#utility.yul\":14517:14645   */\n      tag_497\n      jump\t// in\n    tag_679:\n        /* \"#utility.yul\":14509:14645   */\n      swap1\n      pop\n        /* \"#utility.yul\":12287:14652   */\n      swap10\n      swap9\n      pop\n      pop\n      pop\n      pop\n      pop\n      pop\n      pop\n      pop\n      pop\n      jump\t// out\n        /* \"#utility.yul\":14658:15081   */\n    tag_56:\n        /* \"#utility.yul\":14799:14803   */\n      0x00\n        /* \"#utility.yul\":14837:14839   */\n      0x40\n        /* \"#utility.yul\":14826:14835   */\n      dup3\n        /* \"#utility.yul\":14822:14840   */\n      add\n        /* \"#utility.yul\":14814:14840   */\n      swap1\n      pop\n        /* \"#utility.yul\":14886:14895   */\n      dup2\n        /* \"#utility.yul\":14880:14884   */\n      dup2\n        /* \"#utility.yul\":14876:14896   */\n      sub\n        /* \"#utility.yul\":14872:14873   */\n      0x00\n        /* \"#utility.yul\":14861:14870   */\n      dup4\n        /* \"#utility.yul\":14857:14874   */\n      add\n        /* \"#utility.yul\":14850:14897   */\n      mstore\n        /* \"#utility.yul\":14914:14992   */\n      tag_681\n        /* \"#utility.yul\":14987:14991   */\n      dup2\n        /* \"#utility.yul\":14978:14984   */\n      dup6\n        /* \"#utility.yul\":14914:14992   */\n      tag_487\n      jump\t// in\n    tag_681:\n        /* \"#utility.yul\":14906:14992   */\n      swap1\n      pop\n        /* \"#utility.yul\":15002:15074   */\n      tag_682\n        /* \"#utility.yul\":15070:15072   */\n      0x20\n        /* \"#utility.yul\":15059:15068   */\n      dup4\n        /* \"#utility.yul\":15055:15073   */\n      add\n        /* \"#utility.yul\":15046:15052   */\n      dup5\n        /* \"#utility.yul\":15002:15074   */\n      tag_488\n      jump\t// in\n    tag_682:\n        /* \"#utility.yul\":14658:15081   */\n      swap4\n      swap3\n      pop\n      pop\n      pop\n      jump\t// out\n        /* \"#utility.yul\":15087:17190   */\n    tag_65:\n        /* \"#utility.yul\":15778:15782   */\n      0x00\n        /* \"#utility.yul\":15816:15819   */\n      0xe0\n        /* \"#utility.yul\":15805:15814   */\n      dup3\n        /* \"#utility.yul\":15801:15820   */\n      add\n        /* \"#utility.yul\":15793:15820   */\n      swap1\n      pop\n        /* \"#utility.yul\":15866:15875   */\n      dup2\n        /* \"#utility.yul\":15860:15864   */\n      dup2\n        /* \"#utility.yul\":15856:15876   */\n      sub\n        /* \"#utility.yul\":15852:15853   */\n      0x00\n        /* \"#utility.yul\":15841:15850   */\n      dup4\n        /* \"#utility.yul\":15837:15854   */\n      add\n        /* \"#utility.yul\":15830:15877   */\n      mstore\n        /* \"#utility.yul\":15894:16022   */\n      tag_684\n        /* \"#utility.yul\":16017:16021   */\n      dup2\n        /* \"#utility.yul\":16008:16014   */\n      dup11\n        /* \"#utility.yul\":15894:16022   */\n      tag_497\n      jump\t// in\n    tag_684:\n        /* \"#utility.yul\":15886:16022   */\n      swap1\n      pop\n        /* \"#utility.yul\":16069:16078   */\n      dup2\n        /* \"#utility.yul\":16063:16067   */\n      dup2\n        /* \"#utility.yul\":16059:16079   */\n      sub\n        /* \"#utility.yul\":16054:16056   */\n      0x20\n        /* \"#utility.yul\":16043:16052   */\n      dup4\n        /* \"#utility.yul\":16039:16057   */\n      add\n        /* \"#utility.yul\":16032:16080   */\n      mstore\n        /* \"#utility.yul\":16097:16205   */\n      tag_685\n        /* \"#utility.yul\":16200:16204   */\n      dup2\n        /* \"#utility.yul\":16191:16197   */\n      dup10\n        /* \"#utility.yul\":16097:16205   */\n      tag_504\n      jump\t// in\n    tag_685:\n        /* \"#utility.yul\":16089:16205   */\n      swap1\n      pop\n        /* \"#utility.yul\":16252:16261   */\n      dup2\n        /* \"#utility.yul\":16246:16250   */\n      dup2\n        /* \"#utility.yul\":16242:16262   */\n      sub\n        /* \"#utility.yul\":16237:16239   */\n      0x40\n        /* \"#utility.yul\":16226:16235   */\n      dup4\n        /* \"#utility.yul\":16222:16240   */\n      add\n        /* \"#utility.yul\":16215:16263   */\n      mstore\n        /* \"#utility.yul\":16280:16388   */\n      tag_686\n        /* \"#utility.yul\":16383:16387   */\n      dup2\n        /* \"#utility.yul\":16374:16380   */\n      dup9\n        /* \"#utility.yul\":16280:16388   */\n      tag_504\n      jump\t// in\n    tag_686:\n        /* \"#utility.yul\":16272:16388   */\n      swap1\n      pop\n        /* \"#utility.yul\":16435:16444   */\n      dup2\n        /* \"#utility.yul\":16429:16433   */\n      dup2\n        /* \"#utility.yul\":16425:16445   */\n      sub\n        /* \"#utility.yul\":16420:16422   */\n      0x60\n        /* \"#utility.yul\":16409:16418   */\n      dup4\n        /* \"#utility.yul\":16405:16423   */\n      add\n        /* \"#utility.yul\":16398:16446   */\n      mstore\n        /* \"#utility.yul\":16463:16571   */\n      tag_687\n        /* \"#utility.yul\":16566:16570   */\n      dup2\n        /* \"#utility.yul\":16557:16563   */\n      dup8\n        /* \"#utility.yul\":16463:16571   */\n      tag_504\n      jump\t// in\n    tag_687:\n        /* \"#utility.yul\":16455:16571   */\n      swap1\n      pop\n        /* \"#utility.yul\":16619:16628   */\n      dup2\n        /* \"#utility.yul\":16613:16617   */\n      dup2\n        /* \"#utility.yul\":16609:16629   */\n      sub\n        /* \"#utility.yul\":16603:16606   */\n      0x80\n        /* \"#utility.yul\":16592:16601   */\n      dup4\n        /* \"#utility.yul\":16588:16607   */\n      add\n        /* \"#utility.yul\":16581:16630   */\n      mstore\n        /* \"#utility.yul\":16647:16775   */\n      tag_688\n        /* \"#utility.yul\":16770:16774   */\n      dup2\n        /* \"#utility.yul\":16761:16767   */\n      dup7\n        /* \"#utility.yul\":16647:16775   */\n      tag_497\n      jump\t// in\n    tag_688:\n        /* \"#utility.yul\":16639:16775   */\n      swap1\n      pop\n        /* \"#utility.yul\":16823:16832   */\n      dup2\n        /* \"#utility.yul\":16817:16821   */\n      dup2\n        /* \"#utility.yul\":16813:16833   */\n      sub\n        /* \"#utility.yul\":16807:16810   */\n      0xa0\n        /* \"#utility.yul\":16796:16805   */\n      dup4\n        /* \"#utility.yul\":16792:16811   */\n      add\n        /* \"#utility.yul\":16785:16834   */\n      mstore\n        /* \"#utility.yul\":16851:16979   */\n      tag_689\n        /* \"#utility.yul\":16974:16978   */\n      dup2\n        /* \"#utility.yul\":16965:16971   */\n      dup6\n        /* \"#utility.yul\":16851:16979   */\n      tag_497\n      jump\t// in\n    tag_689:\n        /* \"#utility.yul\":16843:16979   */\n      swap1\n      pop\n        /* \"#utility.yul\":17027:17036   */\n      dup2\n        /* \"#utility.yul\":17021:17025   */\n      dup2\n        /* \"#utility.yul\":17017:17037   */\n      sub\n        /* \"#utility.yul\":17011:17014   */\n      0xc0\n        /* \"#utility.yul\":17000:17009   */\n      dup4\n        /* \"#utility.yul\":16996:17015   */\n      add\n        /* \"#utility.yul\":16989:17038   */\n      mstore\n        /* \"#utility.yul\":17055:17183   */\n      tag_690\n        /* \"#utility.yul\":17178:17182   */\n      dup2\n        /* \"#utility.yul\":17169:17175   */\n      dup5\n        /* \"#utility.yul\":17055:17183   */\n      tag_497\n      jump\t// in\n    tag_690:\n        /* \"#utility.yul\":17047:17183   */\n      swap1\n      pop\n        /* \"#utility.yul\":15087:17190   */\n      swap9\n      swap8\n      pop\n      pop\n      pop\n      pop\n      pop\n      pop\n      pop\n      pop\n      jump\t// out\n        /* \"#utility.yul\":17196:17525   */\n    tag_68:\n        /* \"#utility.yul\":17255:17261   */\n      0x00\n        /* \"#utility.yul\":17304:17306   */\n      0x20\n        /* \"#utility.yul\":17292:17301   */\n      dup3\n        /* \"#utility.yul\":17283:17290   */\n      dup5\n        /* \"#utility.yul\":17279:17302   */\n      sub\n        /* \"#utility.yul\":17275:17307   */\n      slt\n        /* \"#utility.yul\":17272:17391   */\n      iszero\n      tag_692\n      jumpi\n        /* \"#utility.yul\":17310:17389   */\n      tag_693\n      tag_466\n      jump\t// in\n    tag_693:\n        /* \"#utility.yul\":17272:17391   */\n    tag_692:\n        /* \"#utility.yul\":17430:17431   */\n      0x00\n        /* \"#utility.yul\":17455:17508   */\n      tag_694\n        /* \"#utility.yul\":17500:17507   */\n      dup5\n        /* \"#utility.yul\":17491:17497   */\n      dup3\n        /* \"#utility.yul\":17480:17489   */\n      dup6\n        /* \"#utility.yul\":17476:17498   */\n      add\n        /* \"#utility.yul\":17455:17508   */\n      tag_480\n      jump\t// in\n    tag_694:\n        /* \"#utility.yul\":17445:17508   */\n      swap2\n      pop\n        /* \"#utility.yul\":17401:17518   */\n      pop\n        /* \"#utility.yul\":17196:17525   */\n      swap3\n      swap2\n      pop\n      pop\n      jump\t// out\n        /* \"#utility.yul\":17531:17621   */\n    tag_505:\n        /* \"#utility.yul\":17565:17572   */\n      0x00\n        /* \"#utility.yul\":17608:17613   */\n      dup2\n        /* \"#utility.yul\":17601:17614   */\n      iszero\n        /* \"#utility.yul\":17594:17615   */\n      iszero\n        /* \"#utility.yul\":17583:17615   */\n      swap1\n      pop\n        /* \"#utility.yul\":17531:17621   */\n      swap2\n      swap1\n      pop\n      jump\t// out\n        /* \"#utility.yul\":17627:17736   */\n    tag_506:\n        /* \"#utility.yul\":17708:17729   */\n      tag_697\n        /* \"#utility.yul\":17723:17728   */\n      dup2\n        /* \"#utility.yul\":17708:17729   */\n      tag_505\n      jump\t// in\n    tag_697:\n        /* \"#utility.yul\":17703:17706   */\n      dup3\n        /* \"#utility.yul\":17696:17730   */\n      mstore\n        /* \"#utility.yul\":17627:17736   */\n      pop\n      pop\n      jump\t// out\n        /* \"#utility.yul\":17742:17952   */\n    tag_71:\n        /* \"#utility.yul\":17829:17833   */\n      0x00\n        /* \"#utility.yul\":17867:17869   */\n      0x20\n        /* \"#utility.yul\":17856:17865   */\n      dup3\n        /* \"#utility.yul\":17852:17870   */\n      add\n        /* \"#utility.yul\":17844:17870   */\n      swap1\n      pop\n        /* \"#utility.yul\":17880:17945   */\n      tag_699\n        /* \"#utility.yul\":17942:17943   */\n      0x00\n        /* \"#utility.yul\":17931:17940   */\n      dup4\n        /* \"#utility.yul\":17927:17944   */\n      add\n        /* \"#utility.yul\":17918:17924   */\n      dup5\n        /* \"#utility.yul\":17880:17945   */\n      tag_506\n      jump\t// in\n    tag_699:\n        /* \"#utility.yul\":17742:17952   */\n      swap3\n      swap2\n      pop\n      pop\n      jump\t// out\n        /* \"#utility.yul\":17958:19632   */\n    tag_76:\n        /* \"#utility.yul\":18403:18407   */\n      0x00\n        /* \"#utility.yul\":18441:18444   */\n      0x0140\n        /* \"#utility.yul\":18430:18439   */\n      dup3\n        /* \"#utility.yul\":18426:18445   */\n      add\n        /* \"#utility.yul\":18418:18445   */\n      swap1\n      pop\n        /* \"#utility.yul\":18491:18500   */\n      dup2\n        /* \"#utility.yul\":18485:18489   */\n      dup2\n        /* \"#utility.yul\":18481:18501   */\n      sub\n        /* \"#utility.yul\":18477:18478   */\n      0x00\n        /* \"#utility.yul\":18466:18475   */\n      dup4\n        /* \"#utility.yul\":18462:18479   */\n      add\n        /* \"#utility.yul\":18455:18502   */\n      mstore\n        /* \"#utility.yul\":18519:18597   */\n      tag_701\n        /* \"#utility.yul\":18592:18596   */\n      dup2\n        /* \"#utility.yul\":18583:18589   */\n      dup14\n        /* \"#utility.yul\":18519:18597   */\n      tag_487\n      jump\t// in\n    tag_701:\n        /* \"#utility.yul\":18511:18597   */\n      swap1\n      pop\n        /* \"#utility.yul\":18607:18679   */\n      tag_702\n        /* \"#utility.yul\":18675:18677   */\n      0x20\n        /* \"#utility.yul\":18664:18673   */\n      dup4\n        /* \"#utility.yul\":18660:18678   */\n      add\n        /* \"#utility.yul\":18651:18657   */\n      dup13\n        /* \"#utility.yul\":18607:18679   */\n      tag_489\n      jump\t// in\n    tag_702:\n        /* \"#utility.yul\":18689:18761   */\n      tag_703\n        /* \"#utility.yul\":18757:18759   */\n      0x40\n        /* \"#utility.yul\":18746:18755   */\n      dup4\n        /* \"#utility.yul\":18742:18760   */\n      add\n        /* \"#utility.yul\":18733:18739   */\n      dup12\n        /* \"#utility.yul\":18689:18761   */\n      tag_489\n      jump\t// in\n    tag_703:\n        /* \"#utility.yul\":18771:18843   */\n      tag_704\n        /* \"#utility.yul\":18839:18841   */\n      0x60\n        /* \"#utility.yul\":18828:18837   */\n      dup4\n        /* \"#utility.yul\":18824:18842   */\n      add\n        /* \"#utility.yul\":18815:18821   */\n      dup11\n        /* \"#utility.yul\":18771:18843   */\n      tag_489\n      jump\t// in\n    tag_704:\n        /* \"#utility.yul\":18853:18926   */\n      tag_705\n        /* \"#utility.yul\":18921:18924   */\n      0x80\n        /* \"#utility.yul\":18910:18919   */\n      dup4\n        /* \"#utility.yul\":18906:18925   */\n      add\n        /* \"#utility.yul\":18897:18903   */\n      dup10\n        /* \"#utility.yul\":18853:18926   */\n      tag_489\n      jump\t// in\n    tag_705:\n        /* \"#utility.yul\":18974:18983   */\n      dup2\n        /* \"#utility.yul\":18968:18972   */\n      dup2\n        /* \"#utility.yul\":18964:18984   */\n      sub\n        /* \"#utility.yul\":18958:18961   */\n      0xa0\n        /* \"#utility.yul\":18947:18956   */\n      dup4\n        /* \"#utility.yul\":18943:18962   */\n      add\n        /* \"#utility.yul\":18936:18985   */\n      mstore\n        /* \"#utility.yul\":19002:19080   */\n      tag_706\n        /* \"#utility.yul\":19075:19079   */\n      dup2\n        /* \"#utility.yul\":19066:19072   */\n      dup9\n        /* \"#utility.yul\":19002:19080   */\n      tag_487\n      jump\t// in\n    tag_706:\n        /* \"#utility.yul\":18994:19080   */\n      swap1\n      pop\n        /* \"#utility.yul\":19090:19163   */\n      tag_707\n        /* \"#utility.yul\":19158:19161   */\n      0xc0\n        /* \"#utility.yul\":19147:19156   */\n      dup4\n        /* \"#utility.yul\":19143:19162   */\n      add\n        /* \"#utility.yul\":19134:19140   */\n      dup8\n        /* \"#utility.yul\":19090:19163   */\n      tag_489\n      jump\t// in\n    tag_707:\n        /* \"#utility.yul\":19211:19220   */\n      dup2\n        /* \"#utility.yul\":19205:19209   */\n      dup2\n        /* \"#utility.yul\":19201:19221   */\n      sub\n        /* \"#utility.yul\":19195:19198   */\n      0xe0\n        /* \"#utility.yul\":19184:19193   */\n      dup4\n        /* \"#utility.yul\":19180:19199   */\n      add\n        /* \"#utility.yul\":19173:19222   */\n      mstore\n        /* \"#utility.yul\":19239:19317   */\n      tag_708\n        /* \"#utility.yul\":19312:19316   */\n      dup2\n        /* \"#utility.yul\":19303:19309   */\n      dup7\n        /* \"#utility.yul\":19239:19317   */\n      tag_487\n      jump\t// in\n    tag_708:\n        /* \"#utility.yul\":19231:19317   */\n      swap1\n      pop\n        /* \"#utility.yul\":19365:19374   */\n      dup2\n        /* \"#utility.yul\":19359:19363   */\n      dup2\n        /* \"#utility.yul\":19355:19375   */\n      sub\n        /* \"#utility.yul\":19349:19352   */\n      0x0100\n        /* \"#utility.yul\":19338:19347   */\n      dup4\n        /* \"#utility.yul\":19334:19353   */\n      add\n        /* \"#utility.yul\":19327:19376   */\n      mstore\n        /* \"#utility.yul\":19393:19471   */\n      tag_709\n        /* \"#utility.yul\":19466:19470   */\n      dup2\n        /* \"#utility.yul\":19457:19463   */\n      dup6\n        /* \"#utility.yul\":19393:19471   */\n      tag_487\n      jump\t// in\n    tag_709:\n        /* \"#utility.yul\":19385:19471   */\n      swap1\n      pop\n        /* \"#utility.yul\":19519:19528   */\n      dup2\n        /* \"#utility.yul\":19513:19517   */\n      dup2\n        /* \"#utility.yul\":19509:19529   */\n      sub\n        /* \"#utility.yul\":19503:19506   */\n      0x0120\n        /* \"#utility.yul\":19492:19501   */\n      dup4\n        /* \"#utility.yul\":19488:19507   */\n      add\n        /* \"#utility.yul\":19481:19530   */\n      mstore\n        /* \"#utility.yul\":19547:19625   */\n      tag_710\n        /* \"#utility.yul\":19620:19624   */\n      dup2\n        /* \"#utility.yul\":19611:19617   */\n      dup5\n        /* \"#utility.yul\":19547:19625   */\n      tag_487\n      jump\t// in\n    tag_710:\n        /* \"#utility.yul\":19539:19625   */\n      swap1\n      pop\n        /* \"#utility.yul\":17958:19632   */\n      swap12\n      swap11\n      pop\n      pop\n      pop\n      pop\n      pop\n      pop\n      pop\n      pop\n      pop\n      pop\n      pop\n      jump\t// out\n        /* \"#utility.yul\":19638:20617   */\n    tag_83:\n        /* \"#utility.yul\":19735:19741   */\n      0x00\n        /* \"#utility.yul\":19743:19749   */\n      dup1\n        /* \"#utility.yul\":19751:19757   */\n      0x00\n        /* \"#utility.yul\":19800:19802   */\n      0x60\n        /* \"#utility.yul\":19788:19797   */\n      dup5\n        /* \"#utility.yul\":19779:19786   */\n      dup7\n        /* \"#utility.yul\":19775:19798   */\n      sub\n        /* \"#utility.yul\":19771:19803   */\n      slt\n        /* \"#utility.yul\":19768:19887   */\n      iszero\n      tag_712\n      jumpi\n        /* \"#utility.yul\":19806:19885   */\n      tag_713\n      tag_466\n      jump\t// in\n    tag_713:\n        /* \"#utility.yul\":19768:19887   */\n    tag_712:\n        /* \"#utility.yul\":19926:19927   */\n      0x00\n        /* \"#utility.yul\":19951:20004   */\n      tag_714\n        /* \"#utility.yul\":19996:20003   */\n      dup7\n        /* \"#utility.yul\":19987:19993   */\n      dup3\n        /* \"#utility.yul\":19976:19985   */\n      dup8\n        /* \"#utility.yul\":19972:19994   */\n      add\n        /* \"#utility.yul\":19951:20004   */\n      tag_483\n      jump\t// in\n    tag_714:\n        /* \"#utility.yul\":19941:20004   */\n      swap4\n      pop\n        /* \"#utility.yul\":19897:20014   */\n      pop\n        /* \"#utility.yul\":20081:20083   */\n      0x20\n        /* \"#utility.yul\":20070:20079   */\n      dup5\n        /* \"#utility.yul\":20066:20084   */\n      add\n        /* \"#utility.yul\":20053:20085   */\n      calldataload\n        /* \"#utility.yul\":20112:20130   */\n      0xffffffffffffffff\n        /* \"#utility.yul\":20104:20110   */\n      dup2\n        /* \"#utility.yul\":20101:20131   */\n      gt\n        /* \"#utility.yul\":20098:20215   */\n      iszero\n      tag_715\n      jumpi\n        /* \"#utility.yul\":20134:20213   */\n      tag_716\n      tag_467\n      jump\t// in\n    tag_716:\n        /* \"#utility.yul\":20098:20215   */\n    tag_715:\n        /* \"#utility.yul\":20239:20302   */\n      tag_717\n        /* \"#utility.yul\":20294:20301   */\n      dup7\n        /* \"#utility.yul\":20285:20291   */\n      dup3\n        /* \"#utility.yul\":20274:20283   */\n      dup8\n        /* \"#utility.yul\":20270:20292   */\n      add\n        /* \"#utility.yul\":20239:20302   */\n      tag_476\n      jump\t// in\n    tag_717:\n        /* \"#utility.yul\":20229:20302   */\n      swap3\n      pop\n        /* \"#utility.yul\":20024:20312   */\n      pop\n        /* \"#utility.yul\":20379:20381   */\n      0x40\n        /* \"#utility.yul\":20368:20377   */\n      dup5\n        /* \"#utility.yul\":20364:20382   */\n      add\n        /* \"#utility.yul\":20351:20383   */\n      calldataload\n        /* \"#utility.yul\":20410:20428   */\n      0xffffffffffffffff\n        /* \"#utility.yul\":20402:20408   */\n      dup2\n        /* \"#utility.yul\":20399:20429   */\n      gt\n        /* \"#utility.yul\":20396:20513   */\n      iszero\n      tag_718\n      jumpi\n        /* \"#utility.yul\":20432:20511   */\n      tag_719\n      tag_467\n      jump\t// in\n    tag_719:\n        /* \"#utility.yul\":20396:20513   */\n    tag_718:\n        /* \"#utility.yul\":20537:20600   */\n      tag_720\n        /* \"#utility.yul\":20592:20599   */\n      dup7\n        /* \"#utility.yul\":20583:20589   */\n      dup3\n        /* \"#utility.yul\":20572:20581   */\n      dup8\n        /* \"#utility.yul\":20568:20590   */\n      add\n        /* \"#utility.yul\":20537:20600   */\n      tag_476\n      jump\t// in\n    tag_720:\n        /* \"#utility.yul\":20527:20600   */\n      swap2\n      pop\n        /* \"#utility.yul\":20322:20610   */\n      pop\n        /* \"#utility.yul\":19638:20617   */\n      swap3\n      pop\n      swap3\n      pop\n      swap3\n      jump\t// out\n        /* \"#utility.yul\":20623:22040   */\n    tag_90:\n        /* \"#utility.yul\":20747:20753   */\n      0x00\n        /* \"#utility.yul\":20755:20761   */\n      dup1\n        /* \"#utility.yul\":20763:20769   */\n      0x00\n        /* \"#utility.yul\":20771:20777   */\n      dup1\n        /* \"#utility.yul\":20779:20785   */\n      0x00\n        /* \"#utility.yul\":20787:20793   */\n      dup1\n        /* \"#utility.yul\":20836:20839   */\n      0xc0\n        /* \"#utility.yul\":20824:20833   */\n      dup8\n        /* \"#utility.yul\":20815:20822   */\n      dup10\n        /* \"#utility.yul\":20811:20834   */\n      sub\n        /* \"#utility.yul\":20807:20840   */\n      slt\n        /* \"#utility.yul\":20804:20924   */\n      iszero\n      tag_722\n      jumpi\n        /* \"#utility.yul\":20843:20922   */\n      tag_723\n      tag_466\n      jump\t// in\n    tag_723:\n        /* \"#utility.yul\":20804:20924   */\n    tag_722:\n        /* \"#utility.yul\":20991:20992   */\n      0x00\n        /* \"#utility.yul\":20980:20989   */\n      dup8\n        /* \"#utility.yul\":20976:20993   */\n      add\n        /* \"#utility.yul\":20963:20994   */\n      calldataload\n        /* \"#utility.yul\":21021:21039   */\n      0xffffffffffffffff\n        /* \"#utility.yul\":21013:21019   */\n      dup2\n        /* \"#utility.yul\":21010:21040   */\n      gt\n        /* \"#utility.yul\":21007:21124   */\n      iszero\n      tag_724\n      jumpi\n        /* \"#utility.yul\":21043:21122   */\n      tag_725\n      tag_467\n      jump\t// in\n    tag_725:\n        /* \"#utility.yul\":21007:21124   */\n    tag_724:\n        /* \"#utility.yul\":21148:21211   */\n      tag_726\n        /* \"#utility.yul\":21203:21210   */\n      dup10\n        /* \"#utility.yul\":21194:21200   */\n      dup3\n        /* \"#utility.yul\":21183:21192   */\n      dup11\n        /* \"#utility.yul\":21179:21201   */\n      add\n        /* \"#utility.yul\":21148:21211   */\n      tag_476\n      jump\t// in\n    tag_726:\n        /* \"#utility.yul\":21138:21211   */\n      swap7\n      pop\n        /* \"#utility.yul\":20934:21221   */\n      pop\n        /* \"#utility.yul\":21260:21262   */\n      0x20\n        /* \"#utility.yul\":21286:21339   */\n      tag_727\n        /* \"#utility.yul\":21331:21338   */\n      dup10\n        /* \"#utility.yul\":21322:21328   */\n      dup3\n        /* \"#utility.yul\":21311:21320   */\n      dup11\n        /* \"#utility.yul\":21307:21329   */\n      add\n        /* \"#utility.yul\":21286:21339   */\n      tag_483\n      jump\t// in\n    tag_727:\n        /* \"#utility.yul\":21276:21339   */\n      swap6\n      pop\n        /* \"#utility.yul\":21231:21349   */\n      pop\n        /* \"#utility.yul\":21388:21390   */\n      0x40\n        /* \"#utility.yul\":21414:21467   */\n      tag_728\n        /* \"#utility.yul\":21459:21466   */\n      dup10\n        /* \"#utility.yul\":21450:21456   */\n      dup3\n        /* \"#utility.yul\":21439:21448   */\n      dup11\n        /* \"#utility.yul\":21435:21457   */\n      add\n        /* \"#utility.yul\":21414:21467   */\n      tag_483\n      jump\t// in\n    tag_728:\n        /* \"#utility.yul\":21404:21467   */\n      swap5\n      pop\n        /* \"#utility.yul\":21359:21477   */\n      pop\n        /* \"#utility.yul\":21516:21518   */\n      0x60\n        /* \"#utility.yul\":21542:21595   */\n      tag_729\n        /* \"#utility.yul\":21587:21594   */\n      dup10\n        /* \"#utility.yul\":21578:21584   */\n      dup3\n        /* \"#utility.yul\":21567:21576   */\n      dup11\n        /* \"#utility.yul\":21563:21585   */\n      add\n        /* \"#utility.yul\":21542:21595   */\n      tag_483\n      jump\t// in\n    tag_729:\n        /* \"#utility.yul\":21532:21595   */\n      swap4\n      pop\n        /* \"#utility.yul\":21487:21605   */\n      pop\n        /* \"#utility.yul\":21644:21647   */\n      0x80\n        /* \"#utility.yul\":21671:21724   */\n      tag_730\n        /* \"#utility.yul\":21716:21723   */\n      dup10\n        /* \"#utility.yul\":21707:21713   */\n      dup3\n        /* \"#utility.yul\":21696:21705   */\n      dup11\n        /* \"#utility.yul\":21692:21714   */\n      add\n        /* \"#utility.yul\":21671:21724   */\n      tag_483\n      jump\t// in\n    tag_730:\n        /* \"#utility.yul\":21661:21724   */\n      swap3\n      pop\n        /* \"#utility.yul\":21615:21734   */\n      pop\n        /* \"#utility.yul\":21801:21804   */\n      0xa0\n        /* \"#utility.yul\":21790:21799   */\n      dup8\n        /* \"#utility.yul\":21786:21805   */\n      add\n        /* \"#utility.yul\":21773:21806   */\n      calldataload\n        /* \"#utility.yul\":21833:21851   */\n      0xffffffffffffffff\n        /* \"#utility.yul\":21825:21831   */\n      dup2\n        /* \"#utility.yul\":21822:21852   */\n      gt\n        /* \"#utility.yul\":21819:21936   */\n      iszero\n      tag_731\n      jumpi\n        /* \"#utility.yul\":21855:21934   */\n      tag_732\n      tag_467\n      jump\t// in\n    tag_732:\n        /* \"#utility.yul\":21819:21936   */\n    tag_731:\n        /* \"#utility.yul\":21960:22023   */\n      tag_733\n        /* \"#utility.yul\":22015:22022   */\n      dup10\n        /* \"#utility.yul\":22006:22012   */\n      dup3\n        /* \"#utility.yul\":21995:22004   */\n      dup11\n        /* \"#utility.yul\":21991:22013   */\n      add\n        /* \"#utility.yul\":21960:22023   */\n      tag_476\n      jump\t// in\n    tag_733:\n        /* \"#utility.yul\":21950:22023   */\n      swap2\n      pop\n        /* \"#utility.yul\":21744:22033   */\n      pop\n        /* \"#utility.yul\":20623:22040   */\n      swap3\n      swap6\n      pop\n      swap3\n      swap6\n      pop\n      swap3\n      swap6\n      jump\t// out\n        /* \"#utility.yul\":22046:22268   */\n    tag_95:\n        /* \"#utility.yul\":22139:22143   */\n      0x00\n        /* \"#utility.yul\":22177:22179   */\n      0x20\n        /* \"#utility.yul\":22166:22175   */\n      dup3\n        /* \"#utility.yul\":22162:22180   */\n      add\n        /* \"#utility.yul\":22154:22180   */\n      swap1\n      pop\n        /* \"#utility.yul\":22190:22261   */\n      tag_735\n        /* \"#utility.yul\":22258:22259   */\n      0x00\n        /* \"#utility.yul\":22247:22256   */\n      dup4\n        /* \"#utility.yul\":22243:22260   */\n      add\n        /* \"#utility.yul\":22234:22240   */\n      dup5\n        /* \"#utility.yul\":22190:22261   */\n      tag_488\n      jump\t// in\n    tag_735:\n        /* \"#utility.yul\":22046:22268   */\n      swap3\n      swap2\n      pop\n      pop\n      jump\t// out\n        /* \"#utility.yul\":22274:22454   */\n    tag_105:\n        /* \"#utility.yul\":22322:22399   */\n      0x4e487b7100000000000000000000000000000000000000000000000000000000\n        /* \"#utility.yul\":22319:22320   */\n      0x00\n        /* \"#utility.yul\":22312:22400   */\n      mstore\n        /* \"#utility.yul\":22419:22423   */\n      0x32\n        /* \"#utility.yul\":22416:22417   */\n      0x04\n        /* \"#utility.yul\":22409:22424   */\n      mstore\n        /* \"#utility.yul\":22443:22447   */\n      0x24\n        /* \"#utility.yul\":22440:22441   */\n      0x00\n        /* \"#utility.yul\":22433:22448   */\n      revert\n        /* \"#utility.yul\":22460:22640   */\n    tag_507:\n        /* \"#utility.yul\":22508:22585   */\n      0x4e487b7100000000000000000000000000000000000000000000000000000000\n        /* \"#utility.yul\":22505:22506   */\n      0x00\n        /* \"#utility.yul\":22498:22586   */\n      mstore\n        /* \"#utility.yul\":22605:22609   */\n      0x11\n        /* \"#utility.yul\":22602:22603   */\n      0x04\n        /* \"#utility.yul\":22595:22610   */\n      mstore\n        /* \"#utility.yul\":22629:22633   */\n      0x24\n        /* \"#utility.yul\":22626:22627   */\n      0x00\n        /* \"#utility.yul\":22619:22634   */\n      revert\n        /* \"#utility.yul\":22646:22879   */\n    tag_109:\n        /* \"#utility.yul\":22685:22688   */\n      0x00\n        /* \"#utility.yul\":22708:22732   */\n      tag_739\n        /* \"#utility.yul\":22726:22731   */\n      dup3\n        /* \"#utility.yul\":22708:22732   */\n      tag_481\n      jump\t// in\n    tag_739:\n        /* \"#utility.yul\":22699:22732   */\n      swap2\n      pop\n        /* \"#utility.yul\":22754:22820   */\n      0xffffffffffffffffffffffffffffffffffffffffffffffffffffffffffffffff\n        /* \"#utility.yul\":22747:22752   */\n      dup3\n        /* \"#utility.yul\":22744:22821   */\n      sub\n        /* \"#utility.yul\":22741:22844   */\n      tag_740\n      jumpi\n        /* \"#utility.yul\":22824:22842   */\n      tag_741\n      tag_507\n      jump\t// in\n    tag_741:\n        /* \"#utility.yul\":22741:22844   */\n    tag_740:\n        /* \"#utility.yul\":22871:22872   */\n      0x01\n        /* \"#utility.yul\":22864:22869   */\n      dup3\n        /* \"#utility.yul\":22860:22873   */\n      add\n        /* \"#utility.yul\":22853:22873   */\n      swap1\n      pop\n        /* \"#utility.yul\":22646:22879   */\n      swap2\n      swap1\n      pop\n      jump\t// out\n        /* \"#utility.yul\":22885:23105   */\n    tag_508:\n        /* \"#utility.yul\":23025:23059   */\n      0x596f7520617265206e6f742061207265676973746572656420686f7370697461\n        /* \"#utility.yul\":23021:23022   */\n      0x00\n        /* \"#utility.yul\":23013:23019   */\n      dup3\n        /* \"#utility.yul\":23009:23023   */\n      add\n        /* \"#utility.yul\":23002:23060   */\n      mstore\n        /* \"#utility.yul\":23094:23097   */\n      0x6c00000000000000000000000000000000000000000000000000000000000000\n        /* \"#utility.yul\":23089:23091   */\n      0x20\n        /* \"#utility.yul\":23081:23087   */\n      dup3\n        /* \"#utility.yul\":23077:23092   */\n      add\n        /* \"#utility.yul\":23070:23098   */\n      mstore\n        /* \"#utility.yul\":22885:23105   */\n      pop\n      jump\t// out\n        /* \"#utility.yul\":23111:23477   */\n    tag_509:\n        /* \"#utility.yul\":23253:23256   */\n      0x00\n        /* \"#utility.yul\":23274:23341   */\n      tag_744\n        /* \"#utility.yul\":23338:23340   */\n      0x21\n        /* \"#utility.yul\":23333:23336   */\n      dup4\n        /* \"#utility.yul\":23274:23341   */\n      tag_485\n      jump\t// in\n    tag_744:\n        /* \"#utility.yul\":23267:23341   */\n      swap2\n      pop\n        /* \"#utility.yul\":23350:23443   */\n      tag_745\n        /* \"#utility.yul\":23439:23442   */\n      dup3\n        /* \"#utility.yul\":23350:23443   */\n      tag_508\n      jump\t// in\n    tag_745:\n        /* \"#utility.yul\":23468:23470   */\n      0x40\n        /* \"#utility.yul\":23463:23466   */\n      dup3\n        /* \"#utility.yul\":23459:23471   */\n      add\n        /* \"#utility.yul\":23452:23471   */\n      swap1\n      pop\n        /* \"#utility.yul\":23111:23477   */\n      swap2\n      swap1\n      pop\n      jump\t// out\n        /* \"#utility.yul\":23483:23902   */\n    tag_112:\n        /* \"#utility.yul\":23649:23653   */\n      0x00\n        /* \"#utility.yul\":23687:23689   */\n      0x20\n        /* \"#utility.yul\":23676:23685   */\n      dup3\n        /* \"#utility.yul\":23672:23690   */\n      add\n        /* \"#utility.yul\":23664:23690   */\n      swap1\n      pop\n        /* \"#utility.yul\":23736:23745   */\n      dup2\n        /* \"#utility.yul\":23730:23734   */\n      dup2\n        /* \"#utility.yul\":23726:23746   */\n      sub\n        /* \"#utility.yul\":23722:23723   */\n      0x00\n        /* \"#utility.yul\":23711:23720   */\n      dup4\n        /* \"#utility.yul\":23707:23724   */\n      add\n        /* \"#utility.yul\":23700:23747   */\n      mstore\n        /* \"#utility.yul\":23764:23895   */\n      tag_747\n        /* \"#utility.yul\":23890:23894   */\n      dup2\n        /* \"#utility.yul\":23764:23895   */\n      tag_509\n      jump\t// in\n    tag_747:\n        /* \"#utility.yul\":23756:23895   */\n      swap1\n      pop\n        /* \"#utility.yul\":23483:23902   */\n      swap2\n      swap1\n      pop\n      jump\t// out\n        /* \"#utility.yul\":23908:24080   */\n    tag_510:\n        /* \"#utility.yul\":24048:24072   */\n      0x496e76616c696420686f73706974616c20696e64657800000000000000000000\n        /* \"#utility.yul\":24044:24045   */\n      0x00\n        /* \"#utility.yul\":24036:24042   */\n      dup3\n        /* \"#utility.yul\":24032:24046   */\n      add\n        /* \"#utility.yul\":24025:24073   */\n      mstore\n        /* \"#utility.yul\":23908:24080   */\n      pop\n      jump\t// out\n        /* \"#utility.yul\":24086:24452   */\n    tag_511:\n        /* \"#utility.yul\":24228:24231   */\n      0x00\n        /* \"#utility.yul\":24249:24316   */\n      tag_750\n        /* \"#utility.yul\":24313:24315   */\n      0x16\n        /* \"#utility.yul\":24308:24311   */\n      dup4\n        /* \"#utility.yul\":24249:24316   */\n      tag_485\n      jump\t// in\n    tag_750:\n        /* \"#utility.yul\":24242:24316   */\n      swap2\n      pop\n        /* \"#utility.yul\":24325:24418   */\n      tag_751\n        /* \"#utility.yul\":24414:24417   */\n      dup3\n        /* \"#utility.yul\":24325:24418   */\n      tag_510\n      jump\t// in\n    tag_751:\n        /* \"#utility.yul\":24443:24445   */\n      0x20\n        /* \"#utility.yul\":24438:24441   */\n      dup3\n        /* \"#utility.yul\":24434:24446   */\n      add\n        /* \"#utility.yul\":24427:24446   */\n      swap1\n      pop\n        /* \"#utility.yul\":24086:24452   */\n      swap2\n      swap1\n      pop\n      jump\t// out\n        /* \"#utility.yul\":24458:24877   */\n    tag_116:\n        /* \"#utility.yul\":24624:24628   */\n      0x00\n        /* \"#utility.yul\":24662:24664   */\n      0x20\n        /* \"#utility.yul\":24651:24660   */\n      dup3\n        /* \"#utility.yul\":24647:24665   */\n      add\n        /* \"#utility.yul\":24639:24665   */\n      swap1\n      pop\n        /* \"#utility.yul\":24711:24720   */\n      dup2\n        /* \"#utility.yul\":24705:24709   */\n      dup2\n        /* \"#utility.yul\":24701:24721   */\n      sub\n        /* \"#utility.yul\":24697:24698   */\n      0x00\n        /* \"#utility.yul\":24686:24695   */\n      dup4\n        /* \"#utility.yul\":24682:24699   */\n      add\n        /* \"#utility.yul\":24675:24722   */\n      mstore\n        /* \"#utility.yul\":24739:24870   */\n      tag_753\n        /* \"#utility.yul\":24865:24869   */\n      dup2\n        /* \"#utility.yul\":24739:24870   */\n      tag_511\n      jump\t// in\n    tag_753:\n        /* \"#utility.yul\":24731:24870   */\n      swap1\n      pop\n        /* \"#utility.yul\":24458:24877   */\n      swap2\n      swap1\n      pop\n      jump\t// out\n        /* \"#utility.yul\":24883:25063   */\n    tag_512:\n        /* \"#utility.yul\":24931:25008   */\n      0x4e487b7100000000000000000000000000000000000000000000000000000000\n        /* \"#utility.yul\":24928:24929   */\n      0x00\n        /* \"#utility.yul\":24921:25009   */\n      mstore\n        /* \"#utility.yul\":25028:25032   */\n      0x22\n        /* \"#utility.yul\":25025:25026   */\n      0x04\n        /* \"#utility.yul\":25018:25033   */\n      mstore\n        /* \"#utility.yul\":25052:25056   */\n      0x24\n        /* \"#utility.yul\":25049:25050   */\n      0x00\n        /* \"#utility.yul\":25042:25057   */\n      revert\n        /* \"#utility.yul\":25069:25389   */\n    tag_137:\n        /* \"#utility.yul\":25113:25119   */\n      0x00\n        /* \"#utility.yul\":25150:25151   */\n      0x02\n        /* \"#utility.yul\":25144:25148   */\n      dup3\n        /* \"#utility.yul\":25140:25152   */\n      div\n        /* \"#utility.yul\":25130:25152   */\n      swap1\n      pop\n        /* \"#utility.yul\":25197:25198   */\n      0x01\n        /* \"#utility.yul\":25191:25195   */\n      dup3\n        /* \"#utility.yul\":25187:25199   */\n      and\n        /* \"#utility.yul\":25218:25236   */\n      dup1\n        /* \"#utility.yul\":25208:25289   */\n      tag_756\n      jumpi\n        /* \"#utility.yul\":25274:25278   */\n      0x7f\n        /* \"#utility.yul\":25266:25272   */\n      dup3\n        /* \"#utility.yul\":25262:25279   */\n      and\n        /* \"#utility.yul\":25252:25279   */\n      swap2\n      pop\n        /* \"#utility.yul\":25208:25289   */\n    tag_756:\n        /* \"#utility.yul\":25336:25338   */\n      0x20\n        /* \"#utility.yul\":25328:25334   */\n      dup3\n        /* \"#utility.yul\":25325:25339   */\n      lt\n        /* \"#utility.yul\":25305:25323   */\n      dup2\n        /* \"#utility.yul\":25302:25340   */\n      sub\n        /* \"#utility.yul\":25299:25383   */\n      tag_757\n      jumpi\n        /* \"#utility.yul\":25355:25373   */\n      tag_758\n      tag_512\n      jump\t// in\n    tag_758:\n        /* \"#utility.yul\":25299:25383   */\n    tag_757:\n        /* \"#utility.yul\":25120:25389   */\n      pop\n        /* \"#utility.yul\":25069:25389   */\n      swap2\n      swap1\n      pop\n      jump\t// out\n        /* \"#utility.yul\":25395:25536   */\n    tag_513:\n        /* \"#utility.yul\":25444:25448   */\n      0x00\n        /* \"#utility.yul\":25467:25470   */\n      dup2\n        /* \"#utility.yul\":25459:25470   */\n      swap1\n      pop\n        /* \"#utility.yul\":25490:25493   */\n      dup2\n        /* \"#utility.yul\":25487:25488   */\n      0x00\n        /* \"#utility.yul\":25480:25494   */\n      mstore\n        /* \"#utility.yul\":25524:25528   */\n      0x20\n        /* \"#utility.yul\":25521:25522   */\n      0x00\n        /* \"#utility.yul\":25511:25529   */\n      keccak256\n        /* \"#utility.yul\":25503:25529   */\n      swap1\n      pop\n        /* \"#utility.yul\":25395:25536   */\n      swap2\n      swap1\n      pop\n      jump\t// out\n        /* \"#utility.yul\":25542:25635   */\n    tag_514:\n        /* \"#utility.yul\":25579:25585   */\n      0x00\n        /* \"#utility.yul\":25626:25628   */\n      0x20\n        /* \"#utility.yul\":25621:25623   */\n      0x1f\n        /* \"#utility.yul\":25614:25619   */\n      dup4\n        /* \"#utility.yul\":25610:25624   */\n      add\n        /* \"#utility.yul\":25606:25629   */\n      div\n        /* \"#utility.yul\":25596:25629   */\n      swap1\n      pop\n        /* \"#utility.yul\":25542:25635   */\n      swap2\n      swap1\n      pop\n      jump\t// out\n        /* \"#utility.yul\":25641:25748   */\n    tag_515:\n        /* \"#utility.yul\":25685:25693   */\n      0x00\n        /* \"#utility.yul\":25735:25740   */\n      dup3\n        /* \"#utility.yul\":25729:25733   */\n      dup3\n        /* \"#utility.yul\":25725:25741   */\n      shl\n        /* \"#utility.yul\":25704:25741   */\n      swap1\n      pop\n        /* \"#utility.yul\":25641:25748   */\n      swap3\n      swap2\n      pop\n      pop\n      jump\t// out\n        /* \"#utility.yul\":25754:26147   */\n    tag_516:\n        /* \"#utility.yul\":25823:25829   */\n      0x00\n        /* \"#utility.yul\":25873:25874   */\n      0x08\n        /* \"#utility.yul\":25861:25871   */\n      dup4\n        /* \"#utility.yul\":25857:25875   */\n      mul\n        /* \"#utility.yul\":25896:25993   */\n      tag_763\n        /* \"#utility.yul\":25926:25992   */\n      0xffffffffffffffffffffffffffffffffffffffffffffffffffffffffffffffff\n        /* \"#utility.yul\":25915:25924   */\n      dup3\n        /* \"#utility.yul\":25896:25993   */\n      tag_515\n      jump\t// in\n    tag_763:\n        /* \"#utility.yul\":26014:26053   */\n      tag_764\n        /* \"#utility.yul\":26044:26052   */\n      dup7\n        /* \"#utility.yul\":26033:26042   */\n      dup4\n        /* \"#utility.yul\":26014:26053   */\n      tag_515\n      jump\t// in\n    tag_764:\n        /* \"#utility.yul\":26002:26053   */\n      swap6\n      pop\n        /* \"#utility.yul\":26086:26090   */\n      dup1\n        /* \"#utility.yul\":26082:26091   */\n      not\n        /* \"#utility.yul\":26075:26080   */\n      dup5\n        /* \"#utility.yul\":26071:26092   */\n      and\n        /* \"#utility.yul\":26062:26092   */\n      swap4\n      pop\n        /* \"#utility.yul\":26135:26139   */\n      dup1\n        /* \"#utility.yul\":26125:26133   */\n      dup7\n        /* \"#utility.yul\":26121:26140   */\n      and\n        /* \"#utility.yul\":26114:26119   */\n      dup5\n        /* \"#utility.yul\":26111:26141   */\n      or\n        /* \"#utility.yul\":26101:26141   */\n      swap3\n      pop\n        /* \"#utility.yul\":25830:26147   */\n      pop\n      pop\n        /* \"#utility.yul\":25754:26147   */\n      swap4\n      swap3\n      pop\n      pop\n      pop\n      jump\t// out\n        /* \"#utility.yul\":26153:26213   */\n    tag_517:\n        /* \"#utility.yul\":26181:26184   */\n      0x00\n        /* \"#utility.yul\":26202:26207   */\n      dup2\n        /* \"#utility.yul\":26195:26207   */\n      swap1\n      pop\n        /* \"#utility.yul\":26153:26213   */\n      swap2\n      swap1\n      pop\n      jump\t// out\n        /* \"#utility.yul\":26219:26361   */\n    tag_518:\n        /* \"#utility.yul\":26269:26278   */\n      0x00\n        /* \"#utility.yul\":26302:26355   */\n      tag_767\n        /* \"#utility.yul\":26320:26354   */\n      tag_768\n        /* \"#utility.yul\":26329:26353   */\n      tag_769\n        /* \"#utility.yul\":26347:26352   */\n      dup5\n        /* \"#utility.yul\":26329:26353   */\n      tag_481\n      jump\t// in\n    tag_769:\n        /* \"#utility.yul\":26320:26354   */\n      tag_517\n      jump\t// in\n    tag_768:\n        /* \"#utility.yul\":26302:26355   */\n      tag_481\n      jump\t// in\n    tag_767:\n        /* \"#utility.yul\":26289:26355   */\n      swap1\n      pop\n        /* \"#utility.yul\":26219:26361   */\n      swap2\n      swap1\n      pop\n      jump\t// out\n        /* \"#utility.yul\":26367:26442   */\n    tag_519:\n        /* \"#utility.yul\":26410:26413   */\n      0x00\n        /* \"#utility.yul\":26431:26436   */\n      dup2\n        /* \"#utility.yul\":26424:26436   */\n      swap1\n      pop\n        /* \"#utility.yul\":26367:26442   */\n      swap2\n      swap1\n      pop\n      jump\t// out\n        /* \"#utility.yul\":26448:26717   */\n    tag_520:\n        /* \"#utility.yul\":26558:26597   */\n      tag_772\n        /* \"#utility.yul\":26589:26596   */\n      dup4\n        /* \"#utility.yul\":26558:26597   */\n      tag_518\n      jump\t// in\n    tag_772:\n        /* \"#utility.yul\":26619:26710   */\n      tag_773\n        /* \"#utility.yul\":26668:26709   */\n      tag_774\n        /* \"#utility.yul\":26692:26708   */\n      dup3\n        /* \"#utility.yul\":26668:26709   */\n      tag_519\n      jump\t// in\n    tag_774:\n        /* \"#utility.yul\":26660:26666   */\n      dup5\n        /* \"#utility.yul\":26653:26657   */\n      dup5\n        /* \"#utility.yul\":26647:26658   */\n      sload\n        /* \"#utility.yul\":26619:26710   */\n      tag_516\n      jump\t// in\n    tag_773:\n        /* \"#utility.yul\":26613:26617   */\n      dup3\n        /* \"#utility.yul\":26606:26711   */\n      sstore\n        /* \"#utility.yul\":26524:26717   */\n      pop\n        /* \"#utility.yul\":26448:26717   */\n      pop\n      pop\n      pop\n      jump\t// out\n        /* \"#utility.yul\":26723:26796   */\n    tag_521:\n        /* \"#utility.yul\":26768:26771   */\n      0x00\n        /* \"#utility.yul\":26723:26796   */\n      swap1\n      jump\t// out\n        /* \"#utility.yul\":26802:26991   */\n    tag_522:\n        /* \"#utility.yul\":26879:26911   */\n      tag_777\n      tag_521\n      jump\t// in\n    tag_777:\n        /* \"#utility.yul\":26920:26985   */\n      tag_778\n        /* \"#utility.yul\":26978:26984   */\n      dup2\n        /* \"#utility.yul\":26970:26976   */\n      dup5\n        /* \"#utility.yul\":26964:26968   */\n      dup5\n        /* \"#utility.yul\":26920:26985   */\n      tag_520\n      jump\t// in\n    tag_778:\n        /* \"#utility.yul\":26855:26991   */\n      pop\n        /* \"#utility.yul\":26802:26991   */\n      pop\n      pop\n      jump\t// out\n        /* \"#utility.yul\":26997:27183   */\n    tag_523:\n        /* \"#utility.yul\":27057:27177   */\n    tag_780:\n        /* \"#utility.yul\":27074:27077   */\n      dup2\n        /* \"#utility.yul\":27067:27072   */\n      dup2\n        /* \"#utility.yul\":27064:27078   */\n      lt\n        /* \"#utility.yul\":27057:27177   */\n      iszero\n      tag_782\n      jumpi\n        /* \"#utility.yul\":27128:27167   */\n      tag_783\n        /* \"#utility.yul\":27165:27166   */\n      0x00\n        /* \"#utility.yul\":27158:27163   */\n      dup3\n        /* \"#utility.yul\":27128:27167   */\n      tag_522\n      jump\t// in\n    tag_783:\n        /* \"#utility.yul\":27101:27102   */\n      0x01\n        /* \"#utility.yul\":27094:27099   */\n      dup2\n        /* \"#utility.yul\":27090:27103   */\n      add\n        /* \"#utility.yul\":27081:27103   */\n      swap1\n      pop\n        /* \"#utility.yul\":27057:27177   */\n      jump(tag_780)\n    tag_782:\n        /* \"#utility.yul\":26997:27183   */\n      pop\n      pop\n      jump\t// out\n        /* \"#utility.yul\":27189:27732   */\n    tag_524:\n        /* \"#utility.yul\":27290:27292   */\n      0x1f\n        /* \"#utility.yul\":27285:27288   */\n      dup3\n        /* \"#utility.yul\":27282:27293   */\n      gt\n        /* \"#utility.yul\":27279:27725   */\n      iszero\n      tag_785\n      jumpi\n        /* \"#utility.yul\":27324:27362   */\n      tag_786\n        /* \"#utility.yul\":27356:27361   */\n      dup2\n        /* \"#utility.yul\":27324:27362   */\n      tag_513\n      jump\t// in\n    tag_786:\n        /* \"#utility.yul\":27408:27437   */\n      tag_787\n        /* \"#utility.yul\":27426:27436   */\n      dup5\n        /* \"#utility.yul\":27408:27437   */\n      tag_514\n      jump\t// in\n    tag_787:\n        /* \"#utility.yul\":27398:27406   */\n      dup2\n        /* \"#utility.yul\":27394:27438   */\n      add\n        /* \"#utility.yul\":27591:27593   */\n      0x20\n        /* \"#utility.yul\":27579:27589   */\n      dup6\n        /* \"#utility.yul\":27576:27594   */\n      lt\n        /* \"#utility.yul\":27573:27622   */\n      iszero\n      tag_788\n      jumpi\n        /* \"#utility.yul\":27612:27620   */\n      dup2\n        /* \"#utility.yul\":27597:27620   */\n      swap1\n      pop\n        /* \"#utility.yul\":27573:27622   */\n    tag_788:\n        /* \"#utility.yul\":27635:27715   */\n      tag_789\n        /* \"#utility.yul\":27691:27713   */\n      tag_790\n        /* \"#utility.yul\":27709:27712   */\n      dup6\n        /* \"#utility.yul\":27691:27713   */\n      tag_514\n      jump\t// in\n    tag_790:\n        /* \"#utility.yul\":27681:27689   */\n      dup4\n        /* \"#utility.yul\":27677:27714   */\n      add\n        /* \"#utility.yul\":27664:27675   */\n      dup3\n        /* \"#utility.yul\":27635:27715   */\n      tag_523\n      jump\t// in\n    tag_789:\n        /* \"#utility.yul\":27294:27725   */\n      pop\n      pop\n        /* \"#utility.yul\":27279:27725   */\n    tag_785:\n        /* \"#utility.yul\":27189:27732   */\n      pop\n      pop\n      pop\n      jump\t// out\n        /* \"#utility.yul\":27738:27855   */\n    tag_525:\n        /* \"#utility.yul\":27792:27800   */\n      0x00\n        /* \"#utility.yul\":27842:27847   */\n      dup3\n        /* \"#utility.yul\":27836:27840   */\n      dup3\n        /* \"#utility.yul\":27832:27848   */\n      shr\n        /* \"#utility.yul\":27811:27848   */\n      swap1\n      pop\n        /* \"#utility.yul\":27738:27855   */\n      swap3\n      swap2\n      pop\n      pop\n      jump\t// out\n        /* \"#utility.yul\":27861:28030   */\n    tag_526:\n        /* \"#utility.yul\":27905:27911   */\n      0x00\n        /* \"#utility.yul\":27938:27989   */\n      tag_793\n        /* \"#utility.yul\":27986:27987   */\n      0x00\n        /* \"#utility.yul\":27982:27988   */\n      not\n        /* \"#utility.yul\":27974:27979   */\n      dup5\n        /* \"#utility.yul\":27971:27972   */\n      0x08\n        /* \"#utility.yul\":27967:27980   */\n      mul\n        /* \"#utility.yul\":27938:27989   */\n      tag_525\n      jump\t// in\n    tag_793:\n        /* \"#utility.yul\":27934:27990   */\n      not\n        /* \"#utility.yul\":28019:28023   */\n      dup1\n        /* \"#utility.yul\":28013:28017   */\n      dup4\n        /* \"#utility.yul\":28009:28024   */\n      and\n        /* \"#utility.yul\":27999:28024   */\n      swap2\n      pop\n        /* \"#utility.yul\":27912:28030   */\n      pop\n        /* \"#utility.yul\":27861:28030   */\n      swap3\n      swap2\n      pop\n      pop\n      jump\t// out\n        /* \"#utility.yul\":28035:28330   */\n    tag_527:\n        /* \"#utility.yul\":28111:28115   */\n      0x00\n        /* \"#utility.yul\":28257:28286   */\n      tag_795\n        /* \"#utility.yul\":28282:28285   */\n      dup4\n        /* \"#utility.yul\":28276:28280   */\n      dup4\n        /* \"#utility.yul\":28257:28286   */\n      tag_526\n      jump\t// in\n    tag_795:\n        /* \"#utility.yul\":28249:28286   */\n      swap2\n      pop\n        /* \"#utility.yul\":28319:28322   */\n      dup3\n        /* \"#utility.yul\":28316:28317   */\n      0x02\n        /* \"#utility.yul\":28312:28323   */\n      mul\n        /* \"#utility.yul\":28306:28310   */\n      dup3\n        /* \"#utility.yul\":28303:28324   */\n      or\n        /* \"#utility.yul\":28295:28324   */\n      swap1\n      pop\n        /* \"#utility.yul\":28035:28330   */\n      swap3\n      swap2\n      pop\n      pop\n      jump\t// out\n        /* \"#utility.yul\":28335:29730   */\n    tag_119:\n        /* \"#utility.yul\":28452:28489   */\n      tag_797\n        /* \"#utility.yul\":28485:28488   */\n      dup3\n        /* \"#utility.yul\":28452:28489   */\n      tag_484\n      jump\t// in\n    tag_797:\n        /* \"#utility.yul\":28554:28572   */\n      0xffffffffffffffff\n        /* \"#utility.yul\":28546:28552   */\n      dup2\n        /* \"#utility.yul\":28543:28573   */\n      gt\n        /* \"#utility.yul\":28540:28596   */\n      iszero\n      tag_798\n      jumpi\n        /* \"#utility.yul\":28576:28594   */\n      tag_799\n      tag_172\n      jump\t// in\n    tag_799:\n        /* \"#utility.yul\":28540:28596   */\n    tag_798:\n        /* \"#utility.yul\":28620:28658   */\n      tag_800\n        /* \"#utility.yul\":28652:28656   */\n      dup3\n        /* \"#utility.yul\":28646:28657   */\n      sload\n        /* \"#utility.yul\":28620:28658   */\n      tag_137\n      jump\t// in\n    tag_800:\n        /* \"#utility.yul\":28705:28772   */\n      tag_801\n        /* \"#utility.yul\":28765:28771   */\n      dup3\n        /* \"#utility.yul\":28757:28763   */\n      dup3\n        /* \"#utility.yul\":28751:28755   */\n      dup6\n        /* \"#utility.yul\":28705:28772   */\n      tag_524\n      jump\t// in\n    tag_801:\n        /* \"#utility.yul\":28799:28800   */\n      0x00\n        /* \"#utility.yul\":28823:28827   */\n      0x20\n        /* \"#utility.yul\":28810:28827   */\n      swap1\n      pop\n        /* \"#utility.yul\":28855:28857   */\n      0x1f\n        /* \"#utility.yul\":28847:28853   */\n      dup4\n        /* \"#utility.yul\":28844:28858   */\n      gt\n        /* \"#utility.yul\":28872:28873   */\n      0x01\n        /* \"#utility.yul\":28867:29485   */\n      dup2\n      eq\n      tag_803\n      jumpi\n        /* \"#utility.yul\":29529:29530   */\n      0x00\n        /* \"#utility.yul\":29546:29552   */\n      dup5\n        /* \"#utility.yul\":29543:29620   */\n      iszero\n      tag_804\n      jumpi\n        /* \"#utility.yul\":29595:29604   */\n      dup3\n        /* \"#utility.yul\":29590:29593   */\n      dup8\n        /* \"#utility.yul\":29586:29605   */\n      add\n        /* \"#utility.yul\":29580:29606   */\n      mload\n        /* \"#utility.yul\":29571:29606   */\n      swap1\n      pop\n        /* \"#utility.yul\":29543:29620   */\n    tag_804:\n        /* \"#utility.yul\":29646:29713   */\n      tag_805\n        /* \"#utility.yul\":29706:29712   */\n      dup6\n        /* \"#utility.yul\":29699:29704   */\n      dup3\n        /* \"#utility.yul\":29646:29713   */\n      tag_527\n      jump\t// in\n    tag_805:\n        /* \"#utility.yul\":29640:29644   */\n      dup7\n        /* \"#utility.yul\":29633:29714   */\n      sstore\n        /* \"#utility.yul\":29502:29724   */\n      pop\n        /* \"#utility.yul\":28837:29724   */\n      jump(tag_802)\n        /* \"#utility.yul\":28867:29485   */\n    tag_803:\n        /* \"#utility.yul\":28919:28923   */\n      0x1f\n        /* \"#utility.yul\":28915:28924   */\n      not\n        /* \"#utility.yul\":28907:28913   */\n      dup5\n        /* \"#utility.yul\":28903:28925   */\n      and\n        /* \"#utility.yul\":28953:28990   */\n      tag_806\n        /* \"#utility.yul\":28985:28989   */\n      dup7\n        /* \"#utility.yul\":28953:28990   */\n      tag_513\n      jump\t// in\n    tag_806:\n        /* \"#utility.yul\":29012:29013   */\n      0x00\n        /* \"#utility.yul\":29026:29234   */\n    tag_807:\n        /* \"#utility.yul\":29040:29047   */\n      dup3\n        /* \"#utility.yul\":29037:29038   */\n      dup2\n        /* \"#utility.yul\":29034:29048   */\n      lt\n        /* \"#utility.yul\":29026:29234   */\n      iszero\n      tag_809\n      jumpi\n        /* \"#utility.yul\":29119:29128   */\n      dup5\n        /* \"#utility.yul\":29114:29117   */\n      dup10\n        /* \"#utility.yul\":29110:29129   */\n      add\n        /* \"#utility.yul\":29104:29130   */\n      mload\n        /* \"#utility.yul\":29096:29102   */\n      dup3\n        /* \"#utility.yul\":29089:29131   */\n      sstore\n        /* \"#utility.yul\":29170:29171   */\n      0x01\n        /* \"#utility.yul\":29162:29168   */\n      dup3\n        /* \"#utility.yul\":29158:29172   */\n      add\n        /* \"#utility.yul\":29148:29172   */\n      swap2\n      pop\n        /* \"#utility.yul\":29217:29219   */\n      0x20\n        /* \"#utility.yul\":29206:29215   */\n      dup6\n        /* \"#utility.yul\":29202:29220   */\n      add\n        /* \"#utility.yul\":29189:29220   */\n      swap5\n      pop\n        /* \"#utility.yul\":29063:29067   */\n      0x20\n        /* \"#utility.yul\":29060:29061   */\n      dup2\n        /* \"#utility.yul\":29056:29068   */\n      add\n        /* \"#utility.yul\":29051:29068   */\n      swap1\n      pop\n        /* \"#utility.yul\":29026:29234   */\n      jump(tag_807)\n    tag_809:\n        /* \"#utility.yul\":29262:29268   */\n      dup7\n        /* \"#utility.yul\":29253:29260   */\n      dup4\n        /* \"#utility.yul\":29250:29269   */\n      lt\n        /* \"#utility.yul\":29247:29426   */\n      iszero\n      tag_810\n      jumpi\n        /* \"#utility.yul\":29320:29329   */\n      dup5\n        /* \"#utility.yul\":29315:29318   */\n      dup10\n        /* \"#utility.yul\":29311:29330   */\n      add\n        /* \"#utility.yul\":29305:29331   */\n      mload\n        /* \"#utility.yul\":29363:29411   */\n      tag_811\n        /* \"#utility.yul\":29405:29409   */\n      0x1f\n        /* \"#utility.yul\":29397:29403   */\n      dup10\n        /* \"#utility.yul\":29393:29410   */\n      and\n        /* \"#utility.yul\":29382:29391   */\n      dup3\n        /* \"#utility.yul\":29363:29411   */\n      tag_526\n      jump\t// in\n    tag_811:\n        /* \"#utility.yul\":29355:29361   */\n      dup4\n        /* \"#utility.yul\":29348:29412   */\n      sstore\n        /* \"#utility.yul\":29270:29426   */\n      pop\n        /* \"#utility.yul\":29247:29426   */\n    tag_810:\n        /* \"#utility.yul\":29472:29473   */\n      0x01\n        /* \"#utility.yul\":29468:29469   */\n      0x02\n        /* \"#utility.yul\":29460:29466   */\n      dup9\n        /* \"#utility.yul\":29456:29470   */\n      mul\n        /* \"#utility.yul\":29452:29474   */\n      add\n        /* \"#utility.yul\":29446:29450   */\n      dup9\n        /* \"#utility.yul\":29439:29475   */\n      sstore\n        /* \"#utility.yul\":28874:29485   */\n      pop\n      pop\n      pop\n        /* \"#utility.yul\":28837:29724   */\n    tag_802:\n      pop\n        /* \"#utility.yul\":28427:29730   */\n      pop\n      pop\n      pop\n        /* \"#utility.yul\":28335:29730   */\n      pop\n      pop\n      jump\t// out\n        /* \"#utility.yul\":29736:29964   */\n    tag_528:\n        /* \"#utility.yul\":29876:29910   */\n      0x4f6e6c79207468652061646d696e2063616e20706572666f726d207468697320\n        /* \"#utility.yul\":29872:29873   */\n      0x00\n        /* \"#utility.yul\":29864:29870   */\n      dup3\n        /* \"#utility.yul\":29860:29874   */\n      add\n        /* \"#utility.yul\":29853:29911   */\n      mstore\n        /* \"#utility.yul\":29945:29956   */\n      0x6f7065726174696f6e0000000000000000000000000000000000000000000000\n        /* \"#utility.yul\":29940:29942   */\n      0x20\n        /* \"#utility.yul\":29932:29938   */\n      dup3\n        /* \"#utility.yul\":29928:29943   */\n      add\n        /* \"#utility.yul\":29921:29957   */\n      mstore\n        /* \"#utility.yul\":29736:29964   */\n      pop\n      jump\t// out\n        /* \"#utility.yul\":29970:30336   */\n    tag_529:\n        /* \"#utility.yul\":30112:30115   */\n      0x00\n        /* \"#utility.yul\":30133:30200   */\n      tag_814\n        /* \"#utility.yul\":30197:30199   */\n      0x29\n        /* \"#utility.yul\":30192:30195   */\n      dup4\n        /* \"#utility.yul\":30133:30200   */\n      tag_485\n      jump\t// in\n    tag_814:\n        /* \"#utility.yul\":30126:30200   */\n      swap2\n      pop\n        /* \"#utility.yul\":30209:30302   */\n      tag_815\n        /* \"#utility.yul\":30298:30301   */\n      dup3\n        /* \"#utility.yul\":30209:30302   */\n      tag_528\n      jump\t// in\n    tag_815:\n        /* \"#utility.yul\":30327:30329   */\n      0x40\n        /* \"#utility.yul\":30322:30325   */\n      dup3\n        /* \"#utility.yul\":30318:30330   */\n      add\n        /* \"#utility.yul\":30311:30330   */\n      swap1\n      pop\n        /* \"#utility.yul\":29970:30336   */\n      swap2\n      swap1\n      pop\n      jump\t// out\n        /* \"#utility.yul\":30342:30761   */\n    tag_124:\n        /* \"#utility.yul\":30508:30512   */\n      0x00\n        /* \"#utility.yul\":30546:30548   */\n      0x20\n        /* \"#utility.yul\":30535:30544   */\n      dup3\n        /* \"#utility.yul\":30531:30549   */\n      add\n        /* \"#utility.yul\":30523:30549   */\n      swap1\n      pop\n        /* \"#utility.yul\":30595:30604   */\n      dup2\n        /* \"#utility.yul\":30589:30593   */\n      dup2\n        /* \"#utility.yul\":30585:30605   */\n      sub\n        /* \"#utility.yul\":30581:30582   */\n      0x00\n        /* \"#utility.yul\":30570:30579   */\n      dup4\n        /* \"#utility.yul\":30566:30583   */\n      add\n        /* \"#utility.yul\":30559:30606   */\n      mstore\n        /* \"#utility.yul\":30623:30754   */\n      tag_817\n        /* \"#utility.yul\":30749:30753   */\n      dup2\n        /* \"#utility.yul\":30623:30754   */\n      tag_529\n      jump\t// in\n    tag_817:\n        /* \"#utility.yul\":30615:30754   */\n      swap1\n      pop\n        /* \"#utility.yul\":30342:30761   */\n      swap2\n      swap1\n      pop\n      jump\t// out\n        /* \"#utility.yul\":30767:30937   */\n    tag_530:\n        /* \"#utility.yul\":30907:30929   */\n      0x496e76616c696420646f63746f7220696e646578000000000000000000000000\n        /* \"#utility.yul\":30903:30904   */\n      0x00\n        /* \"#utility.yul\":30895:30901   */\n      dup3\n        /* \"#utility.yul\":30891:30905   */\n      add\n        /* \"#utility.yul\":30884:30930   */\n      mstore\n        /* \"#utility.yul\":30767:30937   */\n      pop\n      jump\t// out\n        /* \"#utility.yul\":30943:31309   */\n    tag_531:\n        /* \"#utility.yul\":31085:31088   */\n      0x00\n        /* \"#utility.yul\":31106:31173   */\n      tag_820\n        /* \"#utility.yul\":31170:31172   */\n      0x14\n        /* \"#utility.yul\":31165:31168   */\n      dup4\n        /* \"#utility.yul\":31106:31173   */\n      tag_485\n      jump\t// in\n    tag_820:\n        /* \"#utility.yul\":31099:31173   */\n      swap2\n      pop\n        /* \"#utility.yul\":31182:31275   */\n      tag_821\n        /* \"#utility.yul\":31271:31274   */\n      dup3\n        /* \"#utility.yul\":31182:31275   */\n      tag_530\n      jump\t// in\n    tag_821:\n        /* \"#utility.yul\":31300:31302   */\n      0x20\n        /* \"#utility.yul\":31295:31298   */\n      dup3\n        /* \"#utility.yul\":31291:31303   */\n      add\n        /* \"#utility.yul\":31284:31303   */\n      swap1\n      pop\n        /* \"#utility.yul\":30943:31309   */\n      swap2\n      swap1\n      pop\n      jump\t// out\n        /* \"#utility.yul\":31315:31734   */\n    tag_132:\n        /* \"#utility.yul\":31481:31485   */\n      0x00\n        /* \"#utility.yul\":31519:31521   */\n      0x20\n        /* \"#utility.yul\":31508:31517   */\n      dup3\n        /* \"#utility.yul\":31504:31522   */\n      add\n        /* \"#utility.yul\":31496:31522   */\n      swap1\n      pop\n        /* \"#utility.yul\":31568:31577   */\n      dup2\n        /* \"#utility.yul\":31562:31566   */\n      dup2\n        /* \"#utility.yul\":31558:31578   */\n      sub\n        /* \"#utility.yul\":31554:31555   */\n      0x00\n        /* \"#utility.yul\":31543:31552   */\n      dup4\n        /* \"#utility.yul\":31539:31556   */\n      add\n        /* \"#utility.yul\":31532:31579   */\n      mstore\n        /* \"#utility.yul\":31596:31727   */\n      tag_823\n        /* \"#utility.yul\":31722:31726   */\n      dup2\n        /* \"#utility.yul\":31596:31727   */\n      tag_531\n      jump\t// in\n    tag_823:\n        /* \"#utility.yul\":31588:31727   */\n      swap1\n      pop\n        /* \"#utility.yul\":31315:31734   */\n      swap2\n      swap1\n      pop\n      jump\t// out\n        /* \"#utility.yul\":31740:31887   */\n    tag_532:\n        /* \"#utility.yul\":31841:31852   */\n      0x00\n        /* \"#utility.yul\":31878:31881   */\n      dup2\n        /* \"#utility.yul\":31863:31881   */\n      swap1\n      pop\n        /* \"#utility.yul\":31740:31887   */\n      swap3\n      swap2\n      pop\n      pop\n      jump\t// out\n        /* \"#utility.yul\":31893:32037   */\n    tag_533:\n        /* \"#utility.yul\":31945:31949   */\n      0x00\n        /* \"#utility.yul\":31968:31971   */\n      dup2\n        /* \"#utility.yul\":31960:31971   */\n      swap1\n      pop\n        /* \"#utility.yul\":31991:31994   */\n      dup2\n        /* \"#utility.yul\":31988:31989   */\n      0x00\n        /* \"#utility.yul\":31981:31995   */\n      mstore\n        /* \"#utility.yul\":32025:32029   */\n      0x20\n        /* \"#utility.yul\":32022:32023   */\n      0x00\n        /* \"#utility.yul\":32012:32030   */\n      keccak256\n        /* \"#utility.yul\":32004:32030   */\n      swap1\n      pop\n        /* \"#utility.yul\":31893:32037   */\n      swap2\n      swap1\n      pop\n      jump\t// out\n        /* \"#utility.yul\":32065:32943   */\n    tag_534:\n        /* \"#utility.yul\":32170:32173   */\n      0x00\n        /* \"#utility.yul\":32207:32212   */\n      dup2\n        /* \"#utility.yul\":32201:32213   */\n      sload\n        /* \"#utility.yul\":32236:32272   */\n      tag_827\n        /* \"#utility.yul\":32262:32271   */\n      dup2\n        /* \"#utility.yul\":32236:32272   */\n      tag_137\n      jump\t// in\n    tag_827:\n        /* \"#utility.yul\":32288:32376   */\n      tag_828\n        /* \"#utility.yul\":32369:32375   */\n      dup2\n        /* \"#utility.yul\":32364:32367   */\n      dup7\n        /* \"#utility.yul\":32288:32376   */\n      tag_532\n      jump\t// in\n    tag_828:\n        /* \"#utility.yul\":32281:32376   */\n      swap5\n      pop\n        /* \"#utility.yul\":32407:32408   */\n      0x01\n        /* \"#utility.yul\":32396:32405   */\n      dup3\n        /* \"#utility.yul\":32392:32409   */\n      and\n        /* \"#utility.yul\":32423:32424   */\n      0x00\n        /* \"#utility.yul\":32418:32584   */\n      dup2\n      eq\n      tag_830\n      jumpi\n        /* \"#utility.yul\":32598:32599   */\n      0x01\n        /* \"#utility.yul\":32593:32937   */\n      dup2\n      eq\n      tag_831\n      jumpi\n        /* \"#utility.yul\":32385:32937   */\n      jump(tag_829)\n        /* \"#utility.yul\":32418:32584   */\n    tag_830:\n        /* \"#utility.yul\":32502:32506   */\n      0xff\n        /* \"#utility.yul\":32498:32507   */\n      not\n        /* \"#utility.yul\":32487:32496   */\n      dup4\n        /* \"#utility.yul\":32483:32508   */\n      and\n        /* \"#utility.yul\":32478:32481   */\n      dup7\n        /* \"#utility.yul\":32471:32509   */\n      mstore\n        /* \"#utility.yul\":32564:32570   */\n      dup2\n        /* \"#utility.yul\":32557:32571   */\n      iszero\n        /* \"#utility.yul\":32550:32572   */\n      iszero\n        /* \"#utility.yul\":32542:32548   */\n      dup3\n        /* \"#utility.yul\":32538:32573   */\n      mul\n        /* \"#utility.yul\":32533:32536   */\n      dup7\n        /* \"#utility.yul\":32529:32574   */\n      add\n        /* \"#utility.yul\":32522:32574   */\n      swap4\n      pop\n        /* \"#utility.yul\":32418:32584   */\n      jump(tag_829)\n        /* \"#utility.yul\":32593:32937   */\n    tag_831:\n        /* \"#utility.yul\":32660:32701   */\n      tag_832\n        /* \"#utility.yul\":32695:32700   */\n      dup6\n        /* \"#utility.yul\":32660:32701   */\n      tag_533\n      jump\t// in\n    tag_832:\n        /* \"#utility.yul\":32723:32724   */\n      0x00\n        /* \"#utility.yul\":32737:32891   */\n    tag_833:\n        /* \"#utility.yul\":32751:32757   */\n      dup4\n        /* \"#utility.yul\":32748:32749   */\n      dup2\n        /* \"#utility.yul\":32745:32758   */\n      lt\n        /* \"#utility.yul\":32737:32891   */\n      iszero\n      tag_835\n      jumpi\n        /* \"#utility.yul\":32825:32832   */\n      dup2\n        /* \"#utility.yul\":32819:32833   */\n      sload\n        /* \"#utility.yul\":32815:32816   */\n      dup2\n        /* \"#utility.yul\":32810:32813   */\n      dup10\n        /* \"#utility.yul\":32806:32817   */\n      add\n        /* \"#utility.yul\":32799:32834   */\n      mstore\n        /* \"#utility.yul\":32875:32876   */\n      0x01\n        /* \"#utility.yul\":32866:32873   */\n      dup3\n        /* \"#utility.yul\":32862:32877   */\n      add\n        /* \"#utility.yul\":32851:32877   */\n      swap2\n      pop\n        /* \"#utility.yul\":32773:32777   */\n      0x20\n        /* \"#utility.yul\":32770:32771   */\n      dup2\n        /* \"#utility.yul\":32766:32778   */\n      add\n        /* \"#utility.yul\":32761:32778   */\n      swap1\n      pop\n        /* \"#utility.yul\":32737:32891   */\n      jump(tag_833)\n    tag_835:\n        /* \"#utility.yul\":32920:32926   */\n      dup4\n        /* \"#utility.yul\":32915:32918   */\n      dup9\n        /* \"#utility.yul\":32911:32927   */\n      add\n        /* \"#utility.yul\":32904:32927   */\n      swap6\n      pop\n        /* \"#utility.yul\":32600:32937   */\n      pop\n      pop\n        /* \"#utility.yul\":32385:32937   */\n    tag_829:\n      pop\n        /* \"#utility.yul\":32174:32943   */\n      pop\n      pop\n        /* \"#utility.yul\":32065:32943   */\n      swap3\n      swap2\n      pop\n      pop\n      jump\t// out\n        /* \"#utility.yul\":32949:33222   */\n    tag_166:\n        /* \"#utility.yul\":33080:33083   */\n      0x00\n        /* \"#utility.yul\":33102:33196   */\n      tag_837\n        /* \"#utility.yul\":33192:33195   */\n      dup3\n        /* \"#utility.yul\":33183:33189   */\n      dup5\n        /* \"#utility.yul\":33102:33196   */\n      tag_534\n      jump\t// in\n    tag_837:\n        /* \"#utility.yul\":33095:33196   */\n      swap2\n      pop\n        /* \"#utility.yul\":33213:33216   */\n      dup2\n        /* \"#utility.yul\":33206:33216   */\n      swap1\n      pop\n        /* \"#utility.yul\":32949:33222   */\n      swap3\n      swap2\n      pop\n      pop\n      jump\t// out\n        /* \"#utility.yul\":33228:33409   */\n    tag_535:\n        /* \"#utility.yul\":33368:33401   */\n      0x796f7520617265206e6f742061207265676973746572656420646f63746f7200\n        /* \"#utility.yul\":33364:33365   */\n      0x00\n        /* \"#utility.yul\":33356:33362   */\n      dup3\n        /* \"#utility.yul\":33352:33366   */\n      add\n        /* \"#utility.yul\":33345:33402   */\n      mstore\n        /* \"#utility.yul\":33228:33409   */\n      pop\n      jump\t// out\n        /* \"#utility.yul\":33415:33781   */\n    tag_536:\n        /* \"#utility.yul\":33557:33560   */\n      0x00\n        /* \"#utility.yul\":33578:33645   */\n      tag_840\n        /* \"#utility.yul\":33642:33644   */\n      0x1f\n        /* \"#utility.yul\":33637:33640   */\n      dup4\n        /* \"#utility.yul\":33578:33645   */\n      tag_485\n      jump\t// in\n    tag_840:\n        /* \"#utility.yul\":33571:33645   */\n      swap2\n      pop\n        /* \"#utility.yul\":33654:33747   */\n      tag_841\n        /* \"#utility.yul\":33743:33746   */\n      dup3\n        /* \"#utility.yul\":33654:33747   */\n      tag_535\n      jump\t// in\n    tag_841:\n        /* \"#utility.yul\":33772:33774   */\n      0x20\n        /* \"#utility.yul\":33767:33770   */\n      dup3\n        /* \"#utility.yul\":33763:33775   */\n      add\n        /* \"#utility.yul\":33756:33775   */\n      swap1\n      pop\n        /* \"#utility.yul\":33415:33781   */\n      swap2\n      swap1\n      pop\n      jump\t// out\n        /* \"#utility.yul\":33787:34206   */\n    tag_419:\n        /* \"#utility.yul\":33953:33957   */\n      0x00\n        /* \"#utility.yul\":33991:33993   */\n      0x20\n        /* \"#utility.yul\":33980:33989   */\n      dup3\n        /* \"#utility.yul\":33976:33994   */\n      add\n        /* \"#utility.yul\":33968:33994   */\n      swap1\n      pop\n        /* \"#utility.yul\":34040:34049   */\n      dup2\n        /* \"#utility.yul\":34034:34038   */\n      dup2\n        /* \"#utility.yul\":34030:34050   */\n      sub\n        /* \"#utility.yul\":34026:34027   */\n      0x00\n        /* \"#utility.yul\":34015:34024   */\n      dup4\n        /* \"#utility.yul\":34011:34028   */\n      add\n        /* \"#utility.yul\":34004:34051   */\n      mstore\n        /* \"#utility.yul\":34068:34199   */\n      tag_843\n        /* \"#utility.yul\":34194:34198   */\n      dup2\n        /* \"#utility.yul\":34068:34199   */\n      tag_536\n      jump\t// in\n    tag_843:\n        /* \"#utility.yul\":34060:34199   */\n      swap1\n      pop\n        /* \"#utility.yul\":33787:34206   */\n      swap2\n      swap1\n      pop\n      jump\t// out\n        /* \"#utility.yul\":34212:34383   */\n    tag_537:\n        /* \"#utility.yul\":34352:34375   */\n      0x496e76616c69642070617469656e7420696e6465780000000000000000000000\n        /* \"#utility.yul\":34348:34349   */\n      0x00\n        /* \"#utility.yul\":34340:34346   */\n      dup3\n        /* \"#utility.yul\":34336:34350   */\n      add\n        /* \"#utility.yul\":34329:34376   */\n      mstore\n        /* \"#utility.yul\":34212:34383   */\n      pop\n      jump\t// out\n        /* \"#utility.yul\":34389:34755   */\n    tag_538:\n        /* \"#utility.yul\":34531:34534   */\n      0x00\n        /* \"#utility.yul\":34552:34619   */\n      tag_846\n        /* \"#utility.yul\":34616:34618   */\n      0x15\n        /* \"#utility.yul\":34611:34614   */\n      dup4\n        /* \"#utility.yul\":34552:34619   */\n      tag_485\n      jump\t// in\n    tag_846:\n        /* \"#utility.yul\":34545:34619   */\n      swap2\n      pop\n        /* \"#utility.yul\":34628:34721   */\n      tag_847\n        /* \"#utility.yul\":34717:34720   */\n      dup3\n        /* \"#utility.yul\":34628:34721   */\n      tag_537\n      jump\t// in\n    tag_847:\n        /* \"#utility.yul\":34746:34748   */\n      0x20\n        /* \"#utility.yul\":34741:34744   */\n      dup3\n        /* \"#utility.yul\":34737:34749   */\n      add\n        /* \"#utility.yul\":34730:34749   */\n      swap1\n      pop\n        /* \"#utility.yul\":34389:34755   */\n      swap2\n      swap1\n      pop\n      jump\t// out\n        /* \"#utility.yul\":34761:35180   */\n    tag_423:\n        /* \"#utility.yul\":34927:34931   */\n      0x00\n        /* \"#utility.yul\":34965:34967   */\n      0x20\n        /* \"#utility.yul\":34954:34963   */\n      dup3\n        /* \"#utility.yul\":34950:34968   */\n      add\n        /* \"#utility.yul\":34942:34968   */\n      swap1\n      pop\n        /* \"#utility.yul\":35014:35023   */\n      dup2\n        /* \"#utility.yul\":35008:35012   */\n      dup2\n        /* \"#utility.yul\":35004:35024   */\n      sub\n        /* \"#utility.yul\":35000:35001   */\n      0x00\n        /* \"#utility.yul\":34989:34998   */\n      dup4\n        /* \"#utility.yul\":34985:35002   */\n      add\n        /* \"#utility.yul\":34978:35025   */\n      mstore\n        /* \"#utility.yul\":35042:35173   */\n      tag_849\n        /* \"#utility.yul\":35168:35172   */\n      dup2\n        /* \"#utility.yul\":35042:35173   */\n      tag_538\n      jump\t// in\n    tag_849:\n        /* \"#utility.yul\":35034:35173   */\n      swap1\n      pop\n        /* \"#utility.yul\":34761:35180   */\n      swap2\n      swap1\n      pop\n      jump\t// out\n        /* \"#utility.yul\":35186:36143   */\n    tag_463:\n        /* \"#utility.yul\":35459:35463   */\n      0x00\n        /* \"#utility.yul\":35497:35500   */\n      0xc0\n        /* \"#utility.yul\":35486:35495   */\n      dup3\n        /* \"#utility.yul\":35482:35501   */\n      add\n        /* \"#utility.yul\":35474:35501   */\n      swap1\n      pop\n        /* \"#utility.yul\":35547:35556   */\n      dup2\n        /* \"#utility.yul\":35541:35545   */\n      dup2\n        /* \"#utility.yul\":35537:35557   */\n      sub\n        /* \"#utility.yul\":35533:35534   */\n      0x00\n        /* \"#utility.yul\":35522:35531   */\n      dup4\n        /* \"#utility.yul\":35518:35535   */\n      add\n        /* \"#utility.yul\":35511:35558   */\n      mstore\n        /* \"#utility.yul\":35575:35653   */\n      tag_851\n        /* \"#utility.yul\":35648:35652   */\n      dup2\n        /* \"#utility.yul\":35639:35645   */\n      dup10\n        /* \"#utility.yul\":35575:35653   */\n      tag_487\n      jump\t// in\n    tag_851:\n        /* \"#utility.yul\":35567:35653   */\n      swap1\n      pop\n        /* \"#utility.yul\":35663:35735   */\n      tag_852\n        /* \"#utility.yul\":35731:35733   */\n      0x20\n        /* \"#utility.yul\":35720:35729   */\n      dup4\n        /* \"#utility.yul\":35716:35734   */\n      add\n        /* \"#utility.yul\":35707:35713   */\n      dup9\n        /* \"#utility.yul\":35663:35735   */\n      tag_489\n      jump\t// in\n    tag_852:\n        /* \"#utility.yul\":35745:35817   */\n      tag_853\n        /* \"#utility.yul\":35813:35815   */\n      0x40\n        /* \"#utility.yul\":35802:35811   */\n      dup4\n        /* \"#utility.yul\":35798:35816   */\n      add\n        /* \"#utility.yul\":35789:35795   */\n      dup8\n        /* \"#utility.yul\":35745:35817   */\n      tag_489\n      jump\t// in\n    tag_853:\n        /* \"#utility.yul\":35827:35899   */\n      tag_854\n        /* \"#utility.yul\":35895:35897   */\n      0x60\n        /* \"#utility.yul\":35884:35893   */\n      dup4\n        /* \"#utility.yul\":35880:35898   */\n      add\n        /* \"#utility.yul\":35871:35877   */\n      dup7\n        /* \"#utility.yul\":35827:35899   */\n      tag_489\n      jump\t// in\n    tag_854:\n        /* \"#utility.yul\":35909:35982   */\n      tag_855\n        /* \"#utility.yul\":35977:35980   */\n      0x80\n        /* \"#utility.yul\":35966:35975   */\n      dup4\n        /* \"#utility.yul\":35962:35981   */\n      add\n        /* \"#utility.yul\":35953:35959   */\n      dup6\n        /* \"#utility.yul\":35909:35982   */\n      tag_489\n      jump\t// in\n    tag_855:\n        /* \"#utility.yul\":36030:36039   */\n      dup2\n        /* \"#utility.yul\":36024:36028   */\n      dup2\n        /* \"#utility.yul\":36020:36040   */\n      sub\n        /* \"#utility.yul\":36014:36017   */\n      0xa0\n        /* \"#utility.yul\":36003:36012   */\n      dup4\n        /* \"#utility.yul\":35999:36018   */\n      add\n        /* \"#utility.yul\":35992:36041   */\n      mstore\n        /* \"#utility.yul\":36058:36136   */\n      tag_856\n        /* \"#utility.yul\":36131:36135   */\n      dup2\n        /* \"#utility.yul\":36122:36128   */\n      dup5\n        /* \"#utility.yul\":36058:36136   */\n      tag_487\n      jump\t// in\n    tag_856:\n        /* \"#utility.yul\":36050:36136   */\n      swap1\n      pop\n        /* \"#utility.yul\":35186:36143   */\n      swap8\n      swap7\n      pop\n      pop\n      pop\n      pop\n      pop\n      pop\n      pop\n      jump\t// out\n\n    auxdata: 0xa264697066735822122002ee52f7d238b49145098c2aba6611bf9fd7de3d388b2b6726e717aeeda2d22b64736f6c63430008120033\n}\n",
				"bytecode": {
					"linkReferences": {},
					"object": "608060405234801561001057600080fd5b50735b38da6a701c568545dcfcb03fcb875f56beddc46000806101000a81548173ffffffffffffffffffffffffffffffffffffffff021916908373ffffffffffffffffffffffffffffffffffffffff1602179055506136d2806100746000396000f3fe608060405234801561001057600080fd5b506004361061010b5760003560e01c8063846bcce2116100a25780639e3b6565116100715780639e3b656514610332578063c190665b1461034e578063eb96ed9c1461036c578063f851a44014610388578063fe45a81d146103a65761010b565b8063846bcce2146102635780638f9c79ed1461029957806393119a83146102c9578063996440c6146103025761010b565b806379111c1c116100de57806379111c1c146101ac5780637e0a63ac146101ca5780637fed33ff1461020157806381dc6fd2146102325761010b565b806330ff6f15146101105780634d0996481461012c5780635a357c19146101485780636efb1b841461017a575b600080fd5b61012a600480360381019061012591906126c2565b6103c4565b005b61014660048036038101906101419190612731565b61064f565b005b610162600480360381019061015d919061278d565b6107cf565b60405161017193929190612848565b60405180910390f35b610194600480360381019061018f919061278d565b610a7a565b6040516101a39392919061289c565b60405180910390f35b6101b4610b5c565b6040516101c191906128da565b60405180910390f35b6101e460048036038101906101df91906128f5565b610b69565b6040516101f8989796959493929190612b08565b60405180910390f35b61021b6004803603810190610216919061278d565b611328565b604051610229929190612bbe565b60405180910390f35b61024c6004803603810190610247919061278d565b611473565b60405161025a929190612bbe565b60405180910390f35b61027d6004803603810190610278919061278d565b61154f565b6040516102909796959493929190612bee565b60405180910390f35b6102b360048036038101906102ae9190612c8e565b611c47565b6040516102c09190612cd6565b60405180910390f35b6102e360048036038101906102de919061278d565b611c67565b6040516102f99a99989796959493929190612cf1565b60405180910390f35b61031c60048036038101906103179190612c8e565b611f73565b6040516103299190612cd6565b60405180910390f35b61034c60048036038101906103479190612db0565b611f93565b005b6103566122d3565b60405161036391906128da565b60405180910390f35b61038660048036038101906103819190612e3b565b6122e0565b005b61039061246c565b60405161039d9190612f00565b60405180910390f35b6103ae612490565b6040516103bb91906128da565b60405180910390f35b6000805b600180549050811015610469573373ffffffffffffffffffffffffffffffffffffffff1660018281548110610400576103ff612f1b565b5b906000526020600020906002020160010160009054906101000a900473ffffffffffffffffffffffffffffffffffffffff1673ffffffffffffffffffffffffffffffffffffffff16036104565760019150610469565b808061046190612f79565b9150506103c8565b50806104aa576040517f08c379a00000000000000000000000000000000000000000000000000000000081526004016104a190613033565b60405180910390fd5b60018054905082106104f1576040517f08c379a00000000000000000000000000000000000000000000000000000000081526004016104e89061309f565b60405180910390fd5b600260405180606001604052808681526020018573ffffffffffffffffffffffffffffffffffffffff168152602001848152509080600181540180825580915050600190039060005260206000209060030201600090919091909150600082015181600001908161056291906132cb565b5060208201518160010160006101000a81548173ffffffffffffffffffffffffffffffffffffffff021916908373ffffffffffffffffffffffffffffffffffffffff1602179055506040820151816002015550506001600560008573ffffffffffffffffffffffffffffffffffffffff1673ffffffffffffffffffffffffffffffffffffffff16815260200190815260200160002060006101000a81548160ff0219169083151502179055507f742c06a6ca71851c82c62c919b22afa159c65a8cbbecf4c516ef3bc98131ccc68484846040516106419392919061289c565b60405180910390a150505050565b60008054906101000a900473ffffffffffffffffffffffffffffffffffffffff1673ffffffffffffffffffffffffffffffffffffffff163373ffffffffffffffffffffffffffffffffffffffff16146106dd576040517f08c379a00000000000000000000000000000000000000000000000000000000081526004016106d49061340f565b60405180910390fd5b600160405180604001604052808481526020018373ffffffffffffffffffffffffffffffffffffffff168152509080600181540180825580915050600190039060005260206000209060020201600090919091909150600082015181600001908161074891906132cb565b5060208201518160010160006101000a81548173ffffffffffffffffffffffffffffffffffffffff021916908373ffffffffffffffffffffffffffffffffffffffff16021790555050507fd46a3ffbe29f14555dfaef3732f100cd93dac8455bafc3a294e2132e56e508b982826040516107c3929190612bbe565b60405180910390a15050565b606060006060600280549050841061081c576040517f08c379a00000000000000000000000000000000000000000000000000000000081526004016108139061347b565b60405180910390fd5b60006002858154811061083257610831612f1b565b5b906000526020600020906003020160405180606001604052908160008201805461085b906130ee565b80601f0160208091040260200160405190810160405280929190818152602001828054610887906130ee565b80156108d45780601f106108a9576101008083540402835291602001916108d4565b820191906000526020600020905b8154815290600101906020018083116108b757829003601f168201915b505050505081526020016001820160009054906101000a900473ffffffffffffffffffffffffffffffffffffffff1673ffffffffffffffffffffffffffffffffffffffff1673ffffffffffffffffffffffffffffffffffffffff16815260200160028201548152505090506000600182604001518154811061095957610958612f1b565b5b9060005260206000209060020201604051806040016040529081600082018054610982906130ee565b80601f01602080910402602001604051908101604052809291908181526020018280546109ae906130ee565b80156109fb5780601f106109d0576101008083540402835291602001916109fb565b820191906000526020600020905b8154815290600101906020018083116109de57829003601f168201915b505050505081526020016001820160009054906101000a900473ffffffffffffffffffffffffffffffffffffffff1673ffffffffffffffffffffffffffffffffffffffff1673ffffffffffffffffffffffffffffffffffffffff1681525050905081600001518260200151826000015194509450945050509193909250565b60028181548110610a8a57600080fd5b9060005260206000209060030201600091509050806000018054610aad906130ee565b80601f0160208091040260200160405190810160405280929190818152602001828054610ad9906130ee565b8015610b265780601f10610afb57610100808354040283529160200191610b26565b820191906000526020600020905b815481529060010190602001808311610b0957829003601f168201915b5050505050908060010160009054906101000a900473ffffffffffffffffffffffffffffffffffffffff16908060020154905083565b6000600280549050905090565b6060806060806060806060806000805b600380549050811015610bef578a8051906020012060038281548110610ba257610ba1612f1b565b5b90600052602060002090600a0201600001604051610bc0919061353e565b604051809103902003610bdc578180610bd890612f79565b9250505b8080610be790612f79565b915050610b79565b508067ffffffffffffffff811115610c0a57610c09612503565b5b604051908082528060200260200182016040528015610c3d57816020015b6060815260200190600190039081610c285790505b5098508067ffffffffffffffff811115610c5a57610c59612503565b5b604051908082528060200260200182016040528015610c885781602001602082028036833780820191505090505b5097508067ffffffffffffffff811115610ca557610ca4612503565b5b604051908082528060200260200182016040528015610cd35781602001602082028036833780820191505090505b5096508067ffffffffffffffff811115610cf057610cef612503565b5b604051908082528060200260200182016040528015610d1e5781602001602082028036833780820191505090505b5095508067ffffffffffffffff811115610d3b57610d3a612503565b5b604051908082528060200260200182016040528015610d695781602001602082028036833780820191505090505b5094508067ffffffffffffffff811115610d8657610d85612503565b5b604051908082528060200260200182016040528015610db957816020015b6060815260200190600190039081610da45790505b5093508067ffffffffffffffff811115610dd657610dd5612503565b5b604051908082528060200260200182016040528015610e0957816020015b6060815260200190600190039081610df45790505b5092508067ffffffffffffffff811115610e2657610e25612503565b5b604051908082528060200260200182016040528015610e5957816020015b6060815260200190600190039081610e445790505b5091506000805b60038054905081101561131a578b8051906020012060038281548110610e8957610e88612f1b565b5b90600052602060002090600a0201600001604051610ea7919061353e565b6040518091039020036113075760038181548110610ec857610ec7612f1b565b5b90600052602060002090600a02016000018054610ee4906130ee565b80601f0160208091040260200160405190810160405280929190818152602001828054610f10906130ee565b8015610f5d5780601f10610f3257610100808354040283529160200191610f5d565b820191906000526020600020905b815481529060010190602001808311610f4057829003601f168201915b50505050508b8381518110610f7557610f74612f1b565b5b602002602001018190525060038181548110610f9457610f93612f1b565b5b90600052602060002090600a0201600101548a8381518110610fb957610fb8612f1b565b5b60200260200101818152505060038181548110610fd957610fd8612f1b565b5b90600052602060002090600a020160020154898381518110610ffe57610ffd612f1b565b5b6020026020010181815250506003818154811061101e5761101d612f1b565b5b90600052602060002090600a02016003015488838151811061104357611042612f1b565b5b6020026020010181815250506003818154811061106357611062612f1b565b5b90600052602060002090600a02016004015487838151811061108857611087612f1b565b5b602002602001018181525050600381815481106110a8576110a7612f1b565b5b90600052602060002090600a020160070180546110c4906130ee565b80601f01602080910402602001604051908101604052809291908181526020018280546110f0906130ee565b801561113d5780601f106111125761010080835404028352916020019161113d565b820191906000526020600020905b81548152906001019060200180831161112057829003601f168201915b505050505086838151811061115557611154612f1b565b5b60200260200101819052506003818154811061117457611173612f1b565b5b90600052602060002090600a02016008018054611190906130ee565b80601f01602080910402602001604051908101604052809291908181526020018280546111bc906130ee565b80156112095780601f106111de57610100808354040283529160200191611209565b820191906000526020600020905b8154815290600101906020018083116111ec57829003601f168201915b505050505085838151811061122157611220612f1b565b5b6020026020010181905250600381815481106112405761123f612f1b565b5b90600052602060002090600a0201600901805461125c906130ee565b80601f0160208091040260200160405190810160405280929190818152602001828054611288906130ee565b80156112d55780601f106112aa576101008083540402835291602001916112d5565b820191906000526020600020905b8154815290600101906020018083116112b857829003601f168201915b50505050508483815181106112ed576112ec612f1b565b5b6020026020010181905250818061130390612f79565b9250505b808061131290612f79565b915050610e60565b505050919395975091939597565b606060006001805490508310611373576040517f08c379a000000000000000000000000000000000000000000000000000000000815260040161136a9061309f565b60405180910390fd5b6001838154811061138757611386612f1b565b5b9060005260206000209060020201600001600184815481106113ac576113ab612f1b565b5b906000526020600020906002020160010160009054906101000a900473ffffffffffffffffffffffffffffffffffffffff168180546113ea906130ee565b80601f0160208091040260200160405190810160405280929190818152602001828054611416906130ee565b80156114635780601f1061143857610100808354040283529160200191611463565b820191906000526020600020905b81548152906001019060200180831161144657829003601f168201915b5050505050915091509150915091565b6001818154811061148357600080fd5b90600052602060002090600202016000915090508060000180546114a6906130ee565b80601f01602080910402602001604051908101604052809291908181526020018280546114d2906130ee565b801561151f5780601f106114f45761010080835404028352916020019161151f565b820191906000526020600020905b81548152906001019060200180831161150257829003601f168201915b5050505050908060010160009054906101000a900473ffffffffffffffffffffffffffffffffffffffff16905082565b60608060608060608060606000805b6003805490508110156115b95789600382815481106115805761157f612f1b565b5b90600052602060002090600a020160040154036115a65781806115a290612f79565b9250505b80806115b190612f79565b91505061155e565b508067ffffffffffffffff8111156115d4576115d3612503565b5b60405190808252806020026020018201604052801561160757816020015b60608152602001906001900390816115f25790505b5097508067ffffffffffffffff81111561162457611623612503565b5b6040519080825280602002602001820160405280156116525781602001602082028036833780820191505090505b5096508067ffffffffffffffff81111561166f5761166e612503565b5b60405190808252806020026020018201604052801561169d5781602001602082028036833780820191505090505b5095508067ffffffffffffffff8111156116ba576116b9612503565b5b6040519080825280602002602001820160405280156116e85781602001602082028036833780820191505090505b5094508067ffffffffffffffff81111561170557611704612503565b5b60405190808252806020026020018201604052801561173857816020015b60608152602001906001900390816117235790505b5093508067ffffffffffffffff81111561175557611754612503565b5b60405190808252806020026020018201604052801561178857816020015b60608152602001906001900390816117735790505b5092508067ffffffffffffffff8111156117a5576117a4612503565b5b6040519080825280602002602001820160405280156117d857816020015b60608152602001906001900390816117c35790505b5091506000805b600380549050811015611c39578a6003828154811061180157611800612f1b565b5b90600052602060002090600a02016004015403611c26576003818154811061182c5761182b612f1b565b5b90600052602060002090600a02016000018054611848906130ee565b80601f0160208091040260200160405190810160405280929190818152602001828054611874906130ee565b80156118c15780601f10611896576101008083540402835291602001916118c1565b820191906000526020600020905b8154815290600101906020018083116118a457829003601f168201915b50505050508a83815181106118d9576118d8612f1b565b5b6020026020010181905250600381815481106118f8576118f7612f1b565b5b90600052602060002090600a02016001015489838151811061191d5761191c612f1b565b5b6020026020010181815250506003818154811061193d5761193c612f1b565b5b90600052602060002090600a02016002015488838151811061196257611961612f1b565b5b6020026020010181815250506003818154811061198257611981612f1b565b5b90600052602060002090600a0201600301548783815181106119a7576119a6612f1b565b5b602002602001018181525050600381815481106119c7576119c6612f1b565b5b90600052602060002090600a020160070180546119e3906130ee565b80601f0160208091040260200160405190810160405280929190818152602001828054611a0f906130ee565b8015611a5c5780601f10611a3157610100808354040283529160200191611a5c565b820191906000526020600020905b815481529060010190602001808311611a3f57829003601f168201915b5050505050868381518110611a7457611a73612f1b565b5b602002602001018190525060038181548110611a9357611a92612f1b565b5b90600052602060002090600a02016008018054611aaf906130ee565b80601f0160208091040260200160405190810160405280929190818152602001828054611adb906130ee565b8015611b285780601f10611afd57610100808354040283529160200191611b28565b820191906000526020600020905b815481529060010190602001808311611b0b57829003601f168201915b5050505050858381518110611b4057611b3f612f1b565b5b602002602001018190525060038181548110611b5f57611b5e612f1b565b5b90600052602060002090600a02016009018054611b7b906130ee565b80601f0160208091040260200160405190810160405280929190818152602001828054611ba7906130ee565b8015611bf45780601f10611bc957610100808354040283529160200191611bf4565b820191906000526020600020905b815481529060010190602001808311611bd757829003601f168201915b5050505050848381518110611c0c57611c0b612f1b565b5b60200260200101819052508180611c2290612f79565b9250505b8080611c3190612f79565b9150506117df565b505050919395979092949650565b60046020528060005260406000206000915054906101000a900460ff1681565b60038181548110611c7757600080fd5b90600052602060002090600a0201600091509050806000018054611c9a906130ee565b80601f0160208091040260200160405190810160405280929190818152602001828054611cc6906130ee565b8015611d135780601f10611ce857610100808354040283529160200191611d13565b820191906000526020600020905b815481529060010190602001808311611cf657829003601f168201915b505050505090806001015490806002015490806003015490806004015490806005018054611d40906130ee565b80601f0160208091040260200160405190810160405280929190818152602001828054611d6c906130ee565b8015611db95780601f10611d8e57610100808354040283529160200191611db9565b820191906000526020600020905b815481529060010190602001808311611d9c57829003601f168201915b505050505090806006015490806007018054611dd4906130ee565b80601f0160208091040260200160405190810160405280929190818152602001828054611e00906130ee565b8015611e4d5780601f10611e2257610100808354040283529160200191611e4d565b820191906000526020600020905b815481529060010190602001808311611e3057829003601f168201915b505050505090806008018054611e62906130ee565b80601f0160208091040260200160405190810160405280929190818152602001828054611e8e906130ee565b8015611edb5780601f10611eb057610100808354040283529160200191611edb565b820191906000526020600020905b815481529060010190602001808311611ebe57829003601f168201915b505050505090806009018054611ef0906130ee565b80601f0160208091040260200160405190810160405280929190818152602001828054611f1c906130ee565b8015611f695780601f10611f3e57610100808354040283529160200191611f69565b820191906000526020600020905b815481529060010190602001808311611f4c57829003601f168201915b505050505090508a565b60056020528060005260406000206000915054906101000a900460ff1681565b600560003373ffffffffffffffffffffffffffffffffffffffff1673ffffffffffffffffffffffffffffffffffffffff16815260200190815260200160002060009054906101000a900460ff1661201f576040517f08c379a0000000000000000000000000000000000000000000000000000000008152600401612016906135a1565b60405180910390fd5b6003805490508310612066576040517f08c379a000000000000000000000000000000000000000000000000000000000815260040161205d9061360d565b60405180910390fd5b61206e61249d565b60005b60028054905081101561222f573373ffffffffffffffffffffffffffffffffffffffff16600282815481106120a9576120a8612f1b565b5b906000526020600020906003020160010160009054906101000a900473ffffffffffffffffffffffffffffffffffffffff1673ffffffffffffffffffffffffffffffffffffffff160361221c576002818154811061210a57612109612f1b565b5b9060005260206000209060030201604051806060016040529081600082018054612133906130ee565b80601f016020809104026020016040519081016040528092919081815260200182805461215f906130ee565b80156121ac5780601f10612181576101008083540402835291602001916121ac565b820191906000526020600020905b81548152906001019060200180831161218f57829003601f168201915b505050505081526020016001820160009054906101000a900473ffffffffffffffffffffffffffffffffffffffff1673ffffffffffffffffffffffffffffffffffffffff1673ffffffffffffffffffffffffffffffffffffffff168152602001600282015481525050915061222f565b808061222790612f79565b915050612071565b50826003858154811061224557612244612f1b565b5b90600052602060002090600a0201600701908161226291906132cb565b50816003858154811061227857612277612f1b565b5b90600052602060002090600a0201600801908161229591906132cb565b508060000151600385815481106122af576122ae612f1b565b5b90600052602060002090600a020160090190816122cc91906132cb565b5050505050565b6000600380549050905090565b6003604051806101400160405280888152602001878152602001868152602001858152602001848152602001838152602001600081526020016040518060200160405280600081525081526020016040518060200160405280600081525081526020016040518060200160405280600081525081525090806001815401808255809150506001900390600052602060002090600a0201600090919091909150600082015181600001908161239491906132cb565b506020820151816001015560408201518160020155606082015181600301556080820151816004015560a08201518160050190816123d291906132cb565b5060c0820151816006015560e08201518160070190816123f291906132cb565b5061010082015181600801908161240991906132cb565b5061012082015181600901908161242091906132cb565b5050507fcdeb7c36b2e64cbcbdd0ad00c0fc2ceae9444edd2682279aee2e56b8a01c093486868686868660405161245c9695949392919061362d565b60405180910390a1505050505050565b60008054906101000a900473ffffffffffffffffffffffffffffffffffffffff1681565b6000600180549050905090565b604051806060016040528060608152602001600073ffffffffffffffffffffffffffffffffffffffff168152602001600081525090565b6000604051905090565b600080fd5b600080fd5b600080fd5b600080fd5b6000601f19601f8301169050919050565b7f4e487b7100000000000000000000000000000000000000000000000000000000600052604160045260246000fd5b61253b826124f2565b810181811067ffffffffffffffff8211171561255a57612559612503565b5b80604052505050565b600061256d6124d4565b90506125798282612532565b919050565b600067ffffffffffffffff82111561259957612598612503565b5b6125a2826124f2565b9050602081019050919050565b82818337600083830152505050565b60006125d16125cc8461257e565b612563565b9050828152602081018484840111156125ed576125ec6124ed565b5b6125f88482856125af565b509392505050565b600082601f830112612615576126146124e8565b5b81356126258482602086016125be565b91505092915050565b600073ffffffffffffffffffffffffffffffffffffffff82169050919050565b60006126598261262e565b9050919050565b6126698161264e565b811461267457600080fd5b50565b60008135905061268681612660565b92915050565b6000819050919050565b61269f8161268c565b81146126aa57600080fd5b50565b6000813590506126bc81612696565b92915050565b6000806000606084860312156126db576126da6124de565b5b600084013567ffffffffffffffff8111156126f9576126f86124e3565b5b61270586828701612600565b935050602061271686828701612677565b9250506040612727868287016126ad565b9150509250925092565b60008060408385031215612748576127476124de565b5b600083013567ffffffffffffffff811115612766576127656124e3565b5b61277285828601612600565b925050602061278385828601612677565b9150509250929050565b6000602082840312156127a3576127a26124de565b5b60006127b1848285016126ad565b91505092915050565b600081519050919050565b600082825260208201905092915050565b60005b838110156127f45780820151818401526020810190506127d9565b60008484015250505050565b600061280b826127ba565b61281581856127c5565b93506128258185602086016127d6565b61282e816124f2565b840191505092915050565b6128428161264e565b82525050565b600060608201905081810360008301526128628186612800565b90506128716020830185612839565b81810360408301526128838184612800565b9050949350505050565b6128968161268c565b82525050565b600060608201905081810360008301526128b68186612800565b90506128c56020830185612839565b6128d2604083018461288d565b949350505050565b60006020820190506128ef600083018461288d565b92915050565b60006020828403121561290b5761290a6124de565b5b600082013567ffffffffffffffff811115612929576129286124e3565b5b61293584828501612600565b91505092915050565b600081519050919050565b600082825260208201905092915050565b6000819050602082019050919050565b600082825260208201905092915050565b6000612986826127ba565b612990818561296a565b93506129a08185602086016127d6565b6129a9816124f2565b840191505092915050565b60006129c0838361297b565b905092915050565b6000602082019050919050565b60006129e08261293e565b6129ea8185612949565b9350836020820285016129fc8561295a565b8060005b85811015612a385784840389528151612a1985826129b4565b9450612a24836129c8565b925060208a01995050600181019050612a00565b50829750879550505050505092915050565b600081519050919050565b600082825260208201905092915050565b6000819050602082019050919050565b612a7f8161268c565b82525050565b6000612a918383612a76565b60208301905092915050565b6000602082019050919050565b6000612ab582612a4a565b612abf8185612a55565b9350612aca83612a66565b8060005b83811015612afb578151612ae28882612a85565b9750612aed83612a9d565b925050600181019050612ace565b5085935050505092915050565b6000610100820190508181036000830152612b23818b6129d5565b90508181036020830152612b37818a612aaa565b90508181036040830152612b4b8189612aaa565b90508181036060830152612b5f8188612aaa565b90508181036080830152612b738187612aaa565b905081810360a0830152612b8781866129d5565b905081810360c0830152612b9b81856129d5565b905081810360e0830152612baf81846129d5565b90509998505050505050505050565b60006040820190508181036000830152612bd88185612800565b9050612be76020830184612839565b9392505050565b600060e0820190508181036000830152612c08818a6129d5565b90508181036020830152612c1c8189612aaa565b90508181036040830152612c308188612aaa565b90508181036060830152612c448187612aaa565b90508181036080830152612c5881866129d5565b905081810360a0830152612c6c81856129d5565b905081810360c0830152612c8081846129d5565b905098975050505050505050565b600060208284031215612ca457612ca36124de565b5b6000612cb284828501612677565b91505092915050565b60008115159050919050565b612cd081612cbb565b82525050565b6000602082019050612ceb6000830184612cc7565b92915050565b6000610140820190508181036000830152612d0c818d612800565b9050612d1b602083018c61288d565b612d28604083018b61288d565b612d35606083018a61288d565b612d42608083018961288d565b81810360a0830152612d548188612800565b9050612d6360c083018761288d565b81810360e0830152612d758186612800565b9050818103610100830152612d8a8185612800565b9050818103610120830152612d9f8184612800565b90509b9a5050505050505050505050565b600080600060608486031215612dc957612dc86124de565b5b6000612dd7868287016126ad565b935050602084013567ffffffffffffffff811115612df857612df76124e3565b5b612e0486828701612600565b925050604084013567ffffffffffffffff811115612e2557612e246124e3565b5b612e3186828701612600565b9150509250925092565b60008060008060008060c08789031215612e5857612e576124de565b5b600087013567ffffffffffffffff811115612e7657612e756124e3565b5b612e8289828a01612600565b9650506020612e9389828a016126ad565b9550506040612ea489828a016126ad565b9450506060612eb589828a016126ad565b9350506080612ec689828a016126ad565b92505060a087013567ffffffffffffffff811115612ee757612ee66124e3565b5b612ef389828a01612600565b9150509295509295509295565b6000602082019050612f156000830184612839565b92915050565b7f4e487b7100000000000000000000000000000000000000000000000000000000600052603260045260246000fd5b7f4e487b7100000000000000000000000000000000000000000000000000000000600052601160045260246000fd5b6000612f848261268c565b91507fffffffffffffffffffffffffffffffffffffffffffffffffffffffffffffffff8203612fb657612fb5612f4a565b5b600182019050919050565b7f596f7520617265206e6f742061207265676973746572656420686f737069746160008201527f6c00000000000000000000000000000000000000000000000000000000000000602082015250565b600061301d6021836127c5565b915061302882612fc1565b604082019050919050565b6000602082019050818103600083015261304c81613010565b9050919050565b7f496e76616c696420686f73706974616c20696e64657800000000000000000000600082015250565b60006130896016836127c5565b915061309482613053565b602082019050919050565b600060208201905081810360008301526130b88161307c565b9050919050565b7f4e487b7100000000000000000000000000000000000000000000000000000000600052602260045260246000fd5b6000600282049050600182168061310657607f821691505b602082108103613119576131186130bf565b5b50919050565b60008190508160005260206000209050919050565b60006020601f8301049050919050565b600082821b905092915050565b6000600883026131817fffffffffffffffffffffffffffffffffffffffffffffffffffffffffffffffff82613144565b61318b8683613144565b95508019841693508086168417925050509392505050565b6000819050919050565b60006131c86131c36131be8461268c565b6131a3565b61268c565b9050919050565b6000819050919050565b6131e2836131ad565b6131f66131ee826131cf565b848454613151565b825550505050565b600090565b61320b6131fe565b6132168184846131d9565b505050565b5b8181101561323a5761322f600082613203565b60018101905061321c565b5050565b601f82111561327f576132508161311f565b61325984613134565b81016020851015613268578190505b61327c61327485613134565b83018261321b565b50505b505050565b600082821c905092915050565b60006132a260001984600802613284565b1980831691505092915050565b60006132bb8383613291565b9150826002028217905092915050565b6132d4826127ba565b67ffffffffffffffff8111156132ed576132ec612503565b5b6132f782546130ee565b61330282828561323e565b600060209050601f8311600181146133355760008415613323578287015190505b61332d85826132af565b865550613395565b601f1984166133438661311f565b60005b8281101561336b57848901518255600182019150602085019450602081019050613346565b868310156133885784890151613384601f891682613291565b8355505b6001600288020188555050505b505050505050565b7f4f6e6c79207468652061646d696e2063616e20706572666f726d20746869732060008201527f6f7065726174696f6e0000000000000000000000000000000000000000000000602082015250565b60006133f96029836127c5565b91506134048261339d565b604082019050919050565b60006020820190508181036000830152613428816133ec565b9050919050565b7f496e76616c696420646f63746f7220696e646578000000000000000000000000600082015250565b60006134656014836127c5565b91506134708261342f565b602082019050919050565b6000602082019050818103600083015261349481613458565b9050919050565b600081905092915050565b60008190508160005260206000209050919050565b600081546134c8816130ee565b6134d2818661349b565b945060018216600081146134ed576001811461350257613535565b60ff1983168652811515820286019350613535565b61350b856134a6565b60005b8381101561352d5781548189015260018201915060208101905061350e565b838801955050505b50505092915050565b600061354a82846134bb565b915081905092915050565b7f796f7520617265206e6f742061207265676973746572656420646f63746f7200600082015250565b600061358b601f836127c5565b915061359682613555565b602082019050919050565b600060208201905081810360008301526135ba8161357e565b9050919050565b7f496e76616c69642070617469656e7420696e6465780000000000000000000000600082015250565b60006135f76015836127c5565b9150613602826135c1565b602082019050919050565b60006020820190508181036000830152613626816135ea565b9050919050565b600060c08201905081810360008301526136478189612800565b9050613656602083018861288d565b613663604083018761288d565b613670606083018661288d565b61367d608083018561288d565b81810360a083015261368f8184612800565b905097965050505050505056fea264697066735822122002ee52f7d238b49145098c2aba6611bf9fd7de3d388b2b6726e717aeeda2d22b64736f6c63430008120033",
					"opcodes": "PUSH1 0x80 PUSH1 0x40 MSTORE CALLVALUE DUP1 ISZERO PUSH2 0x10 JUMPI PUSH1 0x0 DUP1 REVERT JUMPDEST POP PUSH20 0x5B38DA6A701C568545DCFCB03FCB875F56BEDDC4 PUSH1 0x0 DUP1 PUSH2 0x100 EXP DUP2 SLOAD DUP2 PUSH20 0xFFFFFFFFFFFFFFFFFFFFFFFFFFFFFFFFFFFFFFFF MUL NOT AND SWAP1 DUP4 PUSH20 0xFFFFFFFFFFFFFFFFFFFFFFFFFFFFFFFFFFFFFFFF AND MUL OR SWAP1 SSTORE POP PUSH2 0x36D2 DUP1 PUSH2 0x74 PUSH1 0x0 CODECOPY PUSH1 0x0 RETURN INVALID PUSH1 0x80 PUSH1 0x40 MSTORE CALLVALUE DUP1 ISZERO PUSH2 0x10 JUMPI PUSH1 0x0 DUP1 REVERT JUMPDEST POP PUSH1 0x4 CALLDATASIZE LT PUSH2 0x10B JUMPI PUSH1 0x0 CALLDATALOAD PUSH1 0xE0 SHR DUP1 PUSH4 0x846BCCE2 GT PUSH2 0xA2 JUMPI DUP1 PUSH4 0x9E3B6565 GT PUSH2 0x71 JUMPI DUP1 PUSH4 0x9E3B6565 EQ PUSH2 0x332 JUMPI DUP1 PUSH4 0xC190665B EQ PUSH2 0x34E JUMPI DUP1 PUSH4 0xEB96ED9C EQ PUSH2 0x36C JUMPI DUP1 PUSH4 0xF851A440 EQ PUSH2 0x388 JUMPI DUP1 PUSH4 0xFE45A81D EQ PUSH2 0x3A6 JUMPI PUSH2 0x10B JUMP JUMPDEST DUP1 PUSH4 0x846BCCE2 EQ PUSH2 0x263 JUMPI DUP1 PUSH4 0x8F9C79ED EQ PUSH2 0x299 JUMPI DUP1 PUSH4 0x93119A83 EQ PUSH2 0x2C9 JUMPI DUP1 PUSH4 0x996440C6 EQ PUSH2 0x302 JUMPI PUSH2 0x10B JUMP JUMPDEST DUP1 PUSH4 0x79111C1C GT PUSH2 0xDE JUMPI DUP1 PUSH4 0x79111C1C EQ PUSH2 0x1AC JUMPI DUP1 PUSH4 0x7E0A63AC EQ PUSH2 0x1CA JUMPI DUP1 PUSH4 0x7FED33FF EQ PUSH2 0x201 JUMPI DUP1 PUSH4 0x81DC6FD2 EQ PUSH2 0x232 JUMPI PUSH2 0x10B JUMP JUMPDEST DUP1 PUSH4 0x30FF6F15 EQ PUSH2 0x110 JUMPI DUP1 PUSH4 0x4D099648 EQ PUSH2 0x12C JUMPI DUP1 PUSH4 0x5A357C19 EQ PUSH2 0x148 JUMPI DUP1 PUSH4 0x6EFB1B84 EQ PUSH2 0x17A JUMPI JUMPDEST PUSH1 0x0 DUP1 REVERT JUMPDEST PUSH2 0x12A PUSH1 0x4 DUP1 CALLDATASIZE SUB DUP2 ADD SWAP1 PUSH2 0x125 SWAP2 SWAP1 PUSH2 0x26C2 JUMP JUMPDEST PUSH2 0x3C4 JUMP JUMPDEST STOP JUMPDEST PUSH2 0x146 PUSH1 0x4 DUP1 CALLDATASIZE SUB DUP2 ADD SWAP1 PUSH2 0x141 SWAP2 SWAP1 PUSH2 0x2731 JUMP JUMPDEST PUSH2 0x64F JUMP JUMPDEST STOP JUMPDEST PUSH2 0x162 PUSH1 0x4 DUP1 CALLDATASIZE SUB DUP2 ADD SWAP1 PUSH2 0x15D SWAP2 SWAP1 PUSH2 0x278D JUMP JUMPDEST PUSH2 0x7CF JUMP JUMPDEST PUSH1 0x40 MLOAD PUSH2 0x171 SWAP4 SWAP3 SWAP2 SWAP1 PUSH2 0x2848 JUMP JUMPDEST PUSH1 0x40 MLOAD DUP1 SWAP2 SUB SWAP1 RETURN JUMPDEST PUSH2 0x194 PUSH1 0x4 DUP1 CALLDATASIZE SUB DUP2 ADD SWAP1 PUSH2 0x18F SWAP2 SWAP1 PUSH2 0x278D JUMP JUMPDEST PUSH2 0xA7A JUMP JUMPDEST PUSH1 0x40 MLOAD PUSH2 0x1A3 SWAP4 SWAP3 SWAP2 SWAP1 PUSH2 0x289C JUMP JUMPDEST PUSH1 0x40 MLOAD DUP1 SWAP2 SUB SWAP1 RETURN JUMPDEST PUSH2 0x1B4 PUSH2 0xB5C JUMP JUMPDEST PUSH1 0x40 MLOAD PUSH2 0x1C1 SWAP2 SWAP1 PUSH2 0x28DA JUMP JUMPDEST PUSH1 0x40 MLOAD DUP1 SWAP2 SUB SWAP1 RETURN JUMPDEST PUSH2 0x1E4 PUSH1 0x4 DUP1 CALLDATASIZE SUB DUP2 ADD SWAP1 PUSH2 0x1DF SWAP2 SWAP1 PUSH2 0x28F5 JUMP JUMPDEST PUSH2 0xB69 JUMP JUMPDEST PUSH1 0x40 MLOAD PUSH2 0x1F8 SWAP9 SWAP8 SWAP7 SWAP6 SWAP5 SWAP4 SWAP3 SWAP2 SWAP1 PUSH2 0x2B08 JUMP JUMPDEST PUSH1 0x40 MLOAD DUP1 SWAP2 SUB SWAP1 RETURN JUMPDEST PUSH2 0x21B PUSH1 0x4 DUP1 CALLDATASIZE SUB DUP2 ADD SWAP1 PUSH2 0x216 SWAP2 SWAP1 PUSH2 0x278D JUMP JUMPDEST PUSH2 0x1328 JUMP JUMPDEST PUSH1 0x40 MLOAD PUSH2 0x229 SWAP3 SWAP2 SWAP1 PUSH2 0x2BBE JUMP JUMPDEST PUSH1 0x40 MLOAD DUP1 SWAP2 SUB SWAP1 RETURN JUMPDEST PUSH2 0x24C PUSH1 0x4 DUP1 CALLDATASIZE SUB DUP2 ADD SWAP1 PUSH2 0x247 SWAP2 SWAP1 PUSH2 0x278D JUMP JUMPDEST PUSH2 0x1473 JUMP JUMPDEST PUSH1 0x40 MLOAD PUSH2 0x25A SWAP3 SWAP2 SWAP1 PUSH2 0x2BBE JUMP JUMPDEST PUSH1 0x40 MLOAD DUP1 SWAP2 SUB SWAP1 RETURN JUMPDEST PUSH2 0x27D PUSH1 0x4 DUP1 CALLDATASIZE SUB DUP2 ADD SWAP1 PUSH2 0x278 SWAP2 SWAP1 PUSH2 0x278D JUMP JUMPDEST PUSH2 0x154F JUMP JUMPDEST PUSH1 0x40 MLOAD PUSH2 0x290 SWAP8 SWAP7 SWAP6 SWAP5 SWAP4 SWAP3 SWAP2 SWAP1 PUSH2 0x2BEE JUMP JUMPDEST PUSH1 0x40 MLOAD DUP1 SWAP2 SUB SWAP1 RETURN JUMPDEST PUSH2 0x2B3 PUSH1 0x4 DUP1 CALLDATASIZE SUB DUP2 ADD SWAP1 PUSH2 0x2AE SWAP2 SWAP1 PUSH2 0x2C8E JUMP JUMPDEST PUSH2 0x1C47 JUMP JUMPDEST PUSH1 0x40 MLOAD PUSH2 0x2C0 SWAP2 SWAP1 PUSH2 0x2CD6 JUMP JUMPDEST PUSH1 0x40 MLOAD DUP1 SWAP2 SUB SWAP1 RETURN JUMPDEST PUSH2 0x2E3 PUSH1 0x4 DUP1 CALLDATASIZE SUB DUP2 ADD SWAP1 PUSH2 0x2DE SWAP2 SWAP1 PUSH2 0x278D JUMP JUMPDEST PUSH2 0x1C67 JUMP JUMPDEST PUSH1 0x40 MLOAD PUSH2 0x2F9 SWAP11 SWAP10 SWAP9 SWAP8 SWAP7 SWAP6 SWAP5 SWAP4 SWAP3 SWAP2 SWAP1 PUSH2 0x2CF1 JUMP JUMPDEST PUSH1 0x40 MLOAD DUP1 SWAP2 SUB SWAP1 RETURN JUMPDEST PUSH2 0x31C PUSH1 0x4 DUP1 CALLDATASIZE SUB DUP2 ADD SWAP1 PUSH2 0x317 SWAP2 SWAP1 PUSH2 0x2C8E JUMP JUMPDEST PUSH2 0x1F73 JUMP JUMPDEST PUSH1 0x40 MLOAD PUSH2 0x329 SWAP2 SWAP1 PUSH2 0x2CD6 JUMP JUMPDEST PUSH1 0x40 MLOAD DUP1 SWAP2 SUB SWAP1 RETURN JUMPDEST PUSH2 0x34C PUSH1 0x4 DUP1 CALLDATASIZE SUB DUP2 ADD SWAP1 PUSH2 0x347 SWAP2 SWAP1 PUSH2 0x2DB0 JUMP JUMPDEST PUSH2 0x1F93 JUMP JUMPDEST STOP JUMPDEST PUSH2 0x356 PUSH2 0x22D3 JUMP JUMPDEST PUSH1 0x40 MLOAD PUSH2 0x363 SWAP2 SWAP1 PUSH2 0x28DA JUMP JUMPDEST PUSH1 0x40 MLOAD DUP1 SWAP2 SUB SWAP1 RETURN JUMPDEST PUSH2 0x386 PUSH1 0x4 DUP1 CALLDATASIZE SUB DUP2 ADD SWAP1 PUSH2 0x381 SWAP2 SWAP1 PUSH2 0x2E3B JUMP JUMPDEST PUSH2 0x22E0 JUMP JUMPDEST STOP JUMPDEST PUSH2 0x390 PUSH2 0x246C JUMP JUMPDEST PUSH1 0x40 MLOAD PUSH2 0x39D SWAP2 SWAP1 PUSH2 0x2F00 JUMP JUMPDEST PUSH1 0x40 MLOAD DUP1 SWAP2 SUB SWAP1 RETURN JUMPDEST PUSH2 0x3AE PUSH2 0x2490 JUMP JUMPDEST PUSH1 0x40 MLOAD PUSH2 0x3BB SWAP2 SWAP1 PUSH2 0x28DA JUMP JUMPDEST PUSH1 0x40 MLOAD DUP1 SWAP2 SUB SWAP1 RETURN JUMPDEST PUSH1 0x0 DUP1 JUMPDEST PUSH1 0x1 DUP1 SLOAD SWAP1 POP DUP2 LT ISZERO PUSH2 0x469 JUMPI CALLER PUSH20 0xFFFFFFFFFFFFFFFFFFFFFFFFFFFFFFFFFFFFFFFF AND PUSH1 0x1 DUP3 DUP2 SLOAD DUP2 LT PUSH2 0x400 JUMPI PUSH2 0x3FF PUSH2 0x2F1B JUMP JUMPDEST JUMPDEST SWAP1 PUSH1 0x0 MSTORE PUSH1 0x20 PUSH1 0x0 KECCAK256 SWAP1 PUSH1 0x2 MUL ADD PUSH1 0x1 ADD PUSH1 0x0 SWAP1 SLOAD SWAP1 PUSH2 0x100 EXP SWAP1 DIV PUSH20 0xFFFFFFFFFFFFFFFFFFFFFFFFFFFFFFFFFFFFFFFF AND PUSH20 0xFFFFFFFFFFFFFFFFFFFFFFFFFFFFFFFFFFFFFFFF AND SUB PUSH2 0x456 JUMPI PUSH1 0x1 SWAP2 POP PUSH2 0x469 JUMP JUMPDEST DUP1 DUP1 PUSH2 0x461 SWAP1 PUSH2 0x2F79 JUMP JUMPDEST SWAP2 POP POP PUSH2 0x3C8 JUMP JUMPDEST POP DUP1 PUSH2 0x4AA JUMPI PUSH1 0x40 MLOAD PUSH32 0x8C379A000000000000000000000000000000000000000000000000000000000 DUP2 MSTORE PUSH1 0x4 ADD PUSH2 0x4A1 SWAP1 PUSH2 0x3033 JUMP JUMPDEST PUSH1 0x40 MLOAD DUP1 SWAP2 SUB SWAP1 REVERT JUMPDEST PUSH1 0x1 DUP1 SLOAD SWAP1 POP DUP3 LT PUSH2 0x4F1 JUMPI PUSH1 0x40 MLOAD PUSH32 0x8C379A000000000000000000000000000000000000000000000000000000000 DUP2 MSTORE PUSH1 0x4 ADD PUSH2 0x4E8 SWAP1 PUSH2 0x309F JUMP JUMPDEST PUSH1 0x40 MLOAD DUP1 SWAP2 SUB SWAP1 REVERT JUMPDEST PUSH1 0x2 PUSH1 0x40 MLOAD DUP1 PUSH1 0x60 ADD PUSH1 0x40 MSTORE DUP1 DUP7 DUP2 MSTORE PUSH1 0x20 ADD DUP6 PUSH20 0xFFFFFFFFFFFFFFFFFFFFFFFFFFFFFFFFFFFFFFFF AND DUP2 MSTORE PUSH1 0x20 ADD DUP5 DUP2 MSTORE POP SWAP1 DUP1 PUSH1 0x1 DUP2 SLOAD ADD DUP1 DUP3 SSTORE DUP1 SWAP2 POP POP PUSH1 0x1 SWAP1 SUB SWAP1 PUSH1 0x0 MSTORE PUSH1 0x20 PUSH1 0x0 KECCAK256 SWAP1 PUSH1 0x3 MUL ADD PUSH1 0x0 SWAP1 SWAP2 SWAP1 SWAP2 SWAP1 SWAP2 POP PUSH1 0x0 DUP3 ADD MLOAD DUP2 PUSH1 0x0 ADD SWAP1 DUP2 PUSH2 0x562 SWAP2 SWAP1 PUSH2 0x32CB JUMP JUMPDEST POP PUSH1 0x20 DUP3 ADD MLOAD DUP2 PUSH1 0x1 ADD PUSH1 0x0 PUSH2 0x100 EXP DUP2 SLOAD DUP2 PUSH20 0xFFFFFFFFFFFFFFFFFFFFFFFFFFFFFFFFFFFFFFFF MUL NOT AND SWAP1 DUP4 PUSH20 0xFFFFFFFFFFFFFFFFFFFFFFFFFFFFFFFFFFFFFFFF AND MUL OR SWAP1 SSTORE POP PUSH1 0x40 DUP3 ADD MLOAD DUP2 PUSH1 0x2 ADD SSTORE POP POP PUSH1 0x1 PUSH1 0x5 PUSH1 0x0 DUP6 PUSH20 0xFFFFFFFFFFFFFFFFFFFFFFFFFFFFFFFFFFFFFFFF AND PUSH20 0xFFFFFFFFFFFFFFFFFFFFFFFFFFFFFFFFFFFFFFFF AND DUP2 MSTORE PUSH1 0x20 ADD SWAP1 DUP2 MSTORE PUSH1 0x20 ADD PUSH1 0x0 KECCAK256 PUSH1 0x0 PUSH2 0x100 EXP DUP2 SLOAD DUP2 PUSH1 0xFF MUL NOT AND SWAP1 DUP4 ISZERO ISZERO MUL OR SWAP1 SSTORE POP PUSH32 0x742C06A6CA71851C82C62C919B22AFA159C65A8CBBECF4C516EF3BC98131CCC6 DUP5 DUP5 DUP5 PUSH1 0x40 MLOAD PUSH2 0x641 SWAP4 SWAP3 SWAP2 SWAP1 PUSH2 0x289C JUMP JUMPDEST PUSH1 0x40 MLOAD DUP1 SWAP2 SUB SWAP1 LOG1 POP POP POP POP JUMP JUMPDEST PUSH1 0x0 DUP1 SLOAD SWAP1 PUSH2 0x100 EXP SWAP1 DIV PUSH20 0xFFFFFFFFFFFFFFFFFFFFFFFFFFFFFFFFFFFFFFFF AND PUSH20 0xFFFFFFFFFFFFFFFFFFFFFFFFFFFFFFFFFFFFFFFF AND CALLER PUSH20 0xFFFFFFFFFFFFFFFFFFFFFFFFFFFFFFFFFFFFFFFF AND EQ PUSH2 0x6DD JUMPI PUSH1 0x40 MLOAD PUSH32 0x8C379A000000000000000000000000000000000000000000000000000000000 DUP2 MSTORE PUSH1 0x4 ADD PUSH2 0x6D4 SWAP1 PUSH2 0x340F JUMP JUMPDEST PUSH1 0x40 MLOAD DUP1 SWAP2 SUB SWAP1 REVERT JUMPDEST PUSH1 0x1 PUSH1 0x40 MLOAD DUP1 PUSH1 0x40 ADD PUSH1 0x40 MSTORE DUP1 DUP5 DUP2 MSTORE PUSH1 0x20 ADD DUP4 PUSH20 0xFFFFFFFFFFFFFFFFFFFFFFFFFFFFFFFFFFFFFFFF AND DUP2 MSTORE POP SWAP1 DUP1 PUSH1 0x1 DUP2 SLOAD ADD DUP1 DUP3 SSTORE DUP1 SWAP2 POP POP PUSH1 0x1 SWAP1 SUB SWAP1 PUSH1 0x0 MSTORE PUSH1 0x20 PUSH1 0x0 KECCAK256 SWAP1 PUSH1 0x2 MUL ADD PUSH1 0x0 SWAP1 SWAP2 SWAP1 SWAP2 SWAP1 SWAP2 POP PUSH1 0x0 DUP3 ADD MLOAD DUP2 PUSH1 0x0 ADD SWAP1 DUP2 PUSH2 0x748 SWAP2 SWAP1 PUSH2 0x32CB JUMP JUMPDEST POP PUSH1 0x20 DUP3 ADD MLOAD DUP2 PUSH1 0x1 ADD PUSH1 0x0 PUSH2 0x100 EXP DUP2 SLOAD DUP2 PUSH20 0xFFFFFFFFFFFFFFFFFFFFFFFFFFFFFFFFFFFFFFFF MUL NOT AND SWAP1 DUP4 PUSH20 0xFFFFFFFFFFFFFFFFFFFFFFFFFFFFFFFFFFFFFFFF AND MUL OR SWAP1 SSTORE POP POP POP PUSH32 0xD46A3FFBE29F14555DFAEF3732F100CD93DAC8455BAFC3A294E2132E56E508B9 DUP3 DUP3 PUSH1 0x40 MLOAD PUSH2 0x7C3 SWAP3 SWAP2 SWAP1 PUSH2 0x2BBE JUMP JUMPDEST PUSH1 0x40 MLOAD DUP1 SWAP2 SUB SWAP1 LOG1 POP POP JUMP JUMPDEST PUSH1 0x60 PUSH1 0x0 PUSH1 0x60 PUSH1 0x2 DUP1 SLOAD SWAP1 POP DUP5 LT PUSH2 0x81C JUMPI PUSH1 0x40 MLOAD PUSH32 0x8C379A000000000000000000000000000000000000000000000000000000000 DUP2 MSTORE PUSH1 0x4 ADD PUSH2 0x813 SWAP1 PUSH2 0x347B JUMP JUMPDEST PUSH1 0x40 MLOAD DUP1 SWAP2 SUB SWAP1 REVERT JUMPDEST PUSH1 0x0 PUSH1 0x2 DUP6 DUP2 SLOAD DUP2 LT PUSH2 0x832 JUMPI PUSH2 0x831 PUSH2 0x2F1B JUMP JUMPDEST JUMPDEST SWAP1 PUSH1 0x0 MSTORE PUSH1 0x20 PUSH1 0x0 KECCAK256 SWAP1 PUSH1 0x3 MUL ADD PUSH1 0x40 MLOAD DUP1 PUSH1 0x60 ADD PUSH1 0x40 MSTORE SWAP1 DUP2 PUSH1 0x0 DUP3 ADD DUP1 SLOAD PUSH2 0x85B SWAP1 PUSH2 0x30EE JUMP JUMPDEST DUP1 PUSH1 0x1F ADD PUSH1 0x20 DUP1 SWAP2 DIV MUL PUSH1 0x20 ADD PUSH1 0x40 MLOAD SWAP1 DUP2 ADD PUSH1 0x40 MSTORE DUP1 SWAP3 SWAP2 SWAP1 DUP2 DUP2 MSTORE PUSH1 0x20 ADD DUP3 DUP1 SLOAD PUSH2 0x887 SWAP1 PUSH2 0x30EE JUMP JUMPDEST DUP1 ISZERO PUSH2 0x8D4 JUMPI DUP1 PUSH1 0x1F LT PUSH2 0x8A9 JUMPI PUSH2 0x100 DUP1 DUP4 SLOAD DIV MUL DUP4 MSTORE SWAP2 PUSH1 0x20 ADD SWAP2 PUSH2 0x8D4 JUMP JUMPDEST DUP3 ADD SWAP2 SWAP1 PUSH1 0x0 MSTORE PUSH1 0x20 PUSH1 0x0 KECCAK256 SWAP1 JUMPDEST DUP2 SLOAD DUP2 MSTORE SWAP1 PUSH1 0x1 ADD SWAP1 PUSH1 0x20 ADD DUP1 DUP4 GT PUSH2 0x8B7 JUMPI DUP3 SWAP1 SUB PUSH1 0x1F AND DUP3 ADD SWAP2 JUMPDEST POP POP POP POP POP DUP2 MSTORE PUSH1 0x20 ADD PUSH1 0x1 DUP3 ADD PUSH1 0x0 SWAP1 SLOAD SWAP1 PUSH2 0x100 EXP SWAP1 DIV PUSH20 0xFFFFFFFFFFFFFFFFFFFFFFFFFFFFFFFFFFFFFFFF AND PUSH20 0xFFFFFFFFFFFFFFFFFFFFFFFFFFFFFFFFFFFFFFFF AND PUSH20 0xFFFFFFFFFFFFFFFFFFFFFFFFFFFFFFFFFFFFFFFF AND DUP2 MSTORE PUSH1 0x20 ADD PUSH1 0x2 DUP3 ADD SLOAD DUP2 MSTORE POP POP SWAP1 POP PUSH1 0x0 PUSH1 0x1 DUP3 PUSH1 0x40 ADD MLOAD DUP2 SLOAD DUP2 LT PUSH2 0x959 JUMPI PUSH2 0x958 PUSH2 0x2F1B JUMP JUMPDEST JUMPDEST SWAP1 PUSH1 0x0 MSTORE PUSH1 0x20 PUSH1 0x0 KECCAK256 SWAP1 PUSH1 0x2 MUL ADD PUSH1 0x40 MLOAD DUP1 PUSH1 0x40 ADD PUSH1 0x40 MSTORE SWAP1 DUP2 PUSH1 0x0 DUP3 ADD DUP1 SLOAD PUSH2 0x982 SWAP1 PUSH2 0x30EE JUMP JUMPDEST DUP1 PUSH1 0x1F ADD PUSH1 0x20 DUP1 SWAP2 DIV MUL PUSH1 0x20 ADD PUSH1 0x40 MLOAD SWAP1 DUP2 ADD PUSH1 0x40 MSTORE DUP1 SWAP3 SWAP2 SWAP1 DUP2 DUP2 MSTORE PUSH1 0x20 ADD DUP3 DUP1 SLOAD PUSH2 0x9AE SWAP1 PUSH2 0x30EE JUMP JUMPDEST DUP1 ISZERO PUSH2 0x9FB JUMPI DUP1 PUSH1 0x1F LT PUSH2 0x9D0 JUMPI PUSH2 0x100 DUP1 DUP4 SLOAD DIV MUL DUP4 MSTORE SWAP2 PUSH1 0x20 ADD SWAP2 PUSH2 0x9FB JUMP JUMPDEST DUP3 ADD SWAP2 SWAP1 PUSH1 0x0 MSTORE PUSH1 0x20 PUSH1 0x0 KECCAK256 SWAP1 JUMPDEST DUP2 SLOAD DUP2 MSTORE SWAP1 PUSH1 0x1 ADD SWAP1 PUSH1 0x20 ADD DUP1 DUP4 GT PUSH2 0x9DE JUMPI DUP3 SWAP1 SUB PUSH1 0x1F AND DUP3 ADD SWAP2 JUMPDEST POP POP POP POP POP DUP2 MSTORE PUSH1 0x20 ADD PUSH1 0x1 DUP3 ADD PUSH1 0x0 SWAP1 SLOAD SWAP1 PUSH2 0x100 EXP SWAP1 DIV PUSH20 0xFFFFFFFFFFFFFFFFFFFFFFFFFFFFFFFFFFFFFFFF AND PUSH20 0xFFFFFFFFFFFFFFFFFFFFFFFFFFFFFFFFFFFFFFFF AND PUSH20 0xFFFFFFFFFFFFFFFFFFFFFFFFFFFFFFFFFFFFFFFF AND DUP2 MSTORE POP POP SWAP1 POP DUP2 PUSH1 0x0 ADD MLOAD DUP3 PUSH1 0x20 ADD MLOAD DUP3 PUSH1 0x0 ADD MLOAD SWAP5 POP SWAP5 POP SWAP5 POP POP POP SWAP2 SWAP4 SWAP1 SWAP3 POP JUMP JUMPDEST PUSH1 0x2 DUP2 DUP2 SLOAD DUP2 LT PUSH2 0xA8A JUMPI PUSH1 0x0 DUP1 REVERT JUMPDEST SWAP1 PUSH1 0x0 MSTORE PUSH1 0x20 PUSH1 0x0 KECCAK256 SWAP1 PUSH1 0x3 MUL ADD PUSH1 0x0 SWAP2 POP SWAP1 POP DUP1 PUSH1 0x0 ADD DUP1 SLOAD PUSH2 0xAAD SWAP1 PUSH2 0x30EE JUMP JUMPDEST DUP1 PUSH1 0x1F ADD PUSH1 0x20 DUP1 SWAP2 DIV MUL PUSH1 0x20 ADD PUSH1 0x40 MLOAD SWAP1 DUP2 ADD PUSH1 0x40 MSTORE DUP1 SWAP3 SWAP2 SWAP1 DUP2 DUP2 MSTORE PUSH1 0x20 ADD DUP3 DUP1 SLOAD PUSH2 0xAD9 SWAP1 PUSH2 0x30EE JUMP JUMPDEST DUP1 ISZERO PUSH2 0xB26 JUMPI DUP1 PUSH1 0x1F LT PUSH2 0xAFB JUMPI PUSH2 0x100 DUP1 DUP4 SLOAD DIV MUL DUP4 MSTORE SWAP2 PUSH1 0x20 ADD SWAP2 PUSH2 0xB26 JUMP JUMPDEST DUP3 ADD SWAP2 SWAP1 PUSH1 0x0 MSTORE PUSH1 0x20 PUSH1 0x0 KECCAK256 SWAP1 JUMPDEST DUP2 SLOAD DUP2 MSTORE SWAP1 PUSH1 0x1 ADD SWAP1 PUSH1 0x20 ADD DUP1 DUP4 GT PUSH2 0xB09 JUMPI DUP3 SWAP1 SUB PUSH1 0x1F AND DUP3 ADD SWAP2 JUMPDEST POP POP POP POP POP SWAP1 DUP1 PUSH1 0x1 ADD PUSH1 0x0 SWAP1 SLOAD SWAP1 PUSH2 0x100 EXP SWAP1 DIV PUSH20 0xFFFFFFFFFFFFFFFFFFFFFFFFFFFFFFFFFFFFFFFF AND SWAP1 DUP1 PUSH1 0x2 ADD SLOAD SWAP1 POP DUP4 JUMP JUMPDEST PUSH1 0x0 PUSH1 0x2 DUP1 SLOAD SWAP1 POP SWAP1 POP SWAP1 JUMP JUMPDEST PUSH1 0x60 DUP1 PUSH1 0x60 DUP1 PUSH1 0x60 DUP1 PUSH1 0x60 DUP1 PUSH1 0x0 DUP1 JUMPDEST PUSH1 0x3 DUP1 SLOAD SWAP1 POP DUP2 LT ISZERO PUSH2 0xBEF JUMPI DUP11 DUP1 MLOAD SWAP1 PUSH1 0x20 ADD KECCAK256 PUSH1 0x3 DUP3 DUP2 SLOAD DUP2 LT PUSH2 0xBA2 JUMPI PUSH2 0xBA1 PUSH2 0x2F1B JUMP JUMPDEST JUMPDEST SWAP1 PUSH1 0x0 MSTORE PUSH1 0x20 PUSH1 0x0 KECCAK256 SWAP1 PUSH1 0xA MUL ADD PUSH1 0x0 ADD PUSH1 0x40 MLOAD PUSH2 0xBC0 SWAP2 SWAP1 PUSH2 0x353E JUMP JUMPDEST PUSH1 0x40 MLOAD DUP1 SWAP2 SUB SWAP1 KECCAK256 SUB PUSH2 0xBDC JUMPI DUP2 DUP1 PUSH2 0xBD8 SWAP1 PUSH2 0x2F79 JUMP JUMPDEST SWAP3 POP POP JUMPDEST DUP1 DUP1 PUSH2 0xBE7 SWAP1 PUSH2 0x2F79 JUMP JUMPDEST SWAP2 POP POP PUSH2 0xB79 JUMP JUMPDEST POP DUP1 PUSH8 0xFFFFFFFFFFFFFFFF DUP2 GT ISZERO PUSH2 0xC0A JUMPI PUSH2 0xC09 PUSH2 0x2503 JUMP JUMPDEST JUMPDEST PUSH1 0x40 MLOAD SWAP1 DUP1 DUP3 MSTORE DUP1 PUSH1 0x20 MUL PUSH1 0x20 ADD DUP3 ADD PUSH1 0x40 MSTORE DUP1 ISZERO PUSH2 0xC3D JUMPI DUP2 PUSH1 0x20 ADD JUMPDEST PUSH1 0x60 DUP2 MSTORE PUSH1 0x20 ADD SWAP1 PUSH1 0x1 SWAP1 SUB SWAP1 DUP2 PUSH2 0xC28 JUMPI SWAP1 POP JUMPDEST POP SWAP9 POP DUP1 PUSH8 0xFFFFFFFFFFFFFFFF DUP2 GT ISZERO PUSH2 0xC5A JUMPI PUSH2 0xC59 PUSH2 0x2503 JUMP JUMPDEST JUMPDEST PUSH1 0x40 MLOAD SWAP1 DUP1 DUP3 MSTORE DUP1 PUSH1 0x20 MUL PUSH1 0x20 ADD DUP3 ADD PUSH1 0x40 MSTORE DUP1 ISZERO PUSH2 0xC88 JUMPI DUP2 PUSH1 0x20 ADD PUSH1 0x20 DUP3 MUL DUP1 CALLDATASIZE DUP4 CALLDATACOPY DUP1 DUP3 ADD SWAP2 POP POP SWAP1 POP JUMPDEST POP SWAP8 POP DUP1 PUSH8 0xFFFFFFFFFFFFFFFF DUP2 GT ISZERO PUSH2 0xCA5 JUMPI PUSH2 0xCA4 PUSH2 0x2503 JUMP JUMPDEST JUMPDEST PUSH1 0x40 MLOAD SWAP1 DUP1 DUP3 MSTORE DUP1 PUSH1 0x20 MUL PUSH1 0x20 ADD DUP3 ADD PUSH1 0x40 MSTORE DUP1 ISZERO PUSH2 0xCD3 JUMPI DUP2 PUSH1 0x20 ADD PUSH1 0x20 DUP3 MUL DUP1 CALLDATASIZE DUP4 CALLDATACOPY DUP1 DUP3 ADD SWAP2 POP POP SWAP1 POP JUMPDEST POP SWAP7 POP DUP1 PUSH8 0xFFFFFFFFFFFFFFFF DUP2 GT ISZERO PUSH2 0xCF0 JUMPI PUSH2 0xCEF PUSH2 0x2503 JUMP JUMPDEST JUMPDEST PUSH1 0x40 MLOAD SWAP1 DUP1 DUP3 MSTORE DUP1 PUSH1 0x20 MUL PUSH1 0x20 ADD DUP3 ADD PUSH1 0x40 MSTORE DUP1 ISZERO PUSH2 0xD1E JUMPI DUP2 PUSH1 0x20 ADD PUSH1 0x20 DUP3 MUL DUP1 CALLDATASIZE DUP4 CALLDATACOPY DUP1 DUP3 ADD SWAP2 POP POP SWAP1 POP JUMPDEST POP SWAP6 POP DUP1 PUSH8 0xFFFFFFFFFFFFFFFF DUP2 GT ISZERO PUSH2 0xD3B JUMPI PUSH2 0xD3A PUSH2 0x2503 JUMP JUMPDEST JUMPDEST PUSH1 0x40 MLOAD SWAP1 DUP1 DUP3 MSTORE DUP1 PUSH1 0x20 MUL PUSH1 0x20 ADD DUP3 ADD PUSH1 0x40 MSTORE DUP1 ISZERO PUSH2 0xD69 JUMPI DUP2 PUSH1 0x20 ADD PUSH1 0x20 DUP3 MUL DUP1 CALLDATASIZE DUP4 CALLDATACOPY DUP1 DUP3 ADD SWAP2 POP POP SWAP1 POP JUMPDEST POP SWAP5 POP DUP1 PUSH8 0xFFFFFFFFFFFFFFFF DUP2 GT ISZERO PUSH2 0xD86 JUMPI PUSH2 0xD85 PUSH2 0x2503 JUMP JUMPDEST JUMPDEST PUSH1 0x40 MLOAD SWAP1 DUP1 DUP3 MSTORE DUP1 PUSH1 0x20 MUL PUSH1 0x20 ADD DUP3 ADD PUSH1 0x40 MSTORE DUP1 ISZERO PUSH2 0xDB9 JUMPI DUP2 PUSH1 0x20 ADD JUMPDEST PUSH1 0x60 DUP2 MSTORE PUSH1 0x20 ADD SWAP1 PUSH1 0x1 SWAP1 SUB SWAP1 DUP2 PUSH2 0xDA4 JUMPI SWAP1 POP JUMPDEST POP SWAP4 POP DUP1 PUSH8 0xFFFFFFFFFFFFFFFF DUP2 GT ISZERO PUSH2 0xDD6 JUMPI PUSH2 0xDD5 PUSH2 0x2503 JUMP JUMPDEST JUMPDEST PUSH1 0x40 MLOAD SWAP1 DUP1 DUP3 MSTORE DUP1 PUSH1 0x20 MUL PUSH1 0x20 ADD DUP3 ADD PUSH1 0x40 MSTORE DUP1 ISZERO PUSH2 0xE09 JUMPI DUP2 PUSH1 0x20 ADD JUMPDEST PUSH1 0x60 DUP2 MSTORE PUSH1 0x20 ADD SWAP1 PUSH1 0x1 SWAP1 SUB SWAP1 DUP2 PUSH2 0xDF4 JUMPI SWAP1 POP JUMPDEST POP SWAP3 POP DUP1 PUSH8 0xFFFFFFFFFFFFFFFF DUP2 GT ISZERO PUSH2 0xE26 JUMPI PUSH2 0xE25 PUSH2 0x2503 JUMP JUMPDEST JUMPDEST PUSH1 0x40 MLOAD SWAP1 DUP1 DUP3 MSTORE DUP1 PUSH1 0x20 MUL PUSH1 0x20 ADD DUP3 ADD PUSH1 0x40 MSTORE DUP1 ISZERO PUSH2 0xE59 JUMPI DUP2 PUSH1 0x20 ADD JUMPDEST PUSH1 0x60 DUP2 MSTORE PUSH1 0x20 ADD SWAP1 PUSH1 0x1 SWAP1 SUB SWAP1 DUP2 PUSH2 0xE44 JUMPI SWAP1 POP JUMPDEST POP SWAP2 POP PUSH1 0x0 DUP1 JUMPDEST PUSH1 0x3 DUP1 SLOAD SWAP1 POP DUP2 LT ISZERO PUSH2 0x131A JUMPI DUP12 DUP1 MLOAD SWAP1 PUSH1 0x20 ADD KECCAK256 PUSH1 0x3 DUP3 DUP2 SLOAD DUP2 LT PUSH2 0xE89 JUMPI PUSH2 0xE88 PUSH2 0x2F1B JUMP JUMPDEST JUMPDEST SWAP1 PUSH1 0x0 MSTORE PUSH1 0x20 PUSH1 0x0 KECCAK256 SWAP1 PUSH1 0xA MUL ADD PUSH1 0x0 ADD PUSH1 0x40 MLOAD PUSH2 0xEA7 SWAP2 SWAP1 PUSH2 0x353E JUMP JUMPDEST PUSH1 0x40 MLOAD DUP1 SWAP2 SUB SWAP1 KECCAK256 SUB PUSH2 0x1307 JUMPI PUSH1 0x3 DUP2 DUP2 SLOAD DUP2 LT PUSH2 0xEC8 JUMPI PUSH2 0xEC7 PUSH2 0x2F1B JUMP JUMPDEST JUMPDEST SWAP1 PUSH1 0x0 MSTORE PUSH1 0x20 PUSH1 0x0 KECCAK256 SWAP1 PUSH1 0xA MUL ADD PUSH1 0x0 ADD DUP1 SLOAD PUSH2 0xEE4 SWAP1 PUSH2 0x30EE JUMP JUMPDEST DUP1 PUSH1 0x1F ADD PUSH1 0x20 DUP1 SWAP2 DIV MUL PUSH1 0x20 ADD PUSH1 0x40 MLOAD SWAP1 DUP2 ADD PUSH1 0x40 MSTORE DUP1 SWAP3 SWAP2 SWAP1 DUP2 DUP2 MSTORE PUSH1 0x20 ADD DUP3 DUP1 SLOAD PUSH2 0xF10 SWAP1 PUSH2 0x30EE JUMP JUMPDEST DUP1 ISZERO PUSH2 0xF5D JUMPI DUP1 PUSH1 0x1F LT PUSH2 0xF32 JUMPI PUSH2 0x100 DUP1 DUP4 SLOAD DIV MUL DUP4 MSTORE SWAP2 PUSH1 0x20 ADD SWAP2 PUSH2 0xF5D JUMP JUMPDEST DUP3 ADD SWAP2 SWAP1 PUSH1 0x0 MSTORE PUSH1 0x20 PUSH1 0x0 KECCAK256 SWAP1 JUMPDEST DUP2 SLOAD DUP2 MSTORE SWAP1 PUSH1 0x1 ADD SWAP1 PUSH1 0x20 ADD DUP1 DUP4 GT PUSH2 0xF40 JUMPI DUP3 SWAP1 SUB PUSH1 0x1F AND DUP3 ADD SWAP2 JUMPDEST POP POP POP POP POP DUP12 DUP4 DUP2 MLOAD DUP2 LT PUSH2 0xF75 JUMPI PUSH2 0xF74 PUSH2 0x2F1B JUMP JUMPDEST JUMPDEST PUSH1 0x20 MUL PUSH1 0x20 ADD ADD DUP2 SWAP1 MSTORE POP PUSH1 0x3 DUP2 DUP2 SLOAD DUP2 LT PUSH2 0xF94 JUMPI PUSH2 0xF93 PUSH2 0x2F1B JUMP JUMPDEST JUMPDEST SWAP1 PUSH1 0x0 MSTORE PUSH1 0x20 PUSH1 0x0 KECCAK256 SWAP1 PUSH1 0xA MUL ADD PUSH1 0x1 ADD SLOAD DUP11 DUP4 DUP2 MLOAD DUP2 LT PUSH2 0xFB9 JUMPI PUSH2 0xFB8 PUSH2 0x2F1B JUMP JUMPDEST JUMPDEST PUSH1 0x20 MUL PUSH1 0x20 ADD ADD DUP2 DUP2 MSTORE POP POP PUSH1 0x3 DUP2 DUP2 SLOAD DUP2 LT PUSH2 0xFD9 JUMPI PUSH2 0xFD8 PUSH2 0x2F1B JUMP JUMPDEST JUMPDEST SWAP1 PUSH1 0x0 MSTORE PUSH1 0x20 PUSH1 0x0 KECCAK256 SWAP1 PUSH1 0xA MUL ADD PUSH1 0x2 ADD SLOAD DUP10 DUP4 DUP2 MLOAD DUP2 LT PUSH2 0xFFE JUMPI PUSH2 0xFFD PUSH2 0x2F1B JUMP JUMPDEST JUMPDEST PUSH1 0x20 MUL PUSH1 0x20 ADD ADD DUP2 DUP2 MSTORE POP POP PUSH1 0x3 DUP2 DUP2 SLOAD DUP2 LT PUSH2 0x101E JUMPI PUSH2 0x101D PUSH2 0x2F1B JUMP JUMPDEST JUMPDEST SWAP1 PUSH1 0x0 MSTORE PUSH1 0x20 PUSH1 0x0 KECCAK256 SWAP1 PUSH1 0xA MUL ADD PUSH1 0x3 ADD SLOAD DUP9 DUP4 DUP2 MLOAD DUP2 LT PUSH2 0x1043 JUMPI PUSH2 0x1042 PUSH2 0x2F1B JUMP JUMPDEST JUMPDEST PUSH1 0x20 MUL PUSH1 0x20 ADD ADD DUP2 DUP2 MSTORE POP POP PUSH1 0x3 DUP2 DUP2 SLOAD DUP2 LT PUSH2 0x1063 JUMPI PUSH2 0x1062 PUSH2 0x2F1B JUMP JUMPDEST JUMPDEST SWAP1 PUSH1 0x0 MSTORE PUSH1 0x20 PUSH1 0x0 KECCAK256 SWAP1 PUSH1 0xA MUL ADD PUSH1 0x4 ADD SLOAD DUP8 DUP4 DUP2 MLOAD DUP2 LT PUSH2 0x1088 JUMPI PUSH2 0x1087 PUSH2 0x2F1B JUMP JUMPDEST JUMPDEST PUSH1 0x20 MUL PUSH1 0x20 ADD ADD DUP2 DUP2 MSTORE POP POP PUSH1 0x3 DUP2 DUP2 SLOAD DUP2 LT PUSH2 0x10A8 JUMPI PUSH2 0x10A7 PUSH2 0x2F1B JUMP JUMPDEST JUMPDEST SWAP1 PUSH1 0x0 MSTORE PUSH1 0x20 PUSH1 0x0 KECCAK256 SWAP1 PUSH1 0xA MUL ADD PUSH1 0x7 ADD DUP1 SLOAD PUSH2 0x10C4 SWAP1 PUSH2 0x30EE JUMP JUMPDEST DUP1 PUSH1 0x1F ADD PUSH1 0x20 DUP1 SWAP2 DIV MUL PUSH1 0x20 ADD PUSH1 0x40 MLOAD SWAP1 DUP2 ADD PUSH1 0x40 MSTORE DUP1 SWAP3 SWAP2 SWAP1 DUP2 DUP2 MSTORE PUSH1 0x20 ADD DUP3 DUP1 SLOAD PUSH2 0x10F0 SWAP1 PUSH2 0x30EE JUMP JUMPDEST DUP1 ISZERO PUSH2 0x113D JUMPI DUP1 PUSH1 0x1F LT PUSH2 0x1112 JUMPI PUSH2 0x100 DUP1 DUP4 SLOAD DIV MUL DUP4 MSTORE SWAP2 PUSH1 0x20 ADD SWAP2 PUSH2 0x113D JUMP JUMPDEST DUP3 ADD SWAP2 SWAP1 PUSH1 0x0 MSTORE PUSH1 0x20 PUSH1 0x0 KECCAK256 SWAP1 JUMPDEST DUP2 SLOAD DUP2 MSTORE SWAP1 PUSH1 0x1 ADD SWAP1 PUSH1 0x20 ADD DUP1 DUP4 GT PUSH2 0x1120 JUMPI DUP3 SWAP1 SUB PUSH1 0x1F AND DUP3 ADD SWAP2 JUMPDEST POP POP POP POP POP DUP7 DUP4 DUP2 MLOAD DUP2 LT PUSH2 0x1155 JUMPI PUSH2 0x1154 PUSH2 0x2F1B JUMP JUMPDEST JUMPDEST PUSH1 0x20 MUL PUSH1 0x20 ADD ADD DUP2 SWAP1 MSTORE POP PUSH1 0x3 DUP2 DUP2 SLOAD DUP2 LT PUSH2 0x1174 JUMPI PUSH2 0x1173 PUSH2 0x2F1B JUMP JUMPDEST JUMPDEST SWAP1 PUSH1 0x0 MSTORE PUSH1 0x20 PUSH1 0x0 KECCAK256 SWAP1 PUSH1 0xA MUL ADD PUSH1 0x8 ADD DUP1 SLOAD PUSH2 0x1190 SWAP1 PUSH2 0x30EE JUMP JUMPDEST DUP1 PUSH1 0x1F ADD PUSH1 0x20 DUP1 SWAP2 DIV MUL PUSH1 0x20 ADD PUSH1 0x40 MLOAD SWAP1 DUP2 ADD PUSH1 0x40 MSTORE DUP1 SWAP3 SWAP2 SWAP1 DUP2 DUP2 MSTORE PUSH1 0x20 ADD DUP3 DUP1 SLOAD PUSH2 0x11BC SWAP1 PUSH2 0x30EE JUMP JUMPDEST DUP1 ISZERO PUSH2 0x1209 JUMPI DUP1 PUSH1 0x1F LT PUSH2 0x11DE JUMPI PUSH2 0x100 DUP1 DUP4 SLOAD DIV MUL DUP4 MSTORE SWAP2 PUSH1 0x20 ADD SWAP2 PUSH2 0x1209 JUMP JUMPDEST DUP3 ADD SWAP2 SWAP1 PUSH1 0x0 MSTORE PUSH1 0x20 PUSH1 0x0 KECCAK256 SWAP1 JUMPDEST DUP2 SLOAD DUP2 MSTORE SWAP1 PUSH1 0x1 ADD SWAP1 PUSH1 0x20 ADD DUP1 DUP4 GT PUSH2 0x11EC JUMPI DUP3 SWAP1 SUB PUSH1 0x1F AND DUP3 ADD SWAP2 JUMPDEST POP POP POP POP POP DUP6 DUP4 DUP2 MLOAD DUP2 LT PUSH2 0x1221 JUMPI PUSH2 0x1220 PUSH2 0x2F1B JUMP JUMPDEST JUMPDEST PUSH1 0x20 MUL PUSH1 0x20 ADD ADD DUP2 SWAP1 MSTORE POP PUSH1 0x3 DUP2 DUP2 SLOAD DUP2 LT PUSH2 0x1240 JUMPI PUSH2 0x123F PUSH2 0x2F1B JUMP JUMPDEST JUMPDEST SWAP1 PUSH1 0x0 MSTORE PUSH1 0x20 PUSH1 0x0 KECCAK256 SWAP1 PUSH1 0xA MUL ADD PUSH1 0x9 ADD DUP1 SLOAD PUSH2 0x125C SWAP1 PUSH2 0x30EE JUMP JUMPDEST DUP1 PUSH1 0x1F ADD PUSH1 0x20 DUP1 SWAP2 DIV MUL PUSH1 0x20 ADD PUSH1 0x40 MLOAD SWAP1 DUP2 ADD PUSH1 0x40 MSTORE DUP1 SWAP3 SWAP2 SWAP1 DUP2 DUP2 MSTORE PUSH1 0x20 ADD DUP3 DUP1 SLOAD PUSH2 0x1288 SWAP1 PUSH2 0x30EE JUMP JUMPDEST DUP1 ISZERO PUSH2 0x12D5 JUMPI DUP1 PUSH1 0x1F LT PUSH2 0x12AA JUMPI PUSH2 0x100 DUP1 DUP4 SLOAD DIV MUL DUP4 MSTORE SWAP2 PUSH1 0x20 ADD SWAP2 PUSH2 0x12D5 JUMP JUMPDEST DUP3 ADD SWAP2 SWAP1 PUSH1 0x0 MSTORE PUSH1 0x20 PUSH1 0x0 KECCAK256 SWAP1 JUMPDEST DUP2 SLOAD DUP2 MSTORE SWAP1 PUSH1 0x1 ADD SWAP1 PUSH1 0x20 ADD DUP1 DUP4 GT PUSH2 0x12B8 JUMPI DUP3 SWAP1 SUB PUSH1 0x1F AND DUP3 ADD SWAP2 JUMPDEST POP POP POP POP POP DUP5 DUP4 DUP2 MLOAD DUP2 LT PUSH2 0x12ED JUMPI PUSH2 0x12EC PUSH2 0x2F1B JUMP JUMPDEST JUMPDEST PUSH1 0x20 MUL PUSH1 0x20 ADD ADD DUP2 SWAP1 MSTORE POP DUP2 DUP1 PUSH2 0x1303 SWAP1 PUSH2 0x2F79 JUMP JUMPDEST SWAP3 POP POP JUMPDEST DUP1 DUP1 PUSH2 0x1312 SWAP1 PUSH2 0x2F79 JUMP JUMPDEST SWAP2 POP POP PUSH2 0xE60 JUMP JUMPDEST POP POP POP SWAP2 SWAP4 SWAP6 SWAP8 POP SWAP2 SWAP4 SWAP6 SWAP8 JUMP JUMPDEST PUSH1 0x60 PUSH1 0x0 PUSH1 0x1 DUP1 SLOAD SWAP1 POP DUP4 LT PUSH2 0x1373 JUMPI PUSH1 0x40 MLOAD PUSH32 0x8C379A000000000000000000000000000000000000000000000000000000000 DUP2 MSTORE PUSH1 0x4 ADD PUSH2 0x136A SWAP1 PUSH2 0x309F JUMP JUMPDEST PUSH1 0x40 MLOAD DUP1 SWAP2 SUB SWAP1 REVERT JUMPDEST PUSH1 0x1 DUP4 DUP2 SLOAD DUP2 LT PUSH2 0x1387 JUMPI PUSH2 0x1386 PUSH2 0x2F1B JUMP JUMPDEST JUMPDEST SWAP1 PUSH1 0x0 MSTORE PUSH1 0x20 PUSH1 0x0 KECCAK256 SWAP1 PUSH1 0x2 MUL ADD PUSH1 0x0 ADD PUSH1 0x1 DUP5 DUP2 SLOAD DUP2 LT PUSH2 0x13AC JUMPI PUSH2 0x13AB PUSH2 0x2F1B JUMP JUMPDEST JUMPDEST SWAP1 PUSH1 0x0 MSTORE PUSH1 0x20 PUSH1 0x0 KECCAK256 SWAP1 PUSH1 0x2 MUL ADD PUSH1 0x1 ADD PUSH1 0x0 SWAP1 SLOAD SWAP1 PUSH2 0x100 EXP SWAP1 DIV PUSH20 0xFFFFFFFFFFFFFFFFFFFFFFFFFFFFFFFFFFFFFFFF AND DUP2 DUP1 SLOAD PUSH2 0x13EA SWAP1 PUSH2 0x30EE JUMP JUMPDEST DUP1 PUSH1 0x1F ADD PUSH1 0x20 DUP1 SWAP2 DIV MUL PUSH1 0x20 ADD PUSH1 0x40 MLOAD SWAP1 DUP2 ADD PUSH1 0x40 MSTORE DUP1 SWAP3 SWAP2 SWAP1 DUP2 DUP2 MSTORE PUSH1 0x20 ADD DUP3 DUP1 SLOAD PUSH2 0x1416 SWAP1 PUSH2 0x30EE JUMP JUMPDEST DUP1 ISZERO PUSH2 0x1463 JUMPI DUP1 PUSH1 0x1F LT PUSH2 0x1438 JUMPI PUSH2 0x100 DUP1 DUP4 SLOAD DIV MUL DUP4 MSTORE SWAP2 PUSH1 0x20 ADD SWAP2 PUSH2 0x1463 JUMP JUMPDEST DUP3 ADD SWAP2 SWAP1 PUSH1 0x0 MSTORE PUSH1 0x20 PUSH1 0x0 KECCAK256 SWAP1 JUMPDEST DUP2 SLOAD DUP2 MSTORE SWAP1 PUSH1 0x1 ADD SWAP1 PUSH1 0x20 ADD DUP1 DUP4 GT PUSH2 0x1446 JUMPI DUP3 SWAP1 SUB PUSH1 0x1F AND DUP3 ADD SWAP2 JUMPDEST POP POP POP POP POP SWAP2 POP SWAP2 POP SWAP2 POP SWAP2 POP SWAP2 JUMP JUMPDEST PUSH1 0x1 DUP2 DUP2 SLOAD DUP2 LT PUSH2 0x1483 JUMPI PUSH1 0x0 DUP1 REVERT JUMPDEST SWAP1 PUSH1 0x0 MSTORE PUSH1 0x20 PUSH1 0x0 KECCAK256 SWAP1 PUSH1 0x2 MUL ADD PUSH1 0x0 SWAP2 POP SWAP1 POP DUP1 PUSH1 0x0 ADD DUP1 SLOAD PUSH2 0x14A6 SWAP1 PUSH2 0x30EE JUMP JUMPDEST DUP1 PUSH1 0x1F ADD PUSH1 0x20 DUP1 SWAP2 DIV MUL PUSH1 0x20 ADD PUSH1 0x40 MLOAD SWAP1 DUP2 ADD PUSH1 0x40 MSTORE DUP1 SWAP3 SWAP2 SWAP1 DUP2 DUP2 MSTORE PUSH1 0x20 ADD DUP3 DUP1 SLOAD PUSH2 0x14D2 SWAP1 PUSH2 0x30EE JUMP JUMPDEST DUP1 ISZERO PUSH2 0x151F JUMPI DUP1 PUSH1 0x1F LT PUSH2 0x14F4 JUMPI PUSH2 0x100 DUP1 DUP4 SLOAD DIV MUL DUP4 MSTORE SWAP2 PUSH1 0x20 ADD SWAP2 PUSH2 0x151F JUMP JUMPDEST DUP3 ADD SWAP2 SWAP1 PUSH1 0x0 MSTORE PUSH1 0x20 PUSH1 0x0 KECCAK256 SWAP1 JUMPDEST DUP2 SLOAD DUP2 MSTORE SWAP1 PUSH1 0x1 ADD SWAP1 PUSH1 0x20 ADD DUP1 DUP4 GT PUSH2 0x1502 JUMPI DUP3 SWAP1 SUB PUSH1 0x1F AND DUP3 ADD SWAP2 JUMPDEST POP POP POP POP POP SWAP1 DUP1 PUSH1 0x1 ADD PUSH1 0x0 SWAP1 SLOAD SWAP1 PUSH2 0x100 EXP SWAP1 DIV PUSH20 0xFFFFFFFFFFFFFFFFFFFFFFFFFFFFFFFFFFFFFFFF AND SWAP1 POP DUP3 JUMP JUMPDEST PUSH1 0x60 DUP1 PUSH1 0x60 DUP1 PUSH1 0x60 DUP1 PUSH1 0x60 PUSH1 0x0 DUP1 JUMPDEST PUSH1 0x3 DUP1 SLOAD SWAP1 POP DUP2 LT ISZERO PUSH2 0x15B9 JUMPI DUP10 PUSH1 0x3 DUP3 DUP2 SLOAD DUP2 LT PUSH2 0x1580 JUMPI PUSH2 0x157F PUSH2 0x2F1B JUMP JUMPDEST JUMPDEST SWAP1 PUSH1 0x0 MSTORE PUSH1 0x20 PUSH1 0x0 KECCAK256 SWAP1 PUSH1 0xA MUL ADD PUSH1 0x4 ADD SLOAD SUB PUSH2 0x15A6 JUMPI DUP2 DUP1 PUSH2 0x15A2 SWAP1 PUSH2 0x2F79 JUMP JUMPDEST SWAP3 POP POP JUMPDEST DUP1 DUP1 PUSH2 0x15B1 SWAP1 PUSH2 0x2F79 JUMP JUMPDEST SWAP2 POP POP PUSH2 0x155E JUMP JUMPDEST POP DUP1 PUSH8 0xFFFFFFFFFFFFFFFF DUP2 GT ISZERO PUSH2 0x15D4 JUMPI PUSH2 0x15D3 PUSH2 0x2503 JUMP JUMPDEST JUMPDEST PUSH1 0x40 MLOAD SWAP1 DUP1 DUP3 MSTORE DUP1 PUSH1 0x20 MUL PUSH1 0x20 ADD DUP3 ADD PUSH1 0x40 MSTORE DUP1 ISZERO PUSH2 0x1607 JUMPI DUP2 PUSH1 0x20 ADD JUMPDEST PUSH1 0x60 DUP2 MSTORE PUSH1 0x20 ADD SWAP1 PUSH1 0x1 SWAP1 SUB SWAP1 DUP2 PUSH2 0x15F2 JUMPI SWAP1 POP JUMPDEST POP SWAP8 POP DUP1 PUSH8 0xFFFFFFFFFFFFFFFF DUP2 GT ISZERO PUSH2 0x1624 JUMPI PUSH2 0x1623 PUSH2 0x2503 JUMP JUMPDEST JUMPDEST PUSH1 0x40 MLOAD SWAP1 DUP1 DUP3 MSTORE DUP1 PUSH1 0x20 MUL PUSH1 0x20 ADD DUP3 ADD PUSH1 0x40 MSTORE DUP1 ISZERO PUSH2 0x1652 JUMPI DUP2 PUSH1 0x20 ADD PUSH1 0x20 DUP3 MUL DUP1 CALLDATASIZE DUP4 CALLDATACOPY DUP1 DUP3 ADD SWAP2 POP POP SWAP1 POP JUMPDEST POP SWAP7 POP DUP1 PUSH8 0xFFFFFFFFFFFFFFFF DUP2 GT ISZERO PUSH2 0x166F JUMPI PUSH2 0x166E PUSH2 0x2503 JUMP JUMPDEST JUMPDEST PUSH1 0x40 MLOAD SWAP1 DUP1 DUP3 MSTORE DUP1 PUSH1 0x20 MUL PUSH1 0x20 ADD DUP3 ADD PUSH1 0x40 MSTORE DUP1 ISZERO PUSH2 0x169D JUMPI DUP2 PUSH1 0x20 ADD PUSH1 0x20 DUP3 MUL DUP1 CALLDATASIZE DUP4 CALLDATACOPY DUP1 DUP3 ADD SWAP2 POP POP SWAP1 POP JUMPDEST POP SWAP6 POP DUP1 PUSH8 0xFFFFFFFFFFFFFFFF DUP2 GT ISZERO PUSH2 0x16BA JUMPI PUSH2 0x16B9 PUSH2 0x2503 JUMP JUMPDEST JUMPDEST PUSH1 0x40 MLOAD SWAP1 DUP1 DUP3 MSTORE DUP1 PUSH1 0x20 MUL PUSH1 0x20 ADD DUP3 ADD PUSH1 0x40 MSTORE DUP1 ISZERO PUSH2 0x16E8 JUMPI DUP2 PUSH1 0x20 ADD PUSH1 0x20 DUP3 MUL DUP1 CALLDATASIZE DUP4 CALLDATACOPY DUP1 DUP3 ADD SWAP2 POP POP SWAP1 POP JUMPDEST POP SWAP5 POP DUP1 PUSH8 0xFFFFFFFFFFFFFFFF DUP2 GT ISZERO PUSH2 0x1705 JUMPI PUSH2 0x1704 PUSH2 0x2503 JUMP JUMPDEST JUMPDEST PUSH1 0x40 MLOAD SWAP1 DUP1 DUP3 MSTORE DUP1 PUSH1 0x20 MUL PUSH1 0x20 ADD DUP3 ADD PUSH1 0x40 MSTORE DUP1 ISZERO PUSH2 0x1738 JUMPI DUP2 PUSH1 0x20 ADD JUMPDEST PUSH1 0x60 DUP2 MSTORE PUSH1 0x20 ADD SWAP1 PUSH1 0x1 SWAP1 SUB SWAP1 DUP2 PUSH2 0x1723 JUMPI SWAP1 POP JUMPDEST POP SWAP4 POP DUP1 PUSH8 0xFFFFFFFFFFFFFFFF DUP2 GT ISZERO PUSH2 0x1755 JUMPI PUSH2 0x1754 PUSH2 0x2503 JUMP JUMPDEST JUMPDEST PUSH1 0x40 MLOAD SWAP1 DUP1 DUP3 MSTORE DUP1 PUSH1 0x20 MUL PUSH1 0x20 ADD DUP3 ADD PUSH1 0x40 MSTORE DUP1 ISZERO PUSH2 0x1788 JUMPI DUP2 PUSH1 0x20 ADD JUMPDEST PUSH1 0x60 DUP2 MSTORE PUSH1 0x20 ADD SWAP1 PUSH1 0x1 SWAP1 SUB SWAP1 DUP2 PUSH2 0x1773 JUMPI SWAP1 POP JUMPDEST POP SWAP3 POP DUP1 PUSH8 0xFFFFFFFFFFFFFFFF DUP2 GT ISZERO PUSH2 0x17A5 JUMPI PUSH2 0x17A4 PUSH2 0x2503 JUMP JUMPDEST JUMPDEST PUSH1 0x40 MLOAD SWAP1 DUP1 DUP3 MSTORE DUP1 PUSH1 0x20 MUL PUSH1 0x20 ADD DUP3 ADD PUSH1 0x40 MSTORE DUP1 ISZERO PUSH2 0x17D8 JUMPI DUP2 PUSH1 0x20 ADD JUMPDEST PUSH1 0x60 DUP2 MSTORE PUSH1 0x20 ADD SWAP1 PUSH1 0x1 SWAP1 SUB SWAP1 DUP2 PUSH2 0x17C3 JUMPI SWAP1 POP JUMPDEST POP SWAP2 POP PUSH1 0x0 DUP1 JUMPDEST PUSH1 0x3 DUP1 SLOAD SWAP1 POP DUP2 LT ISZERO PUSH2 0x1C39 JUMPI DUP11 PUSH1 0x3 DUP3 DUP2 SLOAD DUP2 LT PUSH2 0x1801 JUMPI PUSH2 0x1800 PUSH2 0x2F1B JUMP JUMPDEST JUMPDEST SWAP1 PUSH1 0x0 MSTORE PUSH1 0x20 PUSH1 0x0 KECCAK256 SWAP1 PUSH1 0xA MUL ADD PUSH1 0x4 ADD SLOAD SUB PUSH2 0x1C26 JUMPI PUSH1 0x3 DUP2 DUP2 SLOAD DUP2 LT PUSH2 0x182C JUMPI PUSH2 0x182B PUSH2 0x2F1B JUMP JUMPDEST JUMPDEST SWAP1 PUSH1 0x0 MSTORE PUSH1 0x20 PUSH1 0x0 KECCAK256 SWAP1 PUSH1 0xA MUL ADD PUSH1 0x0 ADD DUP1 SLOAD PUSH2 0x1848 SWAP1 PUSH2 0x30EE JUMP JUMPDEST DUP1 PUSH1 0x1F ADD PUSH1 0x20 DUP1 SWAP2 DIV MUL PUSH1 0x20 ADD PUSH1 0x40 MLOAD SWAP1 DUP2 ADD PUSH1 0x40 MSTORE DUP1 SWAP3 SWAP2 SWAP1 DUP2 DUP2 MSTORE PUSH1 0x20 ADD DUP3 DUP1 SLOAD PUSH2 0x1874 SWAP1 PUSH2 0x30EE JUMP JUMPDEST DUP1 ISZERO PUSH2 0x18C1 JUMPI DUP1 PUSH1 0x1F LT PUSH2 0x1896 JUMPI PUSH2 0x100 DUP1 DUP4 SLOAD DIV MUL DUP4 MSTORE SWAP2 PUSH1 0x20 ADD SWAP2 PUSH2 0x18C1 JUMP JUMPDEST DUP3 ADD SWAP2 SWAP1 PUSH1 0x0 MSTORE PUSH1 0x20 PUSH1 0x0 KECCAK256 SWAP1 JUMPDEST DUP2 SLOAD DUP2 MSTORE SWAP1 PUSH1 0x1 ADD SWAP1 PUSH1 0x20 ADD DUP1 DUP4 GT PUSH2 0x18A4 JUMPI DUP3 SWAP1 SUB PUSH1 0x1F AND DUP3 ADD SWAP2 JUMPDEST POP POP POP POP POP DUP11 DUP4 DUP2 MLOAD DUP2 LT PUSH2 0x18D9 JUMPI PUSH2 0x18D8 PUSH2 0x2F1B JUMP JUMPDEST JUMPDEST PUSH1 0x20 MUL PUSH1 0x20 ADD ADD DUP2 SWAP1 MSTORE POP PUSH1 0x3 DUP2 DUP2 SLOAD DUP2 LT PUSH2 0x18F8 JUMPI PUSH2 0x18F7 PUSH2 0x2F1B JUMP JUMPDEST JUMPDEST SWAP1 PUSH1 0x0 MSTORE PUSH1 0x20 PUSH1 0x0 KECCAK256 SWAP1 PUSH1 0xA MUL ADD PUSH1 0x1 ADD SLOAD DUP10 DUP4 DUP2 MLOAD DUP2 LT PUSH2 0x191D JUMPI PUSH2 0x191C PUSH2 0x2F1B JUMP JUMPDEST JUMPDEST PUSH1 0x20 MUL PUSH1 0x20 ADD ADD DUP2 DUP2 MSTORE POP POP PUSH1 0x3 DUP2 DUP2 SLOAD DUP2 LT PUSH2 0x193D JUMPI PUSH2 0x193C PUSH2 0x2F1B JUMP JUMPDEST JUMPDEST SWAP1 PUSH1 0x0 MSTORE PUSH1 0x20 PUSH1 0x0 KECCAK256 SWAP1 PUSH1 0xA MUL ADD PUSH1 0x2 ADD SLOAD DUP9 DUP4 DUP2 MLOAD DUP2 LT PUSH2 0x1962 JUMPI PUSH2 0x1961 PUSH2 0x2F1B JUMP JUMPDEST JUMPDEST PUSH1 0x20 MUL PUSH1 0x20 ADD ADD DUP2 DUP2 MSTORE POP POP PUSH1 0x3 DUP2 DUP2 SLOAD DUP2 LT PUSH2 0x1982 JUMPI PUSH2 0x1981 PUSH2 0x2F1B JUMP JUMPDEST JUMPDEST SWAP1 PUSH1 0x0 MSTORE PUSH1 0x20 PUSH1 0x0 KECCAK256 SWAP1 PUSH1 0xA MUL ADD PUSH1 0x3 ADD SLOAD DUP8 DUP4 DUP2 MLOAD DUP2 LT PUSH2 0x19A7 JUMPI PUSH2 0x19A6 PUSH2 0x2F1B JUMP JUMPDEST JUMPDEST PUSH1 0x20 MUL PUSH1 0x20 ADD ADD DUP2 DUP2 MSTORE POP POP PUSH1 0x3 DUP2 DUP2 SLOAD DUP2 LT PUSH2 0x19C7 JUMPI PUSH2 0x19C6 PUSH2 0x2F1B JUMP JUMPDEST JUMPDEST SWAP1 PUSH1 0x0 MSTORE PUSH1 0x20 PUSH1 0x0 KECCAK256 SWAP1 PUSH1 0xA MUL ADD PUSH1 0x7 ADD DUP1 SLOAD PUSH2 0x19E3 SWAP1 PUSH2 0x30EE JUMP JUMPDEST DUP1 PUSH1 0x1F ADD PUSH1 0x20 DUP1 SWAP2 DIV MUL PUSH1 0x20 ADD PUSH1 0x40 MLOAD SWAP1 DUP2 ADD PUSH1 0x40 MSTORE DUP1 SWAP3 SWAP2 SWAP1 DUP2 DUP2 MSTORE PUSH1 0x20 ADD DUP3 DUP1 SLOAD PUSH2 0x1A0F SWAP1 PUSH2 0x30EE JUMP JUMPDEST DUP1 ISZERO PUSH2 0x1A5C JUMPI DUP1 PUSH1 0x1F LT PUSH2 0x1A31 JUMPI PUSH2 0x100 DUP1 DUP4 SLOAD DIV MUL DUP4 MSTORE SWAP2 PUSH1 0x20 ADD SWAP2 PUSH2 0x1A5C JUMP JUMPDEST DUP3 ADD SWAP2 SWAP1 PUSH1 0x0 MSTORE PUSH1 0x20 PUSH1 0x0 KECCAK256 SWAP1 JUMPDEST DUP2 SLOAD DUP2 MSTORE SWAP1 PUSH1 0x1 ADD SWAP1 PUSH1 0x20 ADD DUP1 DUP4 GT PUSH2 0x1A3F JUMPI DUP3 SWAP1 SUB PUSH1 0x1F AND DUP3 ADD SWAP2 JUMPDEST POP POP POP POP POP DUP7 DUP4 DUP2 MLOAD DUP2 LT PUSH2 0x1A74 JUMPI PUSH2 0x1A73 PUSH2 0x2F1B JUMP JUMPDEST JUMPDEST PUSH1 0x20 MUL PUSH1 0x20 ADD ADD DUP2 SWAP1 MSTORE POP PUSH1 0x3 DUP2 DUP2 SLOAD DUP2 LT PUSH2 0x1A93 JUMPI PUSH2 0x1A92 PUSH2 0x2F1B JUMP JUMPDEST JUMPDEST SWAP1 PUSH1 0x0 MSTORE PUSH1 0x20 PUSH1 0x0 KECCAK256 SWAP1 PUSH1 0xA MUL ADD PUSH1 0x8 ADD DUP1 SLOAD PUSH2 0x1AAF SWAP1 PUSH2 0x30EE JUMP JUMPDEST DUP1 PUSH1 0x1F ADD PUSH1 0x20 DUP1 SWAP2 DIV MUL PUSH1 0x20 ADD PUSH1 0x40 MLOAD SWAP1 DUP2 ADD PUSH1 0x40 MSTORE DUP1 SWAP3 SWAP2 SWAP1 DUP2 DUP2 MSTORE PUSH1 0x20 ADD DUP3 DUP1 SLOAD PUSH2 0x1ADB SWAP1 PUSH2 0x30EE JUMP JUMPDEST DUP1 ISZERO PUSH2 0x1B28 JUMPI DUP1 PUSH1 0x1F LT PUSH2 0x1AFD JUMPI PUSH2 0x100 DUP1 DUP4 SLOAD DIV MUL DUP4 MSTORE SWAP2 PUSH1 0x20 ADD SWAP2 PUSH2 0x1B28 JUMP JUMPDEST DUP3 ADD SWAP2 SWAP1 PUSH1 0x0 MSTORE PUSH1 0x20 PUSH1 0x0 KECCAK256 SWAP1 JUMPDEST DUP2 SLOAD DUP2 MSTORE SWAP1 PUSH1 0x1 ADD SWAP1 PUSH1 0x20 ADD DUP1 DUP4 GT PUSH2 0x1B0B JUMPI DUP3 SWAP1 SUB PUSH1 0x1F AND DUP3 ADD SWAP2 JUMPDEST POP POP POP POP POP DUP6 DUP4 DUP2 MLOAD DUP2 LT PUSH2 0x1B40 JUMPI PUSH2 0x1B3F PUSH2 0x2F1B JUMP JUMPDEST JUMPDEST PUSH1 0x20 MUL PUSH1 0x20 ADD ADD DUP2 SWAP1 MSTORE POP PUSH1 0x3 DUP2 DUP2 SLOAD DUP2 LT PUSH2 0x1B5F JUMPI PUSH2 0x1B5E PUSH2 0x2F1B JUMP JUMPDEST JUMPDEST SWAP1 PUSH1 0x0 MSTORE PUSH1 0x20 PUSH1 0x0 KECCAK256 SWAP1 PUSH1 0xA MUL ADD PUSH1 0x9 ADD DUP1 SLOAD PUSH2 0x1B7B SWAP1 PUSH2 0x30EE JUMP JUMPDEST DUP1 PUSH1 0x1F ADD PUSH1 0x20 DUP1 SWAP2 DIV MUL PUSH1 0x20 ADD PUSH1 0x40 MLOAD SWAP1 DUP2 ADD PUSH1 0x40 MSTORE DUP1 SWAP3 SWAP2 SWAP1 DUP2 DUP2 MSTORE PUSH1 0x20 ADD DUP3 DUP1 SLOAD PUSH2 0x1BA7 SWAP1 PUSH2 0x30EE JUMP JUMPDEST DUP1 ISZERO PUSH2 0x1BF4 JUMPI DUP1 PUSH1 0x1F LT PUSH2 0x1BC9 JUMPI PUSH2 0x100 DUP1 DUP4 SLOAD DIV MUL DUP4 MSTORE SWAP2 PUSH1 0x20 ADD SWAP2 PUSH2 0x1BF4 JUMP JUMPDEST DUP3 ADD SWAP2 SWAP1 PUSH1 0x0 MSTORE PUSH1 0x20 PUSH1 0x0 KECCAK256 SWAP1 JUMPDEST DUP2 SLOAD DUP2 MSTORE SWAP1 PUSH1 0x1 ADD SWAP1 PUSH1 0x20 ADD DUP1 DUP4 GT PUSH2 0x1BD7 JUMPI DUP3 SWAP1 SUB PUSH1 0x1F AND DUP3 ADD SWAP2 JUMPDEST POP POP POP POP POP DUP5 DUP4 DUP2 MLOAD DUP2 LT PUSH2 0x1C0C JUMPI PUSH2 0x1C0B PUSH2 0x2F1B JUMP JUMPDEST JUMPDEST PUSH1 0x20 MUL PUSH1 0x20 ADD ADD DUP2 SWAP1 MSTORE POP DUP2 DUP1 PUSH2 0x1C22 SWAP1 PUSH2 0x2F79 JUMP JUMPDEST SWAP3 POP POP JUMPDEST DUP1 DUP1 PUSH2 0x1C31 SWAP1 PUSH2 0x2F79 JUMP JUMPDEST SWAP2 POP POP PUSH2 0x17DF JUMP JUMPDEST POP POP POP SWAP2 SWAP4 SWAP6 SWAP8 SWAP1 SWAP3 SWAP5 SWAP7 POP JUMP JUMPDEST PUSH1 0x4 PUSH1 0x20 MSTORE DUP1 PUSH1 0x0 MSTORE PUSH1 0x40 PUSH1 0x0 KECCAK256 PUSH1 0x0 SWAP2 POP SLOAD SWAP1 PUSH2 0x100 EXP SWAP1 DIV PUSH1 0xFF AND DUP2 JUMP JUMPDEST PUSH1 0x3 DUP2 DUP2 SLOAD DUP2 LT PUSH2 0x1C77 JUMPI PUSH1 0x0 DUP1 REVERT JUMPDEST SWAP1 PUSH1 0x0 MSTORE PUSH1 0x20 PUSH1 0x0 KECCAK256 SWAP1 PUSH1 0xA MUL ADD PUSH1 0x0 SWAP2 POP SWAP1 POP DUP1 PUSH1 0x0 ADD DUP1 SLOAD PUSH2 0x1C9A SWAP1 PUSH2 0x30EE JUMP JUMPDEST DUP1 PUSH1 0x1F ADD PUSH1 0x20 DUP1 SWAP2 DIV MUL PUSH1 0x20 ADD PUSH1 0x40 MLOAD SWAP1 DUP2 ADD PUSH1 0x40 MSTORE DUP1 SWAP3 SWAP2 SWAP1 DUP2 DUP2 MSTORE PUSH1 0x20 ADD DUP3 DUP1 SLOAD PUSH2 0x1CC6 SWAP1 PUSH2 0x30EE JUMP JUMPDEST DUP1 ISZERO PUSH2 0x1D13 JUMPI DUP1 PUSH1 0x1F LT PUSH2 0x1CE8 JUMPI PUSH2 0x100 DUP1 DUP4 SLOAD DIV MUL DUP4 MSTORE SWAP2 PUSH1 0x20 ADD SWAP2 PUSH2 0x1D13 JUMP JUMPDEST DUP3 ADD SWAP2 SWAP1 PUSH1 0x0 MSTORE PUSH1 0x20 PUSH1 0x0 KECCAK256 SWAP1 JUMPDEST DUP2 SLOAD DUP2 MSTORE SWAP1 PUSH1 0x1 ADD SWAP1 PUSH1 0x20 ADD DUP1 DUP4 GT PUSH2 0x1CF6 JUMPI DUP3 SWAP1 SUB PUSH1 0x1F AND DUP3 ADD SWAP2 JUMPDEST POP POP POP POP POP SWAP1 DUP1 PUSH1 0x1 ADD SLOAD SWAP1 DUP1 PUSH1 0x2 ADD SLOAD SWAP1 DUP1 PUSH1 0x3 ADD SLOAD SWAP1 DUP1 PUSH1 0x4 ADD SLOAD SWAP1 DUP1 PUSH1 0x5 ADD DUP1 SLOAD PUSH2 0x1D40 SWAP1 PUSH2 0x30EE JUMP JUMPDEST DUP1 PUSH1 0x1F ADD PUSH1 0x20 DUP1 SWAP2 DIV MUL PUSH1 0x20 ADD PUSH1 0x40 MLOAD SWAP1 DUP2 ADD PUSH1 0x40 MSTORE DUP1 SWAP3 SWAP2 SWAP1 DUP2 DUP2 MSTORE PUSH1 0x20 ADD DUP3 DUP1 SLOAD PUSH2 0x1D6C SWAP1 PUSH2 0x30EE JUMP JUMPDEST DUP1 ISZERO PUSH2 0x1DB9 JUMPI DUP1 PUSH1 0x1F LT PUSH2 0x1D8E JUMPI PUSH2 0x100 DUP1 DUP4 SLOAD DIV MUL DUP4 MSTORE SWAP2 PUSH1 0x20 ADD SWAP2 PUSH2 0x1DB9 JUMP JUMPDEST DUP3 ADD SWAP2 SWAP1 PUSH1 0x0 MSTORE PUSH1 0x20 PUSH1 0x0 KECCAK256 SWAP1 JUMPDEST DUP2 SLOAD DUP2 MSTORE SWAP1 PUSH1 0x1 ADD SWAP1 PUSH1 0x20 ADD DUP1 DUP4 GT PUSH2 0x1D9C JUMPI DUP3 SWAP1 SUB PUSH1 0x1F AND DUP3 ADD SWAP2 JUMPDEST POP POP POP POP POP SWAP1 DUP1 PUSH1 0x6 ADD SLOAD SWAP1 DUP1 PUSH1 0x7 ADD DUP1 SLOAD PUSH2 0x1DD4 SWAP1 PUSH2 0x30EE JUMP JUMPDEST DUP1 PUSH1 0x1F ADD PUSH1 0x20 DUP1 SWAP2 DIV MUL PUSH1 0x20 ADD PUSH1 0x40 MLOAD SWAP1 DUP2 ADD PUSH1 0x40 MSTORE DUP1 SWAP3 SWAP2 SWAP1 DUP2 DUP2 MSTORE PUSH1 0x20 ADD DUP3 DUP1 SLOAD PUSH2 0x1E00 SWAP1 PUSH2 0x30EE JUMP JUMPDEST DUP1 ISZERO PUSH2 0x1E4D JUMPI DUP1 PUSH1 0x1F LT PUSH2 0x1E22 JUMPI PUSH2 0x100 DUP1 DUP4 SLOAD DIV MUL DUP4 MSTORE SWAP2 PUSH1 0x20 ADD SWAP2 PUSH2 0x1E4D JUMP JUMPDEST DUP3 ADD SWAP2 SWAP1 PUSH1 0x0 MSTORE PUSH1 0x20 PUSH1 0x0 KECCAK256 SWAP1 JUMPDEST DUP2 SLOAD DUP2 MSTORE SWAP1 PUSH1 0x1 ADD SWAP1 PUSH1 0x20 ADD DUP1 DUP4 GT PUSH2 0x1E30 JUMPI DUP3 SWAP1 SUB PUSH1 0x1F AND DUP3 ADD SWAP2 JUMPDEST POP POP POP POP POP SWAP1 DUP1 PUSH1 0x8 ADD DUP1 SLOAD PUSH2 0x1E62 SWAP1 PUSH2 0x30EE JUMP JUMPDEST DUP1 PUSH1 0x1F ADD PUSH1 0x20 DUP1 SWAP2 DIV MUL PUSH1 0x20 ADD PUSH1 0x40 MLOAD SWAP1 DUP2 ADD PUSH1 0x40 MSTORE DUP1 SWAP3 SWAP2 SWAP1 DUP2 DUP2 MSTORE PUSH1 0x20 ADD DUP3 DUP1 SLOAD PUSH2 0x1E8E SWAP1 PUSH2 0x30EE JUMP JUMPDEST DUP1 ISZERO PUSH2 0x1EDB JUMPI DUP1 PUSH1 0x1F LT PUSH2 0x1EB0 JUMPI PUSH2 0x100 DUP1 DUP4 SLOAD DIV MUL DUP4 MSTORE SWAP2 PUSH1 0x20 ADD SWAP2 PUSH2 0x1EDB JUMP JUMPDEST DUP3 ADD SWAP2 SWAP1 PUSH1 0x0 MSTORE PUSH1 0x20 PUSH1 0x0 KECCAK256 SWAP1 JUMPDEST DUP2 SLOAD DUP2 MSTORE SWAP1 PUSH1 0x1 ADD SWAP1 PUSH1 0x20 ADD DUP1 DUP4 GT PUSH2 0x1EBE JUMPI DUP3 SWAP1 SUB PUSH1 0x1F AND DUP3 ADD SWAP2 JUMPDEST POP POP POP POP POP SWAP1 DUP1 PUSH1 0x9 ADD DUP1 SLOAD PUSH2 0x1EF0 SWAP1 PUSH2 0x30EE JUMP JUMPDEST DUP1 PUSH1 0x1F ADD PUSH1 0x20 DUP1 SWAP2 DIV MUL PUSH1 0x20 ADD PUSH1 0x40 MLOAD SWAP1 DUP2 ADD PUSH1 0x40 MSTORE DUP1 SWAP3 SWAP2 SWAP1 DUP2 DUP2 MSTORE PUSH1 0x20 ADD DUP3 DUP1 SLOAD PUSH2 0x1F1C SWAP1 PUSH2 0x30EE JUMP JUMPDEST DUP1 ISZERO PUSH2 0x1F69 JUMPI DUP1 PUSH1 0x1F LT PUSH2 0x1F3E JUMPI PUSH2 0x100 DUP1 DUP4 SLOAD DIV MUL DUP4 MSTORE SWAP2 PUSH1 0x20 ADD SWAP2 PUSH2 0x1F69 JUMP JUMPDEST DUP3 ADD SWAP2 SWAP1 PUSH1 0x0 MSTORE PUSH1 0x20 PUSH1 0x0 KECCAK256 SWAP1 JUMPDEST DUP2 SLOAD DUP2 MSTORE SWAP1 PUSH1 0x1 ADD SWAP1 PUSH1 0x20 ADD DUP1 DUP4 GT PUSH2 0x1F4C JUMPI DUP3 SWAP1 SUB PUSH1 0x1F AND DUP3 ADD SWAP2 JUMPDEST POP POP POP POP POP SWAP1 POP DUP11 JUMP JUMPDEST PUSH1 0x5 PUSH1 0x20 MSTORE DUP1 PUSH1 0x0 MSTORE PUSH1 0x40 PUSH1 0x0 KECCAK256 PUSH1 0x0 SWAP2 POP SLOAD SWAP1 PUSH2 0x100 EXP SWAP1 DIV PUSH1 0xFF AND DUP2 JUMP JUMPDEST PUSH1 0x5 PUSH1 0x0 CALLER PUSH20 0xFFFFFFFFFFFFFFFFFFFFFFFFFFFFFFFFFFFFFFFF AND PUSH20 0xFFFFFFFFFFFFFFFFFFFFFFFFFFFFFFFFFFFFFFFF AND DUP2 MSTORE PUSH1 0x20 ADD SWAP1 DUP2 MSTORE PUSH1 0x20 ADD PUSH1 0x0 KECCAK256 PUSH1 0x0 SWAP1 SLOAD SWAP1 PUSH2 0x100 EXP SWAP1 DIV PUSH1 0xFF AND PUSH2 0x201F JUMPI PUSH1 0x40 MLOAD PUSH32 0x8C379A000000000000000000000000000000000000000000000000000000000 DUP2 MSTORE PUSH1 0x4 ADD PUSH2 0x2016 SWAP1 PUSH2 0x35A1 JUMP JUMPDEST PUSH1 0x40 MLOAD DUP1 SWAP2 SUB SWAP1 REVERT JUMPDEST PUSH1 0x3 DUP1 SLOAD SWAP1 POP DUP4 LT PUSH2 0x2066 JUMPI PUSH1 0x40 MLOAD PUSH32 0x8C379A000000000000000000000000000000000000000000000000000000000 DUP2 MSTORE PUSH1 0x4 ADD PUSH2 0x205D SWAP1 PUSH2 0x360D JUMP JUMPDEST PUSH1 0x40 MLOAD DUP1 SWAP2 SUB SWAP1 REVERT JUMPDEST PUSH2 0x206E PUSH2 0x249D JUMP JUMPDEST PUSH1 0x0 JUMPDEST PUSH1 0x2 DUP1 SLOAD SWAP1 POP DUP2 LT ISZERO PUSH2 0x222F JUMPI CALLER PUSH20 0xFFFFFFFFFFFFFFFFFFFFFFFFFFFFFFFFFFFFFFFF AND PUSH1 0x2 DUP3 DUP2 SLOAD DUP2 LT PUSH2 0x20A9 JUMPI PUSH2 0x20A8 PUSH2 0x2F1B JUMP JUMPDEST JUMPDEST SWAP1 PUSH1 0x0 MSTORE PUSH1 0x20 PUSH1 0x0 KECCAK256 SWAP1 PUSH1 0x3 MUL ADD PUSH1 0x1 ADD PUSH1 0x0 SWAP1 SLOAD SWAP1 PUSH2 0x100 EXP SWAP1 DIV PUSH20 0xFFFFFFFFFFFFFFFFFFFFFFFFFFFFFFFFFFFFFFFF AND PUSH20 0xFFFFFFFFFFFFFFFFFFFFFFFFFFFFFFFFFFFFFFFF AND SUB PUSH2 0x221C JUMPI PUSH1 0x2 DUP2 DUP2 SLOAD DUP2 LT PUSH2 0x210A JUMPI PUSH2 0x2109 PUSH2 0x2F1B JUMP JUMPDEST JUMPDEST SWAP1 PUSH1 0x0 MSTORE PUSH1 0x20 PUSH1 0x0 KECCAK256 SWAP1 PUSH1 0x3 MUL ADD PUSH1 0x40 MLOAD DUP1 PUSH1 0x60 ADD PUSH1 0x40 MSTORE SWAP1 DUP2 PUSH1 0x0 DUP3 ADD DUP1 SLOAD PUSH2 0x2133 SWAP1 PUSH2 0x30EE JUMP JUMPDEST DUP1 PUSH1 0x1F ADD PUSH1 0x20 DUP1 SWAP2 DIV MUL PUSH1 0x20 ADD PUSH1 0x40 MLOAD SWAP1 DUP2 ADD PUSH1 0x40 MSTORE DUP1 SWAP3 SWAP2 SWAP1 DUP2 DUP2 MSTORE PUSH1 0x20 ADD DUP3 DUP1 SLOAD PUSH2 0x215F SWAP1 PUSH2 0x30EE JUMP JUMPDEST DUP1 ISZERO PUSH2 0x21AC JUMPI DUP1 PUSH1 0x1F LT PUSH2 0x2181 JUMPI PUSH2 0x100 DUP1 DUP4 SLOAD DIV MUL DUP4 MSTORE SWAP2 PUSH1 0x20 ADD SWAP2 PUSH2 0x21AC JUMP JUMPDEST DUP3 ADD SWAP2 SWAP1 PUSH1 0x0 MSTORE PUSH1 0x20 PUSH1 0x0 KECCAK256 SWAP1 JUMPDEST DUP2 SLOAD DUP2 MSTORE SWAP1 PUSH1 0x1 ADD SWAP1 PUSH1 0x20 ADD DUP1 DUP4 GT PUSH2 0x218F JUMPI DUP3 SWAP1 SUB PUSH1 0x1F AND DUP3 ADD SWAP2 JUMPDEST POP POP POP POP POP DUP2 MSTORE PUSH1 0x20 ADD PUSH1 0x1 DUP3 ADD PUSH1 0x0 SWAP1 SLOAD SWAP1 PUSH2 0x100 EXP SWAP1 DIV PUSH20 0xFFFFFFFFFFFFFFFFFFFFFFFFFFFFFFFFFFFFFFFF AND PUSH20 0xFFFFFFFFFFFFFFFFFFFFFFFFFFFFFFFFFFFFFFFF AND PUSH20 0xFFFFFFFFFFFFFFFFFFFFFFFFFFFFFFFFFFFFFFFF AND DUP2 MSTORE PUSH1 0x20 ADD PUSH1 0x2 DUP3 ADD SLOAD DUP2 MSTORE POP POP SWAP2 POP PUSH2 0x222F JUMP JUMPDEST DUP1 DUP1 PUSH2 0x2227 SWAP1 PUSH2 0x2F79 JUMP JUMPDEST SWAP2 POP POP PUSH2 0x2071 JUMP JUMPDEST POP DUP3 PUSH1 0x3 DUP6 DUP2 SLOAD DUP2 LT PUSH2 0x2245 JUMPI PUSH2 0x2244 PUSH2 0x2F1B JUMP JUMPDEST JUMPDEST SWAP1 PUSH1 0x0 MSTORE PUSH1 0x20 PUSH1 0x0 KECCAK256 SWAP1 PUSH1 0xA MUL ADD PUSH1 0x7 ADD SWAP1 DUP2 PUSH2 0x2262 SWAP2 SWAP1 PUSH2 0x32CB JUMP JUMPDEST POP DUP2 PUSH1 0x3 DUP6 DUP2 SLOAD DUP2 LT PUSH2 0x2278 JUMPI PUSH2 0x2277 PUSH2 0x2F1B JUMP JUMPDEST JUMPDEST SWAP1 PUSH1 0x0 MSTORE PUSH1 0x20 PUSH1 0x0 KECCAK256 SWAP1 PUSH1 0xA MUL ADD PUSH1 0x8 ADD SWAP1 DUP2 PUSH2 0x2295 SWAP2 SWAP1 PUSH2 0x32CB JUMP JUMPDEST POP DUP1 PUSH1 0x0 ADD MLOAD PUSH1 0x3 DUP6 DUP2 SLOAD DUP2 LT PUSH2 0x22AF JUMPI PUSH2 0x22AE PUSH2 0x2F1B JUMP JUMPDEST JUMPDEST SWAP1 PUSH1 0x0 MSTORE PUSH1 0x20 PUSH1 0x0 KECCAK256 SWAP1 PUSH1 0xA MUL ADD PUSH1 0x9 ADD SWAP1 DUP2 PUSH2 0x22CC SWAP2 SWAP1 PUSH2 0x32CB JUMP JUMPDEST POP POP POP POP POP JUMP JUMPDEST PUSH1 0x0 PUSH1 0x3 DUP1 SLOAD SWAP1 POP SWAP1 POP SWAP1 JUMP JUMPDEST PUSH1 0x3 PUSH1 0x40 MLOAD DUP1 PUSH2 0x140 ADD PUSH1 0x40 MSTORE DUP1 DUP9 DUP2 MSTORE PUSH1 0x20 ADD DUP8 DUP2 MSTORE PUSH1 0x20 ADD DUP7 DUP2 MSTORE PUSH1 0x20 ADD DUP6 DUP2 MSTORE PUSH1 0x20 ADD DUP5 DUP2 MSTORE PUSH1 0x20 ADD DUP4 DUP2 MSTORE PUSH1 0x20 ADD PUSH1 0x0 DUP2 MSTORE PUSH1 0x20 ADD PUSH1 0x40 MLOAD DUP1 PUSH1 0x20 ADD PUSH1 0x40 MSTORE DUP1 PUSH1 0x0 DUP2 MSTORE POP DUP2 MSTORE PUSH1 0x20 ADD PUSH1 0x40 MLOAD DUP1 PUSH1 0x20 ADD PUSH1 0x40 MSTORE DUP1 PUSH1 0x0 DUP2 MSTORE POP DUP2 MSTORE PUSH1 0x20 ADD PUSH1 0x40 MLOAD DUP1 PUSH1 0x20 ADD PUSH1 0x40 MSTORE DUP1 PUSH1 0x0 DUP2 MSTORE POP DUP2 MSTORE POP SWAP1 DUP1 PUSH1 0x1 DUP2 SLOAD ADD DUP1 DUP3 SSTORE DUP1 SWAP2 POP POP PUSH1 0x1 SWAP1 SUB SWAP1 PUSH1 0x0 MSTORE PUSH1 0x20 PUSH1 0x0 KECCAK256 SWAP1 PUSH1 0xA MUL ADD PUSH1 0x0 SWAP1 SWAP2 SWAP1 SWAP2 SWAP1 SWAP2 POP PUSH1 0x0 DUP3 ADD MLOAD DUP2 PUSH1 0x0 ADD SWAP1 DUP2 PUSH2 0x2394 SWAP2 SWAP1 PUSH2 0x32CB JUMP JUMPDEST POP PUSH1 0x20 DUP3 ADD MLOAD DUP2 PUSH1 0x1 ADD SSTORE PUSH1 0x40 DUP3 ADD MLOAD DUP2 PUSH1 0x2 ADD SSTORE PUSH1 0x60 DUP3 ADD MLOAD DUP2 PUSH1 0x3 ADD SSTORE PUSH1 0x80 DUP3 ADD MLOAD DUP2 PUSH1 0x4 ADD SSTORE PUSH1 0xA0 DUP3 ADD MLOAD DUP2 PUSH1 0x5 ADD SWAP1 DUP2 PUSH2 0x23D2 SWAP2 SWAP1 PUSH2 0x32CB JUMP JUMPDEST POP PUSH1 0xC0 DUP3 ADD MLOAD DUP2 PUSH1 0x6 ADD SSTORE PUSH1 0xE0 DUP3 ADD MLOAD DUP2 PUSH1 0x7 ADD SWAP1 DUP2 PUSH2 0x23F2 SWAP2 SWAP1 PUSH2 0x32CB JUMP JUMPDEST POP PUSH2 0x100 DUP3 ADD MLOAD DUP2 PUSH1 0x8 ADD SWAP1 DUP2 PUSH2 0x2409 SWAP2 SWAP1 PUSH2 0x32CB JUMP JUMPDEST POP PUSH2 0x120 DUP3 ADD MLOAD DUP2 PUSH1 0x9 ADD SWAP1 DUP2 PUSH2 0x2420 SWAP2 SWAP1 PUSH2 0x32CB JUMP JUMPDEST POP POP POP PUSH32 0xCDEB7C36B2E64CBCBDD0AD00C0FC2CEAE9444EDD2682279AEE2E56B8A01C0934 DUP7 DUP7 DUP7 DUP7 DUP7 DUP7 PUSH1 0x40 MLOAD PUSH2 0x245C SWAP7 SWAP6 SWAP5 SWAP4 SWAP3 SWAP2 SWAP1 PUSH2 0x362D JUMP JUMPDEST PUSH1 0x40 MLOAD DUP1 SWAP2 SUB SWAP1 LOG1 POP POP POP POP POP POP JUMP JUMPDEST PUSH1 0x0 DUP1 SLOAD SWAP1 PUSH2 0x100 EXP SWAP1 DIV PUSH20 0xFFFFFFFFFFFFFFFFFFFFFFFFFFFFFFFFFFFFFFFF AND DUP2 JUMP JUMPDEST PUSH1 0x0 PUSH1 0x1 DUP1 SLOAD SWAP1 POP SWAP1 POP SWAP1 JUMP JUMPDEST PUSH1 0x40 MLOAD DUP1 PUSH1 0x60 ADD PUSH1 0x40 MSTORE DUP1 PUSH1 0x60 DUP2 MSTORE PUSH1 0x20 ADD PUSH1 0x0 PUSH20 0xFFFFFFFFFFFFFFFFFFFFFFFFFFFFFFFFFFFFFFFF AND DUP2 MSTORE PUSH1 0x20 ADD PUSH1 0x0 DUP2 MSTORE POP SWAP1 JUMP JUMPDEST PUSH1 0x0 PUSH1 0x40 MLOAD SWAP1 POP SWAP1 JUMP JUMPDEST PUSH1 0x0 DUP1 REVERT JUMPDEST PUSH1 0x0 DUP1 REVERT JUMPDEST PUSH1 0x0 DUP1 REVERT JUMPDEST PUSH1 0x0 DUP1 REVERT JUMPDEST PUSH1 0x0 PUSH1 0x1F NOT PUSH1 0x1F DUP4 ADD AND SWAP1 POP SWAP2 SWAP1 POP JUMP JUMPDEST PUSH32 0x4E487B7100000000000000000000000000000000000000000000000000000000 PUSH1 0x0 MSTORE PUSH1 0x41 PUSH1 0x4 MSTORE PUSH1 0x24 PUSH1 0x0 REVERT JUMPDEST PUSH2 0x253B DUP3 PUSH2 0x24F2 JUMP JUMPDEST DUP2 ADD DUP2 DUP2 LT PUSH8 0xFFFFFFFFFFFFFFFF DUP3 GT OR ISZERO PUSH2 0x255A JUMPI PUSH2 0x2559 PUSH2 0x2503 JUMP JUMPDEST JUMPDEST DUP1 PUSH1 0x40 MSTORE POP POP POP JUMP JUMPDEST PUSH1 0x0 PUSH2 0x256D PUSH2 0x24D4 JUMP JUMPDEST SWAP1 POP PUSH2 0x2579 DUP3 DUP3 PUSH2 0x2532 JUMP JUMPDEST SWAP2 SWAP1 POP JUMP JUMPDEST PUSH1 0x0 PUSH8 0xFFFFFFFFFFFFFFFF DUP3 GT ISZERO PUSH2 0x2599 JUMPI PUSH2 0x2598 PUSH2 0x2503 JUMP JUMPDEST JUMPDEST PUSH2 0x25A2 DUP3 PUSH2 0x24F2 JUMP JUMPDEST SWAP1 POP PUSH1 0x20 DUP2 ADD SWAP1 POP SWAP2 SWAP1 POP JUMP JUMPDEST DUP3 DUP2 DUP4 CALLDATACOPY PUSH1 0x0 DUP4 DUP4 ADD MSTORE POP POP POP JUMP JUMPDEST PUSH1 0x0 PUSH2 0x25D1 PUSH2 0x25CC DUP5 PUSH2 0x257E JUMP JUMPDEST PUSH2 0x2563 JUMP JUMPDEST SWAP1 POP DUP3 DUP2 MSTORE PUSH1 0x20 DUP2 ADD DUP5 DUP5 DUP5 ADD GT ISZERO PUSH2 0x25ED JUMPI PUSH2 0x25EC PUSH2 0x24ED JUMP JUMPDEST JUMPDEST PUSH2 0x25F8 DUP5 DUP3 DUP6 PUSH2 0x25AF JUMP JUMPDEST POP SWAP4 SWAP3 POP POP POP JUMP JUMPDEST PUSH1 0x0 DUP3 PUSH1 0x1F DUP4 ADD SLT PUSH2 0x2615 JUMPI PUSH2 0x2614 PUSH2 0x24E8 JUMP JUMPDEST JUMPDEST DUP2 CALLDATALOAD PUSH2 0x2625 DUP5 DUP3 PUSH1 0x20 DUP7 ADD PUSH2 0x25BE JUMP JUMPDEST SWAP2 POP POP SWAP3 SWAP2 POP POP JUMP JUMPDEST PUSH1 0x0 PUSH20 0xFFFFFFFFFFFFFFFFFFFFFFFFFFFFFFFFFFFFFFFF DUP3 AND SWAP1 POP SWAP2 SWAP1 POP JUMP JUMPDEST PUSH1 0x0 PUSH2 0x2659 DUP3 PUSH2 0x262E JUMP JUMPDEST SWAP1 POP SWAP2 SWAP1 POP JUMP JUMPDEST PUSH2 0x2669 DUP2 PUSH2 0x264E JUMP JUMPDEST DUP2 EQ PUSH2 0x2674 JUMPI PUSH1 0x0 DUP1 REVERT JUMPDEST POP JUMP JUMPDEST PUSH1 0x0 DUP2 CALLDATALOAD SWAP1 POP PUSH2 0x2686 DUP2 PUSH2 0x2660 JUMP JUMPDEST SWAP3 SWAP2 POP POP JUMP JUMPDEST PUSH1 0x0 DUP2 SWAP1 POP SWAP2 SWAP1 POP JUMP JUMPDEST PUSH2 0x269F DUP2 PUSH2 0x268C JUMP JUMPDEST DUP2 EQ PUSH2 0x26AA JUMPI PUSH1 0x0 DUP1 REVERT JUMPDEST POP JUMP JUMPDEST PUSH1 0x0 DUP2 CALLDATALOAD SWAP1 POP PUSH2 0x26BC DUP2 PUSH2 0x2696 JUMP JUMPDEST SWAP3 SWAP2 POP POP JUMP JUMPDEST PUSH1 0x0 DUP1 PUSH1 0x0 PUSH1 0x60 DUP5 DUP7 SUB SLT ISZERO PUSH2 0x26DB JUMPI PUSH2 0x26DA PUSH2 0x24DE JUMP JUMPDEST JUMPDEST PUSH1 0x0 DUP5 ADD CALLDATALOAD PUSH8 0xFFFFFFFFFFFFFFFF DUP2 GT ISZERO PUSH2 0x26F9 JUMPI PUSH2 0x26F8 PUSH2 0x24E3 JUMP JUMPDEST JUMPDEST PUSH2 0x2705 DUP7 DUP3 DUP8 ADD PUSH2 0x2600 JUMP JUMPDEST SWAP4 POP POP PUSH1 0x20 PUSH2 0x2716 DUP7 DUP3 DUP8 ADD PUSH2 0x2677 JUMP JUMPDEST SWAP3 POP POP PUSH1 0x40 PUSH2 0x2727 DUP7 DUP3 DUP8 ADD PUSH2 0x26AD JUMP JUMPDEST SWAP2 POP POP SWAP3 POP SWAP3 POP SWAP3 JUMP JUMPDEST PUSH1 0x0 DUP1 PUSH1 0x40 DUP4 DUP6 SUB SLT ISZERO PUSH2 0x2748 JUMPI PUSH2 0x2747 PUSH2 0x24DE JUMP JUMPDEST JUMPDEST PUSH1 0x0 DUP4 ADD CALLDATALOAD PUSH8 0xFFFFFFFFFFFFFFFF DUP2 GT ISZERO PUSH2 0x2766 JUMPI PUSH2 0x2765 PUSH2 0x24E3 JUMP JUMPDEST JUMPDEST PUSH2 0x2772 DUP6 DUP3 DUP7 ADD PUSH2 0x2600 JUMP JUMPDEST SWAP3 POP POP PUSH1 0x20 PUSH2 0x2783 DUP6 DUP3 DUP7 ADD PUSH2 0x2677 JUMP JUMPDEST SWAP2 POP POP SWAP3 POP SWAP3 SWAP1 POP JUMP JUMPDEST PUSH1 0x0 PUSH1 0x20 DUP3 DUP5 SUB SLT ISZERO PUSH2 0x27A3 JUMPI PUSH2 0x27A2 PUSH2 0x24DE JUMP JUMPDEST JUMPDEST PUSH1 0x0 PUSH2 0x27B1 DUP5 DUP3 DUP6 ADD PUSH2 0x26AD JUMP JUMPDEST SWAP2 POP POP SWAP3 SWAP2 POP POP JUMP JUMPDEST PUSH1 0x0 DUP2 MLOAD SWAP1 POP SWAP2 SWAP1 POP JUMP JUMPDEST PUSH1 0x0 DUP3 DUP3 MSTORE PUSH1 0x20 DUP3 ADD SWAP1 POP SWAP3 SWAP2 POP POP JUMP JUMPDEST PUSH1 0x0 JUMPDEST DUP4 DUP2 LT ISZERO PUSH2 0x27F4 JUMPI DUP1 DUP3 ADD MLOAD DUP2 DUP5 ADD MSTORE PUSH1 0x20 DUP2 ADD SWAP1 POP PUSH2 0x27D9 JUMP JUMPDEST PUSH1 0x0 DUP5 DUP5 ADD MSTORE POP POP POP POP JUMP JUMPDEST PUSH1 0x0 PUSH2 0x280B DUP3 PUSH2 0x27BA JUMP JUMPDEST PUSH2 0x2815 DUP2 DUP6 PUSH2 0x27C5 JUMP JUMPDEST SWAP4 POP PUSH2 0x2825 DUP2 DUP6 PUSH1 0x20 DUP7 ADD PUSH2 0x27D6 JUMP JUMPDEST PUSH2 0x282E DUP2 PUSH2 0x24F2 JUMP JUMPDEST DUP5 ADD SWAP2 POP POP SWAP3 SWAP2 POP POP JUMP JUMPDEST PUSH2 0x2842 DUP2 PUSH2 0x264E JUMP JUMPDEST DUP3 MSTORE POP POP JUMP JUMPDEST PUSH1 0x0 PUSH1 0x60 DUP3 ADD SWAP1 POP DUP2 DUP2 SUB PUSH1 0x0 DUP4 ADD MSTORE PUSH2 0x2862 DUP2 DUP7 PUSH2 0x2800 JUMP JUMPDEST SWAP1 POP PUSH2 0x2871 PUSH1 0x20 DUP4 ADD DUP6 PUSH2 0x2839 JUMP JUMPDEST DUP2 DUP2 SUB PUSH1 0x40 DUP4 ADD MSTORE PUSH2 0x2883 DUP2 DUP5 PUSH2 0x2800 JUMP JUMPDEST SWAP1 POP SWAP5 SWAP4 POP POP POP POP JUMP JUMPDEST PUSH2 0x2896 DUP2 PUSH2 0x268C JUMP JUMPDEST DUP3 MSTORE POP POP JUMP JUMPDEST PUSH1 0x0 PUSH1 0x60 DUP3 ADD SWAP1 POP DUP2 DUP2 SUB PUSH1 0x0 DUP4 ADD MSTORE PUSH2 0x28B6 DUP2 DUP7 PUSH2 0x2800 JUMP JUMPDEST SWAP1 POP PUSH2 0x28C5 PUSH1 0x20 DUP4 ADD DUP6 PUSH2 0x2839 JUMP JUMPDEST PUSH2 0x28D2 PUSH1 0x40 DUP4 ADD DUP5 PUSH2 0x288D JUMP JUMPDEST SWAP5 SWAP4 POP POP POP POP JUMP JUMPDEST PUSH1 0x0 PUSH1 0x20 DUP3 ADD SWAP1 POP PUSH2 0x28EF PUSH1 0x0 DUP4 ADD DUP5 PUSH2 0x288D JUMP JUMPDEST SWAP3 SWAP2 POP POP JUMP JUMPDEST PUSH1 0x0 PUSH1 0x20 DUP3 DUP5 SUB SLT ISZERO PUSH2 0x290B JUMPI PUSH2 0x290A PUSH2 0x24DE JUMP JUMPDEST JUMPDEST PUSH1 0x0 DUP3 ADD CALLDATALOAD PUSH8 0xFFFFFFFFFFFFFFFF DUP2 GT ISZERO PUSH2 0x2929 JUMPI PUSH2 0x2928 PUSH2 0x24E3 JUMP JUMPDEST JUMPDEST PUSH2 0x2935 DUP5 DUP3 DUP6 ADD PUSH2 0x2600 JUMP JUMPDEST SWAP2 POP POP SWAP3 SWAP2 POP POP JUMP JUMPDEST PUSH1 0x0 DUP2 MLOAD SWAP1 POP SWAP2 SWAP1 POP JUMP JUMPDEST PUSH1 0x0 DUP3 DUP3 MSTORE PUSH1 0x20 DUP3 ADD SWAP1 POP SWAP3 SWAP2 POP POP JUMP JUMPDEST PUSH1 0x0 DUP2 SWAP1 POP PUSH1 0x20 DUP3 ADD SWAP1 POP SWAP2 SWAP1 POP JUMP JUMPDEST PUSH1 0x0 DUP3 DUP3 MSTORE PUSH1 0x20 DUP3 ADD SWAP1 POP SWAP3 SWAP2 POP POP JUMP JUMPDEST PUSH1 0x0 PUSH2 0x2986 DUP3 PUSH2 0x27BA JUMP JUMPDEST PUSH2 0x2990 DUP2 DUP6 PUSH2 0x296A JUMP JUMPDEST SWAP4 POP PUSH2 0x29A0 DUP2 DUP6 PUSH1 0x20 DUP7 ADD PUSH2 0x27D6 JUMP JUMPDEST PUSH2 0x29A9 DUP2 PUSH2 0x24F2 JUMP JUMPDEST DUP5 ADD SWAP2 POP POP SWAP3 SWAP2 POP POP JUMP JUMPDEST PUSH1 0x0 PUSH2 0x29C0 DUP4 DUP4 PUSH2 0x297B JUMP JUMPDEST SWAP1 POP SWAP3 SWAP2 POP POP JUMP JUMPDEST PUSH1 0x0 PUSH1 0x20 DUP3 ADD SWAP1 POP SWAP2 SWAP1 POP JUMP JUMPDEST PUSH1 0x0 PUSH2 0x29E0 DUP3 PUSH2 0x293E JUMP JUMPDEST PUSH2 0x29EA DUP2 DUP6 PUSH2 0x2949 JUMP JUMPDEST SWAP4 POP DUP4 PUSH1 0x20 DUP3 MUL DUP6 ADD PUSH2 0x29FC DUP6 PUSH2 0x295A JUMP JUMPDEST DUP1 PUSH1 0x0 JUMPDEST DUP6 DUP2 LT ISZERO PUSH2 0x2A38 JUMPI DUP5 DUP5 SUB DUP10 MSTORE DUP2 MLOAD PUSH2 0x2A19 DUP6 DUP3 PUSH2 0x29B4 JUMP JUMPDEST SWAP5 POP PUSH2 0x2A24 DUP4 PUSH2 0x29C8 JUMP JUMPDEST SWAP3 POP PUSH1 0x20 DUP11 ADD SWAP10 POP POP PUSH1 0x1 DUP2 ADD SWAP1 POP PUSH2 0x2A00 JUMP JUMPDEST POP DUP3 SWAP8 POP DUP8 SWAP6 POP POP POP POP POP POP SWAP3 SWAP2 POP POP JUMP JUMPDEST PUSH1 0x0 DUP2 MLOAD SWAP1 POP SWAP2 SWAP1 POP JUMP JUMPDEST PUSH1 0x0 DUP3 DUP3 MSTORE PUSH1 0x20 DUP3 ADD SWAP1 POP SWAP3 SWAP2 POP POP JUMP JUMPDEST PUSH1 0x0 DUP2 SWAP1 POP PUSH1 0x20 DUP3 ADD SWAP1 POP SWAP2 SWAP1 POP JUMP JUMPDEST PUSH2 0x2A7F DUP2 PUSH2 0x268C JUMP JUMPDEST DUP3 MSTORE POP POP JUMP JUMPDEST PUSH1 0x0 PUSH2 0x2A91 DUP4 DUP4 PUSH2 0x2A76 JUMP JUMPDEST PUSH1 0x20 DUP4 ADD SWAP1 POP SWAP3 SWAP2 POP POP JUMP JUMPDEST PUSH1 0x0 PUSH1 0x20 DUP3 ADD SWAP1 POP SWAP2 SWAP1 POP JUMP JUMPDEST PUSH1 0x0 PUSH2 0x2AB5 DUP3 PUSH2 0x2A4A JUMP JUMPDEST PUSH2 0x2ABF DUP2 DUP6 PUSH2 0x2A55 JUMP JUMPDEST SWAP4 POP PUSH2 0x2ACA DUP4 PUSH2 0x2A66 JUMP JUMPDEST DUP1 PUSH1 0x0 JUMPDEST DUP4 DUP2 LT ISZERO PUSH2 0x2AFB JUMPI DUP2 MLOAD PUSH2 0x2AE2 DUP9 DUP3 PUSH2 0x2A85 JUMP JUMPDEST SWAP8 POP PUSH2 0x2AED DUP4 PUSH2 0x2A9D JUMP JUMPDEST SWAP3 POP POP PUSH1 0x1 DUP2 ADD SWAP1 POP PUSH2 0x2ACE JUMP JUMPDEST POP DUP6 SWAP4 POP POP POP POP SWAP3 SWAP2 POP POP JUMP JUMPDEST PUSH1 0x0 PUSH2 0x100 DUP3 ADD SWAP1 POP DUP2 DUP2 SUB PUSH1 0x0 DUP4 ADD MSTORE PUSH2 0x2B23 DUP2 DUP12 PUSH2 0x29D5 JUMP JUMPDEST SWAP1 POP DUP2 DUP2 SUB PUSH1 0x20 DUP4 ADD MSTORE PUSH2 0x2B37 DUP2 DUP11 PUSH2 0x2AAA JUMP JUMPDEST SWAP1 POP DUP2 DUP2 SUB PUSH1 0x40 DUP4 ADD MSTORE PUSH2 0x2B4B DUP2 DUP10 PUSH2 0x2AAA JUMP JUMPDEST SWAP1 POP DUP2 DUP2 SUB PUSH1 0x60 DUP4 ADD MSTORE PUSH2 0x2B5F DUP2 DUP9 PUSH2 0x2AAA JUMP JUMPDEST SWAP1 POP DUP2 DUP2 SUB PUSH1 0x80 DUP4 ADD MSTORE PUSH2 0x2B73 DUP2 DUP8 PUSH2 0x2AAA JUMP JUMPDEST SWAP1 POP DUP2 DUP2 SUB PUSH1 0xA0 DUP4 ADD MSTORE PUSH2 0x2B87 DUP2 DUP7 PUSH2 0x29D5 JUMP JUMPDEST SWAP1 POP DUP2 DUP2 SUB PUSH1 0xC0 DUP4 ADD MSTORE PUSH2 0x2B9B DUP2 DUP6 PUSH2 0x29D5 JUMP JUMPDEST SWAP1 POP DUP2 DUP2 SUB PUSH1 0xE0 DUP4 ADD MSTORE PUSH2 0x2BAF DUP2 DUP5 PUSH2 0x29D5 JUMP JUMPDEST SWAP1 POP SWAP10 SWAP9 POP POP POP POP POP POP POP POP POP JUMP JUMPDEST PUSH1 0x0 PUSH1 0x40 DUP3 ADD SWAP1 POP DUP2 DUP2 SUB PUSH1 0x0 DUP4 ADD MSTORE PUSH2 0x2BD8 DUP2 DUP6 PUSH2 0x2800 JUMP JUMPDEST SWAP1 POP PUSH2 0x2BE7 PUSH1 0x20 DUP4 ADD DUP5 PUSH2 0x2839 JUMP JUMPDEST SWAP4 SWAP3 POP POP POP JUMP JUMPDEST PUSH1 0x0 PUSH1 0xE0 DUP3 ADD SWAP1 POP DUP2 DUP2 SUB PUSH1 0x0 DUP4 ADD MSTORE PUSH2 0x2C08 DUP2 DUP11 PUSH2 0x29D5 JUMP JUMPDEST SWAP1 POP DUP2 DUP2 SUB PUSH1 0x20 DUP4 ADD MSTORE PUSH2 0x2C1C DUP2 DUP10 PUSH2 0x2AAA JUMP JUMPDEST SWAP1 POP DUP2 DUP2 SUB PUSH1 0x40 DUP4 ADD MSTORE PUSH2 0x2C30 DUP2 DUP9 PUSH2 0x2AAA JUMP JUMPDEST SWAP1 POP DUP2 DUP2 SUB PUSH1 0x60 DUP4 ADD MSTORE PUSH2 0x2C44 DUP2 DUP8 PUSH2 0x2AAA JUMP JUMPDEST SWAP1 POP DUP2 DUP2 SUB PUSH1 0x80 DUP4 ADD MSTORE PUSH2 0x2C58 DUP2 DUP7 PUSH2 0x29D5 JUMP JUMPDEST SWAP1 POP DUP2 DUP2 SUB PUSH1 0xA0 DUP4 ADD MSTORE PUSH2 0x2C6C DUP2 DUP6 PUSH2 0x29D5 JUMP JUMPDEST SWAP1 POP DUP2 DUP2 SUB PUSH1 0xC0 DUP4 ADD MSTORE PUSH2 0x2C80 DUP2 DUP5 PUSH2 0x29D5 JUMP JUMPDEST SWAP1 POP SWAP9 SWAP8 POP POP POP POP POP POP POP POP JUMP JUMPDEST PUSH1 0x0 PUSH1 0x20 DUP3 DUP5 SUB SLT ISZERO PUSH2 0x2CA4 JUMPI PUSH2 0x2CA3 PUSH2 0x24DE JUMP JUMPDEST JUMPDEST PUSH1 0x0 PUSH2 0x2CB2 DUP5 DUP3 DUP6 ADD PUSH2 0x2677 JUMP JUMPDEST SWAP2 POP POP SWAP3 SWAP2 POP POP JUMP JUMPDEST PUSH1 0x0 DUP2 ISZERO ISZERO SWAP1 POP SWAP2 SWAP1 POP JUMP JUMPDEST PUSH2 0x2CD0 DUP2 PUSH2 0x2CBB JUMP JUMPDEST DUP3 MSTORE POP POP JUMP JUMPDEST PUSH1 0x0 PUSH1 0x20 DUP3 ADD SWAP1 POP PUSH2 0x2CEB PUSH1 0x0 DUP4 ADD DUP5 PUSH2 0x2CC7 JUMP JUMPDEST SWAP3 SWAP2 POP POP JUMP JUMPDEST PUSH1 0x0 PUSH2 0x140 DUP3 ADD SWAP1 POP DUP2 DUP2 SUB PUSH1 0x0 DUP4 ADD MSTORE PUSH2 0x2D0C DUP2 DUP14 PUSH2 0x2800 JUMP JUMPDEST SWAP1 POP PUSH2 0x2D1B PUSH1 0x20 DUP4 ADD DUP13 PUSH2 0x288D JUMP JUMPDEST PUSH2 0x2D28 PUSH1 0x40 DUP4 ADD DUP12 PUSH2 0x288D JUMP JUMPDEST PUSH2 0x2D35 PUSH1 0x60 DUP4 ADD DUP11 PUSH2 0x288D JUMP JUMPDEST PUSH2 0x2D42 PUSH1 0x80 DUP4 ADD DUP10 PUSH2 0x288D JUMP JUMPDEST DUP2 DUP2 SUB PUSH1 0xA0 DUP4 ADD MSTORE PUSH2 0x2D54 DUP2 DUP9 PUSH2 0x2800 JUMP JUMPDEST SWAP1 POP PUSH2 0x2D63 PUSH1 0xC0 DUP4 ADD DUP8 PUSH2 0x288D JUMP JUMPDEST DUP2 DUP2 SUB PUSH1 0xE0 DUP4 ADD MSTORE PUSH2 0x2D75 DUP2 DUP7 PUSH2 0x2800 JUMP JUMPDEST SWAP1 POP DUP2 DUP2 SUB PUSH2 0x100 DUP4 ADD MSTORE PUSH2 0x2D8A DUP2 DUP6 PUSH2 0x2800 JUMP JUMPDEST SWAP1 POP DUP2 DUP2 SUB PUSH2 0x120 DUP4 ADD MSTORE PUSH2 0x2D9F DUP2 DUP5 PUSH2 0x2800 JUMP JUMPDEST SWAP1 POP SWAP12 SWAP11 POP POP POP POP POP POP POP POP POP POP POP JUMP JUMPDEST PUSH1 0x0 DUP1 PUSH1 0x0 PUSH1 0x60 DUP5 DUP7 SUB SLT ISZERO PUSH2 0x2DC9 JUMPI PUSH2 0x2DC8 PUSH2 0x24DE JUMP JUMPDEST JUMPDEST PUSH1 0x0 PUSH2 0x2DD7 DUP7 DUP3 DUP8 ADD PUSH2 0x26AD JUMP JUMPDEST SWAP4 POP POP PUSH1 0x20 DUP5 ADD CALLDATALOAD PUSH8 0xFFFFFFFFFFFFFFFF DUP2 GT ISZERO PUSH2 0x2DF8 JUMPI PUSH2 0x2DF7 PUSH2 0x24E3 JUMP JUMPDEST JUMPDEST PUSH2 0x2E04 DUP7 DUP3 DUP8 ADD PUSH2 0x2600 JUMP JUMPDEST SWAP3 POP POP PUSH1 0x40 DUP5 ADD CALLDATALOAD PUSH8 0xFFFFFFFFFFFFFFFF DUP2 GT ISZERO PUSH2 0x2E25 JUMPI PUSH2 0x2E24 PUSH2 0x24E3 JUMP JUMPDEST JUMPDEST PUSH2 0x2E31 DUP7 DUP3 DUP8 ADD PUSH2 0x2600 JUMP JUMPDEST SWAP2 POP POP SWAP3 POP SWAP3 POP SWAP3 JUMP JUMPDEST PUSH1 0x0 DUP1 PUSH1 0x0 DUP1 PUSH1 0x0 DUP1 PUSH1 0xC0 DUP8 DUP10 SUB SLT ISZERO PUSH2 0x2E58 JUMPI PUSH2 0x2E57 PUSH2 0x24DE JUMP JUMPDEST JUMPDEST PUSH1 0x0 DUP8 ADD CALLDATALOAD PUSH8 0xFFFFFFFFFFFFFFFF DUP2 GT ISZERO PUSH2 0x2E76 JUMPI PUSH2 0x2E75 PUSH2 0x24E3 JUMP JUMPDEST JUMPDEST PUSH2 0x2E82 DUP10 DUP3 DUP11 ADD PUSH2 0x2600 JUMP JUMPDEST SWAP7 POP POP PUSH1 0x20 PUSH2 0x2E93 DUP10 DUP3 DUP11 ADD PUSH2 0x26AD JUMP JUMPDEST SWAP6 POP POP PUSH1 0x40 PUSH2 0x2EA4 DUP10 DUP3 DUP11 ADD PUSH2 0x26AD JUMP JUMPDEST SWAP5 POP POP PUSH1 0x60 PUSH2 0x2EB5 DUP10 DUP3 DUP11 ADD PUSH2 0x26AD JUMP JUMPDEST SWAP4 POP POP PUSH1 0x80 PUSH2 0x2EC6 DUP10 DUP3 DUP11 ADD PUSH2 0x26AD JUMP JUMPDEST SWAP3 POP POP PUSH1 0xA0 DUP8 ADD CALLDATALOAD PUSH8 0xFFFFFFFFFFFFFFFF DUP2 GT ISZERO PUSH2 0x2EE7 JUMPI PUSH2 0x2EE6 PUSH2 0x24E3 JUMP JUMPDEST JUMPDEST PUSH2 0x2EF3 DUP10 DUP3 DUP11 ADD PUSH2 0x2600 JUMP JUMPDEST SWAP2 POP POP SWAP3 SWAP6 POP SWAP3 SWAP6 POP SWAP3 SWAP6 JUMP JUMPDEST PUSH1 0x0 PUSH1 0x20 DUP3 ADD SWAP1 POP PUSH2 0x2F15 PUSH1 0x0 DUP4 ADD DUP5 PUSH2 0x2839 JUMP JUMPDEST SWAP3 SWAP2 POP POP JUMP JUMPDEST PUSH32 0x4E487B7100000000000000000000000000000000000000000000000000000000 PUSH1 0x0 MSTORE PUSH1 0x32 PUSH1 0x4 MSTORE PUSH1 0x24 PUSH1 0x0 REVERT JUMPDEST PUSH32 0x4E487B7100000000000000000000000000000000000000000000000000000000 PUSH1 0x0 MSTORE PUSH1 0x11 PUSH1 0x4 MSTORE PUSH1 0x24 PUSH1 0x0 REVERT JUMPDEST PUSH1 0x0 PUSH2 0x2F84 DUP3 PUSH2 0x268C JUMP JUMPDEST SWAP2 POP PUSH32 0xFFFFFFFFFFFFFFFFFFFFFFFFFFFFFFFFFFFFFFFFFFFFFFFFFFFFFFFFFFFFFFFF DUP3 SUB PUSH2 0x2FB6 JUMPI PUSH2 0x2FB5 PUSH2 0x2F4A JUMP JUMPDEST JUMPDEST PUSH1 0x1 DUP3 ADD SWAP1 POP SWAP2 SWAP1 POP JUMP JUMPDEST PUSH32 0x596F7520617265206E6F742061207265676973746572656420686F7370697461 PUSH1 0x0 DUP3 ADD MSTORE PUSH32 0x6C00000000000000000000000000000000000000000000000000000000000000 PUSH1 0x20 DUP3 ADD MSTORE POP JUMP JUMPDEST PUSH1 0x0 PUSH2 0x301D PUSH1 0x21 DUP4 PUSH2 0x27C5 JUMP JUMPDEST SWAP2 POP PUSH2 0x3028 DUP3 PUSH2 0x2FC1 JUMP JUMPDEST PUSH1 0x40 DUP3 ADD SWAP1 POP SWAP2 SWAP1 POP JUMP JUMPDEST PUSH1 0x0 PUSH1 0x20 DUP3 ADD SWAP1 POP DUP2 DUP2 SUB PUSH1 0x0 DUP4 ADD MSTORE PUSH2 0x304C DUP2 PUSH2 0x3010 JUMP JUMPDEST SWAP1 POP SWAP2 SWAP1 POP JUMP JUMPDEST PUSH32 0x496E76616C696420686F73706974616C20696E64657800000000000000000000 PUSH1 0x0 DUP3 ADD MSTORE POP JUMP JUMPDEST PUSH1 0x0 PUSH2 0x3089 PUSH1 0x16 DUP4 PUSH2 0x27C5 JUMP JUMPDEST SWAP2 POP PUSH2 0x3094 DUP3 PUSH2 0x3053 JUMP JUMPDEST PUSH1 0x20 DUP3 ADD SWAP1 POP SWAP2 SWAP1 POP JUMP JUMPDEST PUSH1 0x0 PUSH1 0x20 DUP3 ADD SWAP1 POP DUP2 DUP2 SUB PUSH1 0x0 DUP4 ADD MSTORE PUSH2 0x30B8 DUP2 PUSH2 0x307C JUMP JUMPDEST SWAP1 POP SWAP2 SWAP1 POP JUMP JUMPDEST PUSH32 0x4E487B7100000000000000000000000000000000000000000000000000000000 PUSH1 0x0 MSTORE PUSH1 0x22 PUSH1 0x4 MSTORE PUSH1 0x24 PUSH1 0x0 REVERT JUMPDEST PUSH1 0x0 PUSH1 0x2 DUP3 DIV SWAP1 POP PUSH1 0x1 DUP3 AND DUP1 PUSH2 0x3106 JUMPI PUSH1 0x7F DUP3 AND SWAP2 POP JUMPDEST PUSH1 0x20 DUP3 LT DUP2 SUB PUSH2 0x3119 JUMPI PUSH2 0x3118 PUSH2 0x30BF JUMP JUMPDEST JUMPDEST POP SWAP2 SWAP1 POP JUMP JUMPDEST PUSH1 0x0 DUP2 SWAP1 POP DUP2 PUSH1 0x0 MSTORE PUSH1 0x20 PUSH1 0x0 KECCAK256 SWAP1 POP SWAP2 SWAP1 POP JUMP JUMPDEST PUSH1 0x0 PUSH1 0x20 PUSH1 0x1F DUP4 ADD DIV SWAP1 POP SWAP2 SWAP1 POP JUMP JUMPDEST PUSH1 0x0 DUP3 DUP3 SHL SWAP1 POP SWAP3 SWAP2 POP POP JUMP JUMPDEST PUSH1 0x0 PUSH1 0x8 DUP4 MUL PUSH2 0x3181 PUSH32 0xFFFFFFFFFFFFFFFFFFFFFFFFFFFFFFFFFFFFFFFFFFFFFFFFFFFFFFFFFFFFFFFF DUP3 PUSH2 0x3144 JUMP JUMPDEST PUSH2 0x318B DUP7 DUP4 PUSH2 0x3144 JUMP JUMPDEST SWAP6 POP DUP1 NOT DUP5 AND SWAP4 POP DUP1 DUP7 AND DUP5 OR SWAP3 POP POP POP SWAP4 SWAP3 POP POP POP JUMP JUMPDEST PUSH1 0x0 DUP2 SWAP1 POP SWAP2 SWAP1 POP JUMP JUMPDEST PUSH1 0x0 PUSH2 0x31C8 PUSH2 0x31C3 PUSH2 0x31BE DUP5 PUSH2 0x268C JUMP JUMPDEST PUSH2 0x31A3 JUMP JUMPDEST PUSH2 0x268C JUMP JUMPDEST SWAP1 POP SWAP2 SWAP1 POP JUMP JUMPDEST PUSH1 0x0 DUP2 SWAP1 POP SWAP2 SWAP1 POP JUMP JUMPDEST PUSH2 0x31E2 DUP4 PUSH2 0x31AD JUMP JUMPDEST PUSH2 0x31F6 PUSH2 0x31EE DUP3 PUSH2 0x31CF JUMP JUMPDEST DUP5 DUP5 SLOAD PUSH2 0x3151 JUMP JUMPDEST DUP3 SSTORE POP POP POP POP JUMP JUMPDEST PUSH1 0x0 SWAP1 JUMP JUMPDEST PUSH2 0x320B PUSH2 0x31FE JUMP JUMPDEST PUSH2 0x3216 DUP2 DUP5 DUP5 PUSH2 0x31D9 JUMP JUMPDEST POP POP POP JUMP JUMPDEST JUMPDEST DUP2 DUP2 LT ISZERO PUSH2 0x323A JUMPI PUSH2 0x322F PUSH1 0x0 DUP3 PUSH2 0x3203 JUMP JUMPDEST PUSH1 0x1 DUP2 ADD SWAP1 POP PUSH2 0x321C JUMP JUMPDEST POP POP JUMP JUMPDEST PUSH1 0x1F DUP3 GT ISZERO PUSH2 0x327F JUMPI PUSH2 0x3250 DUP2 PUSH2 0x311F JUMP JUMPDEST PUSH2 0x3259 DUP5 PUSH2 0x3134 JUMP JUMPDEST DUP2 ADD PUSH1 0x20 DUP6 LT ISZERO PUSH2 0x3268 JUMPI DUP2 SWAP1 POP JUMPDEST PUSH2 0x327C PUSH2 0x3274 DUP6 PUSH2 0x3134 JUMP JUMPDEST DUP4 ADD DUP3 PUSH2 0x321B JUMP JUMPDEST POP POP JUMPDEST POP POP POP JUMP JUMPDEST PUSH1 0x0 DUP3 DUP3 SHR SWAP1 POP SWAP3 SWAP2 POP POP JUMP JUMPDEST PUSH1 0x0 PUSH2 0x32A2 PUSH1 0x0 NOT DUP5 PUSH1 0x8 MUL PUSH2 0x3284 JUMP JUMPDEST NOT DUP1 DUP4 AND SWAP2 POP POP SWAP3 SWAP2 POP POP JUMP JUMPDEST PUSH1 0x0 PUSH2 0x32BB DUP4 DUP4 PUSH2 0x3291 JUMP JUMPDEST SWAP2 POP DUP3 PUSH1 0x2 MUL DUP3 OR SWAP1 POP SWAP3 SWAP2 POP POP JUMP JUMPDEST PUSH2 0x32D4 DUP3 PUSH2 0x27BA JUMP JUMPDEST PUSH8 0xFFFFFFFFFFFFFFFF DUP2 GT ISZERO PUSH2 0x32ED JUMPI PUSH2 0x32EC PUSH2 0x2503 JUMP JUMPDEST JUMPDEST PUSH2 0x32F7 DUP3 SLOAD PUSH2 0x30EE JUMP JUMPDEST PUSH2 0x3302 DUP3 DUP3 DUP6 PUSH2 0x323E JUMP JUMPDEST PUSH1 0x0 PUSH1 0x20 SWAP1 POP PUSH1 0x1F DUP4 GT PUSH1 0x1 DUP2 EQ PUSH2 0x3335 JUMPI PUSH1 0x0 DUP5 ISZERO PUSH2 0x3323 JUMPI DUP3 DUP8 ADD MLOAD SWAP1 POP JUMPDEST PUSH2 0x332D DUP6 DUP3 PUSH2 0x32AF JUMP JUMPDEST DUP7 SSTORE POP PUSH2 0x3395 JUMP JUMPDEST PUSH1 0x1F NOT DUP5 AND PUSH2 0x3343 DUP7 PUSH2 0x311F JUMP JUMPDEST PUSH1 0x0 JUMPDEST DUP3 DUP2 LT ISZERO PUSH2 0x336B JUMPI DUP5 DUP10 ADD MLOAD DUP3 SSTORE PUSH1 0x1 DUP3 ADD SWAP2 POP PUSH1 0x20 DUP6 ADD SWAP5 POP PUSH1 0x20 DUP2 ADD SWAP1 POP PUSH2 0x3346 JUMP JUMPDEST DUP7 DUP4 LT ISZERO PUSH2 0x3388 JUMPI DUP5 DUP10 ADD MLOAD PUSH2 0x3384 PUSH1 0x1F DUP10 AND DUP3 PUSH2 0x3291 JUMP JUMPDEST DUP4 SSTORE POP JUMPDEST PUSH1 0x1 PUSH1 0x2 DUP9 MUL ADD DUP9 SSTORE POP POP POP JUMPDEST POP POP POP POP POP POP JUMP JUMPDEST PUSH32 0x4F6E6C79207468652061646D696E2063616E20706572666F726D207468697320 PUSH1 0x0 DUP3 ADD MSTORE PUSH32 0x6F7065726174696F6E0000000000000000000000000000000000000000000000 PUSH1 0x20 DUP3 ADD MSTORE POP JUMP JUMPDEST PUSH1 0x0 PUSH2 0x33F9 PUSH1 0x29 DUP4 PUSH2 0x27C5 JUMP JUMPDEST SWAP2 POP PUSH2 0x3404 DUP3 PUSH2 0x339D JUMP JUMPDEST PUSH1 0x40 DUP3 ADD SWAP1 POP SWAP2 SWAP1 POP JUMP JUMPDEST PUSH1 0x0 PUSH1 0x20 DUP3 ADD SWAP1 POP DUP2 DUP2 SUB PUSH1 0x0 DUP4 ADD MSTORE PUSH2 0x3428 DUP2 PUSH2 0x33EC JUMP JUMPDEST SWAP1 POP SWAP2 SWAP1 POP JUMP JUMPDEST PUSH32 0x496E76616C696420646F63746F7220696E646578000000000000000000000000 PUSH1 0x0 DUP3 ADD MSTORE POP JUMP JUMPDEST PUSH1 0x0 PUSH2 0x3465 PUSH1 0x14 DUP4 PUSH2 0x27C5 JUMP JUMPDEST SWAP2 POP PUSH2 0x3470 DUP3 PUSH2 0x342F JUMP JUMPDEST PUSH1 0x20 DUP3 ADD SWAP1 POP SWAP2 SWAP1 POP JUMP JUMPDEST PUSH1 0x0 PUSH1 0x20 DUP3 ADD SWAP1 POP DUP2 DUP2 SUB PUSH1 0x0 DUP4 ADD MSTORE PUSH2 0x3494 DUP2 PUSH2 0x3458 JUMP JUMPDEST SWAP1 POP SWAP2 SWAP1 POP JUMP JUMPDEST PUSH1 0x0 DUP2 SWAP1 POP SWAP3 SWAP2 POP POP JUMP JUMPDEST PUSH1 0x0 DUP2 SWAP1 POP DUP2 PUSH1 0x0 MSTORE PUSH1 0x20 PUSH1 0x0 KECCAK256 SWAP1 POP SWAP2 SWAP1 POP JUMP JUMPDEST PUSH1 0x0 DUP2 SLOAD PUSH2 0x34C8 DUP2 PUSH2 0x30EE JUMP JUMPDEST PUSH2 0x34D2 DUP2 DUP7 PUSH2 0x349B JUMP JUMPDEST SWAP5 POP PUSH1 0x1 DUP3 AND PUSH1 0x0 DUP2 EQ PUSH2 0x34ED JUMPI PUSH1 0x1 DUP2 EQ PUSH2 0x3502 JUMPI PUSH2 0x3535 JUMP JUMPDEST PUSH1 0xFF NOT DUP4 AND DUP7 MSTORE DUP2 ISZERO ISZERO DUP3 MUL DUP7 ADD SWAP4 POP PUSH2 0x3535 JUMP JUMPDEST PUSH2 0x350B DUP6 PUSH2 0x34A6 JUMP JUMPDEST PUSH1 0x0 JUMPDEST DUP4 DUP2 LT ISZERO PUSH2 0x352D JUMPI DUP2 SLOAD DUP2 DUP10 ADD MSTORE PUSH1 0x1 DUP3 ADD SWAP2 POP PUSH1 0x20 DUP2 ADD SWAP1 POP PUSH2 0x350E JUMP JUMPDEST DUP4 DUP9 ADD SWAP6 POP POP POP JUMPDEST POP POP POP SWAP3 SWAP2 POP POP JUMP JUMPDEST PUSH1 0x0 PUSH2 0x354A DUP3 DUP5 PUSH2 0x34BB JUMP JUMPDEST SWAP2 POP DUP2 SWAP1 POP SWAP3 SWAP2 POP POP JUMP JUMPDEST PUSH32 0x796F7520617265206E6F742061207265676973746572656420646F63746F7200 PUSH1 0x0 DUP3 ADD MSTORE POP JUMP JUMPDEST PUSH1 0x0 PUSH2 0x358B PUSH1 0x1F DUP4 PUSH2 0x27C5 JUMP JUMPDEST SWAP2 POP PUSH2 0x3596 DUP3 PUSH2 0x3555 JUMP JUMPDEST PUSH1 0x20 DUP3 ADD SWAP1 POP SWAP2 SWAP1 POP JUMP JUMPDEST PUSH1 0x0 PUSH1 0x20 DUP3 ADD SWAP1 POP DUP2 DUP2 SUB PUSH1 0x0 DUP4 ADD MSTORE PUSH2 0x35BA DUP2 PUSH2 0x357E JUMP JUMPDEST SWAP1 POP SWAP2 SWAP1 POP JUMP JUMPDEST PUSH32 0x496E76616C69642070617469656E7420696E6465780000000000000000000000 PUSH1 0x0 DUP3 ADD MSTORE POP JUMP JUMPDEST PUSH1 0x0 PUSH2 0x35F7 PUSH1 0x15 DUP4 PUSH2 0x27C5 JUMP JUMPDEST SWAP2 POP PUSH2 0x3602 DUP3 PUSH2 0x35C1 JUMP JUMPDEST PUSH1 0x20 DUP3 ADD SWAP1 POP SWAP2 SWAP1 POP JUMP JUMPDEST PUSH1 0x0 PUSH1 0x20 DUP3 ADD SWAP1 POP DUP2 DUP2 SUB PUSH1 0x0 DUP4 ADD MSTORE PUSH2 0x3626 DUP2 PUSH2 0x35EA JUMP JUMPDEST SWAP1 POP SWAP2 SWAP1 POP JUMP JUMPDEST PUSH1 0x0 PUSH1 0xC0 DUP3 ADD SWAP1 POP DUP2 DUP2 SUB PUSH1 0x0 DUP4 ADD MSTORE PUSH2 0x3647 DUP2 DUP10 PUSH2 0x2800 JUMP JUMPDEST SWAP1 POP PUSH2 0x3656 PUSH1 0x20 DUP4 ADD DUP9 PUSH2 0x288D JUMP JUMPDEST PUSH2 0x3663 PUSH1 0x40 DUP4 ADD DUP8 PUSH2 0x288D JUMP JUMPDEST PUSH2 0x3670 PUSH1 0x60 DUP4 ADD DUP7 PUSH2 0x288D JUMP JUMPDEST PUSH2 0x367D PUSH1 0x80 DUP4 ADD DUP6 PUSH2 0x288D JUMP JUMPDEST DUP2 DUP2 SUB PUSH1 0xA0 DUP4 ADD MSTORE PUSH2 0x368F DUP2 DUP5 PUSH2 0x2800 JUMP JUMPDEST SWAP1 POP SWAP8 SWAP7 POP POP POP POP POP POP POP JUMP INVALID LOG2 PUSH5 0x6970667358 0x22 SLT KECCAK256 MUL 0xEE MSTORE 0xF7 0xD2 CODESIZE 0xB4 SWAP2 GASLIMIT MULMOD DUP13 0x2A 0xBA PUSH7 0x11BF9FD7DE3D38 DUP12 0x2B PUSH8 0x26E717AEEDA2D22B PUSH5 0x736F6C6343 STOP ADDMOD SLT STOP CALLER "
				},
				"gasEstimates": {
					"creation": {
						"codeDepositCost": "2806800",
						"executionCost": "27328",
						"totalCost": "2834128"
					},
					"external": {
						"addDoctor(string,address,uint256)": "infinite",
						"addHospital(string,address)": "infinite",
						"addMedicalRecord(uint256,string,string)": "infinite",
						"addPatientDetails(string,uint256,uint256,uint256,uint256,string)": "infinite",
						"admin()": "2599",
						"doctors(uint256)": "infinite",
						"getDoctorByIndex(uint256)": "infinite",
						"getDoctorCount()": "2468",
						"getHospitalByIndex(uint256)": "infinite",
						"getHospitalCount()": "2555",
						"getPatientCount()": "2489",
						"getPatientDetailsByAadhar(uint256)": "infinite",
						"getPatientDetailsByName(string)": "infinite",
						"hospitals(uint256)": "infinite",
						"isDoctor(address)": "2934",
						"isPatient(address)": "2890",
						"patients(uint256)": "infinite"
					}
				},
				"methodIdentifiers": {
					"addDoctor(string,address,uint256)": "30ff6f15",
					"addHospital(string,address)": "4d099648",
					"addMedicalRecord(uint256,string,string)": "9e3b6565",
					"addPatientDetails(string,uint256,uint256,uint256,uint256,string)": "eb96ed9c",
					"admin()": "f851a440",
					"doctors(uint256)": "6efb1b84",
					"getDoctorByIndex(uint256)": "5a357c19",
					"getDoctorCount()": "79111c1c",
					"getHospitalByIndex(uint256)": "7fed33ff",
					"getHospitalCount()": "fe45a81d",
					"getPatientCount()": "c190665b",
					"getPatientDetailsByAadhar(uint256)": "846bcce2",
					"getPatientDetailsByName(string)": "7e0a63ac",
					"hospitals(uint256)": "81dc6fd2",
					"isDoctor(address)": "996440c6",
					"isPatient(address)": "8f9c79ed",
					"patients(uint256)": "93119a83"
				}
			},
			"storageLayout": {
				"storage": [
					{
						"astId": 3,
						"contract": "ehr1.sol:Hospital",
						"label": "admin",
						"offset": 0,
						"slot": "0",
						"type": "t_address"
					},
					{
						"astId": 40,
						"contract": "ehr1.sol:Hospital",
						"label": "hospitals",
						"offset": 0,
						"slot": "1",
						"type": "t_array(t_struct(HospitalInfo)8_storage)dyn_storage"
					},
					{
						"astId": 44,
						"contract": "ehr1.sol:Hospital",
						"label": "doctors",
						"offset": 0,
						"slot": "2",
						"type": "t_array(t_struct(Doctor)15_storage)dyn_storage"
					},
					{
						"astId": 48,
						"contract": "ehr1.sol:Hospital",
						"label": "patients",
						"offset": 0,
						"slot": "3",
						"type": "t_array(t_struct(Patient)36_storage)dyn_storage"
					},
					{
						"astId": 52,
						"contract": "ehr1.sol:Hospital",
						"label": "isPatient",
						"offset": 0,
						"slot": "4",
						"type": "t_mapping(t_address,t_bool)"
					},
					{
						"astId": 56,
						"contract": "ehr1.sol:Hospital",
						"label": "isDoctor",
						"offset": 0,
						"slot": "5",
						"type": "t_mapping(t_address,t_bool)"
					}
				],
				"types": {
					"t_address": {
						"encoding": "inplace",
						"label": "address",
						"numberOfBytes": "20"
					},
					"t_array(t_struct(Doctor)15_storage)dyn_storage": {
						"base": "t_struct(Doctor)15_storage",
						"encoding": "dynamic_array",
						"label": "struct Hospital.Doctor[]",
						"numberOfBytes": "32"
					},
					"t_array(t_struct(HospitalInfo)8_storage)dyn_storage": {
						"base": "t_struct(HospitalInfo)8_storage",
						"encoding": "dynamic_array",
						"label": "struct Hospital.HospitalInfo[]",
						"numberOfBytes": "32"
					},
					"t_array(t_struct(Patient)36_storage)dyn_storage": {
						"base": "t_struct(Patient)36_storage",
						"encoding": "dynamic_array",
						"label": "struct Hospital.Patient[]",
						"numberOfBytes": "32"
					},
					"t_bool": {
						"encoding": "inplace",
						"label": "bool",
						"numberOfBytes": "1"
					},
					"t_mapping(t_address,t_bool)": {
						"encoding": "mapping",
						"key": "t_address",
						"label": "mapping(address => bool)",
						"numberOfBytes": "32",
						"value": "t_bool"
					},
					"t_string_storage": {
						"encoding": "bytes",
						"label": "string",
						"numberOfBytes": "32"
					},
					"t_struct(Doctor)15_storage": {
						"encoding": "inplace",
						"label": "struct Hospital.Doctor",
						"members": [
							{
								"astId": 10,
								"contract": "ehr1.sol:Hospital",
								"label": "name",
								"offset": 0,
								"slot": "0",
								"type": "t_string_storage"
							},
							{
								"astId": 12,
								"contract": "ehr1.sol:Hospital",
								"label": "doctorAddress",
								"offset": 0,
								"slot": "1",
								"type": "t_address"
							},
							{
								"astId": 14,
								"contract": "ehr1.sol:Hospital",
								"label": "hospitalIndex",
								"offset": 0,
								"slot": "2",
								"type": "t_uint256"
							}
						],
						"numberOfBytes": "96"
					},
					"t_struct(HospitalInfo)8_storage": {
						"encoding": "inplace",
						"label": "struct Hospital.HospitalInfo",
						"members": [
							{
								"astId": 5,
								"contract": "ehr1.sol:Hospital",
								"label": "name",
								"offset": 0,
								"slot": "0",
								"type": "t_string_storage"
							},
							{
								"astId": 7,
								"contract": "ehr1.sol:Hospital",
								"label": "hospitalAddress",
								"offset": 0,
								"slot": "1",
								"type": "t_address"
							}
						],
						"numberOfBytes": "64"
					},
					"t_struct(Patient)36_storage": {
						"encoding": "inplace",
						"label": "struct Hospital.Patient",
						"members": [
							{
								"astId": 17,
								"contract": "ehr1.sol:Hospital",
								"label": "name",
								"offset": 0,
								"slot": "0",
								"type": "t_string_storage"
							},
							{
								"astId": 19,
								"contract": "ehr1.sol:Hospital",
								"label": "age",
								"offset": 0,
								"slot": "1",
								"type": "t_uint256"
							},
							{
								"astId": 21,
								"contract": "ehr1.sol:Hospital",
								"label": "height",
								"offset": 0,
								"slot": "2",
								"type": "t_uint256"
							},
							{
								"astId": 23,
								"contract": "ehr1.sol:Hospital",
								"label": "weight",
								"offset": 0,
								"slot": "3",
								"type": "t_uint256"
							},
							{
								"astId": 25,
								"contract": "ehr1.sol:Hospital",
								"label": "aadharNo",
								"offset": 0,
								"slot": "4",
								"type": "t_uint256"
							},
							{
								"astId": 27,
								"contract": "ehr1.sol:Hospital",
								"label": "patientAddress",
								"offset": 0,
								"slot": "5",
								"type": "t_string_storage"
							},
							{
								"astId": 29,
								"contract": "ehr1.sol:Hospital",
								"label": "hospitalIndex",
								"offset": 0,
								"slot": "6",
								"type": "t_uint256"
							},
							{
								"astId": 31,
								"contract": "ehr1.sol:Hospital",
								"label": "medicalReport",
								"offset": 0,
								"slot": "7",
								"type": "t_string_storage"
							},
							{
								"astId": 33,
								"contract": "ehr1.sol:Hospital",
								"label": "prescription",
								"offset": 0,
								"slot": "8",
								"type": "t_string_storage"
							},
							{
								"astId": 35,
								"contract": "ehr1.sol:Hospital",
								"label": "doctorname",
								"offset": 0,
								"slot": "9",
								"type": "t_string_storage"
							}
						],
						"numberOfBytes": "320"
					},
					"t_uint256": {
						"encoding": "inplace",
						"label": "uint256",
						"numberOfBytes": "32"
					}
				}
			},
			"userdoc": {
				"kind": "user",
				"methods": {},
				"version": 1
			}
		}
	}
}